{
  "contractName": "AddressResolver",
  "abi": [
    {
      "anonymous": false,
      "inputs": [
        {
          "indexed": false,
          "internalType": "bytes32",
          "name": "name",
          "type": "bytes32"
        },
        {
          "indexed": false,
          "internalType": "address",
          "name": "destination",
          "type": "address"
        }
      ],
      "name": "AddressImported",
      "type": "event",
      "stateMutability": "nonpayable"
    },
    {
      "anonymous": false,
      "inputs": [
        {
          "indexed": true,
          "internalType": "address",
          "name": "previousOwner",
          "type": "address"
        },
        {
          "indexed": true,
          "internalType": "address",
          "name": "newOwner",
          "type": "address"
        }
      ],
      "name": "OwnershipTransferred",
      "type": "event",
      "stateMutability": "nonpayable"
    },
    {
      "inputs": [
        {
          "internalType": "bytes32[]",
          "name": "names",
          "type": "bytes32[]"
        },
        {
          "internalType": "address[]",
          "name": "destinations",
          "type": "address[]"
        }
      ],
      "name": "areAddressesImported",
      "outputs": [
        {
          "internalType": "bool",
          "name": "",
          "type": "bool"
        }
      ],
      "stateMutability": "view",
      "type": "function"
    },
    {
      "inputs": [
        {
          "internalType": "bytes32",
          "name": "name",
          "type": "bytes32"
        }
      ],
      "name": "getAddress",
      "outputs": [
        {
          "internalType": "address",
          "name": "",
          "type": "address"
        }
      ],
      "stateMutability": "view",
      "type": "function"
    },
    {
      "inputs": [
        {
          "internalType": "bytes32[]",
          "name": "names",
          "type": "bytes32[]"
        },
        {
          "internalType": "address[]",
          "name": "destinations",
          "type": "address[]"
        }
      ],
      "name": "importAddresses",
      "outputs": [],
      "stateMutability": "nonpayable",
      "type": "function"
    },
    {
      "inputs": [],
      "name": "owner",
      "outputs": [
        {
          "internalType": "address",
          "name": "",
          "type": "address"
        }
      ],
      "stateMutability": "view",
      "type": "function"
    },
    {
      "inputs": [],
      "name": "renounceOwnership",
      "outputs": [],
      "stateMutability": "nonpayable",
      "type": "function"
    },
    {
      "inputs": [
        {
          "internalType": "bytes32",
          "name": "_key",
          "type": "bytes32"
        }
      ],
      "name": "repository",
      "outputs": [
        {
          "internalType": "address",
          "name": "",
          "type": "address"
        }
      ],
      "stateMutability": "view",
      "type": "function"
    },
    {
      "inputs": [
        {
          "internalType": "address",
          "name": "newOwner",
          "type": "address"
        }
      ],
      "name": "transferOwnership",
      "outputs": [],
      "stateMutability": "nonpayable",
      "type": "function"
    }
  ],
  "bytecode": "0x608060405234801561001057600080fd5b50d3801561001d57600080fd5b50d2801561002a57600080fd5b5061003433610039565b610089565b600080546001600160a01b038381166001600160a01b0319831681178455604051919092169283917f8be0079c531659141344cd1fd0a4f28419497f9722a3daafe3b4186f6b6457e09190a35050565b610633806100986000396000f3fe608060405234801561001057600080fd5b50d3801561001d57600080fd5b50d2801561002a57600080fd5b50600436106100975760003560e01c80638da5cb5b116100755780638da5cb5b146100ec5780639f42102f146100fd578063ab0b8f7714610120578063f2fde38b1461013357600080fd5b8063187f79351461009c57806321f8a7211461009c578063715018a6146100e2575b600080fd5b6100c56100aa3660046105a5565b6000908152600160205260409020546001600160a01b031690565b6040516001600160a01b0390911681526020015b60405180910390f35b6100ea610146565b005b6000546001600160a01b03166100c5565b61011061010b366004610539565b61015a565b60405190151581526020016100d9565b6100ea61012e366004610539565b6101fe565b6100ea6101413660046104f2565b61035f565b61014e6103ef565b6101586000610449565b565b6000805b848110156101f057838382818110610178576101786105e7565b905060200201602081019061018d91906104f2565b6001600160a01b0316600160008888858181106101ac576101ac6105e7565b60209081029290920135835250810191909152604001600020546001600160a01b0316146101de5760009150506101f6565b806101e8816105be565b91505061015e565b50600190505b949350505050565b6102066103ef565b8281146102805760405162461bcd60e51b815260206004820152602960248201527f416464726573735265736f6c7665723a20496e707574206c656e67746873206d60448201527f757374206d61746368000000000000000000000000000000000000000000000060648201526084015b60405180910390fd5b60005b8381101561035857600085858381811061029f5761029f6105e7565b90506020020135905060008484848181106102bc576102bc6105e7565b90506020020160208101906102d191906104f2565b600083815260016020908152604091829020805473ffffffffffffffffffffffffffffffffffffffff19166001600160a01b0385169081179091558251868152918201529192507fefe884cc7f82a6cf3cf68f64221519dcf96b5cae9048e1bb008ee32cd05aaa91910160405180910390a150508080610350906105be565b915050610283565b5050505050565b6103676103ef565b6001600160a01b0381166103e35760405162461bcd60e51b815260206004820152602660248201527f4f776e61626c653a206e6577206f776e657220697320746865207a65726f206160448201527f64647265737300000000000000000000000000000000000000000000000000006064820152608401610277565b6103ec81610449565b50565b6000546001600160a01b031633146101585760405162461bcd60e51b815260206004820181905260248201527f4f776e61626c653a2063616c6c6572206973206e6f7420746865206f776e65726044820152606401610277565b600080546001600160a01b0383811673ffffffffffffffffffffffffffffffffffffffff19831681178455604051919092169283917f8be0079c531659141344cd1fd0a4f28419497f9722a3daafe3b4186f6b6457e09190a35050565b60008083601f8401126104b857600080fd5b50813567ffffffffffffffff8111156104d057600080fd5b6020830191508360208260051b85010111156104eb57600080fd5b9250929050565b60006020828403121561050457600080fd5b813574ffffffffffffffffffffffffffffffffffffffffff8116811461052957600080fd5b6001600160a01b03169392505050565b6000806000806040858703121561054f57600080fd5b843567ffffffffffffffff8082111561056757600080fd5b610573888389016104a6565b9096509450602087013591508082111561058c57600080fd5b50610599878288016104a6565b95989497509550505050565b6000602082840312156105b757600080fd5b5035919050565b60006000198214156105e057634e487b7160e01b600052601160045260246000fd5b5060010190565b634e487b7160e01b600052603260045260246000fdfea26474726f6e58221220395dc2eb857db46708cafb94fdddf1f1200c15a8eb19728e76a868978c53ddbc64736f6c63430008060033",
  "source": "// SPDX-License-Identifier: SEE LICENSE IN LICENSE\npragma solidity ^0.8.6;\n\nimport \"./interfaces/IAddressResolver.sol\";\nimport \"@openzeppelin/contracts/access/Ownable.sol\";\n\ncontract AddressResolver is IAddressResolver, Ownable {\n    mapping(bytes32 => address) private _repository;\n\n    function repository(bytes32 _key) external view override returns (address) {\n        return _repository[_key];\n    }\n\n    function importAddresses(bytes32[] calldata names, address[] calldata destinations) external override onlyOwner {\n        require(names.length == destinations.length, \"AddressResolver: Input lengths must match\");\n\n        for (uint i = 0; i < names.length; i++) {\n            bytes32 name = names[i];\n            address destination = destinations[i];\n            _repository[name] = destination;\n            emit AddressImported(name, destination);\n        }\n    }\n\n    function areAddressesImported(bytes32[] calldata names, address[] calldata destinations) external view override returns (bool) {\n        for (uint i = 0; i < names.length; i++) {\n            if (_repository[names[i]] != destinations[i]) {\n                return false;\n            }\n        }\n        return true;\n    }\n\n    function getAddress(bytes32 name) external view override returns (address) {\n        return _repository[name];\n    }\n\n    function owner() public view override(IAddressResolver, Ownable) returns (address) {\n        return super.owner();\n    }\n\n    event AddressImported(bytes32 name, address destination);\n}\n",
  "sourcePath": "/Users/prasad/projects/synthex/contracts/contracts/AddressResolver.sol",
  "compiler": {
    "name": "solc",
    "version": "0.8.6+commit.0e36fba0.mod.Emscripten.clang"
  },
  "schemaVersion": "2.0.1",
  "updatedAt": "2022-10-18T05:13:13.110Z"
}