{
  "contractName": "CollateralERC20",
  "abi": [
    {
      "inputs": [
        {
          "internalType": "string",
          "name": "name",
          "type": "string"
        },
        {
          "internalType": "string",
          "name": "symbol",
          "type": "string"
        },
        {
          "internalType": "uint256",
          "name": "__decimals",
          "type": "uint256"
        },
        {
          "internalType": "address",
          "name": "__underlyingToken",
          "type": "address"
        },
        {
          "internalType": "address",
          "name": "_oracle",
          "type": "address"
        },
        {
          "internalType": "uint256",
          "name": "_minCollateral",
          "type": "uint256"
        },
        {
          "internalType": "contract ISystem",
          "name": "_system",
          "type": "address"
        }
      ],
      "stateMutability": "nonpayable",
      "type": "constructor"
    },
    {
      "anonymous": false,
      "inputs": [
        {
          "indexed": true,
          "internalType": "address",
          "name": "owner",
          "type": "address"
        },
        {
          "indexed": true,
          "internalType": "address",
          "name": "spender",
          "type": "address"
        },
        {
          "indexed": false,
          "internalType": "uint256",
          "name": "value",
          "type": "uint256"
        }
      ],
      "name": "Approval",
      "type": "event"
    },
    {
      "anonymous": false,
      "inputs": [
        {
          "indexed": false,
          "internalType": "uint256",
          "name": "",
          "type": "uint256"
        },
        {
          "indexed": false,
          "internalType": "uint256",
          "name": "",
          "type": "uint256"
        }
      ],
      "name": "MinCollateralUpdated",
      "type": "event"
    },
    {
      "anonymous": false,
      "inputs": [
        {
          "indexed": false,
          "internalType": "address",
          "name": "",
          "type": "address"
        },
        {
          "indexed": false,
          "internalType": "address",
          "name": "",
          "type": "address"
        }
      ],
      "name": "OracleUpdated",
      "type": "event"
    },
    {
      "anonymous": false,
      "inputs": [
        {
          "indexed": true,
          "internalType": "address",
          "name": "from",
          "type": "address"
        },
        {
          "indexed": true,
          "internalType": "address",
          "name": "to",
          "type": "address"
        },
        {
          "indexed": false,
          "internalType": "uint256",
          "name": "value",
          "type": "uint256"
        }
      ],
      "name": "Transfer",
      "type": "event"
    },
    {
      "inputs": [
        {
          "internalType": "address",
          "name": "owner",
          "type": "address"
        },
        {
          "internalType": "address",
          "name": "spender",
          "type": "address"
        }
      ],
      "name": "allowance",
      "outputs": [
        {
          "internalType": "uint256",
          "name": "",
          "type": "uint256"
        }
      ],
      "stateMutability": "view",
      "type": "function"
    },
    {
      "inputs": [
        {
          "internalType": "address",
          "name": "spender",
          "type": "address"
        },
        {
          "internalType": "uint256",
          "name": "amount",
          "type": "uint256"
        }
      ],
      "name": "approve",
      "outputs": [
        {
          "internalType": "bool",
          "name": "",
          "type": "bool"
        }
      ],
      "stateMutability": "nonpayable",
      "type": "function"
    },
    {
      "inputs": [
        {
          "internalType": "address",
          "name": "account",
          "type": "address"
        }
      ],
      "name": "balanceOf",
      "outputs": [
        {
          "internalType": "uint256",
          "name": "",
          "type": "uint256"
        }
      ],
      "stateMutability": "view",
      "type": "function"
    },
    {
      "inputs": [
        {
          "internalType": "address",
          "name": "account",
          "type": "address"
        },
        {
          "internalType": "uint256",
          "name": "amount",
          "type": "uint256"
        }
      ],
      "name": "burn",
      "outputs": [],
      "stateMutability": "nonpayable",
      "type": "function"
    },
    {
      "inputs": [],
      "name": "decimals",
      "outputs": [
        {
          "internalType": "uint8",
          "name": "",
          "type": "uint8"
        }
      ],
      "stateMutability": "view",
      "type": "function"
    },
    {
      "inputs": [
        {
          "internalType": "address",
          "name": "spender",
          "type": "address"
        },
        {
          "internalType": "uint256",
          "name": "subtractedValue",
          "type": "uint256"
        }
      ],
      "name": "decreaseAllowance",
      "outputs": [
        {
          "internalType": "bool",
          "name": "",
          "type": "bool"
        }
      ],
      "stateMutability": "nonpayable",
      "type": "function"
    },
    {
      "inputs": [],
      "name": "get_price",
      "outputs": [
        {
          "internalType": "uint256",
          "name": "",
          "type": "uint256"
        }
      ],
      "stateMutability": "view",
      "type": "function"
    },
    {
      "inputs": [
        {
          "internalType": "address",
          "name": "spender",
          "type": "address"
        },
        {
          "internalType": "uint256",
          "name": "addedValue",
          "type": "uint256"
        }
      ],
      "name": "increaseAllowance",
      "outputs": [
        {
          "internalType": "bool",
          "name": "",
          "type": "bool"
        }
      ],
      "stateMutability": "nonpayable",
      "type": "function"
    },
    {
      "inputs": [],
      "name": "minCollateral",
      "outputs": [
        {
          "internalType": "uint256",
          "name": "",
          "type": "uint256"
        }
      ],
      "stateMutability": "view",
      "type": "function"
    },
    {
      "inputs": [
        {
          "internalType": "address",
          "name": "account",
          "type": "address"
        },
        {
          "internalType": "uint256",
          "name": "amount",
          "type": "uint256"
        }
      ],
      "name": "mint",
      "outputs": [],
      "stateMutability": "nonpayable",
      "type": "function"
    },
    {
      "inputs": [],
      "name": "name",
      "outputs": [
        {
          "internalType": "string",
          "name": "",
          "type": "string"
        }
      ],
      "stateMutability": "view",
      "type": "function"
    },
    {
      "inputs": [],
      "name": "oracle",
      "outputs": [
        {
          "internalType": "contract IPriceOracle",
          "name": "",
          "type": "address"
        }
      ],
      "stateMutability": "view",
      "type": "function"
    },
    {
      "inputs": [
        {
          "internalType": "uint256",
          "name": "_newMinCollateral",
          "type": "uint256"
        }
      ],
      "name": "setMinCollateral",
      "outputs": [],
      "stateMutability": "nonpayable",
      "type": "function"
    },
    {
      "inputs": [
        {
          "internalType": "address",
          "name": "_oracle",
          "type": "address"
        }
      ],
      "name": "setPriceOracle",
      "outputs": [],
      "stateMutability": "nonpayable",
      "type": "function"
    },
    {
      "inputs": [],
      "name": "symbol",
      "outputs": [
        {
          "internalType": "string",
          "name": "",
          "type": "string"
        }
      ],
      "stateMutability": "view",
      "type": "function"
    },
    {
      "inputs": [],
      "name": "system",
      "outputs": [
        {
          "internalType": "contract ISystem",
          "name": "",
          "type": "address"
        }
      ],
      "stateMutability": "view",
      "type": "function"
    },
    {
      "inputs": [],
      "name": "totalSupply",
      "outputs": [
        {
          "internalType": "uint256",
          "name": "",
          "type": "uint256"
        }
      ],
      "stateMutability": "view",
      "type": "function"
    },
    {
      "inputs": [
        {
          "internalType": "address",
          "name": "to",
          "type": "address"
        },
        {
          "internalType": "uint256",
          "name": "amount",
          "type": "uint256"
        }
      ],
      "name": "transfer",
      "outputs": [
        {
          "internalType": "bool",
          "name": "",
          "type": "bool"
        }
      ],
      "stateMutability": "nonpayable",
      "type": "function"
    },
    {
      "inputs": [
        {
          "internalType": "address",
          "name": "from",
          "type": "address"
        },
        {
          "internalType": "address",
          "name": "to",
          "type": "address"
        },
        {
          "internalType": "uint256",
          "name": "amount",
          "type": "uint256"
        }
      ],
      "name": "transferFrom",
      "outputs": [
        {
          "internalType": "bool",
          "name": "",
          "type": "bool"
        }
      ],
      "stateMutability": "nonpayable",
      "type": "function"
    },
    {
      "inputs": [],
      "name": "underlyingToken",
      "outputs": [
        {
          "internalType": "address",
          "name": "",
          "type": "address"
        }
      ],
      "stateMutability": "view",
      "type": "function"
    }
  ],
  "bytecode": "0x60806040523480156200001157600080fd5b50d380156200001f57600080fd5b50d280156200002d57600080fd5b50604051620019bd380380620019bd83398101604081905262000050916200022e565b86518790879062000069906003906020850190620000d1565b5080516200007f906004906020840190620000d1565b505050600894909455600780546001600160a01b03199081166001600160a01b039586161790915560058054821693851693909317909255600655600980549091169190921617905550620003699050565b828054620000df90620002fd565b90600052602060002090601f0160209004810192826200010357600085556200014e565b82601f106200011e57805160ff19168380011785556200014e565b828001600101855582156200014e579182015b828111156200014e57825182559160200191906001019062000131565b506200015c92915062000160565b5090565b5b808211156200015c576000815560010162000161565b600082601f8301126200018957600080fd5b81516001600160401b0380821115620001a657620001a66200033a565b604051601f8301601f19908116603f01168101908282118183101715620001d157620001d16200033a565b81604052838152602092508683858801011115620001ee57600080fd5b600091505b83821015620002125785820183015181830184015290820190620001f3565b83821115620002245760008385830101525b9695505050505050565b600080600080600080600060e0888a0312156200024a57600080fd5b87516001600160401b03808211156200026257600080fd5b620002708b838c0162000177565b985060208a01519150808211156200028757600080fd5b50620002968a828b0162000177565b965050604088015194506060880151620002b08162000350565b60808901516001600160a01b03918216955090620002ce8262000350565b60a08a015160c08b015192821695509350620002ea8262000350565b8082169250505092959891949750929550565b600181811c908216806200031257607f821691505b602082108114156200033457634e487b7160e01b600052602260045260246000fd5b50919050565b634e487b7160e01b600052604160045260246000fd5b6001600160a81b03811681146200036657600080fd5b50565b61164480620003796000396000f3fe608060405234801561001057600080fd5b50d3801561001d57600080fd5b50d2801561002a57600080fd5b50600436106101865760003560e01c806370a08231116100e75780639dc29fac1161009b578063a9059cbb11610080578063a9059cbb14610302578063ba2de9bc14610315578063dd62ed3e1461031e57600080fd5b80639dc29fac146102dc578063a457c2d7146102ef57600080fd5b8063846321a4116100cc578063846321a4146102ae57806395bf75fd146102c157806395d89b41146102d457600080fd5b806370a08231146102725780637dc0d1d01461029b57600080fd5b80632495a5991161013e5780633950935111610123578063395093511461023757806340c10f191461024a578063530e784f1461025f57600080fd5b80632495a599146101fd578063313ce5671461022257600080fd5b806311f37ceb1161016f57806311f37ceb146101cc57806318160ddd146101e257806323b872dd146101ea57600080fd5b806306fdde031461018b578063095ea7b3146101a9575b600080fd5b610193610357565b6040516101a09190611513565b60405180910390f35b6101bc6101b73660046114ac565b6103e9565b60405190151581526020016101a0565b6101d4610401565b6040519081526020016101a0565b6002546101d4565b6101bc6101f836600461145e565b61049c565b6007546001600160a01b03165b6040516001600160a01b0390911681526020016101a0565b60085460405160ff90911681526020016101a0565b6101bc6102453660046114ac565b6104c0565b61025d6102583660046114ac565b6104ff565b005b61025d61026d3660046113ce565b6106e2565b6101d46102803660046113ce565b6001600160a01b031660009081526020819052604090205490565b60055461020a906001600160a01b031681565b61025d6102bc3660046114fa565b61086f565b60095461020a906001600160a01b031681565b6101936109bc565b61025d6102ea3660046114ac565b6109cb565b6101bc6102fd3660046114ac565b610ae1565b6101bc6103103660046114ac565b610b8b565b6101d460065481565b6101d461032c366004611418565b6001600160a01b03918216600090815260016020908152604080832093909416825291909152205490565b60606003805461036690611597565b80601f016020809104026020016040519081016040528092919081815260200182805461039290611597565b80156103df5780601f106103b4576101008083540402835291602001916103df565b820191906000526020600020905b8154815290600101906020018083116103c257829003601f168201915b5050505050905090565b6000336103f7818585610b99565b5060019392505050565b600554604080517f50d25bcd00000000000000000000000000000000000000000000000000000000815290516000926001600160a01b0316916350d25bcd916004808301926020929190829003018186803b15801561045f57600080fd5b505afa158015610473573d6000803e3d6000fd5b505050506040513d601f19601f8201168201806040525081019061049791906114e1565b905090565b6000336104aa858285610cf1565b6104b5858585610d83565b506001949350505050565b3360008181526001602090815260408083206001600160a01b03871684529091528120549091906103f790829086906104fa908790611568565b610b99565b600654811161057b5760405162461bcd60e51b815260206004820152603f60248201527f436f6c6c61746572616c45524332303a20416d6f756e74206d7573742062652060448201527f67726561746572207468616e206d696e696d756d20636f6c6c61746572616c0060648201526084015b60405180910390fd5b600960009054906101000a90046001600160a01b03166001600160a01b0316637c4fb53d6040518163ffffffff1660e01b815260040160206040518083038186803b1580156105c957600080fd5b505afa1580156105dd573d6000803e3d6000fd5b505050506040513d601f19601f8201168201806040525081019061060191906113fb565b6001600160a01b0316336001600160a01b0316146106875760405162461bcd60e51b815260206004820152603160248201527f436f6c6c61746572616c45524332303a204f6e6c7920436f6c6c61746572616c60448201527f204d616e616765722063616e206d696e740000000000000000000000000000006064820152608401610572565b6009546001600160a01b038084166000908152600160209081526040808320939094168252919091522054600019146106d4576009546106d49083906001600160a01b0316600019610b99565b6106de8282610fa0565b5050565b600960009054906101000a90046001600160a01b03166001600160a01b0316638da5cb5b6040518163ffffffff1660e01b815260040160206040518083038186803b15801561073057600080fd5b505afa158015610744573d6000803e3d6000fd5b505050506040513d601f19601f8201168201806040525081019061076891906113fb565b6001600160a01b0316336001600160a01b0316146107ee5760405162461bcd60e51b815260206004820152603060248201527f436f6c6c61746572616c45524332303a204f6e6c79206f776e65722063616e2060448201527f736574207072696365206f7261636c65000000000000000000000000000000006064820152608401610572565b600554604080516001600160a01b03928316815291831660208301527f078c3b417dadf69374a59793b829c52001247130433427049317bde56607b1b7910160405180910390a1600580547fffffffffffffffffffffffff0000000000000000000000000000000000000000166001600160a01b0392909216919091179055565b600960009054906101000a90046001600160a01b03166001600160a01b0316638da5cb5b6040518163ffffffff1660e01b815260040160206040518083038186803b1580156108bd57600080fd5b505afa1580156108d1573d6000803e3d6000fd5b505050506040513d601f19601f820116820180604052508101906108f591906113fb565b6001600160a01b0316336001600160a01b03161461097b5760405162461bcd60e51b815260206004820152603660248201527f436f6c6c61746572616c45524332303a204f6e6c79206f776e65722063616e2060448201527f736574206d696e696d756d20636f6c6c61746572616c000000000000000000006064820152608401610572565b60065460408051918252602082018390527f07e277c15cd9d160c3aefccdee9fc30af7959a5b0b6b9889e1e84b8ae6e0c462910160405180910390a1600655565b60606004805461036690611597565b600960009054906101000a90046001600160a01b03166001600160a01b0316637c4fb53d6040518163ffffffff1660e01b815260040160206040518083038186803b158015610a1957600080fd5b505afa158015610a2d573d6000803e3d6000fd5b505050506040513d601f19601f82011682018060405250810190610a5191906113fb565b6001600160a01b0316336001600160a01b031614610ad75760405162461bcd60e51b815260206004820152603160248201527f436f6c6c61746572616c45524332303a204f6e6c7920436f6c6c61746572616c60448201527f204d616e616765722063616e206275726e0000000000000000000000000000006064820152608401610572565b6106de8282611087565b3360008181526001602090815260408083206001600160a01b038716845290915281205490919083811015610b7e5760405162461bcd60e51b815260206004820152602560248201527f45524332303a2064656372656173656420616c6c6f77616e63652062656c6f7760448201527f207a65726f0000000000000000000000000000000000000000000000000000006064820152608401610572565b6104b58286868403610b99565b6000336103f7818585610d83565b6001600160a01b038316610c145760405162461bcd60e51b8152602060048201526024808201527f45524332303a20617070726f76652066726f6d20746865207a65726f2061646460448201527f72657373000000000000000000000000000000000000000000000000000000006064820152608401610572565b6001600160a01b038216610c905760405162461bcd60e51b815260206004820152602260248201527f45524332303a20617070726f766520746f20746865207a65726f20616464726560448201527f73730000000000000000000000000000000000000000000000000000000000006064820152608401610572565b6001600160a01b0383811660008181526001602090815260408083209487168084529482529182902085905590518481527f8c5be1e5ebec7d5bd14f71427d1e84f3dd0314c0f7b2291e5b200ac8c7c3b925910160405180910390a3505050565b6001600160a01b038381166000908152600160209081526040808320938616835292905220546000198114610d7d5781811015610d705760405162461bcd60e51b815260206004820152601d60248201527f45524332303a20696e73756666696369656e7420616c6c6f77616e63650000006044820152606401610572565b610d7d8484848403610b99565b50505050565b6001600160a01b038316610dff5760405162461bcd60e51b815260206004820152602560248201527f45524332303a207472616e736665722066726f6d20746865207a65726f20616460448201527f64726573730000000000000000000000000000000000000000000000000000006064820152608401610572565b6001600160a01b038216610e7b5760405162461bcd60e51b815260206004820152602360248201527f45524332303a207472616e7366657220746f20746865207a65726f206164647260448201527f65737300000000000000000000000000000000000000000000000000000000006064820152608401610572565b6001600160a01b03831660009081526020819052604090205481811015610f0a5760405162461bcd60e51b815260206004820152602660248201527f45524332303a207472616e7366657220616d6f756e742065786365656473206260448201527f616c616e636500000000000000000000000000000000000000000000000000006064820152608401610572565b6001600160a01b03808516600090815260208190526040808220858503905591851681529081208054849290610f41908490611568565b92505081905550826001600160a01b0316846001600160a01b03167fddf252ad1be2c89b69c2b068fc378daa952ba7f163c4a11628f55a4df523b3ef84604051610f8d91815260200190565b60405180910390a3610d7d848484611218565b6001600160a01b038216610ff65760405162461bcd60e51b815260206004820152601f60248201527f45524332303a206d696e7420746f20746865207a65726f2061646472657373006044820152606401610572565b80600260008282546110089190611568565b90915550506001600160a01b03821660009081526020819052604081208054839290611035908490611568565b90915550506040518181526001600160a01b038316906000907fddf252ad1be2c89b69c2b068fc378daa952ba7f163c4a11628f55a4df523b3ef9060200160405180910390a36106de60008383611218565b6001600160a01b0382166111035760405162461bcd60e51b815260206004820152602160248201527f45524332303a206275726e2066726f6d20746865207a65726f2061646472657360448201527f73000000000000000000000000000000000000000000000000000000000000006064820152608401610572565b6001600160a01b038216600090815260208190526040902054818110156111925760405162461bcd60e51b815260206004820152602260248201527f45524332303a206275726e20616d6f756e7420657863656564732062616c616e60448201527f63650000000000000000000000000000000000000000000000000000000000006064820152608401610572565b6001600160a01b03831660009081526020819052604081208383039055600280548492906111c1908490611580565b90915550506040518281526000906001600160a01b038516907fddf252ad1be2c89b69c2b068fc378daa952ba7f163c4a11628f55a4df523b3ef9060200160405180910390a361121383600084611218565b505050565b6001600160a01b0383161580159061123857506001600160a01b03821615155b1561121357600960009054906101000a90046001600160a01b03166001600160a01b031663b140bf036040518163ffffffff1660e01b8152600401602060405180830381600087803b15801561128d57600080fd5b505af11580156112a1573d6000803e3d6000fd5b505050506040513d601f19601f820116820180604052508101906112c591906114e1565b6009546040517fca40742c0000000000000000000000000000000000000000000000000000000081526001600160a01b0386811660048301529091169063ca40742c9060240160206040518083038186803b15801561132357600080fd5b505afa158015611337573d6000803e3d6000fd5b505050506040513d601f19601f8201168201806040525081019061135b91906114e1565b116112135760405162461bcd60e51b815260206004820152602660248201527f436f6c6c61746572616c45524332303a204e6f7420656e6f75676820636f6c6c60448201527f61746572616c00000000000000000000000000000000000000000000000000006064820152608401610572565b6000602082840312156113e057600080fd5b81356113eb816115e8565b6001600160a01b03169392505050565b60006020828403121561140d57600080fd5b81516113eb816115e8565b6000806040838503121561142b57600080fd5b8235611436816115e8565b6001600160a01b039081169250602084013590611452826115e8565b92959216935090915050565b60008060006060848603121561147357600080fd5b833561147e816115e8565b6001600160a01b03908116935060208501359061149a826115e8565b93969316945050506040919091013590565b600080604083850312156114bf57600080fd5b82356114ca816115e8565b6001600160a01b0316946020939093013593505050565b6000602082840312156114f357600080fd5b5051919050565b60006020828403121561150c57600080fd5b5035919050565b600060208083528351808285015260005b8181101561154057858101830151858201604001528201611524565b81811115611552576000604083870101525b50601f01601f1916929092016040019392505050565b6000821982111561157b5761157b6115d2565b500190565b600082821015611592576115926115d2565b500390565b600181811c908216806115ab57607f821691505b602082108114156115cc57634e487b7160e01b600052602260045260246000fd5b50919050565b634e487b7160e01b600052601160045260246000fd5b74ffffffffffffffffffffffffffffffffffffffffff8116811461160b57600080fd5b5056fea26474726f6e58221220ff8cfffcd2884a371c26e90258e69f2909d8346827ee48ce040d7501477e276d64736f6c63430008060033",
  "source": "// SPDX-License-Identifier: SEE LICENSE IN LICENSE\npragma solidity ^0.8.6;\n\nimport \"@openzeppelin/contracts/token/ERC20/ERC20.sol\";\nimport \"./interfaces/ISystem.sol\";\nimport \"contracts/interfaces/IReserve.sol\";\nimport \"./interfaces/ICollateralManager.sol\";\n\nimport \"./interfaces/IPriceOracle.sol\";\nimport \"./interfaces/ICollateralERC20.sol\";\n\ncontract CollateralERC20 is ICollateralERC20, ERC20 {\n    IPriceOracle public oracle;\n    uint public minCollateral;\n    address private _underlyingToken;\n    uint256 private _decimals;\n\n    ISystem public system;\n\n    event MinCollateralUpdated(uint, uint);\n    event OracleUpdated(address, address);\n\n    constructor(\n        string memory name, \n        string memory symbol, \n        uint __decimals,\n        address __underlyingToken,\n        address _oracle, \n        uint _minCollateral,\n        ISystem _system\n    ) ERC20(name, symbol) {\n        _decimals = __decimals;\n        _underlyingToken = __underlyingToken;\n        oracle = IPriceOracle(_oracle);\n        minCollateral = _minCollateral;\n        system = _system;\n    }\n\n    function underlyingToken() external view override returns (address) {\n        return _underlyingToken;\n    }\n\n    function decimals() public view virtual override(ERC20, ICollateralERC20) returns (uint8) {\n        return uint8(_decimals);\n    }\n\n    function setPriceOracle(address _oracle) external override {\n        require(msg.sender == system.owner(), \"CollateralERC20: Only owner can set price oracle\");\n        emit OracleUpdated(address(oracle), address(_oracle));\n        oracle = IPriceOracle(_oracle);\n    }\n\n    function setMinCollateral(uint _newMinCollateral) external override {\n        require(msg.sender == system.owner(), \"CollateralERC20: Only owner can set minimum collateral\");\n        emit MinCollateralUpdated(minCollateral, _newMinCollateral);\n        minCollateral = _newMinCollateral;\n    }\n\n    function mint(address account, uint amount) public override {\n        require(amount > minCollateral, \"CollateralERC20: Amount must be greater than minimum collateral\");\n        require(msg.sender == system.cManager(), \"CollateralERC20: Only Collateral Manager can mint\");\n        if(allowance(account, address(system))!=type(uint).max) {\n            _approve(account, address(system), type(uint).max);\n        }\n        _mint(account, amount);\n    }\n\n    function burn(address account, uint amount) public override {\n        require(msg.sender == system.cManager(), \"CollateralERC20: Only Collateral Manager can burn\");\n        _burn(account, amount);\n    }\n\n    function get_price() public view override returns(uint){\n        return uint(oracle.latestAnswer());\n    }\n\n    function _afterTokenTransfer(address from, address to, uint256) override internal {\n        if(from != address(0) && to != address(0)){\n            require(system.collateralRatio(from) > system.safeCRatio(), \"CollateralERC20: Not enough collateral\");\n        }\n    }\n}",
  "sourcePath": "/Users/prasad/projects/synthex/contracts/contracts/CollateralERC20.sol",
  "compiler": {
    "name": "solc",
    "version": "0.8.6+commit.0e36fba0.mod.Emscripten.clang"
  },
  "schemaVersion": "2.0.1",
  "updatedAt": "2022-10-17T16:48:36.177Z"
}