{
  "contractName": "CollateralManager",
  "abi": [
    {
      "inputs": [
        {
          "internalType": "contract ISystem",
          "name": "_system",
          "type": "address"
        }
      ],
      "stateMutability": "nonpayable",
      "type": "constructor"
    },
    {
      "inputs": [
        {
          "internalType": "address",
          "name": "user",
          "type": "address"
        },
        {
          "internalType": "address",
          "name": "asset",
          "type": "address"
        },
        {
          "internalType": "uint256",
          "name": "amount",
          "type": "uint256"
        }
      ],
      "name": "_decreaseCollateral",
      "outputs": [],
      "stateMutability": "nonpayable",
      "type": "function"
    },
    {
      "inputs": [
        {
          "internalType": "address",
          "name": "user",
          "type": "address"
        },
        {
          "internalType": "address",
          "name": "asset",
          "type": "address"
        },
        {
          "internalType": "uint256",
          "name": "amount",
          "type": "uint256"
        }
      ],
      "name": "_increaseCollateral",
      "outputs": [],
      "stateMutability": "nonpayable",
      "type": "function"
    },
    {
      "inputs": [
        {
          "internalType": "address",
          "name": "_asset",
          "type": "address"
        }
      ],
      "name": "assetToCAsset",
      "outputs": [
        {
          "internalType": "address",
          "name": "",
          "type": "address"
        }
      ],
      "stateMutability": "view",
      "type": "function"
    },
    {
      "inputs": [
        {
          "internalType": "uint256",
          "name": "_index",
          "type": "uint256"
        }
      ],
      "name": "cAssets",
      "outputs": [
        {
          "internalType": "address",
          "name": "",
          "type": "address"
        }
      ],
      "stateMutability": "view",
      "type": "function"
    },
    {
      "inputs": [],
      "name": "cAssetsCount",
      "outputs": [
        {
          "internalType": "uint256",
          "name": "",
          "type": "uint256"
        }
      ],
      "stateMutability": "view",
      "type": "function"
    },
    {
      "inputs": [
        {
          "internalType": "address",
          "name": "user",
          "type": "address"
        },
        {
          "internalType": "address",
          "name": "asset",
          "type": "address"
        }
      ],
      "name": "collateral",
      "outputs": [
        {
          "internalType": "uint256",
          "name": "",
          "type": "uint256"
        }
      ],
      "stateMutability": "view",
      "type": "function"
    },
    {
      "inputs": [
        {
          "internalType": "string",
          "name": "name",
          "type": "string"
        },
        {
          "internalType": "string",
          "name": "symbol",
          "type": "string"
        },
        {
          "internalType": "uint256",
          "name": "decimals",
          "type": "uint256"
        },
        {
          "internalType": "address",
          "name": "asset",
          "type": "address"
        },
        {
          "internalType": "address",
          "name": "oracle",
          "type": "address"
        },
        {
          "internalType": "uint256",
          "name": "minCollateral",
          "type": "uint256"
        }
      ],
      "name": "create",
      "outputs": [],
      "stateMutability": "nonpayable",
      "type": "function"
    },
    {
      "inputs": [
        {
          "internalType": "address",
          "name": "_asset",
          "type": "address"
        }
      ],
      "name": "isActiveCollateral",
      "outputs": [
        {
          "internalType": "bool",
          "name": "",
          "type": "bool"
        }
      ],
      "stateMutability": "view",
      "type": "function"
    },
    {
      "inputs": [
        {
          "internalType": "address",
          "name": "_asset",
          "type": "address"
        }
      ],
      "name": "isCollateral",
      "outputs": [
        {
          "internalType": "bool",
          "name": "",
          "type": "bool"
        }
      ],
      "stateMutability": "view",
      "type": "function"
    },
    {
      "inputs": [
        {
          "internalType": "address",
          "name": "_asset",
          "type": "address"
        }
      ],
      "name": "pause",
      "outputs": [],
      "stateMutability": "nonpayable",
      "type": "function"
    },
    {
      "inputs": [],
      "name": "system",
      "outputs": [
        {
          "internalType": "contract ISystem",
          "name": "",
          "type": "address"
        }
      ],
      "stateMutability": "view",
      "type": "function"
    },
    {
      "inputs": [
        {
          "internalType": "address",
          "name": "account",
          "type": "address"
        }
      ],
      "name": "totalCollateral",
      "outputs": [
        {
          "internalType": "uint256",
          "name": "",
          "type": "uint256"
        }
      ],
      "stateMutability": "view",
      "type": "function"
    },
    {
      "inputs": [
        {
          "internalType": "address",
          "name": "_asset",
          "type": "address"
        }
      ],
      "name": "unpause",
      "outputs": [],
      "stateMutability": "nonpayable",
      "type": "function"
    }
  ],
  "bytecode": "0x6080604052600060015534801561001557600080fd5b50d3801561002257600080fd5b50d2801561002f57600080fd5b50604051612b53380380612b5383398101604081905261004e91610073565b600080546001600160a01b0319166001600160a01b03929092169190911790556100ac565b60006020828403121561008557600080fd5b81516001600160a81b038116811461009c57600080fd5b6001600160a01b03169392505050565b612a98806100bb6000396000f3fe60806040523480156200001157600080fd5b50d380156200001f57600080fd5b50d280156200002d57600080fd5b50600436106200010d5760003560e01c80637dbbf51e11620000b357806395bf75fd116200008a57806395bf75fd1462000254578063c2c9280b1462000268578063cc218ece146200027f578063ea6ac28d146200029657600080fd5b80637dbbf51e14620001c95780637e059b22146200020e57806382195a72146200022557600080fd5b806357b001f911620000e857806357b001f91462000182578063643a8f6d146200019b57806376a67a5114620001b257600080fd5b80630ee21e541462000112578063153cc9ed14620001585780632dc7b482146200016b575b600080fd5b620001436200012336600462000c1f565b6001600160a01b0390811660009081526003602052604090205416151590565b60405190151581526020015b60405180910390f35b6001545b6040519081526020016200014f565b620001436200017c36600462000c1f565b620002ad565b620001996200019336600462000c1f565b620002f8565b005b62000199620001ac36600462000cba565b62000365565b62000199620001c336600462000c1f565b620004e5565b620001f5620001da36600462000dc4565b6000908152600260205260409020546001600160a01b031690565b6040516001600160a01b0390911681526020016200014f565b6200015c6200021f36600462000c1f565b62000551565b620001f56200023636600462000c1f565b6001600160a01b039081166000908152600360205260409020541690565b600054620001f5906001600160a01b031681565b620001996200027936600462000cba565b62000779565b6200015c6200029036600462000c6f565b6200098f565b62000199620002a736600462000d0d565b62000a26565b6001600160a01b0381811660009081526003602052604081205490911615801590620002f257506001600160a01b03821660009081526004602052604090205460ff16155b92915050565b6000546001600160a01b03163314620003445760405162461bcd60e51b81526020600482015260096024820152682737ba1037bbb732b960b91b60448201526064015b60405180910390fd5b6001600160a01b03166000908152600460205260409020805460ff19169055565b60008054906101000a90046001600160a01b03166001600160a01b031663cd3293de6040518163ffffffff1660e01b815260040160206040518083038186803b158015620003b257600080fd5b505afa158015620003c7573d6000803e3d6000fd5b505050506040513d601f19601f82011682018060405250810190620003ed919062000c4f565b6001600160a01b0316336001600160a01b0316146200044f5760405162461bcd60e51b815260206004820152601e60248201527f436f6c6c61746572616c4d616e616765723a204e6f742072657365727665000060448201526064016200033b565b6001600160a01b03828116600090815260036020526040908190205490517f40c10f190000000000000000000000000000000000000000000000000000000081528583166004820152602481018490529116906340c10f19906044015b600060405180830381600087803b158015620004c757600080fd5b505af1158015620004dc573d6000803e3d6000fd5b50505050505050565b6000546001600160a01b031633146200052d5760405162461bcd60e51b81526020600482015260096024820152682737ba1037bbb732b960b91b60448201526064016200033b565b6001600160a01b03166000908152600460205260409020805460ff19166001179055565b600080805b600154811015620007725760008181526002602090815260408083205481517f11f37ceb00000000000000000000000000000000000000000000000000000000815291516001600160a01b03909116939284926311f37ceb9260048083019392829003018186803b158015620005cb57600080fd5b505afa158015620005e0573d6000803e3d6000fd5b505050506040513d601f19601f8201168201806040525081019062000606919062000dde565b90506000826001600160a01b031663313ce5676040518163ffffffff1660e01b815260040160206040518083038186803b1580156200064457600080fd5b505afa15801562000659573d6000803e3d6000fd5b505050506040513d601f19601f820116820180604052508101906200067f919062000df8565b6040516370a0823160e01b81526001600160a01b03898116600483015260ff9290921692506000918516906370a082319060240160206040518083038186803b158015620006cc57600080fd5b505afa158015620006e1573d6000803e3d6000fd5b505050506040513d601f19601f8201168201806040525081019062000707919062000dde565b90506200074a6305f5e100620007436200072385600a62000f56565b62000743670de0b6b3a76400006200073c878a62000b60565b9062000b60565b9062000b6e565b62000756908762000ecf565b9550505050508080620007699062001034565b91505062000556565b5092915050565b60008054906101000a90046001600160a01b03166001600160a01b031663cd3293de6040518163ffffffff1660e01b815260040160206040518083038186803b158015620007c657600080fd5b505afa158015620007db573d6000803e3d6000fd5b505050506040513d601f19601f8201168201806040525081019062000801919062000c4f565b6001600160a01b0316336001600160a01b03161480620008b9575060008054906101000a90046001600160a01b03166001600160a01b0316634046ebae6040518163ffffffff1660e01b815260040160206040518083038186803b1580156200086957600080fd5b505afa1580156200087e573d6000803e3d6000fd5b505050506040513d601f19601f82011682018060405250810190620008a4919062000c4f565b6001600160a01b0316336001600160a01b0316145b6200092d5760405162461bcd60e51b815260206004820152602c60248201527f436f6c6c61746572616c4d616e616765723a204e6f742072657365727665206f60448201527f72206c697175696461746f72000000000000000000000000000000000000000060648201526084016200033b565b6001600160a01b03828116600090815260036020526040908190205490517f9dc29fac000000000000000000000000000000000000000000000000000000008152858316600482015260248101849052911690639dc29fac90604401620004ac565b6001600160a01b038181166000908152600360205260408082205490516370a0823160e01b81528584166004820152919216906370a082319060240160206040518083038186803b158015620009e457600080fd5b505afa158015620009f9573d6000803e3d6000fd5b505050506040513d601f19601f8201168201806040525081019062000a1f919062000dde565b9392505050565b6000546001600160a01b0316331462000a825760405162461bcd60e51b815260206004820152601660248201527f4f6e6c792073797374656d2063616e206372656174650000000000000000000060448201526064016200033b565b600086868686868660008054906101000a90046001600160a01b031660405162000aac9062000b7c565b62000abe979695949392919062000e6d565b604051809103906000f08015801562000adb573d6000803e3d6000fd5b5060018054600090815260026020908152604080832080546001600160a01b038088167fffffffffffffffffffffffff000000000000000000000000000000000000000092831681179093558b168552600390935290832080549092161790558154929350909182919062000b5290839062000ecf565b909155505050505050505050565b600062000a1f828462001012565b600062000a1f828462000eea565b6119bd80620010a683390190565b600082601f83011262000b9c57600080fd5b813567ffffffffffffffff8082111562000bba5762000bba62001068565b604051601f8301601f19908116603f0116810190828211818310171562000be55762000be562001068565b8160405283815286602085880101111562000bff57600080fd5b836020870160208301376000602085830101528094505050505092915050565b60006020828403121562000c3257600080fd5b813562000c3f816200107e565b6001600160a01b03169392505050565b60006020828403121562000c6257600080fd5b815162000c3f816200107e565b6000806040838503121562000c8357600080fd5b823562000c90816200107e565b6001600160a01b03908116925060208401359062000cae826200107e565b92959216935090915050565b60008060006060848603121562000cd057600080fd5b833562000cdd816200107e565b6001600160a01b03908116935060208501359062000cfb826200107e565b93969316945050506040919091013590565b60008060008060008060c0878903121562000d2757600080fd5b863567ffffffffffffffff8082111562000d4057600080fd5b62000d4e8a838b0162000b8a565b9750602089013591508082111562000d6557600080fd5b5062000d7489828a0162000b8a565b95505060408701359350606087013562000d8e816200107e565b6001600160a01b03908116935060808801359062000dac826200107e565b8082169350505060a087013590509295509295509295565b60006020828403121562000dd757600080fd5b5035919050565b60006020828403121562000df157600080fd5b5051919050565b60006020828403121562000e0b57600080fd5b815160ff8116811462000a1f57600080fd5b6000815180845260005b8181101562000e455760208185018101518683018201520162000e27565b8181111562000e58576000602083870101525b50601f01601f19169290920160200192915050565b60e08152600062000e8260e083018a62000e1d565b828103602084015262000e96818a62000e1d565b604084019890985250506001600160a01b039485166060820152928416608084015260a083019190915290911660c09091015292915050565b6000821982111562000ee55762000ee562001052565b500190565b60008262000f0857634e487b7160e01b600052601260045260246000fd5b500490565b600181815b8085111562000f4e57816000190482111562000f325762000f3262001052565b8085161562000f4057918102915b93841c939080029062000f12565b509250929050565b600062000a1f838360008262000f6f57506001620002f2565b8162000f7e57506000620002f2565b816001811462000f97576002811462000fa25762000fc2565b6001915050620002f2565b60ff84111562000fb65762000fb662001052565b50506001821b620002f2565b5060208310610133831016604e8410600b841016171562000fe7575081810a620002f2565b62000ff3838362000f0d565b80600019048211156200100a576200100a62001052565b029392505050565b60008160001904831182151516156200102f576200102f62001052565b500290565b60006000198214156200104b576200104b62001052565b5060010190565b634e487b7160e01b600052601160045260246000fd5b634e487b7160e01b600052604160045260246000fd5b74ffffffffffffffffffffffffffffffffffffffffff81168114620010a257600080fd5b5056fe60806040523480156200001157600080fd5b50d380156200001f57600080fd5b50d280156200002d57600080fd5b50604051620019bd380380620019bd83398101604081905262000050916200022e565b86518790879062000069906003906020850190620000d1565b5080516200007f906004906020840190620000d1565b505050600894909455600780546001600160a01b03199081166001600160a01b039586161790915560058054821693851693909317909255600655600980549091169190921617905550620003699050565b828054620000df90620002fd565b90600052602060002090601f0160209004810192826200010357600085556200014e565b82601f106200011e57805160ff19168380011785556200014e565b828001600101855582156200014e579182015b828111156200014e57825182559160200191906001019062000131565b506200015c92915062000160565b5090565b5b808211156200015c576000815560010162000161565b600082601f8301126200018957600080fd5b81516001600160401b0380821115620001a657620001a66200033a565b604051601f8301601f19908116603f01168101908282118183101715620001d157620001d16200033a565b81604052838152602092508683858801011115620001ee57600080fd5b600091505b83821015620002125785820183015181830184015290820190620001f3565b83821115620002245760008385830101525b9695505050505050565b600080600080600080600060e0888a0312156200024a57600080fd5b87516001600160401b03808211156200026257600080fd5b620002708b838c0162000177565b985060208a01519150808211156200028757600080fd5b50620002968a828b0162000177565b965050604088015194506060880151620002b08162000350565b60808901516001600160a01b03918216955090620002ce8262000350565b60a08a015160c08b015192821695509350620002ea8262000350565b8082169250505092959891949750929550565b600181811c908216806200031257607f821691505b602082108114156200033457634e487b7160e01b600052602260045260246000fd5b50919050565b634e487b7160e01b600052604160045260246000fd5b6001600160a81b03811681146200036657600080fd5b50565b61164480620003796000396000f3fe608060405234801561001057600080fd5b50d3801561001d57600080fd5b50d2801561002a57600080fd5b50600436106101865760003560e01c806370a08231116100e75780639dc29fac1161009b578063a9059cbb11610080578063a9059cbb14610302578063ba2de9bc14610315578063dd62ed3e1461031e57600080fd5b80639dc29fac146102dc578063a457c2d7146102ef57600080fd5b8063846321a4116100cc578063846321a4146102ae57806395bf75fd146102c157806395d89b41146102d457600080fd5b806370a08231146102725780637dc0d1d01461029b57600080fd5b80632495a5991161013e5780633950935111610123578063395093511461023757806340c10f191461024a578063530e784f1461025f57600080fd5b80632495a599146101fd578063313ce5671461022257600080fd5b806311f37ceb1161016f57806311f37ceb146101cc57806318160ddd146101e257806323b872dd146101ea57600080fd5b806306fdde031461018b578063095ea7b3146101a9575b600080fd5b610193610357565b6040516101a09190611513565b60405180910390f35b6101bc6101b73660046114ac565b6103e9565b60405190151581526020016101a0565b6101d4610401565b6040519081526020016101a0565b6002546101d4565b6101bc6101f836600461145e565b61049c565b6007546001600160a01b03165b6040516001600160a01b0390911681526020016101a0565b60085460405160ff90911681526020016101a0565b6101bc6102453660046114ac565b6104c0565b61025d6102583660046114ac565b6104ff565b005b61025d61026d3660046113ce565b6106e2565b6101d46102803660046113ce565b6001600160a01b031660009081526020819052604090205490565b60055461020a906001600160a01b031681565b61025d6102bc3660046114fa565b61086f565b60095461020a906001600160a01b031681565b6101936109bc565b61025d6102ea3660046114ac565b6109cb565b6101bc6102fd3660046114ac565b610ae1565b6101bc6103103660046114ac565b610b8b565b6101d460065481565b6101d461032c366004611418565b6001600160a01b03918216600090815260016020908152604080832093909416825291909152205490565b60606003805461036690611597565b80601f016020809104026020016040519081016040528092919081815260200182805461039290611597565b80156103df5780601f106103b4576101008083540402835291602001916103df565b820191906000526020600020905b8154815290600101906020018083116103c257829003601f168201915b5050505050905090565b6000336103f7818585610b99565b5060019392505050565b600554604080517f50d25bcd00000000000000000000000000000000000000000000000000000000815290516000926001600160a01b0316916350d25bcd916004808301926020929190829003018186803b15801561045f57600080fd5b505afa158015610473573d6000803e3d6000fd5b505050506040513d601f19601f8201168201806040525081019061049791906114e1565b905090565b6000336104aa858285610cf1565b6104b5858585610d83565b506001949350505050565b3360008181526001602090815260408083206001600160a01b03871684529091528120549091906103f790829086906104fa908790611568565b610b99565b600654811161057b5760405162461bcd60e51b815260206004820152603f60248201527f436f6c6c61746572616c45524332303a20416d6f756e74206d7573742062652060448201527f67726561746572207468616e206d696e696d756d20636f6c6c61746572616c0060648201526084015b60405180910390fd5b600960009054906101000a90046001600160a01b03166001600160a01b0316637c4fb53d6040518163ffffffff1660e01b815260040160206040518083038186803b1580156105c957600080fd5b505afa1580156105dd573d6000803e3d6000fd5b505050506040513d601f19601f8201168201806040525081019061060191906113fb565b6001600160a01b0316336001600160a01b0316146106875760405162461bcd60e51b815260206004820152603160248201527f436f6c6c61746572616c45524332303a204f6e6c7920436f6c6c61746572616c60448201527f204d616e616765722063616e206d696e740000000000000000000000000000006064820152608401610572565b6009546001600160a01b038084166000908152600160209081526040808320939094168252919091522054600019146106d4576009546106d49083906001600160a01b0316600019610b99565b6106de8282610fa0565b5050565b600960009054906101000a90046001600160a01b03166001600160a01b0316638da5cb5b6040518163ffffffff1660e01b815260040160206040518083038186803b15801561073057600080fd5b505afa158015610744573d6000803e3d6000fd5b505050506040513d601f19601f8201168201806040525081019061076891906113fb565b6001600160a01b0316336001600160a01b0316146107ee5760405162461bcd60e51b815260206004820152603060248201527f436f6c6c61746572616c45524332303a204f6e6c79206f776e65722063616e2060448201527f736574207072696365206f7261636c65000000000000000000000000000000006064820152608401610572565b600554604080516001600160a01b03928316815291831660208301527f078c3b417dadf69374a59793b829c52001247130433427049317bde56607b1b7910160405180910390a1600580547fffffffffffffffffffffffff0000000000000000000000000000000000000000166001600160a01b0392909216919091179055565b600960009054906101000a90046001600160a01b03166001600160a01b0316638da5cb5b6040518163ffffffff1660e01b815260040160206040518083038186803b1580156108bd57600080fd5b505afa1580156108d1573d6000803e3d6000fd5b505050506040513d601f19601f820116820180604052508101906108f591906113fb565b6001600160a01b0316336001600160a01b03161461097b5760405162461bcd60e51b815260206004820152603660248201527f436f6c6c61746572616c45524332303a204f6e6c79206f776e65722063616e2060448201527f736574206d696e696d756d20636f6c6c61746572616c000000000000000000006064820152608401610572565b60065460408051918252602082018390527f07e277c15cd9d160c3aefccdee9fc30af7959a5b0b6b9889e1e84b8ae6e0c462910160405180910390a1600655565b60606004805461036690611597565b600960009054906101000a90046001600160a01b03166001600160a01b0316637c4fb53d6040518163ffffffff1660e01b815260040160206040518083038186803b158015610a1957600080fd5b505afa158015610a2d573d6000803e3d6000fd5b505050506040513d601f19601f82011682018060405250810190610a5191906113fb565b6001600160a01b0316336001600160a01b031614610ad75760405162461bcd60e51b815260206004820152603160248201527f436f6c6c61746572616c45524332303a204f6e6c7920436f6c6c61746572616c60448201527f204d616e616765722063616e206275726e0000000000000000000000000000006064820152608401610572565b6106de8282611087565b3360008181526001602090815260408083206001600160a01b038716845290915281205490919083811015610b7e5760405162461bcd60e51b815260206004820152602560248201527f45524332303a2064656372656173656420616c6c6f77616e63652062656c6f7760448201527f207a65726f0000000000000000000000000000000000000000000000000000006064820152608401610572565b6104b58286868403610b99565b6000336103f7818585610d83565b6001600160a01b038316610c145760405162461bcd60e51b8152602060048201526024808201527f45524332303a20617070726f76652066726f6d20746865207a65726f2061646460448201527f72657373000000000000000000000000000000000000000000000000000000006064820152608401610572565b6001600160a01b038216610c905760405162461bcd60e51b815260206004820152602260248201527f45524332303a20617070726f766520746f20746865207a65726f20616464726560448201527f73730000000000000000000000000000000000000000000000000000000000006064820152608401610572565b6001600160a01b0383811660008181526001602090815260408083209487168084529482529182902085905590518481527f8c5be1e5ebec7d5bd14f71427d1e84f3dd0314c0f7b2291e5b200ac8c7c3b925910160405180910390a3505050565b6001600160a01b038381166000908152600160209081526040808320938616835292905220546000198114610d7d5781811015610d705760405162461bcd60e51b815260206004820152601d60248201527f45524332303a20696e73756666696369656e7420616c6c6f77616e63650000006044820152606401610572565b610d7d8484848403610b99565b50505050565b6001600160a01b038316610dff5760405162461bcd60e51b815260206004820152602560248201527f45524332303a207472616e736665722066726f6d20746865207a65726f20616460448201527f64726573730000000000000000000000000000000000000000000000000000006064820152608401610572565b6001600160a01b038216610e7b5760405162461bcd60e51b815260206004820152602360248201527f45524332303a207472616e7366657220746f20746865207a65726f206164647260448201527f65737300000000000000000000000000000000000000000000000000000000006064820152608401610572565b6001600160a01b03831660009081526020819052604090205481811015610f0a5760405162461bcd60e51b815260206004820152602660248201527f45524332303a207472616e7366657220616d6f756e742065786365656473206260448201527f616c616e636500000000000000000000000000000000000000000000000000006064820152608401610572565b6001600160a01b03808516600090815260208190526040808220858503905591851681529081208054849290610f41908490611568565b92505081905550826001600160a01b0316846001600160a01b03167fddf252ad1be2c89b69c2b068fc378daa952ba7f163c4a11628f55a4df523b3ef84604051610f8d91815260200190565b60405180910390a3610d7d848484611218565b6001600160a01b038216610ff65760405162461bcd60e51b815260206004820152601f60248201527f45524332303a206d696e7420746f20746865207a65726f2061646472657373006044820152606401610572565b80600260008282546110089190611568565b90915550506001600160a01b03821660009081526020819052604081208054839290611035908490611568565b90915550506040518181526001600160a01b038316906000907fddf252ad1be2c89b69c2b068fc378daa952ba7f163c4a11628f55a4df523b3ef9060200160405180910390a36106de60008383611218565b6001600160a01b0382166111035760405162461bcd60e51b815260206004820152602160248201527f45524332303a206275726e2066726f6d20746865207a65726f2061646472657360448201527f73000000000000000000000000000000000000000000000000000000000000006064820152608401610572565b6001600160a01b038216600090815260208190526040902054818110156111925760405162461bcd60e51b815260206004820152602260248201527f45524332303a206275726e20616d6f756e7420657863656564732062616c616e60448201527f63650000000000000000000000000000000000000000000000000000000000006064820152608401610572565b6001600160a01b03831660009081526020819052604081208383039055600280548492906111c1908490611580565b90915550506040518281526000906001600160a01b038516907fddf252ad1be2c89b69c2b068fc378daa952ba7f163c4a11628f55a4df523b3ef9060200160405180910390a361121383600084611218565b505050565b6001600160a01b0383161580159061123857506001600160a01b03821615155b1561121357600960009054906101000a90046001600160a01b03166001600160a01b031663b140bf036040518163ffffffff1660e01b8152600401602060405180830381600087803b15801561128d57600080fd5b505af11580156112a1573d6000803e3d6000fd5b505050506040513d601f19601f820116820180604052508101906112c591906114e1565b6009546040517fca40742c0000000000000000000000000000000000000000000000000000000081526001600160a01b0386811660048301529091169063ca40742c9060240160206040518083038186803b15801561132357600080fd5b505afa158015611337573d6000803e3d6000fd5b505050506040513d601f19601f8201168201806040525081019061135b91906114e1565b116112135760405162461bcd60e51b815260206004820152602660248201527f436f6c6c61746572616c45524332303a204e6f7420656e6f75676820636f6c6c60448201527f61746572616c00000000000000000000000000000000000000000000000000006064820152608401610572565b6000602082840312156113e057600080fd5b81356113eb816115e8565b6001600160a01b03169392505050565b60006020828403121561140d57600080fd5b81516113eb816115e8565b6000806040838503121561142b57600080fd5b8235611436816115e8565b6001600160a01b039081169250602084013590611452826115e8565b92959216935090915050565b60008060006060848603121561147357600080fd5b833561147e816115e8565b6001600160a01b03908116935060208501359061149a826115e8565b93969316945050506040919091013590565b600080604083850312156114bf57600080fd5b82356114ca816115e8565b6001600160a01b0316946020939093013593505050565b6000602082840312156114f357600080fd5b5051919050565b60006020828403121561150c57600080fd5b5035919050565b600060208083528351808285015260005b8181101561154057858101830151858201604001528201611524565b81811115611552576000604083870101525b50601f01601f1916929092016040019392505050565b6000821982111561157b5761157b6115d2565b500190565b600082821015611592576115926115d2565b500390565b600181811c908216806115ab57607f821691505b602082108114156115cc57634e487b7160e01b600052602260045260246000fd5b50919050565b634e487b7160e01b600052601160045260246000fd5b74ffffffffffffffffffffffffffffffffffffffffff8116811461160b57600080fd5b5056fea26474726f6e58221220ff8cfffcd2884a371c26e90258e69f2909d8346827ee48ce040d7501477e276d64736f6c63430008060033a26474726f6e58221220fca945ac053a4f952e91a49e0b7d57c2d25e1dd523a455ba74aa38115c51414464736f6c63430008060033",
  "source": "// SPDX-License-Identifier: MIT\npragma solidity ^0.8.6;\n\nimport \"@openzeppelin/contracts/utils/math/SafeMath.sol\";\nimport \"./interfaces/IPriceOracle.sol\";\nimport \"./interfaces/ISystem.sol\";\nimport \"./interfaces/ICollateralERC20.sol\";\nimport \"./interfaces/ICollateralManager.sol\";\nimport \"./CollateralERC20.sol\";\nimport \"@openzeppelin/contracts/token/ERC20/extensions/IERC20Metadata.sol\";\n\ncontract CollateralManager is ICollateralManager {\n    using SafeMath for uint;\n\n    ISystem public system;\n\n    uint private _cAssetsCount = 0;\n    mapping (uint => address) private _cAssets;\n    mapping(address => address) private _assetToCAsset;\n    mapping(address => bool) private _isPaused;\n    \n    constructor(ISystem _system){\n        system = _system;\n    }\n\n    /* -------------------------------------------------------------------------- */\n    /*                               Admin Functions                              */\n    /* -------------------------------------------------------------------------- */\n    function create(string memory name, string memory symbol, uint decimals, address asset, address oracle, uint minCollateral) public override {\n        require(msg.sender == address(system), \"Only system can create\");\n        CollateralERC20 cAsset = new CollateralERC20(name, symbol, decimals, asset, oracle, minCollateral, system);\n        _cAssets[_cAssetsCount] = address(cAsset);\n        _assetToCAsset[asset] = address(cAsset);\n        _cAssetsCount += 1;\n    }\n\n    function pause(address _asset) external override {\n        require(msg.sender == address(system), \"Not owner\");\n        _isPaused[_asset] = true;\n    }\n\n    function unpause(address _asset) external override {\n        require(msg.sender == address(system), \"Not owner\");\n        _isPaused[_asset] = false;\n    }\n\n    /* -------------------------------------------------------------------------- */\n    /*                              Public Functions                              */\n    /* -------------------------------------------------------------------------- */\n    function _increaseCollateral(address user, address asset, uint amount) external override {\n        require(msg.sender == system.reserve(), \"CollateralManager: Not reserve\");\n        ICollateralERC20(_assetToCAsset[asset]).mint(user, amount);\n    }\n\n    function _decreaseCollateral(address user, address asset, uint amount) external override {\n        require(msg.sender == system.reserve() || msg.sender == system.liquidator(), \"CollateralManager: Not reserve or liquidator\");\n        ICollateralERC20(_assetToCAsset[asset]).burn(user, amount);\n    }\n\n    /* -------------------------------------------------------------------------- */\n    /*                               View Functions                               */\n    /* -------------------------------------------------------------------------- */\n    function cAssets(uint _index) external view override returns (address) {\n        return _cAssets[_index];\n    }\n\n    function cAssetsCount() external view override returns (uint) {\n        return _cAssetsCount;\n    }\n\n    function assetToCAsset(address _asset) external view override returns (address) {\n        return _assetToCAsset[_asset];\n    }\n\n    function isCollateral(address _asset) external view override returns (bool) {\n        return _assetToCAsset[_asset] != address(0);\n    }\n\n    function isActiveCollateral(address _asset) external view override returns (bool) {\n        return _assetToCAsset[_asset] != address(0) && !_isPaused[_asset];\n    }\n\n    function collateral(address user, address asset) public view override returns(uint){\n        return ICollateralERC20(_assetToCAsset[asset]).balanceOf(user);\n    }\n\n    // USD Amount (multiplied by 10**8)\n    function totalCollateral(address account) public view override returns(uint){\n        uint total = 0;\n        for(uint i = 0; i < _cAssetsCount; i++){\n            ICollateralERC20 asset = ICollateralERC20(_cAssets[i]);\n            uint price = asset.get_price();\n            uint decimals = uint(asset.decimals());\n            uint balance = asset.balanceOf(account);\n            total += balance.mul(price).mul(1e18).div(10**decimals).div(1e8);\n        }\n        return total;\n    }\n}",
  "sourcePath": "/Users/prasad/projects/synthex/contracts/contracts/CollateralManager.sol",
  "compiler": {
    "name": "solc",
    "version": "0.8.6+commit.0e36fba0.mod.Emscripten.clang"
  },
  "schemaVersion": "2.0.1",
  "updatedAt": "2022-10-18T05:13:13.114Z"
}