{
  "contractName": "DebtTracker",
  "abi": [
    {
      "inputs": [
        {
          "internalType": "string",
          "name": "name",
          "type": "string"
        },
        {
          "internalType": "string",
          "name": "symbol",
          "type": "string"
        },
        {
          "internalType": "address",
          "name": "_oracle",
          "type": "address"
        },
        {
          "internalType": "address",
          "name": "_interestRateModel",
          "type": "address"
        },
        {
          "internalType": "contract ISystem",
          "name": "_system",
          "type": "address"
        }
      ],
      "stateMutability": "nonpayable",
      "type": "constructor"
    },
    {
      "anonymous": false,
      "inputs": [
        {
          "indexed": false,
          "internalType": "uint256",
          "name": "accrualTimestamp",
          "type": "uint256"
        },
        {
          "indexed": false,
          "internalType": "uint256",
          "name": "totalBorrowed",
          "type": "uint256"
        },
        {
          "indexed": false,
          "internalType": "uint256",
          "name": "borrowIndex",
          "type": "uint256"
        }
      ],
      "name": "AccureInterest",
      "type": "event"
    },
    {
      "anonymous": false,
      "inputs": [
        {
          "indexed": false,
          "internalType": "address",
          "name": "oldRate",
          "type": "address"
        },
        {
          "indexed": false,
          "internalType": "address",
          "name": "newRate",
          "type": "address"
        }
      ],
      "name": "InterestRateModelUpdated",
      "type": "event"
    },
    {
      "inputs": [],
      "name": "accrualTimestamp",
      "outputs": [
        {
          "internalType": "uint256",
          "name": "",
          "type": "uint256"
        }
      ],
      "stateMutability": "view",
      "type": "function"
    },
    {
      "inputs": [],
      "name": "accureInterest",
      "outputs": [],
      "stateMutability": "nonpayable",
      "type": "function"
    },
    {
      "inputs": [
        {
          "internalType": "address",
          "name": "account",
          "type": "address"
        },
        {
          "internalType": "uint256",
          "name": "borrowAmount",
          "type": "uint256"
        }
      ],
      "name": "borrow",
      "outputs": [],
      "stateMutability": "nonpayable",
      "type": "function"
    },
    {
      "inputs": [
        {
          "internalType": "address",
          "name": "",
          "type": "address"
        }
      ],
      "name": "borrowBalances",
      "outputs": [
        {
          "internalType": "uint256",
          "name": "principle",
          "type": "uint256"
        },
        {
          "internalType": "uint256",
          "name": "interestIndex",
          "type": "uint256"
        }
      ],
      "stateMutability": "view",
      "type": "function"
    },
    {
      "inputs": [],
      "name": "borrowIndex",
      "outputs": [
        {
          "internalType": "uint256",
          "name": "",
          "type": "uint256"
        }
      ],
      "stateMutability": "view",
      "type": "function"
    },
    {
      "inputs": [],
      "name": "borrowRateMax",
      "outputs": [
        {
          "internalType": "uint256",
          "name": "",
          "type": "uint256"
        }
      ],
      "stateMutability": "view",
      "type": "function"
    },
    {
      "inputs": [
        {
          "internalType": "address",
          "name": "account",
          "type": "address"
        }
      ],
      "name": "getBorrowBalance",
      "outputs": [
        {
          "internalType": "uint256",
          "name": "",
          "type": "uint256"
        }
      ],
      "stateMutability": "nonpayable",
      "type": "function"
    },
    {
      "inputs": [
        {
          "internalType": "address",
          "name": "account",
          "type": "address"
        }
      ],
      "name": "getBorrowBalanceStored",
      "outputs": [
        {
          "internalType": "uint256",
          "name": "",
          "type": "uint256"
        }
      ],
      "stateMutability": "view",
      "type": "function"
    },
    {
      "inputs": [],
      "name": "get_interest_rate",
      "outputs": [
        {
          "internalType": "uint256",
          "name": "",
          "type": "uint256"
        }
      ],
      "stateMutability": "view",
      "type": "function"
    },
    {
      "inputs": [],
      "name": "get_price",
      "outputs": [
        {
          "internalType": "uint256",
          "name": "",
          "type": "uint256"
        }
      ],
      "stateMutability": "view",
      "type": "function"
    },
    {
      "inputs": [],
      "name": "interestRateModel",
      "outputs": [
        {
          "internalType": "contract IInterestRate",
          "name": "",
          "type": "address"
        }
      ],
      "stateMutability": "view",
      "type": "function"
    },
    {
      "inputs": [
        {
          "internalType": "address",
          "name": "user",
          "type": "address"
        },
        {
          "internalType": "address",
          "name": "caller",
          "type": "address"
        },
        {
          "internalType": "uint256",
          "name": "repayAmount",
          "type": "uint256"
        }
      ],
      "name": "repay",
      "outputs": [],
      "stateMutability": "nonpayable",
      "type": "function"
    },
    {
      "inputs": [
        {
          "internalType": "contract IInterestRate",
          "name": "_interestRateModel",
          "type": "address"
        }
      ],
      "name": "setInterestRate",
      "outputs": [],
      "stateMutability": "nonpayable",
      "type": "function"
    },
    {
      "inputs": [],
      "name": "synth",
      "outputs": [
        {
          "internalType": "contract SynthERC20",
          "name": "",
          "type": "address"
        }
      ],
      "stateMutability": "view",
      "type": "function"
    },
    {
      "inputs": [],
      "name": "totalBorrowed",
      "outputs": [
        {
          "internalType": "uint256",
          "name": "",
          "type": "uint256"
        }
      ],
      "stateMutability": "view",
      "type": "function"
    }
  ],
  "bytecode": "0x60806040526103e86005553480156200001757600080fd5b50d380156200002557600080fd5b50d280156200003357600080fd5b50604051620026e1380380620026e183398101604081905262000056916200018c565b848482856040516200006890620000ed565b62000077949392919062000276565b604051809103906000f08015801562000094573d6000803e3d6000fd5b50600780546001600160a01b03199081166001600160a01b03938416179091556000805482169383169390931790925542600455670de0b6b3a76400006002556006805490921692169190911790555062000326915050565b611685806200105c83390190565b600082601f8301126200010d57600080fd5b81516001600160401b03808211156200012a576200012a620002f7565b604051601f8301601f19908116603f01168101908282118183101715620001555762000155620002f7565b816040528381528660208588010111156200016f57600080fd5b62000182846020830160208901620002c4565b9695505050505050565b600080600080600060a08688031215620001a557600080fd5b85516001600160401b0380821115620001bd57600080fd5b620001cb89838a01620000fb565b96506020880151915080821115620001e257600080fd5b50620001f188828901620000fb565b945050604086015162000204816200030d565b60608701516001600160a01b0391821694509062000222826200030d565b6080880151918116935062000237826200030d565b808216925050509295509295909350565b6000815180845262000262816020860160208601620002c4565b601f01601f19169290920160200192915050565b6080815260006200028b608083018762000248565b82810360208401526200029f818762000248565b6001600160a01b03958616604085015293909416606090920191909152509392505050565b60005b83811015620002e1578181015183820152602001620002c7565b83811115620002f1576000848401525b50505050565b634e487b7160e01b600052604160045260246000fd5b6001600160a81b03811681146200032357600080fd5b50565b610d2680620003366000396000f3fe608060405234801561001057600080fd5b50d3801561001d57600080fd5b50d2801561002a57600080fd5b506004361061010f5760003560e01c80634dd75c49116100b1578063a373ed4e11610080578063a373ed4e14610211578063aa5af0fd14610219578063b95b92a314610222578063f3fdb15a1461022b57600080fd5b80634dd75c491461019c5780637d6af079146101af5780638e88041b146101c257806394e1373c146101d557600080fd5b806311f37ceb116100ed57806311f37ceb146101635780631da649cf1461016b5780634b8a3529146101805780634c19386c1461019357600080fd5b80630e5ad9f1146101145780630f6ef32814610130578063115f4fee14610138575b600080fd5b61011d60055481565b6040519081526020015b60405180910390f35b61011d61023e565b60075461014b906001600160a01b031681565b6040516001600160a01b039091168152602001610127565b61011d6102cd565b61017e610179366004610ba8565b61032b565b005b61017e61018e366004610bf6565b6105d7565b61011d60035481565b61017e6101aa366004610b5e565b6107be565b61011d6101bd366004610b5e565b61093b565b61011d6101d0366004610b5e565b610954565b6101fc6101e3366004610b5e565b6001602081905260009182526040909120805491015482565b60408051928352602083019190915201610127565b61017e6109b6565b61011d60025481565b61011d60045481565b60065461014b906001600160a01b031681565b6006546000906001600160a01b0316630c196a7461025a6102cd565b6040518263ffffffff1660e01b815260040161027891815260200190565b60206040518083038186803b15801561029057600080fd5b505afa1580156102a4573d6000803e3d6000fd5b505050506040513d601f19601f820116820180604052508101906102c89190610c2b565b905090565b600754604080517f11f37ceb00000000000000000000000000000000000000000000000000000000815290516000926001600160a01b0316916311f37ceb916004808301926020929190829003018186803b15801561029057600080fd5b6103336109b6565b60008054906101000a90046001600160a01b03166001600160a01b031663a1a685126040518163ffffffff1660e01b815260040160206040518083038186803b15801561037f57600080fd5b505afa158015610393573d6000803e3d6000fd5b505050506040513d601f19601f820116820180604052508101906103b79190610b8b565b6001600160a01b0316336001600160a01b0316148061046a575060008054906101000a90046001600160a01b03166001600160a01b0316634046ebae6040518163ffffffff1660e01b815260040160206040518083038186803b15801561041d57600080fd5b505afa158015610431573d6000803e3d6000fd5b505050506040513d601f19601f820116820180604052508101906104559190610b8b565b6001600160a01b0316336001600160a01b0316145b6104e15760405162461bcd60e51b815260206004820152602d60248201527f4f6e6545524332302049737375653a2043616e206f6e6c792062652063616c6c60448201527f656420696e7465726e616c6c790000000000000000000000000000000000000060648201526084015b60405180910390fd5b60006104ec84610954565b9050600060001983146104ff5782610501565b815b6007546040517f9dc29fac0000000000000000000000000000000000000000000000000000000081526001600160a01b03878116600483015260248201849052929350911690639dc29fac90604401600060405180830381600087803b15801561056a57600080fd5b505af115801561057e573d6000803e3d6000fd5b50505050600081836105909190610c9d565b90506000826003546105a29190610c9d565b6001600160a01b0390971660009081526001602081905260409091209283556002549201919091555050506003929092555050565b6105df6109b6565b60008054906101000a90046001600160a01b03166001600160a01b031663a1a685126040518163ffffffff1660e01b815260040160206040518083038186803b15801561062b57600080fd5b505afa15801561063f573d6000803e3d6000fd5b505050506040513d601f19601f820116820180604052508101906106639190610b8b565b6001600160a01b0316336001600160a01b0316146106e95760405162461bcd60e51b815260206004820152603060248201527f44656274547261636b65723a2049737375652063616e206f6e6c79206265206360448201527f616c6c656420696e7465726e616c6c790000000000000000000000000000000060648201526084016104d8565b60006106f483610954565b905060006107028383610c44565b90506000836003546107149190610c44565b6001600160a01b03868116600081815260016020819052604091829020878155600254910155600384905560075490517f867904b400000000000000000000000000000000000000000000000000000000815260048101929092526024820188905292935091169063867904b490604401600060405180830381600087803b15801561079f57600080fd5b505af11580156107b3573d6000803e3d6000fd5b505050505050505050565b60008054906101000a90046001600160a01b03166001600160a01b0316638da5cb5b6040518163ffffffff1660e01b815260040160206040518083038186803b15801561080a57600080fd5b505afa15801561081e573d6000803e3d6000fd5b505050506040513d601f19601f820116820180604052508101906108429190610b8b565b6001600160a01b0316336001600160a01b0316146108c85760405162461bcd60e51b815260206004820152603060248201527f4f6e6545524332303a204f6e6c79206f776e65722063616e2073657420696e7460448201527f65726573742072617465206d6f64656c0000000000000000000000000000000060648201526084016104d8565b600680547fffffffffffffffffffffffff0000000000000000000000000000000000000000166001600160a01b0383169081179091556040805182815260208101929092527fdace1576ba731b4c76870b86217414c265c1ae95c55027d50dc19dab5feb9919910160405180910390a150565b60006109456109b6565b61094e82610954565b92915050565b6001600160a01b0381166000908152600160208190526040822001548061097e5750600092915050565b6002546001600160a01b0384166000908152600160205260409020546109af9183916109a991610b3a565b90610b46565b9392505050565b6004544290808214156109c7575050565b60025460006109d461023e565b6005549091506109ec82670de0b6b3a7640000610b46565b1115610a605760405162461bcd60e51b815260206004820152602960248201527f44656274547261636b65723a20426f72726f772072617465206973206162737560448201527f72646c792068696768000000000000000000000000000000000000000000000060648201526084016104d8565b6000610a6c8486610c9d565b90506000610a7a8383610b3a565b90506000610a9f670de0b6b3a76400006109a960035485610b3a90919063ffffffff16565b90506000610ab860035483610b5290919063ffffffff16565b90506000610adc87610ad6670de0b6b3a76400006109a98884610b3a565b90610b52565b60048a905560028190556003839055604080518b8152602081018590529081018290529091507f97580e650c56d7d7ad8c9e113b306508349ecd480d6fc07d3ac9d6e77375c7f99060600160405180910390a1505050505050505050565b60006109af8284610c7e565b60006109af8284610c5c565b60006109af8284610c44565b600060208284031215610b7057600080fd5b8135610b7b81610cca565b6001600160a01b03169392505050565b600060208284031215610b9d57600080fd5b8151610b7b81610cca565b600080600060608486031215610bbd57600080fd5b8335610bc881610cca565b6001600160a01b039081169350602085013590610be482610cca565b93969316945050506040919091013590565b60008060408385031215610c0957600080fd5b8235610c1481610cca565b6001600160a01b0316946020939093013593505050565b600060208284031215610c3d57600080fd5b5051919050565b60008219821115610c5757610c57610cb4565b500190565b600082610c7957634e487b7160e01b600052601260045260246000fd5b500490565b6000816000190483118215151615610c9857610c98610cb4565b500290565b600082821015610caf57610caf610cb4565b500390565b634e487b7160e01b600052601160045260246000fd5b74ffffffffffffffffffffffffffffffffffffffffff81168114610ced57600080fd5b5056fea26474726f6e582212204aa8b7aeac425cfbd8f1edfc10fb07e139c21cb13e49eaacbcf41d935463df7b64736f6c6343000806003360806040523480156200001157600080fd5b50d380156200001f57600080fd5b50d280156200002d57600080fd5b506040516200168538038062001685833981016040819052620000509162000223565b83518490849062000069906003906020850190620000c6565b5080516200007f906004906020840190620000c6565b5050600680546001600160a01b03199081163317909155600580546001600160a01b0395861690831617905560078054939094169216919091179091555062000332915050565b828054620000d490620002c6565b90600052602060002090601f016020900481019282620000f8576000855562000143565b82601f106200011357805160ff191683800117855562000143565b8280016001018555821562000143579182015b828111156200014357825182559160200191906001019062000126565b506200015192915062000155565b5090565b5b8082111562000151576000815560010162000156565b600082601f8301126200017e57600080fd5b81516001600160401b03808211156200019b576200019b62000303565b604051601f8301601f19908116603f01168101908282118183101715620001c657620001c662000303565b81604052838152602092508683858801011115620001e357600080fd5b600091505b83821015620002075785820183015181830184015290820190620001e8565b83821115620002195760008385830101525b9695505050505050565b600080600080608085870312156200023a57600080fd5b84516001600160401b03808211156200025257600080fd5b62000260888389016200016c565b955060208701519150808211156200027757600080fd5b5062000286878288016200016c565b9350506040850151620002998162000319565b60608601516001600160a01b03918216935090620002b78262000319565b94979396509194505090911690565b600181811c90821680620002db57607f821691505b60208210811415620002fd57634e487b7160e01b600052602260045260246000fd5b50919050565b634e487b7160e01b600052604160045260246000fd5b6001600160a81b03811681146200032f57600080fd5b50565b61134380620003426000396000f3fe608060405234801561001057600080fd5b50d3801561001d57600080fd5b50d2801561002a57600080fd5b50600436106101355760003560e01c8063530e784f116100cc57806395d89b411161009b578063a457c2d711610080578063a457c2d714610278578063a9059cbb1461028b578063dd62ed3e1461029e57600080fd5b806395d89b411461025d5780639dc29fac1461026557600080fd5b8063530e784f146101f957806370a082311461020e5780637dc0d1d014610237578063867904b41461024a57600080fd5b806318160ddd1161010857806318160ddd146101bc57806323b872dd146101c4578063313ce567146101d757806339509351146101e657600080fd5b806306fdde031461013a578063095ea7b3146101585780630dca59c11461017b57806311f37ceb146101a6575b600080fd5b6101426102d7565b60405161014f9190611212565b60405180910390f35b61016b61016636600461119b565b610369565b604051901515815260200161014f565b60065461018e906001600160a01b031681565b6040516001600160a01b03909116815260200161014f565b6101ae610381565b60405190815260200161014f565b6002546101ae565b61016b6101d236600461114d565b61041c565b6040516012815260200161014f565b61016b6101f436600461119b565b610440565b61020c6102073660046110bd565b61047f565b005b6101ae61021c3660046110bd565b6001600160a01b031660009081526020819052604090205490565b60075461018e906001600160a01b031681565b61020c61025836600461119b565b610611565b6101426107fd565b61020c61027336600461119b565b61080c565b61016b61028636600461119b565b6109a7565b61016b61029936600461119b565b610a51565b6101ae6102ac366004611107565b6001600160a01b03918216600090815260016020908152604080832093909416825291909152205490565b6060600380546102e690611296565b80601f016020809104026020016040519081016040528092919081815260200182805461031290611296565b801561035f5780601f106103345761010080835404028352916020019161035f565b820191906000526020600020905b81548152906001019060200180831161034257829003601f168201915b5050505050905090565b600033610377818585610a5f565b5060019392505050565b600754604080517f50d25bcd00000000000000000000000000000000000000000000000000000000815290516000926001600160a01b0316916350d25bcd916004808301926020929190829003018186803b1580156103df57600080fd5b505afa1580156103f3573d6000803e3d6000fd5b505050506040513d601f19601f8201168201806040525081019061041791906111f9565b905090565b60003361042a858285610bb8565b610435858585610c4a565b506001949350505050565b3360008181526001602090815260408083206001600160a01b0387168452909152812054909190610377908290869061047a908790611267565b610a5f565b600560009054906101000a90046001600160a01b03166001600160a01b0316638da5cb5b6040518163ffffffff1660e01b815260040160206040518083038186803b1580156104cd57600080fd5b505afa1580156104e1573d6000803e3d6000fd5b505050506040513d601f19601f8201168201806040525081019061050591906110ea565b6001600160a01b0316336001600160a01b0316146105905760405162461bcd60e51b815260206004820152602960248201527f4f6e6545524332303a204f6e6c79206f776e65722063616e207365742070726960448201527f6365206f7261636c65000000000000000000000000000000000000000000000060648201526084015b60405180910390fd5b600754604080516001600160a01b03928316815291831660208301527f078c3b417dadf69374a59793b829c52001247130433427049317bde56607b1b7910160405180910390a1600780547fffffffffffffffffffffffff0000000000000000000000000000000000000000166001600160a01b0392909216919091179055565b6005546040516378e2ddab60e11b81523360048201526001600160a01b039091169063f1c5bb5690602401602060405180830381600087803b15801561065657600080fd5b505af115801561066a573d6000803e3d6000fd5b505050506040513d601f19601f8201168201806040525081019061068e91906111d0565b8061071b57506005546040805163669949ef60e11b8152905133926001600160a01b03169163cd3293de916004808301926020929190829003018186803b1580156106d857600080fd5b505afa1580156106ec573d6000803e3d6000fd5b505050506040513d601f19601f8201168201806040525081019061071091906110ea565b6001600160a01b0316145b8061073057506006546001600160a01b031633145b6107a25760405162461bcd60e51b815260206004820152603960248201527f53796e746845524332302049737375653a204f6e6c792072657365727665207060448201527f6f6f6c732063616e20697373756520696e7465726e616c6c79000000000000006064820152608401610587565b6005546001600160a01b038084166000908152600160209081526040808320939094168252919091522054600019146107ef576005546107ef9083906001600160a01b0316600019610a5f565b6107f98282610e61565b5050565b6060600480546102e690611296565b6005546040516378e2ddab60e11b81523360048201526001600160a01b039091169063f1c5bb5690602401602060405180830381600087803b15801561085157600080fd5b505af1158015610865573d6000803e3d6000fd5b505050506040513d601f19601f8201168201806040525081019061088991906111d0565b8061091657506005546040805163669949ef60e11b8152905133926001600160a01b03169163cd3293de916004808301926020929190829003018186803b1580156108d357600080fd5b505afa1580156108e7573d6000803e3d6000fd5b505050506040513d601f19601f8201168201806040525081019061090b91906110ea565b6001600160a01b0316145b8061092b57506006546001600160a01b031633145b61099d5760405162461bcd60e51b815260206004820152603760248201527f53796e74684552433230204275726e3a204f6e6c79207265736572766520706f60448201527f6f6c732063616e206275726e20696e7465726e616c6c790000000000000000006064820152608401610587565b6107f98282610f40565b3360008181526001602090815260408083206001600160a01b038716845290915281205490919083811015610a445760405162461bcd60e51b815260206004820152602560248201527f45524332303a2064656372656173656420616c6c6f77616e63652062656c6f7760448201527f207a65726f0000000000000000000000000000000000000000000000000000006064820152608401610587565b6104358286868403610a5f565b600033610377818585610c4a565b6001600160a01b038316610ada5760405162461bcd60e51b8152602060048201526024808201527f45524332303a20617070726f76652066726f6d20746865207a65726f2061646460448201527f72657373000000000000000000000000000000000000000000000000000000006064820152608401610587565b6001600160a01b038216610b565760405162461bcd60e51b815260206004820152602260248201527f45524332303a20617070726f766520746f20746865207a65726f20616464726560448201527f73730000000000000000000000000000000000000000000000000000000000006064820152608401610587565b6001600160a01b0383811660008181526001602090815260408083209487168084529482529182902085905590518481527f8c5be1e5ebec7d5bd14f71427d1e84f3dd0314c0f7b2291e5b200ac8c7c3b92591015b60405180910390a3505050565b6001600160a01b038381166000908152600160209081526040808320938616835292905220546000198114610c445781811015610c375760405162461bcd60e51b815260206004820152601d60248201527f45524332303a20696e73756666696369656e7420616c6c6f77616e63650000006044820152606401610587565b610c448484848403610a5f565b50505050565b6001600160a01b038316610cc65760405162461bcd60e51b815260206004820152602560248201527f45524332303a207472616e736665722066726f6d20746865207a65726f20616460448201527f64726573730000000000000000000000000000000000000000000000000000006064820152608401610587565b6001600160a01b038216610d425760405162461bcd60e51b815260206004820152602360248201527f45524332303a207472616e7366657220746f20746865207a65726f206164647260448201527f65737300000000000000000000000000000000000000000000000000000000006064820152608401610587565b6001600160a01b03831660009081526020819052604090205481811015610dd15760405162461bcd60e51b815260206004820152602660248201527f45524332303a207472616e7366657220616d6f756e742065786365656473206260448201527f616c616e636500000000000000000000000000000000000000000000000000006064820152608401610587565b6001600160a01b03808516600090815260208190526040808220858503905591851681529081208054849290610e08908490611267565b92505081905550826001600160a01b0316846001600160a01b03167fddf252ad1be2c89b69c2b068fc378daa952ba7f163c4a11628f55a4df523b3ef84604051610e5491815260200190565b60405180910390a3610c44565b6001600160a01b038216610eb75760405162461bcd60e51b815260206004820152601f60248201527f45524332303a206d696e7420746f20746865207a65726f2061646472657373006044820152606401610587565b8060026000828254610ec99190611267565b90915550506001600160a01b03821660009081526020819052604081208054839290610ef6908490611267565b90915550506040518181526001600160a01b038316906000907fddf252ad1be2c89b69c2b068fc378daa952ba7f163c4a11628f55a4df523b3ef9060200160405180910390a35050565b6001600160a01b038216610fbc5760405162461bcd60e51b815260206004820152602160248201527f45524332303a206275726e2066726f6d20746865207a65726f2061646472657360448201527f73000000000000000000000000000000000000000000000000000000000000006064820152608401610587565b6001600160a01b0382166000908152602081905260409020548181101561104b5760405162461bcd60e51b815260206004820152602260248201527f45524332303a206275726e20616d6f756e7420657863656564732062616c616e60448201527f63650000000000000000000000000000000000000000000000000000000000006064820152608401610587565b6001600160a01b038316600090815260208190526040812083830390556002805484929061107a90849061127f565b90915550506040518281526000906001600160a01b038516907fddf252ad1be2c89b69c2b068fc378daa952ba7f163c4a11628f55a4df523b3ef90602001610bab565b6000602082840312156110cf57600080fd5b81356110da816112e7565b6001600160a01b03169392505050565b6000602082840312156110fc57600080fd5b81516110da816112e7565b6000806040838503121561111a57600080fd5b8235611125816112e7565b6001600160a01b039081169250602084013590611141826112e7565b92959216935090915050565b60008060006060848603121561116257600080fd5b833561116d816112e7565b6001600160a01b039081169350602085013590611189826112e7565b93969316945050506040919091013590565b600080604083850312156111ae57600080fd5b82356111b9816112e7565b6001600160a01b0316946020939093013593505050565b6000602082840312156111e257600080fd5b815180151581146111f257600080fd5b9392505050565b60006020828403121561120b57600080fd5b5051919050565b600060208083528351808285015260005b8181101561123f57858101830151858201604001528201611223565b81811115611251576000604083870101525b50601f01601f1916929092016040019392505050565b6000821982111561127a5761127a6112d1565b500190565b600082821015611291576112916112d1565b500390565b600181811c908216806112aa57607f821691505b602082108114156112cb57634e487b7160e01b600052602260045260246000fd5b50919050565b634e487b7160e01b600052601160045260246000fd5b74ffffffffffffffffffffffffffffffffffffffffff8116811461130a57600080fd5b5056fea26474726f6e58221220b725225dd47dede01f532a9bf27f43d7ceef97bc89c0ec29817a76717bce5e4664736f6c63430008060033",
  "source": "// SPDX-License-Identifier: MIT\npragma solidity ^0.8.6;\n\nimport \"@openzeppelin/contracts/token/ERC20/IERC20.sol\";\nimport \"@openzeppelin/contracts/token/ERC20/ERC20.sol\";\nimport \"@openzeppelin/contracts/access/AccessControl.sol\";\nimport \"@openzeppelin/contracts/utils/math/SafeMath.sol\";\nimport \"@openzeppelin/contracts/utils/math/SignedSafeMath.sol\";\n\nimport \"@openzeppelin/contracts/security/Pausable.sol\";\nimport \"@openzeppelin/contracts/security/ReentrancyGuard.sol\";\n\nimport \"./interfaces/IPriceOracle.sol\";\nimport \"./interfaces/ISystem.sol\";\nimport \"./interfaces/IInterestRate.sol\";\nimport \"./SynthERC20.sol\";\n\nimport \"hardhat/console.sol\";\n\ncontract DebtTracker {\n    using SafeMath for uint256;\n    using SignedSafeMath for int256;\n\n    ISystem system;\n    \n    struct BorrowBalance {\n        uint principle;\n        uint interestIndex;\n    }\n\n    // borrow balance in oneUSD\n    mapping(address => BorrowBalance) public borrowBalances;\n    uint public borrowIndex;\n    uint public totalBorrowed;\n    uint public accrualTimestamp;\n    uint public borrowRateMax = 1000;\n    IInterestRate public interestRateModel;\n\n    event AccureInterest(uint accrualTimestamp, uint totalBorrowed, uint borrowIndex);\n    event InterestRateModelUpdated(address oldRate, address newRate);\n    \n    SynthERC20 public synth;\n\n    constructor(\n        string memory name, \n        string memory symbol, \n        address _oracle,\n        address _interestRateModel,\n        ISystem _system\n    ) {\n        synth = new SynthERC20(name, symbol, _system, _oracle);\n        system = _system;\n        accrualTimestamp = block.timestamp;\n        borrowIndex = 1e18;\n        interestRateModel = IInterestRate(_interestRateModel);\n    }\n\n    function setInterestRate(IInterestRate _interestRateModel) external {\n        require(msg.sender == system.owner(), \"OneERC20: Only owner can set interest rate model\");\n        interestRateModel = _interestRateModel;\n        emit InterestRateModelUpdated(address(interestRateModel), address(_interestRateModel));\n    }\n\n    function getBorrowBalance(address account) public returns(uint){\n        accureInterest();\n        return getBorrowBalanceStored(account);\n    }\n\n    function getBorrowBalanceStored(address account) public view returns(uint){\n        uint interestIndex = borrowBalances[account].interestIndex;\n        if(interestIndex == 0){\n            return 0;\n        }\n        return borrowBalances[account].principle.mul(borrowIndex).div(interestIndex);\n    }\n\n    function accureInterest() public {\n        uint currentTimestamp = block.timestamp;\n        uint accrualTimestampPrior = accrualTimestamp;\n\n        // Short-circuit accumulating 0 interest\n        if (accrualTimestampPrior == currentTimestamp) {\n            return;\n        }\n\n        uint borrowIndexPrior = borrowIndex;\n\n        // Calculate the current borrow interest rate\n        uint borrowRate = get_interest_rate();\n        require(borrowRate.div(10**18) <= borrowRateMax, \"DebtTracker: Borrow rate is absurdly high\");\n\n        // Calculate the number of blocks elapsed since the last accrual\n        uint timestampDelta = currentTimestamp - accrualTimestampPrior;\n\n        uint simpleInterestFactor = borrowRate.mul(timestampDelta);\n        uint interestAccumulated = simpleInterestFactor.mul(totalBorrowed).div(10 ** 18); // div by borrow rate decimals\n        uint totalBorrowsNew = interestAccumulated.add(totalBorrowed);\n        uint borrowIndexNew = (simpleInterestFactor.mul(borrowIndexPrior).div(10 ** 18)).add(borrowIndexPrior);\n\n        accrualTimestamp = currentTimestamp;\n        borrowIndex = borrowIndexNew;\n        totalBorrowed = totalBorrowsNew;\n\n        emit AccureInterest(accrualTimestamp, totalBorrowed, borrowIndex);\n    }\n\n    function borrow(address account, uint borrowAmount) public {\n        accureInterest();\n        require(msg.sender == system.dManager(), \"DebtTracker: Issue can only be called internally\");\n\n        uint accountBorrowsPrev = getBorrowBalanceStored(account);\n        uint accountBorrowsNew = accountBorrowsPrev + borrowAmount;\n        uint totalBorrowsNew = totalBorrowed + borrowAmount;\n\n        borrowBalances[account].principle = accountBorrowsNew;\n        borrowBalances[account].interestIndex = borrowIndex;\n        totalBorrowed = totalBorrowsNew;\n\n        synth.issue(account, borrowAmount);\n    }\n\n    function repay(address user, address caller, uint repayAmount) public {\n        accureInterest();\n        require(msg.sender == system.dManager() || msg.sender == system.liquidator(), \"OneERC20 Issue: Can only be called internally\");\n        /* We fetch the amount the borrower owes, with accumulated interest */\n        uint accountBorrowsPrev = getBorrowBalanceStored(user);\n\n        /* If repayAmount == -1, repayAmount = accountBorrows */\n        uint repayAmountFinal = repayAmount == type(uint).max ? accountBorrowsPrev : repayAmount;\n        synth.burn(caller, repayAmountFinal);\n\n        uint accountBorrowsNew = accountBorrowsPrev - repayAmountFinal;\n        uint totalBorrowsNew = totalBorrowed - repayAmountFinal;\n\n        /* We write the previously calculated values into storage */\n        borrowBalances[user].principle = accountBorrowsNew;\n        borrowBalances[user].interestIndex = borrowIndex;\n        totalBorrowed = totalBorrowsNew;\n    }\n\n    function get_interest_rate() public view returns (uint) {\n        return interestRateModel.getInterestRate(get_price());\n    }\n\n    function get_price() public view returns (uint) {\n        return synth.get_price();\n    }\n}",
  "sourcePath": "/Users/prasad/projects/synthex/contracts/contracts/DebtTracker.sol",
  "compiler": {
    "name": "solc",
    "version": "0.8.6+commit.0e36fba0.mod.Emscripten.clang"
  },
  "schemaVersion": "2.0.1",
  "updatedAt": "2022-10-18T05:13:13.123Z"
}