{
  "contractName": "Helper",
  "abi": [
    {
      "inputs": [
        {
          "components": [
            {
              "internalType": "address",
              "name": "target",
              "type": "address"
            },
            {
              "internalType": "bytes",
              "name": "callData",
              "type": "bytes"
            }
          ],
          "internalType": "struct Multicall.Call[]",
          "name": "calls",
          "type": "tuple[]"
        }
      ],
      "name": "aggregate",
      "outputs": [
        {
          "internalType": "uint256",
          "name": "blockNumber",
          "type": "uint256"
        },
        {
          "internalType": "bytes[]",
          "name": "returnData",
          "type": "bytes[]"
        }
      ],
      "stateMutability": "payable",
      "type": "function"
    },
    {
      "inputs": [
        {
          "components": [
            {
              "internalType": "address",
              "name": "target",
              "type": "address"
            },
            {
              "internalType": "bool",
              "name": "allowFailure",
              "type": "bool"
            },
            {
              "internalType": "bytes",
              "name": "callData",
              "type": "bytes"
            }
          ],
          "internalType": "struct Multicall.Call3[]",
          "name": "calls",
          "type": "tuple[]"
        }
      ],
      "name": "aggregate3",
      "outputs": [
        {
          "components": [
            {
              "internalType": "bool",
              "name": "success",
              "type": "bool"
            },
            {
              "internalType": "bytes",
              "name": "returnData",
              "type": "bytes"
            }
          ],
          "internalType": "struct Multicall.Result[]",
          "name": "returnData",
          "type": "tuple[]"
        }
      ],
      "stateMutability": "payable",
      "type": "function"
    },
    {
      "inputs": [
        {
          "components": [
            {
              "internalType": "address",
              "name": "target",
              "type": "address"
            },
            {
              "internalType": "bool",
              "name": "allowFailure",
              "type": "bool"
            },
            {
              "internalType": "uint256",
              "name": "value",
              "type": "uint256"
            },
            {
              "internalType": "bytes",
              "name": "callData",
              "type": "bytes"
            }
          ],
          "internalType": "struct Multicall.Call3Value[]",
          "name": "calls",
          "type": "tuple[]"
        }
      ],
      "name": "aggregate3Value",
      "outputs": [
        {
          "components": [
            {
              "internalType": "bool",
              "name": "success",
              "type": "bool"
            },
            {
              "internalType": "bytes",
              "name": "returnData",
              "type": "bytes"
            }
          ],
          "internalType": "struct Multicall.Result[]",
          "name": "returnData",
          "type": "tuple[]"
        }
      ],
      "stateMutability": "payable",
      "type": "function"
    },
    {
      "inputs": [
        {
          "internalType": "address[]",
          "name": "tokens",
          "type": "address[]"
        },
        {
          "internalType": "address",
          "name": "user",
          "type": "address"
        }
      ],
      "name": "balanceOf",
      "outputs": [
        {
          "internalType": "uint256[]",
          "name": "balance",
          "type": "uint256[]"
        }
      ],
      "stateMutability": "view",
      "type": "function"
    },
    {
      "inputs": [
        {
          "components": [
            {
              "internalType": "address",
              "name": "target",
              "type": "address"
            },
            {
              "internalType": "bytes",
              "name": "callData",
              "type": "bytes"
            }
          ],
          "internalType": "struct Multicall.Call[]",
          "name": "calls",
          "type": "tuple[]"
        }
      ],
      "name": "blockAndAggregate",
      "outputs": [
        {
          "internalType": "uint256",
          "name": "blockNumber",
          "type": "uint256"
        },
        {
          "internalType": "bytes32",
          "name": "blockHash",
          "type": "bytes32"
        },
        {
          "components": [
            {
              "internalType": "bool",
              "name": "success",
              "type": "bool"
            },
            {
              "internalType": "bytes",
              "name": "returnData",
              "type": "bytes"
            }
          ],
          "internalType": "struct Multicall.Result[]",
          "name": "returnData",
          "type": "tuple[]"
        }
      ],
      "stateMutability": "payable",
      "type": "function"
    },
    {
      "inputs": [
        {
          "internalType": "address[]",
          "name": "tokens",
          "type": "address[]"
        },
        {
          "internalType": "address",
          "name": "user",
          "type": "address"
        }
      ],
      "name": "debtBalanceOf",
      "outputs": [
        {
          "internalType": "uint256[]",
          "name": "balance",
          "type": "uint256[]"
        }
      ],
      "stateMutability": "view",
      "type": "function"
    },
    {
      "inputs": [
        {
          "internalType": "uint256",
          "name": "blockNumber",
          "type": "uint256"
        }
      ],
      "name": "getBlockHash",
      "outputs": [
        {
          "internalType": "bytes32",
          "name": "blockHash",
          "type": "bytes32"
        }
      ],
      "stateMutability": "view",
      "type": "function"
    },
    {
      "inputs": [],
      "name": "getBlockNumber",
      "outputs": [
        {
          "internalType": "uint256",
          "name": "blockNumber",
          "type": "uint256"
        }
      ],
      "stateMutability": "view",
      "type": "function"
    },
    {
      "inputs": [],
      "name": "getChainId",
      "outputs": [
        {
          "internalType": "uint256",
          "name": "chainid",
          "type": "uint256"
        }
      ],
      "stateMutability": "view",
      "type": "function"
    },
    {
      "inputs": [],
      "name": "getCurrentBlockCoinbase",
      "outputs": [
        {
          "internalType": "address",
          "name": "coinbase",
          "type": "address"
        }
      ],
      "stateMutability": "view",
      "type": "function"
    },
    {
      "inputs": [],
      "name": "getCurrentBlockDifficulty",
      "outputs": [
        {
          "internalType": "uint256",
          "name": "difficulty",
          "type": "uint256"
        }
      ],
      "stateMutability": "view",
      "type": "function"
    },
    {
      "inputs": [],
      "name": "getCurrentBlockGasLimit",
      "outputs": [
        {
          "internalType": "uint256",
          "name": "gaslimit",
          "type": "uint256"
        }
      ],
      "stateMutability": "view",
      "type": "function"
    },
    {
      "inputs": [],
      "name": "getCurrentBlockTimestamp",
      "outputs": [
        {
          "internalType": "uint256",
          "name": "timestamp",
          "type": "uint256"
        }
      ],
      "stateMutability": "view",
      "type": "function"
    },
    {
      "inputs": [
        {
          "internalType": "address",
          "name": "addr",
          "type": "address"
        }
      ],
      "name": "getEthBalance",
      "outputs": [
        {
          "internalType": "uint256",
          "name": "balance",
          "type": "uint256"
        }
      ],
      "stateMutability": "view",
      "type": "function"
    },
    {
      "inputs": [],
      "name": "getLastBlockHash",
      "outputs": [
        {
          "internalType": "bytes32",
          "name": "blockHash",
          "type": "bytes32"
        }
      ],
      "stateMutability": "view",
      "type": "function"
    },
    {
      "inputs": [
        {
          "internalType": "address",
          "name": "pool",
          "type": "address"
        },
        {
          "internalType": "address[]",
          "name": "tokens",
          "type": "address[]"
        },
        {
          "internalType": "address",
          "name": "user",
          "type": "address"
        }
      ],
      "name": "tradingBalanceOf",
      "outputs": [
        {
          "internalType": "uint256[]",
          "name": "balance",
          "type": "uint256[]"
        }
      ],
      "stateMutability": "view",
      "type": "function"
    },
    {
      "inputs": [
        {
          "internalType": "bool",
          "name": "requireSuccess",
          "type": "bool"
        },
        {
          "components": [
            {
              "internalType": "address",
              "name": "target",
              "type": "address"
            },
            {
              "internalType": "bytes",
              "name": "callData",
              "type": "bytes"
            }
          ],
          "internalType": "struct Multicall.Call[]",
          "name": "calls",
          "type": "tuple[]"
        }
      ],
      "name": "tryAggregate",
      "outputs": [
        {
          "components": [
            {
              "internalType": "bool",
              "name": "success",
              "type": "bool"
            },
            {
              "internalType": "bytes",
              "name": "returnData",
              "type": "bytes"
            }
          ],
          "internalType": "struct Multicall.Result[]",
          "name": "returnData",
          "type": "tuple[]"
        }
      ],
      "stateMutability": "payable",
      "type": "function"
    },
    {
      "inputs": [
        {
          "internalType": "bool",
          "name": "requireSuccess",
          "type": "bool"
        },
        {
          "components": [
            {
              "internalType": "address",
              "name": "target",
              "type": "address"
            },
            {
              "internalType": "bytes",
              "name": "callData",
              "type": "bytes"
            }
          ],
          "internalType": "struct Multicall.Call[]",
          "name": "calls",
          "type": "tuple[]"
        }
      ],
      "name": "tryBlockAndAggregate",
      "outputs": [
        {
          "internalType": "uint256",
          "name": "blockNumber",
          "type": "uint256"
        },
        {
          "internalType": "bytes32",
          "name": "blockHash",
          "type": "bytes32"
        },
        {
          "components": [
            {
              "internalType": "bool",
              "name": "success",
              "type": "bool"
            },
            {
              "internalType": "bytes",
              "name": "returnData",
              "type": "bytes"
            }
          ],
          "internalType": "struct Multicall.Result[]",
          "name": "returnData",
          "type": "tuple[]"
        }
      ],
      "stateMutability": "payable",
      "type": "function"
    }
  ],
  "bytecode": "0x608060405234801561001057600080fd5b50d3801561001d57600080fd5b50d2801561002a57600080fd5b506115308061003a6000396000f3fe6080604052600436106101295760003560e01c806372425d9d116100a5578063b9b2a96a11610074578063c3077fa911610059578063c3077fa9146103d1578063ee82ac5e146103e4578063fd6e0e401461041d57600080fd5b8063b9b2a96a14610384578063bce38bd7146103be57600080fd5b806372425d9d146102e257806382ad56cb1461030f57806386d516e814610322578063a8b0574e1461034f57600080fd5b80633408e470116100fc578063399542e9116100e1578063399542e91461025157806342cbb15c146102735780634d2301cc146102a057600080fd5b80633408e470146101dd57806337fd25c71461020a57600080fd5b80630f28c97d1461012e578063174dea711461016a578063252dba421461018a57806327e86d6e146101ab575b600080fd5b34801561013a57600080fd5b50d3801561014757600080fd5b50d2801561015457600080fd5b50425b6040519081526020015b60405180910390f35b61017d610178366004611146565b610457565b60405161016191906112fc565b61019d610198366004611146565b61064b565b60405161016192919061135a565b3480156101b757600080fd5b50d380156101c457600080fd5b50d280156101d157600080fd5b50436000190140610157565b3480156101e957600080fd5b50d380156101f657600080fd5b50d2801561020357600080fd5b5046610157565b34801561021657600080fd5b50d3801561022357600080fd5b50d2801561023057600080fd5b5061024461023f3660046110eb565b6107c5565b6040516101619190611316565b61026461025f366004611188565b610902565b604051610161939291906113c4565b34801561027f57600080fd5b50d3801561028c57600080fd5b50d2801561029957600080fd5b5043610157565b3480156102ac57600080fd5b50d380156102b957600080fd5b50d280156102c657600080fd5b506101576102d536600461104a565b6001600160a01b03163190565b3480156102ee57600080fd5b50d380156102fb57600080fd5b50d2801561030857600080fd5b5044610157565b61017d61031d366004611146565b61091d565b34801561032e57600080fd5b50d3801561033b57600080fd5b50d2801561034857600080fd5b5045610157565b34801561035b57600080fd5b50d3801561036857600080fd5b50d2801561037557600080fd5b50604051418152602001610161565b34801561039057600080fd5b50d3801561039d57600080fd5b50d280156103aa57600080fd5b506102446103b93660046110eb565b610aa5565b61017d6103cc366004611188565b610c48565b6102646103df366004611146565b610de1565b3480156103f057600080fd5b50d380156103fd57600080fd5b50d2801561040a57600080fd5b506101576104193660046111ff565b4090565b34801561042957600080fd5b50d3801561043657600080fd5b50d2801561044357600080fd5b50610244610452366004611077565b610e00565b60606000828067ffffffffffffffff811115610475576104756114be565b6040519080825280602002602001820160405280156104bb57816020015b6040805180820190915260008152606060208201528152602001906001900390816104935790505b5092503660005b828110156105ed5760008582815181106104de576104de6114a8565b602002602001015190508787838181106104fa576104fa6114a8565b905060200281019061050c9190611433565b604081013595860195909350610525602085018561104a565b6001600160a01b03168161053c60608701876113ec565b60405161054a9291906112ec565b60006040518083038185875af1925050503d8060008114610587576040519150601f19603f3d011682016040523d82523d6000602084013e61058c565b606091505b5060208085019190915290151580845290850135176105e35762461bcd60e51b600052602060045260176024527f4d756c746963616c6c333a2063616c6c206661696c656400000000000000000060445260846000fd5b50506001016104c2565b508234146106425760405162461bcd60e51b815260206004820152601a60248201527f4d756c746963616c6c333a2076616c7565206d69736d6174636800000000000060448201526064015b60405180910390fd5b50505092915050565b436060828067ffffffffffffffff811115610668576106686114be565b60405190808252806020026020018201604052801561069b57816020015b60608152602001906001900390816106865790505b5091503660005b828110156107bb5760008787838181106106be576106be6114a8565b90506020028101906106d09190611469565b92506106df602084018461104a565b6001600160a01b03166106f560208501856113ec565b6040516107039291906112ec565b6000604051808303816000865af19150503d8060008114610740576040519150601f19603f3d011682016040523d82523d6000602084013e610745565b606091505b50868481518110610758576107586114a8565b60209081029190910101529050806107b25760405162461bcd60e51b815260206004820152601760248201527f4d756c746963616c6c333a2063616c6c206661696c65640000000000000000006044820152606401610639565b506001016106a2565b5050509250929050565b60606000835167ffffffffffffffff8111156107e3576107e36114be565b60405190808252806020026020018201604052801561080c578160200160208202803683370190505b50905060005b84518110156108fa5784818151811061082d5761082d6114a8565b60209081029190910101516040517f70a082310000000000000000000000000000000000000000000000000000000081526001600160a01b038681166004830152909116906370a082319060240160206040518083038186803b15801561089357600080fd5b505afa1580156108a7573d6000803e3d6000fd5b505050506040513d601f19601f820116820180604052508101906108cb9190611218565b8282815181106108dd576108dd6114a8565b6020908102919091010152806108f28161147f565b915050610812565b509392505050565b4380406060610912868686610c48565b905093509350939050565b6060818067ffffffffffffffff811115610939576109396114be565b60405190808252806020026020018201604052801561097f57816020015b6040805180820190915260008152606060208201528152602001906001900390816109575790505b5091503660005b828110156106425760008482815181106109a2576109a26114a8565b602002602001015190508686838181106109be576109be6114a8565b90506020028101906109d09190611453565b92506109df602084018461104a565b6001600160a01b03166109f560408501856113ec565b604051610a039291906112ec565b6000604051808303816000865af19150503d8060008114610a40576040519150601f19603f3d011682016040523d82523d6000602084013e610a45565b606091505b506020808401919091529015158083529084013517610a9c5762461bcd60e51b600052602060045260176024527f4d756c746963616c6c333a2063616c6c206661696c656400000000000000000060445260646000fd5b50600101610986565b60606000835167ffffffffffffffff811115610ac357610ac36114be565b604051908082528060200260200182016040528015610aec578160200160208202803683370190505b50905060005b84518110156108fa57848181518110610b0d57610b0d6114a8565b60200260200101516001600160a01b0316630dca59c16040518163ffffffff1660e01b815260040160206040518083038186803b158015610b4d57600080fd5b505afa158015610b61573d6000803e3d6000fd5b505050506040513d601f19601f82011682018060405250810190610b8591906111e2565b6040517f8e88041b0000000000000000000000000000000000000000000000000000000081526001600160a01b0386811660048301529190911690638e88041b9060240160206040518083038186803b158015610be157600080fd5b505afa158015610bf5573d6000803e3d6000fd5b505050506040513d601f19601f82011682018060405250810190610c199190611218565b828281518110610c2b57610c2b6114a8565b602090810291909101015280610c408161147f565b915050610af2565b6060818067ffffffffffffffff811115610c6457610c646114be565b604051908082528060200260200182016040528015610caa57816020015b604080518082019091526000815260606020820152815260200190600190039081610c825790505b5091503660005b82811015610dd7576000848281518110610ccd57610ccd6114a8565b60200260200101519050868683818110610ce957610ce96114a8565b9050602002810190610cfb9190611469565b9250610d0a602084018461104a565b6001600160a01b0316610d2060208501856113ec565b604051610d2e9291906112ec565b6000604051808303816000865af19150503d8060008114610d6b576040519150601f19603f3d011682016040523d82523d6000602084013e610d70565b606091505b506020830152151581528715610dce578051610dce5760405162461bcd60e51b815260206004820152601760248201527f4d756c746963616c6c333a2063616c6c206661696c65640000000000000000006044820152606401610639565b50600101610cb1565b5050509392505050565b6000806060610df260018686610902565b919790965090945092505050565b60606000835167ffffffffffffffff811115610e1e57610e1e6114be565b604051908082528060200260200182016040528015610e47578160200160208202803683370190505b50905060005b8451811015610f3157856001600160a01b0316634ac1c33d85878481518110610e7857610e786114a8565b60200260200101516040518363ffffffff1660e01b8152600401610eb29291906001600160a01b0392831681529116602082015260400190565b60206040518083038186803b158015610eca57600080fd5b505afa158015610ede573d6000803e3d6000fd5b505050506040513d601f19601f82011682018060405250810190610f029190611218565b828281518110610f1457610f146114a8565b602090810291909101015280610f298161147f565b915050610e4d565b50949350505050565b60008135610f47816114d4565b6001600160a01b031692915050565b600082601f830112610f6757600080fd5b8135602067ffffffffffffffff80831115610f8457610f846114be565b8260051b604051601f19603f83011681018181108482111715610fa957610fa96114be565b60405284815283810192508684018288018501891015610fc857600080fd5b600092505b85831015610ff257610fde81610f3a565b845292840192600192909201918401610fcd565b50979650505050505050565b60008083601f84011261101057600080fd5b50813567ffffffffffffffff81111561102857600080fd5b6020830191508360208260051b850101111561104357600080fd5b9250929050565b60006020828403121561105c57600080fd5b8135611067816114d4565b6001600160a01b03169392505050565b60008060006060848603121561108c57600080fd5b8335611097816114d4565b6001600160a01b03908116935060208501359067ffffffffffffffff8211156110bf57600080fd5b6110cb87838801610f56565b9350604086013591506110dd826114d4565b808216925050509250925092565b600080604083850312156110fe57600080fd5b823567ffffffffffffffff81111561111557600080fd5b61112185828601610f56565b9250506020830135611132816114d4565b6001600160a01b0381169150509250929050565b6000806020838503121561115957600080fd5b823567ffffffffffffffff81111561117057600080fd5b61117c85828601610ffe565b90969095509350505050565b60008060006040848603121561119d57600080fd5b833580151581146111ad57600080fd5b9250602084013567ffffffffffffffff8111156111c957600080fd5b6111d586828701610ffe565b9497909650939450505050565b6000602082840312156111f457600080fd5b8151611067816114d4565b60006020828403121561121157600080fd5b5035919050565b60006020828403121561122a57600080fd5b5051919050565b600082825180855260208086019550808260051b84010181860160005b8481101561129257858303601f190189528151805115158452840151604085850181905261127e8186018361129f565b9a86019a945050509083019060010161124e565b5090979650505050505050565b6000815180845260005b818110156112c5576020818501810151868301820152016112a9565b818111156112d7576000602083870101525b50601f01601f19169290920160200192915050565b8183823760009101908152919050565b60208152600061130f6020830184611231565b9392505050565b6020808252825182820181905260009190848201906040850190845b8181101561134e57835183529284019291840191600101611332565b50909695505050505050565b600060408201848352602060408185015281855180845260608601915060608160051b870101935082870160005b828110156113b657605f198887030184526113a486835161129f565b95509284019290840190600101611388565b509398975050505050505050565b8381528260208201526060604082015260006113e36060830184611231565b95945050505050565b6000808335601e1984360301811261140357600080fd5b83018035915067ffffffffffffffff82111561141e57600080fd5b60200191503681900382131561104357600080fd5b60008235607e1983360301811261144957600080fd5b9190910192915050565b60008235605e1983360301811261144957600080fd5b60008235603e1983360301811261144957600080fd5b60006000198214156114a157634e487b7160e01b600052601160045260246000fd5b5060010190565b634e487b7160e01b600052603260045260246000fd5b634e487b7160e01b600052604160045260246000fd5b74ffffffffffffffffffffffffffffffffffffffffff811681146114f757600080fd5b5056fea26474726f6e58221220ac164e4b04a54d9c0060110218bf88b45fa66585bacd99cf164f7f7f2afe8dd164736f6c63430008060033",
  "source": "// SPDX-License-Identifier: MIT\npragma solidity ^0.8.6;\nimport \"@openzeppelin/contracts/token/ERC20/ERC20.sol\";\nimport \"./interfaces/ISynthERC20.sol\";\nimport \"./interfaces/IPool.sol\";\n\n\n\n/// @title Multicall3\n/// @notice Aggregate results from multiple function calls\n/// @dev Multicall & Multicall2 backwards-compatible\n/// @dev Aggregate methods are marked `payable` to save 24 gas per call\n/// @author Michael Elliot <mike@makerdao.com>\n/// @author Joshua Levine <joshua@makerdao.com>\n/// @author Nick Johnson <arachnid@notdot.net>\n/// @author Andreas Bigger <andreas@nascent.xyz>\n/// @author Matt Solomon <matt@mattsolomon.dev>\ncontract Multicall {\n    struct Call {\n        address target;\n        bytes callData;\n    }\n\n    struct Call3 {\n        address target;\n        bool allowFailure;\n        bytes callData;\n    }\n\n    struct Call3Value {\n        address target;\n        bool allowFailure;\n        uint256 value;\n        bytes callData;\n    }\n\n    struct Result {\n        bool success;\n        bytes returnData;\n    }\n\n    /// @notice Backwards-compatible call aggregation with Multicall\n    /// @param calls An array of Call structs\n    /// @return blockNumber The block number where the calls were executed\n    /// @return returnData An array of bytes containing the responses\n    function aggregate(Call[] calldata calls) public payable returns (uint256 blockNumber, bytes[] memory returnData) {\n        blockNumber = block.number;\n        uint256 length = calls.length;\n        returnData = new bytes[](length);\n        Call calldata call;\n        for (uint256 i = 0; i < length;) {\n            bool success;\n            call = calls[i];\n            (success, returnData[i]) = call.target.call(call.callData);\n            require(success, \"Multicall3: call failed\");\n            unchecked { ++i; }\n        }\n    }\n\n    /// @notice Backwards-compatible with Multicall2\n    /// @notice Aggregate calls without requiring success\n    /// @param requireSuccess If true, require all calls to succeed\n    /// @param calls An array of Call structs\n    /// @return returnData An array of Result structs\n    function tryAggregate(bool requireSuccess, Call[] calldata calls) public payable returns (Result[] memory returnData) {\n        uint256 length = calls.length;\n        returnData = new Result[](length);\n        Call calldata call;\n        for (uint256 i = 0; i < length;) {\n            Result memory result = returnData[i];\n            call = calls[i];\n            (result.success, result.returnData) = call.target.call(call.callData);\n            if (requireSuccess) require(result.success, \"Multicall3: call failed\");\n            unchecked { ++i; }\n        }\n    }\n\n    /// @notice Backwards-compatible with Multicall2\n    /// @notice Aggregate calls and allow failures using tryAggregate\n    /// @param calls An array of Call structs\n    /// @return blockNumber The block number where the calls were executed\n    /// @return blockHash The hash of the block where the calls were executed\n    /// @return returnData An array of Result structs\n    function tryBlockAndAggregate(bool requireSuccess, Call[] calldata calls) public payable returns (uint256 blockNumber, bytes32 blockHash, Result[] memory returnData) {\n        blockNumber = block.number;\n        blockHash = blockhash(block.number);\n        returnData = tryAggregate(requireSuccess, calls);\n    }\n\n    /// @notice Backwards-compatible with Multicall2\n    /// @notice Aggregate calls and allow failures using tryAggregate\n    /// @param calls An array of Call structs\n    /// @return blockNumber The block number where the calls were executed\n    /// @return blockHash The hash of the block where the calls were executed\n    /// @return returnData An array of Result structs\n    function blockAndAggregate(Call[] calldata calls) public payable returns (uint256 blockNumber, bytes32 blockHash, Result[] memory returnData) {\n        (blockNumber, blockHash, returnData) = tryBlockAndAggregate(true, calls);\n    }\n\n    /// @notice Aggregate calls, ensuring each returns success if required\n    /// @param calls An array of Call3 structs\n    /// @return returnData An array of Result structs\n    function aggregate3(Call3[] calldata calls) public payable returns (Result[] memory returnData) {\n        uint256 length = calls.length;\n        returnData = new Result[](length);\n        Call3 calldata calli;\n        for (uint256 i = 0; i < length;) {\n            Result memory result = returnData[i];\n            calli = calls[i];\n            (result.success, result.returnData) = calli.target.call(calli.callData);\n            assembly {\n                // Revert if the call fails and failure is not allowed\n                // `allowFailure := calldataload(add(calli, 0x20))` and `success := mload(result)`\n                if iszero(or(calldataload(add(calli, 0x20)), mload(result))) {\n                    // set \"Error(string)\" signature: bytes32(bytes4(keccak256(\"Error(string)\")))\n                    mstore(0x00, 0x08c379a000000000000000000000000000000000000000000000000000000000)\n                    // set data offset\n                    mstore(0x04, 0x0000000000000000000000000000000000000000000000000000000000000020)\n                    // set length of revert string\n                    mstore(0x24, 0x0000000000000000000000000000000000000000000000000000000000000017)\n                    // set revert string: bytes32(abi.encodePacked(\"Multicall3: call failed\"))\n                    mstore(0x44, 0x4d756c746963616c6c333a2063616c6c206661696c6564000000000000000000)\n                    revert(0x00, 0x64)\n                }\n            }\n            unchecked { ++i; }\n        }\n    }\n\n    /// @notice Aggregate calls with a msg value\n    /// @notice Reverts if msg.value is less than the sum of the call values\n    /// @param calls An array of Call3Value structs\n    /// @return returnData An array of Result structs\n    function aggregate3Value(Call3Value[] calldata calls) public payable returns (Result[] memory returnData) {\n        uint256 valAccumulator;\n        uint256 length = calls.length;\n        returnData = new Result[](length);\n        Call3Value calldata calli;\n        for (uint256 i = 0; i < length;) {\n            Result memory result = returnData[i];\n            calli = calls[i];\n            uint256 val = calli.value;\n            // Humanity will be a Type V Kardashev Civilization before this overflows - andreas\n            // ~ 10^25 Wei in existence << ~ 10^76 size uint fits in a uint256\n            unchecked { valAccumulator += val; }\n            (result.success, result.returnData) = calli.target.call{value: val}(calli.callData);\n            assembly {\n                // Revert if the call fails and failure is not allowed\n                // `allowFailure := calldataload(add(calli, 0x20))` and `success := mload(result)`\n                if iszero(or(calldataload(add(calli, 0x20)), mload(result))) {\n                    // set \"Error(string)\" signature: bytes32(bytes4(keccak256(\"Error(string)\")))\n                    mstore(0x00, 0x08c379a000000000000000000000000000000000000000000000000000000000)\n                    // set data offset\n                    mstore(0x04, 0x0000000000000000000000000000000000000000000000000000000000000020)\n                    // set length of revert string\n                    mstore(0x24, 0x0000000000000000000000000000000000000000000000000000000000000017)\n                    // set revert string: bytes32(abi.encodePacked(\"Multicall3: call failed\"))\n                    mstore(0x44, 0x4d756c746963616c6c333a2063616c6c206661696c6564000000000000000000)\n                    revert(0x00, 0x84)\n                }\n            }\n            unchecked { ++i; }\n        }\n        // Finally, make sure the msg.value = SUM(call[0...i].value)\n        require(msg.value == valAccumulator, \"Multicall3: value mismatch\");\n    }\n\n    /// @notice Returns the block hash for the given block number\n    /// @param blockNumber The block number\n    function getBlockHash(uint256 blockNumber) public view returns (bytes32 blockHash) {\n        blockHash = blockhash(blockNumber);\n    }\n\n    /// @notice Returns the block number\n    function getBlockNumber() public view returns (uint256 blockNumber) {\n        blockNumber = block.number;\n    }\n\n    /// @notice Returns the block coinbase\n    function getCurrentBlockCoinbase() public view returns (address coinbase) {\n        coinbase = block.coinbase;\n    }\n\n    /// @notice Returns the block difficulty\n    function getCurrentBlockDifficulty() public view returns (uint256 difficulty) {\n        difficulty = block.difficulty;\n    }\n\n    /// @notice Returns the block gas limit\n    function getCurrentBlockGasLimit() public view returns (uint256 gaslimit) {\n        gaslimit = block.gaslimit;\n    }\n\n    /// @notice Returns the block timestamp\n    function getCurrentBlockTimestamp() public view returns (uint256 timestamp) {\n        timestamp = block.timestamp;\n    }\n\n    /// @notice Returns the (ETH) balance of a given address\n    function getEthBalance(address addr) public view returns (uint256 balance) {\n        balance = addr.balance;\n    }\n\n    /// @notice Returns the block hash of the last block\n    function getLastBlockHash() public view returns (bytes32 blockHash) {\n        unchecked {\n            blockHash = blockhash(block.number - 1);\n        }\n    }\n\n    /// @notice Returns the chain id\n    function getChainId() public view returns (uint256 chainid) {\n        chainid = block.chainid;\n    }\n}\n\n// extend multicall with support for tronweb response\ncontract Helper is Multicall {\n    function balanceOf(address[] memory tokens, address user) public view returns (uint[] memory balance) {\n        uint[] memory returnData = new uint[](tokens.length);\n        for(uint256 i = 0; i < tokens.length; i++) {\n            returnData[i] = IERC20(tokens[i]).balanceOf(user);\n        }\n        return returnData;\n    }\n    \n    function debtBalanceOf(address[] memory tokens, address user) public view returns (uint[] memory balance) {\n        uint[] memory returnData = new uint[](tokens.length);\n        for(uint256 i = 0; i < tokens.length; i++) {\n            returnData[i] = IDebtTracker(ISynthERC20(tokens[i]).debt()).getBorrowBalanceStored(user);\n        }\n        return returnData;\n    }\n    \n    function tradingBalanceOf(address pool, address[] memory tokens, address user) public view returns(uint[] memory balance){\n        uint[] memory returnData = new uint[](tokens.length);\n        for(uint256 i = 0; i < tokens.length; i++) {\n            returnData[i] = IPool(pool).debts(user, tokens[i]);\n        }\n        return returnData;\n    }\n}",
  "sourcePath": "/Users/prasad/projects/synthex/contracts/contracts/Helper.sol",
  "compiler": {
    "name": "solc",
    "version": "0.8.6+commit.0e36fba0.mod.Emscripten.clang"
  },
  "schemaVersion": "2.0.1",
  "updatedAt": "2022-11-16T08:23:15.837Z"
}