{
  "contractName": "LimitOrder",
  "abi": [
    {
      "inputs": [
        {
          "internalType": "address",
          "name": "_system",
          "type": "address"
        }
      ],
      "stateMutability": "nonpayable",
      "type": "constructor"
    },
    {
      "inputs": [
        {
          "internalType": "address",
          "name": "maker",
          "type": "address"
        },
        {
          "internalType": "address",
          "name": "src",
          "type": "address"
        },
        {
          "internalType": "address",
          "name": "dst",
          "type": "address"
        },
        {
          "internalType": "uint256",
          "name": "srcAmount",
          "type": "uint256"
        },
        {
          "internalType": "uint256",
          "name": "fillAmount",
          "type": "uint256"
        },
        {
          "internalType": "bytes",
          "name": "signature",
          "type": "bytes"
        }
      ],
      "name": "executeOrder",
      "outputs": [],
      "stateMutability": "nonpayable",
      "type": "function"
    },
    {
      "inputs": [
        {
          "internalType": "bytes32",
          "name": "",
          "type": "bytes32"
        }
      ],
      "name": "orderFills",
      "outputs": [
        {
          "internalType": "uint256",
          "name": "",
          "type": "uint256"
        }
      ],
      "stateMutability": "view",
      "type": "function"
    }
  ],
  "bytecode": "0x61014060405234801561001157600080fd5b50d3801561001e57600080fd5b50d2801561002b57600080fd5b50604051610b3a380380610b3a83398101604081905261004a91610175565b604080518082018252601481527f53796e746865584c696d69744f726465724445580000000000000000000000006020808301918252835180850190945260018452603160f81b908401528151902060e08190527fc89efdaa54c0f20c7adf612882df0950f5a951637e0307cdcb4c672f298b8bc66101008190524660a0529192917f8b73c3c69bb8fe3d512ecc4cf759cc79239f7b179b0ffacaa9a75d522b39400f61013c8184846040805160208101859052908101839052606081018290524660808201523060a082015260009060c0016040516020818303038152906040528051906020012090509392505050565b6080523060601b60c052610120525050600180546001600160a01b0319166001600160a01b039490941693909317909255506101ae9050565b60006020828403121561018757600080fd5b81516001600160a81b038116811461019e57600080fd5b6001600160a01b03169392505050565b60805160a05160c05160601c60e051610100516101205161093a61020060003960006104ff0152600061054e0152600061052901526000610482015260006104ac015260006104d6015261093a6000f3fe608060405234801561001057600080fd5b50d3801561001d57600080fd5b50d2801561002a57600080fd5b50600436106100505760003560e01c806364cd7e6b14610055578063f7213db61461006a575b600080fd5b610068610063366004610705565b61009c565b005b61008a6100783660046107fa565b60006020819052908152604090205481565b60405190815260200160405180910390f35b6001546001600160a01b031633146100fb5760405162461bcd60e51b815260206004820152601e60248201527f4f6e6c792053797374656d2063616e2065786563757465206f7264657273000060448201526064015b60405180910390fd5b604080517f660bf6991e59fd912cd6a80158ce78413fb925620f81f950c201602f15bd0deb60208201526001600160a01b03808916928201929092528187166060820152908516608082015260a081018490526000906101739060c0016040516020818303038152906040528051906020012061027c565b90506101808782846102eb565b6101cc5760405162461bcd60e51b815260206004820152601160248201527f496e76616c6964207369676e617475726500000000000000000000000000000060448201526064016100f2565b600081815260208190526040812080548592906101ea908490610882565b90915550506000818152602081905260409020548410156102735760405162461bcd60e51b815260206004820152602660248201527f4f726465722066696c6c20616d6f756e742065786365656473206f726465722060448201527f616d6f756e74000000000000000000000000000000000000000000000000000060648201526084016100f2565b50505050505050565b60006102e5610289610475565b836040517f19010000000000000000000000000000000000000000000000000000000000006020820152602281018390526042810182905260009060620160405160208183030381529060405280519060200120905092915050565b92915050565b60008060006102fa858561059c565b90925090506000816004811115610313576103136108d8565b1480156103315750856001600160a01b0316826001600160a01b0316145b156103415760019250505061046e565b600080876001600160a01b0316631626ba7e60e01b8888604051602401610369929190610848565b60408051601f198184030181529181526020820180517bffffffffffffffffffffffffffffffffffffffffffffffffffffffff167fffffffff000000000000000000000000000000000000000000000000000000009094169390931790925290516103d4919061082c565b600060405180830381855afa9150503d806000811461040f576040519150601f19603f3d011682016040523d82523d6000602084013e610414565b606091505b5091509150818015610427575080516020145b8015610467575080517f1626ba7e00000000000000000000000000000000000000000000000000000000906104659083016020908101908401610813565b145b9450505050505b9392505050565b6000306001600160a01b037f0000000000000000000000000000000000000000000000000000000000000000161480156104ce57507f000000000000000000000000000000000000000000000000000000000000000046145b156104f857507f000000000000000000000000000000000000000000000000000000000000000090565b50604080517f00000000000000000000000000000000000000000000000000000000000000006020808301919091527f0000000000000000000000000000000000000000000000000000000000000000828401527f000000000000000000000000000000000000000000000000000000000000000060608301524660808301523060a0808401919091528351808403909101815260c0909201909252805191012090565b6000808251604114156105d35760208301516040840151606085015160001a6105c7878285856105e2565b945094505050506105db565b506000905060025b9250929050565b6000807f7fffffffffffffffffffffffffffffff5d576e7357a4501ddfe92f46681b20a083111561061957506000905060036106c6565b8460ff16601b1415801561063157508460ff16601c14155b1561064257506000905060046106c6565b6040805160008082526020820180845289905260ff881692820192909252606081018690526080810185905260019060a0016020604051602081039080840390855afa158015610696573d6000803e3d6000fd5b5050604051601f1901519150506001600160a01b0381166106bf576000600192509250506106c6565b9150600090505b94509492505050565b6000813574ffffffffffffffffffffffffffffffffffffffffff811681146106f657600080fd5b6001600160a01b031692915050565b60008060008060008060c0878903121561071e57600080fd5b610727876106cf565b9550610735602088016106cf565b9450610743604088016106cf565b9350606087013592506080870135915060a087013567ffffffffffffffff8082111561076e57600080fd5b818901915089601f83011261078257600080fd5b813581811115610794576107946108ee565b604051601f8201601f19908116603f011681019083821181831017156107bc576107bc6108ee565b816040528281528c60208487010111156107d557600080fd5b8260208601602083013760006020848301015280955050505050509295509295509295565b60006020828403121561080c57600080fd5b5035919050565b60006020828403121561082557600080fd5b5051919050565b6000825161083e8184602087016108a8565b9190910192915050565b828152604060208201526000825180604084015261086d8160608501602087016108a8565b601f01601f1916919091016060019392505050565b600082198211156108a357634e487b7160e01b600052601160045260246000fd5b500190565b60005b838110156108c35781810151838201526020016108ab565b838111156108d2576000848401525b50505050565b634e487b7160e01b600052602160045260246000fd5b634e487b7160e01b600052604160045260246000fdfea26474726f6e58221220bde69076c9acd147f3ddb07d950981e38a8e86c0e109a4a6575ace0e925674d764736f6c63430008060033",
  "source": "// SPDX-License-Identifier: MIT\npragma solidity ^0.8.6;\nimport \"@openzeppelin/contracts/utils/cryptography/ECDSA.sol\";\nimport \"@openzeppelin/contracts/utils/cryptography/SignatureChecker.sol\";\nimport \"@openzeppelin/contracts/utils/cryptography/draft-EIP712.sol\";\nimport \"@openzeppelin/contracts/interfaces/IERC20.sol\";\nimport \"./interfaces/ISynthERC20.sol\";\n\nimport \"./interfaces/ISystem.sol\";\n\ncontract LimitOrder is EIP712 {\n\n    struct Order {\n        address maker;\n        address src;\n        address dst;\n        uint256 srcAmount;\n    }\n\n    mapping(bytes32 => uint) public orderFills;\n\n    ISystem system;\n\n    constructor(address _system) EIP712(\"SyntheXLimitOrderDEX\", \"1\") {\n        system = ISystem(_system);\n    }\n\n    function executeOrder(address maker, address src, address dst, uint256 srcAmount, uint256 fillAmount, bytes memory signature) public {\n        require(msg.sender == address(system), \"Only System can execute orders\");\n        // check signature\n        bytes32 digest = _hashTypedDataV4(keccak256(abi.encode(\n            keccak256(\"Order(address maker,address src,address dst,uint256 srcAmount)\"),\n            maker,\n            src,\n            dst,\n            srcAmount\n        )));\n        // verify signature\n        require(SignatureChecker.isValidSignatureNow(maker, digest, signature), \"Invalid signature\");\n        // check fill amount\n        orderFills[digest] += fillAmount;\n        require(orderFills[digest] <= srcAmount, \"Order fill amount exceeds order amount\");\n    }\n}",
  "sourcePath": "/Users/prasad/projects/synthex/contracts/contracts/LimitOrder.sol",
  "compiler": {
    "name": "solc",
    "version": "0.8.6+commit.0e36fba0.mod.Emscripten.clang"
  },
  "schemaVersion": "2.0.1",
  "updatedAt": "2022-11-16T08:23:15.783Z"
}