{
  "contractName": "Liquidator",
  "abi": [
    {
      "inputs": [
        {
          "internalType": "contract ISystem",
          "name": "_system",
          "type": "address"
        }
      ],
      "stateMutability": "nonpayable",
      "type": "constructor"
    },
    {
      "inputs": [
        {
          "internalType": "address",
          "name": "liquidator",
          "type": "address"
        },
        {
          "internalType": "address",
          "name": "user",
          "type": "address"
        }
      ],
      "name": "liquidate",
      "outputs": [],
      "stateMutability": "nonpayable",
      "type": "function"
    },
    {
      "inputs": [
        {
          "internalType": "address",
          "name": "liquidator",
          "type": "address"
        },
        {
          "internalType": "address",
          "name": "user",
          "type": "address"
        },
        {
          "internalType": "address",
          "name": "borrowedAsset",
          "type": "address"
        },
        {
          "internalType": "uint256",
          "name": "repayAmount",
          "type": "uint256"
        }
      ],
      "name": "partialLiquidate",
      "outputs": [],
      "stateMutability": "nonpayable",
      "type": "function"
    },
    {
      "inputs": [
        {
          "internalType": "address",
          "name": "asset",
          "type": "address"
        },
        {
          "internalType": "uint256",
          "name": "amount",
          "type": "uint256"
        }
      ],
      "name": "toUSD",
      "outputs": [
        {
          "internalType": "uint256",
          "name": "",
          "type": "uint256"
        }
      ],
      "stateMutability": "view",
      "type": "function"
    }
  ],
  "bytecode": "0x60806040526305f5e10060025534801561001857600080fd5b50d3801561002557600080fd5b50d2801561003257600080fd5b5060405161146138038061146183398101604081905261005191610076565b600080546001600160a01b0319166001600160a01b03929092169190911790556100af565b60006020828403121561008857600080fd5b81516001600160a81b038116811461009f57600080fd5b6001600160a01b03169392505050565b6113a3806100be6000396000f3fe608060405234801561001057600080fd5b50d3801561001d57600080fd5b50d2801561002a57600080fd5b506004361061005b5760003560e01c806378faf78b1461006057806386b9d81f14610075578063cd4f4a9c14610088575b600080fd5b61007361006e36600461120d565b6100ad565b005b6100736100833660046111c7565b610a0a565b61009b610096366004611270565b6110ea565b60405190815260200160405180910390f35b6000546001600160a01b031633146101325760405162461bcd60e51b815260206004820152602660248201527f4c697175696461746f723a204f6e6c7920726573657276652063616e206c697160448201527f756964617465000000000000000000000000000000000000000000000000000060648201526084015b60405180910390fd5b600061013e83836110ea565b9050600061027560008054906101000a90046001600160a01b03166001600160a01b031663a1a685126040518163ffffffff1660e01b815260040160206040518083038186803b15801561019157600080fd5b505afa1580156101a5573d6000803e3d6000fd5b505050506040513d601f19601f820116820180604052508101906101c9919061119a565b6040517f1ff517ff0000000000000000000000000000000000000000000000000000000081526001600160a01b0388811660048301529190911690631ff517ff9060240160206040518083038186803b15801561022557600080fd5b505afa158015610239573d6000803e3d6000fd5b505050506040513d601f19601f8201168201806040525081019061025d91906112a5565b61026f84670de0b6b3a7640000611176565b90611182565b6000546040517f72c798150000000000000000000000000000000000000000000000000000000081526001600160a01b0387811660048301529293509116906372c798159060240160206040518083038186803b1580156102d557600080fd5b505afa1580156102e9573d6000803e3d6000fd5b505050506040513d601f19601f8201168201806040525081019061030d919061119a565b604051631da649cf60e01b81526001600160a01b0387811660048301528881166024830152604482018690529190911690631da649cf90606401600060405180830381600087803b15801561036157600080fd5b505af1158015610375573d6000803e3d6000fd5b5050505060008060009054906101000a90046001600160a01b03166001600160a01b0316637c4fb53d6040518163ffffffff1660e01b815260040160206040518083038186803b1580156103c857600080fd5b505afa1580156103dc573d6000803e3d6000fd5b505050506040513d601f19601f82011682018060405250810190610400919061119a565b6001600160a01b031663153cc9ed6040518163ffffffff1660e01b815260040160206040518083038186803b15801561043857600080fd5b505afa15801561044c573d6000803e3d6000fd5b505050506040513d601f19601f8201168201806040525081019061047091906112a5565b905060005b8181101561098c5760008060009054906101000a90046001600160a01b03166001600160a01b0316637c4fb53d6040518163ffffffff1660e01b815260040160206040518083038186803b1580156104cc57600080fd5b505afa1580156104e0573d6000803e3d6000fd5b505050506040513d601f19601f82011682018060405250810190610504919061119a565b6001600160a01b0316637dbbf51e836040518263ffffffff1660e01b815260040161053191815260200190565b60206040518083038186803b15801561054957600080fd5b505afa15801561055d573d6000803e3d6000fd5b505050506040513d601f19601f82011682018060405250810190610581919061119a565b6040517f70a082310000000000000000000000000000000000000000000000000000000081526001600160a01b038a8116600483015291925060009161063391670de0b6b3a76400009161026f9189918716906370a082319060240160206040518083038186803b1580156105f557600080fd5b505afa158015610609573d6000803e3d6000fd5b505050506040513d601f19601f8201168201806040525081019061062d91906112a5565b90611176565b9050801561097757600061064783836110ea565b905060008054906101000a90046001600160a01b03166001600160a01b0316637c4fb53d6040518163ffffffff1660e01b815260040160206040518083038186803b15801561069557600080fd5b505afa1580156106a9573d6000803e3d6000fd5b505050506040513d601f19601f820116820180604052508101906106cd919061119a565b6001600160a01b031663c2c9280b8b856001600160a01b0316632495a5996040518163ffffffff1660e01b815260040160206040518083038186803b15801561071557600080fd5b505afa158015610729573d6000803e3d6000fd5b505050506040513d601f19601f8201168201806040525081019061074d919061119a565b6040517fffffffff0000000000000000000000000000000000000000000000000000000060e085901b1681526001600160a01b0392831660048201529116602482015260448101859052606401600060405180830381600087803b1580156107b457600080fd5b505af11580156107c8573d6000803e3d6000fd5b5050505060008054906101000a90046001600160a01b03166001600160a01b031663cd3293de6040518163ffffffff1660e01b815260040160206040518083038186803b15801561081857600080fd5b505afa15801561082c573d6000803e3d6000fd5b505050506040513d601f19601f82011682018060405250810190610850919061119a565b6001600160a01b031663078d3b798b856001600160a01b0316632495a5996040518163ffffffff1660e01b815260040160206040518083038186803b15801561089857600080fd5b505afa1580156108ac573d6000803e3d6000fd5b505050506040513d601f19601f820116820180604052508101906108d0919061119a565b6040517fffffffff0000000000000000000000000000000000000000000000000000000060e085901b1681526001600160a01b0392831660048201529116602482015260448101859052606401600060405180830381600087803b15801561093757600080fd5b505af115801561094b573d6000803e3d6000fd5b505050508681111561096857610961878061118e565b9650610975565b610972878261118e565b96505b505b5050808061098490611316565b915050610475565b508215610a015760405162461bcd60e51b815260206004820152602160248201527f4c697175696461746f723a204e6f7420656e6f75676820636f6c6c617465726160448201527f6c000000000000000000000000000000000000000000000000000000000000006064820152608401610129565b50505050505050565b60008060009054906101000a90046001600160a01b03166001600160a01b031663a1a685126040518163ffffffff1660e01b815260040160206040518083038186803b158015610a5957600080fd5b505afa158015610a6d573d6000803e3d6000fd5b505050506040513d601f19601f82011682018060405250810190610a91919061119a565b6001600160a01b031663b7618d2f6040518163ffffffff1660e01b815260040160206040518083038186803b158015610ac957600080fd5b505afa158015610add573d6000803e3d6000fd5b505050506040513d601f19601f82011682018060405250810190610b0191906112a5565b905060005b81811015610c955760008060009054906101000a90046001600160a01b03166001600160a01b031663a1a685126040518163ffffffff1660e01b815260040160206040518083038186803b158015610b5d57600080fd5b505afa158015610b71573d6000803e3d6000fd5b505050506040513d601f19601f82011682018060405250810190610b95919061119a565b6001600160a01b031663ea650a82836040518263ffffffff1660e01b8152600401610bc291815260200190565b60206040518083038186803b158015610bda57600080fd5b505afa158015610bee573d6000803e3d6000fd5b505050506040513d601f19601f82011682018060405250810190610c12919061119a565b604051631da649cf60e01b81526001600160a01b0386811660048301528781166024830152600019604483015291925090821690631da649cf90606401600060405180830381600087803b158015610c6957600080fd5b505af1158015610c7d573d6000803e3d6000fd5b50505050508080610c8d90611316565b915050610b06565b5060008060009054906101000a90046001600160a01b03166001600160a01b0316637c4fb53d6040518163ffffffff1660e01b815260040160206040518083038186803b158015610ce557600080fd5b505afa158015610cf9573d6000803e3d6000fd5b505050506040513d601f19601f82011682018060405250810190610d1d919061119a565b6001600160a01b031663153cc9ed6040518163ffffffff1660e01b815260040160206040518083038186803b158015610d5557600080fd5b505afa158015610d69573d6000803e3d6000fd5b505050506040513d601f19601f82011682018060405250810190610d8d91906112a5565b905060005b818110156110e35760008060009054906101000a90046001600160a01b03166001600160a01b0316637c4fb53d6040518163ffffffff1660e01b815260040160206040518083038186803b158015610de957600080fd5b505afa158015610dfd573d6000803e3d6000fd5b505050506040513d601f19601f82011682018060405250810190610e21919061119a565b6001600160a01b0316637dbbf51e836040518263ffffffff1660e01b8152600401610e4e91815260200190565b60206040518083038186803b158015610e6657600080fd5b505afa158015610e7a573d6000803e3d6000fd5b505050506040513d601f19601f82011682018060405250810190610e9e919061119a565b905060008060009054906101000a90046001600160a01b03166001600160a01b0316637c4fb53d6040518163ffffffff1660e01b815260040160206040518083038186803b158015610eef57600080fd5b505afa158015610f03573d6000803e3d6000fd5b505050506040513d601f19601f82011682018060405250810190610f27919061119a565b6040517fcc218ece0000000000000000000000000000000000000000000000000000000081526001600160a01b0388811660048301528481166024830152919091169063cc218ece9060440160206040518083038186803b158015610f8b57600080fd5b505afa158015610f9f573d6000803e3d6000fd5b505050506040513d601f19601f82011682018060405250810190610fc391906112a5565b905060008054906101000a90046001600160a01b03166001600160a01b031663cd3293de6040518163ffffffff1660e01b815260040160206040518083038186803b15801561101157600080fd5b505afa158015611025573d6000803e3d6000fd5b505050506040513d601f19601f82011682018060405250810190611049919061119a565b6040517f078d3b790000000000000000000000000000000000000000000000000000000081526001600160a01b038881166004830152848116602483015260448201849052919091169063078d3b7990606401600060405180830381600087803b1580156110b657600080fd5b505af11580156110ca573d6000803e3d6000fd5b50505050505080806110db90611316565b915050610d92565b5050505050565b600061116f6305f5e10061026f856001600160a01b03166311f37ceb6040518163ffffffff1660e01b815260040160206040518083038186803b15801561113057600080fd5b505afa158015611144573d6000803e3d6000fd5b505050506040513d601f19601f8201168201806040525081019061116891906112a5565b8590611176565b9392505050565b600061116f82846112e0565b600061116f82846112be565b600061116f82846112ff565b6000602082840312156111ac57600080fd5b81516111b781611347565b6001600160a01b03169392505050565b600080604083850312156111da57600080fd5b82356111e581611347565b6001600160a01b03908116925060208401359061120182611347565b92959216935090915050565b6000806000806080858703121561122357600080fd5b843561122e81611347565b6001600160a01b03908116945060208601359061124a82611347565b908116935060408601359061125e82611347565b94979396509093169360600135925050565b6000806040838503121561128357600080fd5b823561128e81611347565b6001600160a01b0316946020939093013593505050565b6000602082840312156112b757600080fd5b5051919050565b6000826112db57634e487b7160e01b600052601260045260246000fd5b500490565b60008160001904831182151516156112fa576112fa611331565b500290565b60008282101561131157611311611331565b500390565b600060001982141561132a5761132a611331565b5060010190565b634e487b7160e01b600052601160045260246000fd5b74ffffffffffffffffffffffffffffffffffffffffff8116811461136a57600080fd5b5056fea26474726f6e58221220d08c637de6b1ebf398fc950f289cf56a40b8d58887bb038bd490bc67485b8ff064736f6c63430008060033",
  "source": "// SPDX-License-Identifier: SEE LICENSE IN LICENSE\npragma solidity ^0.8.6;\n\nimport \"./interfaces/ISystem.sol\";\nimport \"contracts/interfaces/ISynthERC20.sol\";\nimport \"./interfaces/IReserve.sol\";\nimport \"./interfaces/ICollateralManager.sol\";\nimport \"./interfaces/ICollateralERC20.sol\";\nimport \"./interfaces/IDebtManager.sol\";\n\nimport \"@openzeppelin/contracts/utils/math/SafeMath.sol\";\nimport \"hardhat/console.sol\";\n\ncontract Liquidator {\n    using SafeMath for uint;\n    ISystem system;\n    uint reward;\n    uint rewardDecimals = 1e8;\n        \n    constructor(ISystem _system){\n        system = _system;\n    }\n\n    function liquidate(address liquidator, address user) external {\n        uint dAssetsCount = IDebtManager(system.dManager()).dAssetsCount();\n        for(uint i = 0; i < dAssetsCount; i++){\n            address dAsset = IDebtManager(system.dManager()).dAssets(i);\n            IDebtTracker(dAsset).repay(user, liquidator, type(uint).max);\n        }\n\n        uint cAssetsCount = ICollateralManager(system.cManager()).cAssetsCount();\n        for(uint i = 0; i < cAssetsCount; i++){\n            address cAsset = ICollateralManager(system.cManager()).cAssets(i);\n            uint cAmount = ICollateralManager(system.cManager()).collateral(user, cAsset);\n            IReserve(system.reserve()).transferOut(user, cAsset, cAmount);\n        }\n    }\n\n    function partialLiquidate(address liquidator, address user, address borrowedAsset, uint repayAmount) external {\n        require(msg.sender == address(system), \"Liquidator: Only reserve can liquidate\");\n        \n        uint repayAmountUSD = toUSD(borrowedAsset, repayAmount);\n        uint cPercent = repayAmountUSD.mul(1e18).div(IDebtManager(system.dManager()).totalDebt(user));\n        \n        IDebtTracker(system.getDebtTracker(borrowedAsset)).repay(user, liquidator, repayAmount);\n        \n        uint cAssetsCount = ICollateralManager(system.cManager()).cAssetsCount();\n        for(uint i = 0; i < cAssetsCount; i++){\n            address cAsset = ICollateralManager(system.cManager()).cAssets(i);\n            uint cAmount = ICollateralERC20(cAsset).balanceOf(user).mul(cPercent).div(1e18);\n            if(cAmount > 0){\n                uint cAmountUSD = toUSD(cAsset, cAmount);\n                ICollateralManager(system.cManager())._decreaseCollateral(user, ICollateralERC20(cAsset).underlyingToken(), cAmount);\n                IReserve(system.reserve()).transferOut(user, ICollateralERC20(cAsset).underlyingToken(), cAmount);\n\n                // for the last collateral: repayment(borrowed+reward) will be <= cAmountUSD\n                if(cAmountUSD > repayAmountUSD){\n                    repayAmountUSD = repayAmountUSD.sub(repayAmountUSD);\n                } else {\n                    repayAmountUSD = repayAmountUSD.sub(cAmountUSD);\n                }\n            }\n        }\n        require(repayAmountUSD == 0, \"Liquidator: Not enough collateral\");\n    }\n\n    function toUSD(address asset, uint amount) public view returns(uint){\n        return amount.mul(ISynthERC20(asset).get_price()).div(10**8);\n    }\n}",
  "sourcePath": "/Users/prasad/projects/synthex/contracts/contracts/Liquidator.sol",
  "compiler": {
    "name": "solc",
    "version": "0.8.6+commit.0e36fba0.mod.Emscripten.clang"
  },
  "schemaVersion": "2.0.1",
  "updatedAt": "2022-10-18T05:13:13.121Z"
}