{
  "contractName": "MockInterestRateModel",
  "abi": [
    {
      "inputs": [
        {
          "internalType": "contract ISystem",
          "name": "_system",
          "type": "address"
        }
      ],
      "stateMutability": "nonpayable",
      "type": "constructor"
    },
    {
      "inputs": [
        {
          "internalType": "uint256",
          "name": "",
          "type": "uint256"
        }
      ],
      "name": "getInterestRate",
      "outputs": [
        {
          "internalType": "uint256",
          "name": "",
          "type": "uint256"
        }
      ],
      "stateMutability": "view",
      "type": "function"
    },
    {
      "inputs": [
        {
          "internalType": "uint256",
          "name": "_interestRate",
          "type": "uint256"
        }
      ],
      "name": "setInterestRate",
      "outputs": [],
      "stateMutability": "nonpayable",
      "type": "function"
    }
  ],
  "bytecode": "0x608060405234801561001057600080fd5b50d3801561001d57600080fd5b50d2801561002a57600080fd5b506040516103383803806103388339810160408190526100499161006e565b600080546001600160a01b0319166001600160a01b03929092169190911790556100a7565b60006020828403121561008057600080fd5b81516001600160a81b038116811461009757600080fd5b6001600160a01b03169392505050565b610282806100b66000396000f3fe608060405234801561001057600080fd5b50d3801561001d57600080fd5b50d2801561002a57600080fd5b50600436106100505760003560e01c80630c196a74146100555780635f84f3021461007c575b600080fd5b61006a610063366004610233565b5060015490565b60405190815260200160405180910390f35b61008f61008a366004610233565b610091565b005b600054604080517f8da5cb5b0000000000000000000000000000000000000000000000000000000081529051339273ffffffffffffffffffffffffffffffffffffffff1691638da5cb5b916004808301926020929190829003018186803b1580156100fb57600080fd5b505afa15801561010f573d6000803e3d6000fd5b505050506040513d601f19601f8201168201806040525081019061013391906101df565b73ffffffffffffffffffffffffffffffffffffffff16146101da576040517f08c379a000000000000000000000000000000000000000000000000000000000815260206004820152603360248201527f4669786564496e746572657374526174653a204f6e6c79206f776e657220636160448201527f6e2073657420696e746572657374207261746500000000000000000000000000606482015260840160405180910390fd5b600155565b6000602082840312156101f157600080fd5b815174ffffffffffffffffffffffffffffffffffffffffff8116811461021657600080fd5b73ffffffffffffffffffffffffffffffffffffffff169392505050565b60006020828403121561024557600080fd5b503591905056fea26474726f6e582212207a6f1bf58c4c127f5260250c7b171d95456cdffe11f9b16e583a674ed190fd7664736f6c63430008060033",
  "source": "// SPDX-License-Identifier: SEE LICENSE IN LICENSE\npragma solidity ^0.8.6;\n\nimport \"../interfaces/ISystem.sol\";\n\ncontract MockInterestRateModel {\n    ISystem system;\n\n    // Interest rate per second\n    uint interestRate;\n    uint interestRateDecimals;\n\n    constructor(ISystem _system){\n        system = _system;\n    }\n\n    // x = interest rate per second\n    // y = interest rate per year\n    // x = (y+1)**(1/31536000) - 1\n    // 1 % APR = 0.000000021979553066 % APS\n    function setInterestRate(uint _interestRate) external {\n        require(system.owner() == msg.sender, \"FixedInterestRate: Only owner can set interest rate\");\n        interestRate = _interestRate;\n    }\n\n    function getInterestRate(uint) external view returns(uint){\n        return (interestRate);\n    }\n}",
  "sourcePath": "/Users/prasad/projects/synthex/contracts/contracts/mock/MockInterestRateModel.sol",
  "compiler": {
    "name": "solc",
    "version": "0.8.6+commit.0e36fba0.mod.Emscripten.clang"
  },
  "schemaVersion": "2.0.1",
  "updatedAt": "2022-10-13T10:21:41.947Z"
}