{
  "contractName": "MockPriceOracle",
  "abi": [
    {
      "anonymous": false,
      "inputs": [
        {
          "indexed": true,
          "internalType": "address",
          "name": "previousOwner",
          "type": "address"
        },
        {
          "indexed": true,
          "internalType": "address",
          "name": "newOwner",
          "type": "address"
        }
      ],
      "name": "OwnershipTransferred",
      "type": "event",
      "stateMutability": "nonpayable"
    },
    {
      "inputs": [],
      "name": "latestAnswer",
      "outputs": [
        {
          "internalType": "int256",
          "name": "",
          "type": "int256"
        }
      ],
      "stateMutability": "view",
      "type": "function"
    },
    {
      "inputs": [],
      "name": "owner",
      "outputs": [
        {
          "internalType": "address",
          "name": "",
          "type": "address"
        }
      ],
      "stateMutability": "view",
      "type": "function"
    },
    {
      "inputs": [],
      "name": "renounceOwnership",
      "outputs": [],
      "stateMutability": "nonpayable",
      "type": "function"
    },
    {
      "inputs": [
        {
          "internalType": "int256",
          "name": "_price",
          "type": "int256"
        }
      ],
      "name": "setPrice",
      "outputs": [],
      "stateMutability": "nonpayable",
      "type": "function"
    },
    {
      "inputs": [
        {
          "internalType": "address",
          "name": "newOwner",
          "type": "address"
        }
      ],
      "name": "transferOwnership",
      "outputs": [],
      "stateMutability": "nonpayable",
      "type": "function"
    }
  ],
  "bytecode": "0x6080604052600060015534801561001557600080fd5b50d3801561002257600080fd5b50d2801561002f57600080fd5b506100393361003e565b61008e565b600080546001600160a01b038381166001600160a01b0319831681178455604051919092169283917f8be0079c531659141344cd1fd0a4f28419497f9722a3daafe3b4186f6b6457e09190a35050565b6102f58061009d6000396000f3fe608060405234801561001057600080fd5b50d3801561001d57600080fd5b50d2801561002a57600080fd5b50600436106100815760003560e01c80638da5cb5b1161006a5780638da5cb5b146100a6578063f2fde38b146100c1578063f7a30806146100d457600080fd5b806350d25bcd14610086578063715018a61461009c575b600080fd5b6001546040519081526020015b60405180910390f35b6100a46100e7565b005b6000546040516001600160a01b039091168152602001610093565b6100a46100cf36600461025f565b6100fb565b6100a46100e23660046102a6565b610190565b6100ef61019d565b6100f960006101f7565b565b61010361019d565b6001600160a01b0381166101845760405162461bcd60e51b815260206004820152602660248201527f4f776e61626c653a206e6577206f776e657220697320746865207a65726f206160448201527f646472657373000000000000000000000000000000000000000000000000000060648201526084015b60405180910390fd5b61018d816101f7565b50565b61019861019d565b600155565b6000546001600160a01b031633146100f95760405162461bcd60e51b815260206004820181905260248201527f4f776e61626c653a2063616c6c6572206973206e6f7420746865206f776e6572604482015260640161017b565b600080546001600160a01b038381167fffffffffffffffffffffffff0000000000000000000000000000000000000000831681178455604051919092169283917f8be0079c531659141344cd1fd0a4f28419497f9722a3daafe3b4186f6b6457e09190a35050565b60006020828403121561027157600080fd5b813574ffffffffffffffffffffffffffffffffffffffffff8116811461029657600080fd5b6001600160a01b03169392505050565b6000602082840312156102b857600080fd5b503591905056fea26474726f6e58221220113915c26b908adbee71541a889e44b69ed08024e3af4c50192a53e50ea7966e64736f6c63430008060033",
  "source": "// SPDX-License-Identifier: MIT\npragma solidity ^0.8.6;\n\nimport \"@openzeppelin/contracts/access/Ownable.sol\";\n\ncontract MockPriceOracle is Ownable {\n\n    int price = 0;\n\n    function setPrice(int _price) external onlyOwner {\n        price = _price;\n    }\n\n    function latestAnswer() external view returns (int256) {\n        return price;\n    }\n}",
  "sourcePath": "/Users/prasad/projects/synthex/contracts/contracts/mock/MockPriceOracle.sol",
  "compiler": {
    "name": "solc",
    "version": "0.8.6+commit.0e36fba0.mod.Emscripten.clang"
  },
  "schemaVersion": "2.0.1",
  "updatedAt": "2022-10-18T05:13:13.116Z"
}