{
  "contractName": "Reserve",
  "abi": [
    {
      "inputs": [
        {
          "internalType": "contract ISystem",
          "name": "_system",
          "type": "address"
        }
      ],
      "stateMutability": "nonpayable",
      "type": "constructor"
    },
    {
      "inputs": [
        {
          "internalType": "address",
          "name": "user",
          "type": "address"
        },
        {
          "internalType": "address",
          "name": "asset",
          "type": "address"
        },
        {
          "internalType": "uint256",
          "name": "amount",
          "type": "uint256"
        }
      ],
      "name": "decreaseCollateral",
      "outputs": [],
      "stateMutability": "nonpayable",
      "type": "function"
    },
    {
      "inputs": [
        {
          "internalType": "address",
          "name": "user",
          "type": "address"
        },
        {
          "internalType": "address",
          "name": "token",
          "type": "address"
        },
        {
          "internalType": "uint256",
          "name": "amount",
          "type": "uint256"
        }
      ],
      "name": "decreaseDebt",
      "outputs": [],
      "stateMutability": "nonpayable",
      "type": "function"
    },
    {
      "inputs": [
        {
          "internalType": "address",
          "name": "user",
          "type": "address"
        },
        {
          "internalType": "address",
          "name": "src",
          "type": "address"
        },
        {
          "internalType": "uint256",
          "name": "srcAmount",
          "type": "uint256"
        },
        {
          "internalType": "address",
          "name": "dst",
          "type": "address"
        }
      ],
      "name": "exchange",
      "outputs": [],
      "stateMutability": "nonpayable",
      "type": "function"
    },
    {
      "inputs": [
        {
          "internalType": "address",
          "name": "user",
          "type": "address"
        },
        {
          "internalType": "address",
          "name": "asset",
          "type": "address"
        },
        {
          "internalType": "uint256",
          "name": "amount",
          "type": "uint256"
        }
      ],
      "name": "increaseCollateral",
      "outputs": [],
      "stateMutability": "nonpayable",
      "type": "function"
    },
    {
      "inputs": [
        {
          "internalType": "address",
          "name": "user",
          "type": "address"
        },
        {
          "internalType": "address",
          "name": "asset",
          "type": "address"
        },
        {
          "internalType": "uint256",
          "name": "amount",
          "type": "uint256"
        }
      ],
      "name": "increaseDebt",
      "outputs": [],
      "stateMutability": "nonpayable",
      "type": "function"
    },
    {
      "inputs": [
        {
          "internalType": "address",
          "name": "user",
          "type": "address"
        },
        {
          "internalType": "address",
          "name": "asset",
          "type": "address"
        },
        {
          "internalType": "uint256",
          "name": "amount",
          "type": "uint256"
        }
      ],
      "name": "transferOut",
      "outputs": [],
      "stateMutability": "nonpayable",
      "type": "function"
    }
  ],
  "bytecode": "0x608060405234801561001057600080fd5b50d3801561001d57600080fd5b50d2801561002a57600080fd5b50604051610fb6380380610fb68339810160408190526100499161006e565b600080546001600160a01b0319166001600160a01b03929092169190911790556100a7565b60006020828403121561008057600080fd5b81516001600160a81b038116811461009757600080fd5b6001600160a01b03169392505050565b610f00806100b66000396000f3fe608060405234801561001057600080fd5b50d3801561001d57600080fd5b50d2801561002a57600080fd5b506004361061008c5760003560e01c80636de244921161006a5780636de24492146100cc578063c2d7ef6d146100df578063ed60f188146100f257600080fd5b8063078d3b79146100915780633e4b0aaf146100a65780634f9ebaf4146100b9575b600080fd5b6100a461009f366004610d65565b610105565b005b6100a46100b4366004610d65565b610224565b6100a46100c7366004610db3565b6103a0565b6100a46100da366004610d65565b6106ed565b6100a46100ed366004610d65565b610830565b6100a4610100366004610d65565b610b35565b60008054906101000a90046001600160a01b03166001600160a01b0316634046ebae6040518163ffffffff1660e01b815260040160206040518083038186803b15801561015157600080fd5b505afa158015610165573d6000803e3d6000fd5b505050506040513d601f19601f820116820180604052508101906101899190610d38565b6001600160a01b0316336001600160a01b0316146102145760405162461bcd60e51b815260206004820152602b60248201527f4f6e6c79206c697175696461746f722063616e207472616e73666572206f757460448201527f2065787465726e616c6c7900000000000000000000000000000000000000000060648201526084015b60405180910390fd5b61021f838383610c78565b505050565b6000546001600160a01b031633146102915760405162461bcd60e51b815260206004820152602a60248201527f42617365526573657276653a204f6e6c792073797374656d2063616e2063616c6044820152696c2065786368616e676560b01b606482015260840161020b565b60008054906101000a90046001600160a01b03166001600160a01b0316637c4fb53d6040518163ffffffff1660e01b815260040160206040518083038186803b1580156102dd57600080fd5b505afa1580156102f1573d6000803e3d6000fd5b505050506040513d601f19601f820116820180604052508101906103159190610d38565b6040517f643a8f6d0000000000000000000000000000000000000000000000000000000081526001600160a01b038581166004830152848116602483015260448201849052919091169063643a8f6d906064015b600060405180830381600087803b15801561038357600080fd5b505af1158015610397573d6000803e3d6000fd5b50505050505050565b6000546001600160a01b0316331461040d5760405162461bcd60e51b815260206004820152602a60248201527f42617365526573657276653a204f6e6c792073797374656d2063616e2063616c6044820152696c2065786368616e676560b01b606482015260840161020b565b60008054906101000a90046001600160a01b03166001600160a01b031663a1a685126040518163ffffffff1660e01b815260040160206040518083038186803b15801561045957600080fd5b505afa15801561046d573d6000803e3d6000fd5b505050506040513d601f19601f820116820180604052508101906104919190610d38565b60405163981142b360e01b81526001600160a01b038681166004830152858116602483015260448201859052919091169063981142b390606401600060405180830381600087803b1580156104e557600080fd5b505af11580156104f9573d6000803e3d6000fd5b5050505060006105f4826001600160a01b03166311f37ceb6040518163ffffffff1660e01b815260040160206040518083038186803b15801561053b57600080fd5b505afa15801561054f573d6000803e3d6000fd5b505050506040513d601f19601f820116820180604052508101906105739190610e3c565b6105ee866001600160a01b03166311f37ceb6040518163ffffffff1660e01b815260040160206040518083038186803b1580156105af57600080fd5b505afa1580156105c3573d6000803e3d6000fd5b505050506040513d601f19601f820116820180604052508101906105e79190610e3c565b8690610d19565b90610d2c565b905060008054906101000a90046001600160a01b03166001600160a01b031663a1a685126040518163ffffffff1660e01b815260040160206040518083038186803b15801561064257600080fd5b505afa158015610656573d6000803e3d6000fd5b505050506040513d601f19601f8201168201806040525081019061067a9190610d38565b60405163dd6c548d60e01b81526001600160a01b038781166004830152848116602483015260448201849052919091169063dd6c548d90606401600060405180830381600087803b1580156106ce57600080fd5b505af11580156106e2573d6000803e3d6000fd5b505050505050505050565b6000546001600160a01b0316331461076d5760405162461bcd60e51b815260206004820152602f60248201527f42617365526573657276653a204f6e6c792073797374656d2063616e2063616c60448201527f6c20696e63726561736520646562740000000000000000000000000000000000606482015260840161020b565b60008054906101000a90046001600160a01b03166001600160a01b031663a1a685126040518163ffffffff1660e01b815260040160206040518083038186803b1580156107b957600080fd5b505afa1580156107cd573d6000803e3d6000fd5b505050506040513d601f19601f820116820180604052508101906107f19190610d38565b60405163dd6c548d60e01b81526001600160a01b038581166004830152848116602483015260448201849052919091169063dd6c548d90606401610369565b6000546001600160a01b0316331461089d5760405162461bcd60e51b815260206004820152602a60248201527f42617365526573657276653a204f6e6c792073797374656d2063616e2063616c6044820152696c2065786368616e676560b01b606482015260840161020b565b60008054906101000a90046001600160a01b03166001600160a01b0316637c4fb53d6040518163ffffffff1660e01b815260040160206040518083038186803b1580156108e957600080fd5b505afa1580156108fd573d6000803e3d6000fd5b505050506040513d601f19601f820116820180604052508101906109219190610d38565b6040517fc2c9280b0000000000000000000000000000000000000000000000000000000081526001600160a01b038581166004830152848116602483015260448201849052919091169063c2c9280b90606401600060405180830381600087803b15801561098e57600080fd5b505af11580156109a2573d6000803e3d6000fd5b5050505060008054906101000a90046001600160a01b03166001600160a01b031663b140bf036040518163ffffffff1660e01b8152600401602060405180830381600087803b1580156109f457600080fd5b505af1158015610a08573d6000803e3d6000fd5b505050506040513d601f19601f82011682018060405250810190610a2c9190610e3c565b6000546040517fca40742c0000000000000000000000000000000000000000000000000000000081526001600160a01b0386811660048301529091169063ca40742c9060240160206040518083038186803b158015610a8a57600080fd5b505afa158015610a9e573d6000803e3d6000fd5b505050506040513d601f19601f82011682018060405250810190610ac29190610e3c565b116102145760405162461bcd60e51b815260206004820152602360248201527f526573657276653a2063526174696f2069732062656c6f77207361666543526160448201527f74696f0000000000000000000000000000000000000000000000000000000000606482015260840161020b565b6000546001600160a01b03163314610bb55760405162461bcd60e51b815260206004820152602f60248201527f42617365526573657276653a204f6e6c792073797374656d2063616e2063616c60448201527f6c20646563726561736520646562740000000000000000000000000000000000606482015260840161020b565b60008054906101000a90046001600160a01b03166001600160a01b031663a1a685126040518163ffffffff1660e01b815260040160206040518083038186803b158015610c0157600080fd5b505afa158015610c15573d6000803e3d6000fd5b505050506040513d601f19601f82011682018060405250810190610c399190610d38565b60405163981142b360e01b81526001600160a01b038581166004830152848116602483015260448201849052919091169063981142b390606401610369565b6040517fa9059cbb0000000000000000000000000000000000000000000000000000000081526001600160a01b0384811660048301526024820183905283169063a9059cbb90604401602060405180830381600087803b158015610cdb57600080fd5b505af1158015610cef573d6000803e3d6000fd5b505050506040513d601f19601f82011682018060405250810190610d139190610e1a565b50505050565b6000610d258284610e77565b9392505050565b6000610d258284610e55565b600060208284031215610d4a57600080fd5b8151610d5581610ea4565b6001600160a01b03169392505050565b600080600060608486031215610d7a57600080fd5b8335610d8581610ea4565b6001600160a01b039081169350602085013590610da182610ea4565b93969316945050506040919091013590565b60008060008060808587031215610dc957600080fd5b8435610dd481610ea4565b6001600160a01b039081169450602086013590610df082610ea4565b908116935060408601359250606086013590610e0b82610ea4565b94979396509194505090911690565b600060208284031215610e2c57600080fd5b81518015158114610d2557600080fd5b600060208284031215610e4e57600080fd5b5051919050565b600082610e7257634e487b7160e01b600052601260045260246000fd5b500490565b6000816000190483118215151615610e9f57634e487b7160e01b600052601160045260246000fd5b500290565b74ffffffffffffffffffffffffffffffffffffffffff81168114610ec757600080fd5b5056fea26474726f6e58221220cf1f64f371790130c1fda9f017e946de3b408a7bad12298aa00153fd17d4bf0664736f6c63430008060033",
  "source": "// SPDX-License-Identifier: MIT\npragma solidity ^0.8.6;\n\nimport \"./interfaces/IReserve.sol\";\nimport \"./interfaces/ISystem.sol\";\nimport \"./interfaces/IDebtManager.sol\";\nimport \"./interfaces/ICollateralManager.sol\";\nimport \"./interfaces/ISynthERC20.sol\";\n\nimport \"@openzeppelin/contracts/token/ERC20/IERC20.sol\";\nimport \"@openzeppelin/contracts/access/Ownable.sol\";\nimport \"@openzeppelin/contracts/utils/math/SafeMath.sol\";\n\nimport \"hardhat/console.sol\";\n\ncontract Reserve {\n    using SafeMath for uint;\n    ISystem system;\n\n    constructor(ISystem _system){\n        system = _system;\n    }\n\n    function exchange(address user, address src, uint srcAmount, address dst) external {\n        require(msg.sender == address(system), \"BaseReserve: Only system can call exchange\");\n\n        IDebtManager(system.dManager())._decreaseDebt(user, src, srcAmount);\n        uint dstAmt = srcAmount.mul(ISynthERC20(src).get_price()).div(ISynthERC20(dst).get_price());\n        IDebtManager(system.dManager())._increaseDebt(user, dst, dstAmt);\n    }\n\n    function increaseCollateral(address user, address asset, uint amount) external {\n        require(msg.sender == address(system), \"BaseReserve: Only system can call exchange\");\n        ICollateralManager(system.cManager())._increaseCollateral(\n            user,\n            asset,\n            amount\n        );\n    }\n\n    function decreaseCollateral(address user, address asset, uint amount) external {\n        require(msg.sender == address(system), \"BaseReserve: Only system can call exchange\");\n        ICollateralManager(system.cManager())._decreaseCollateral(\n            user,\n            asset,\n            amount\n        );\n        require(system.collateralRatio(user) > system.safeCRatio(), \"Reserve: cRatio is below safeCRatio\");   \n        transferOutInternal(user, asset, amount);\n    }\n\n    function transferOut(\n        address user,\n        address asset,\n        uint amount\n    ) external {\n        require(\n            msg.sender == system.liquidator(),\n            \"Only liquidator can transfer out externally\"\n        );\n\n        transferOutInternal(user, asset, amount);\n    }\n\n    function transferOutInternal(\n        address user,\n        address asset,\n        uint amount\n    ) internal {\n        IERC20(asset).transfer(user, amount);\n    }\n\n    function increaseDebt(address user, address asset, uint amount) external {\n        require(msg.sender == address(system), \"BaseReserve: Only system can call increase debt\");\n        IDebtManager(system.dManager())._increaseDebt(\n            user,\n            asset,\n            amount\n        );\n    }\n\n    function decreaseDebt(address user, address token, uint amount) external {\n        require(msg.sender == address(system), \"BaseReserve: Only system can call decrease debt\");\n        IDebtManager(system.dManager())._decreaseDebt(\n            user,\n            token,\n            amount\n        );\n    }\n}\n",
  "sourcePath": "/Users/prasad/projects/synthex/contracts/contracts/Reserve.sol",
  "compiler": {
    "name": "solc",
    "version": "0.8.6+commit.0e36fba0.mod.Emscripten.clang"
  },
  "schemaVersion": "2.0.1",
  "updatedAt": "2022-10-18T05:13:13.117Z"
}