{
  "_format": "hh-sol-artifact-1",
  "contractName": "SyntheX",
  "sourceName": "contracts/SyntheX.sol",
  "abi": [
    {
      "inputs": [
        {
          "internalType": "address",
          "name": "_syn",
          "type": "address"
        }
      ],
      "stateMutability": "nonpayable",
      "type": "constructor"
    },
    {
      "anonymous": false,
      "inputs": [
        {
          "indexed": true,
          "internalType": "address",
          "name": "user",
          "type": "address"
        },
        {
          "indexed": true,
          "internalType": "address",
          "name": "tradingPool",
          "type": "address"
        },
        {
          "indexed": true,
          "internalType": "address",
          "name": "asset",
          "type": "address"
        },
        {
          "indexed": false,
          "internalType": "uint256",
          "name": "amount",
          "type": "uint256"
        }
      ],
      "name": "Burn",
      "type": "event"
    },
    {
      "anonymous": false,
      "inputs": [
        {
          "indexed": true,
          "internalType": "address",
          "name": "asset",
          "type": "address"
        }
      ],
      "name": "CollateralDisabled",
      "type": "event"
    },
    {
      "anonymous": false,
      "inputs": [
        {
          "indexed": true,
          "internalType": "address",
          "name": "asset",
          "type": "address"
        },
        {
          "indexed": false,
          "internalType": "uint256",
          "name": "volatilityRatio",
          "type": "uint256"
        }
      ],
      "name": "CollateralEnabled",
      "type": "event"
    },
    {
      "anonymous": false,
      "inputs": [
        {
          "indexed": true,
          "internalType": "address",
          "name": "asset",
          "type": "address"
        }
      ],
      "name": "CollateralRemoved",
      "type": "event"
    },
    {
      "anonymous": false,
      "inputs": [
        {
          "indexed": true,
          "internalType": "address",
          "name": "user",
          "type": "address"
        },
        {
          "indexed": true,
          "internalType": "address",
          "name": "asset",
          "type": "address"
        },
        {
          "indexed": false,
          "internalType": "uint256",
          "name": "amount",
          "type": "uint256"
        }
      ],
      "name": "Deposit",
      "type": "event"
    },
    {
      "anonymous": false,
      "inputs": [
        {
          "indexed": true,
          "internalType": "address",
          "name": "user",
          "type": "address"
        },
        {
          "indexed": true,
          "internalType": "address",
          "name": "tradingPool",
          "type": "address"
        },
        {
          "indexed": true,
          "internalType": "address",
          "name": "fromAsset",
          "type": "address"
        },
        {
          "indexed": false,
          "internalType": "address",
          "name": "toAsset",
          "type": "address"
        },
        {
          "indexed": false,
          "internalType": "uint256",
          "name": "fromAmount",
          "type": "uint256"
        },
        {
          "indexed": false,
          "internalType": "uint256",
          "name": "toAmount",
          "type": "uint256"
        }
      ],
      "name": "Exchange",
      "type": "event"
    },
    {
      "anonymous": false,
      "inputs": [
        {
          "indexed": true,
          "internalType": "address",
          "name": "user",
          "type": "address"
        },
        {
          "indexed": true,
          "internalType": "address",
          "name": "tradingPool",
          "type": "address"
        },
        {
          "indexed": true,
          "internalType": "address",
          "name": "asset",
          "type": "address"
        },
        {
          "indexed": false,
          "internalType": "uint256",
          "name": "amount",
          "type": "uint256"
        }
      ],
      "name": "Issue",
      "type": "event"
    },
    {
      "anonymous": false,
      "inputs": [
        {
          "indexed": true,
          "internalType": "address",
          "name": "oracle",
          "type": "address"
        }
      ],
      "name": "NewPriceOracle",
      "type": "event"
    },
    {
      "anonymous": false,
      "inputs": [
        {
          "indexed": true,
          "internalType": "address",
          "name": "previousOwner",
          "type": "address"
        },
        {
          "indexed": true,
          "internalType": "address",
          "name": "newOwner",
          "type": "address"
        }
      ],
      "name": "OwnershipTransferred",
      "type": "event"
    },
    {
      "anonymous": false,
      "inputs": [
        {
          "indexed": true,
          "internalType": "address",
          "name": "pool",
          "type": "address"
        }
      ],
      "name": "TradingPoolDisabled",
      "type": "event"
    },
    {
      "anonymous": false,
      "inputs": [
        {
          "indexed": true,
          "internalType": "address",
          "name": "pool",
          "type": "address"
        },
        {
          "indexed": false,
          "internalType": "uint256",
          "name": "volatilityRatio",
          "type": "uint256"
        }
      ],
      "name": "TradingPoolEnabled",
      "type": "event"
    },
    {
      "anonymous": false,
      "inputs": [
        {
          "indexed": true,
          "internalType": "address",
          "name": "pool",
          "type": "address"
        }
      ],
      "name": "TradingPoolRemoved",
      "type": "event"
    },
    {
      "anonymous": false,
      "inputs": [
        {
          "indexed": true,
          "internalType": "address",
          "name": "user",
          "type": "address"
        },
        {
          "indexed": true,
          "internalType": "address",
          "name": "asset",
          "type": "address"
        },
        {
          "indexed": false,
          "internalType": "uint256",
          "name": "amount",
          "type": "uint256"
        }
      ],
      "name": "Withdraw",
      "type": "event"
    },
    {
      "inputs": [
        {
          "internalType": "address",
          "name": "",
          "type": "address"
        },
        {
          "internalType": "address",
          "name": "",
          "type": "address"
        }
      ],
      "name": "accountCollateralBalance",
      "outputs": [
        {
          "internalType": "uint256",
          "name": "",
          "type": "uint256"
        }
      ],
      "stateMutability": "view",
      "type": "function"
    },
    {
      "inputs": [
        {
          "internalType": "address",
          "name": "",
          "type": "address"
        },
        {
          "internalType": "uint256",
          "name": "",
          "type": "uint256"
        }
      ],
      "name": "accountCollaterals",
      "outputs": [
        {
          "internalType": "address",
          "name": "",
          "type": "address"
        }
      ],
      "stateMutability": "view",
      "type": "function"
    },
    {
      "inputs": [
        {
          "internalType": "address",
          "name": "",
          "type": "address"
        },
        {
          "internalType": "uint256",
          "name": "",
          "type": "uint256"
        }
      ],
      "name": "accountPools",
      "outputs": [
        {
          "internalType": "address",
          "name": "",
          "type": "address"
        }
      ],
      "stateMutability": "view",
      "type": "function"
    },
    {
      "inputs": [
        {
          "internalType": "address",
          "name": "_tradingPool",
          "type": "address"
        },
        {
          "internalType": "address",
          "name": "_synth",
          "type": "address"
        },
        {
          "internalType": "uint256",
          "name": "_amount",
          "type": "uint256"
        }
      ],
      "name": "burn",
      "outputs": [],
      "stateMutability": "nonpayable",
      "type": "function"
    },
    {
      "inputs": [
        {
          "internalType": "address",
          "name": "holder",
          "type": "address"
        }
      ],
      "name": "claimSYN1",
      "outputs": [],
      "stateMutability": "nonpayable",
      "type": "function"
    },
    {
      "inputs": [
        {
          "internalType": "address",
          "name": "holder",
          "type": "address"
        },
        {
          "internalType": "address[]",
          "name": "cTokens",
          "type": "address[]"
        }
      ],
      "name": "claimSYN2",
      "outputs": [],
      "stateMutability": "nonpayable",
      "type": "function"
    },
    {
      "inputs": [
        {
          "internalType": "address[]",
          "name": "holders",
          "type": "address[]"
        },
        {
          "internalType": "address[]",
          "name": "_tradingPools",
          "type": "address[]"
        }
      ],
      "name": "claimSYN3",
      "outputs": [],
      "stateMutability": "nonpayable",
      "type": "function"
    },
    {
      "inputs": [
        {
          "internalType": "address",
          "name": "market",
          "type": "address"
        },
        {
          "internalType": "address",
          "name": "account",
          "type": "address"
        }
      ],
      "name": "collateralMembership",
      "outputs": [
        {
          "internalType": "bool",
          "name": "",
          "type": "bool"
        }
      ],
      "stateMutability": "view",
      "type": "function"
    },
    {
      "inputs": [
        {
          "internalType": "address",
          "name": "",
          "type": "address"
        }
      ],
      "name": "collaterals",
      "outputs": [
        {
          "internalType": "bool",
          "name": "isEnabled",
          "type": "bool"
        },
        {
          "internalType": "uint256",
          "name": "volatilityRatio",
          "type": "uint256"
        }
      ],
      "stateMutability": "view",
      "type": "function"
    },
    {
      "inputs": [
        {
          "internalType": "uint256",
          "name": "",
          "type": "uint256"
        }
      ],
      "name": "collateralsList",
      "outputs": [
        {
          "internalType": "address",
          "name": "",
          "type": "address"
        }
      ],
      "stateMutability": "view",
      "type": "function"
    },
    {
      "inputs": [
        {
          "internalType": "address",
          "name": "_collateral",
          "type": "address"
        },
        {
          "internalType": "uint256",
          "name": "_amount",
          "type": "uint256"
        }
      ],
      "name": "deposit",
      "outputs": [],
      "stateMutability": "nonpayable",
      "type": "function"
    },
    {
      "inputs": [
        {
          "internalType": "address",
          "name": "_collateral",
          "type": "address"
        }
      ],
      "name": "disableCollateral",
      "outputs": [],
      "stateMutability": "nonpayable",
      "type": "function"
    },
    {
      "inputs": [
        {
          "internalType": "address",
          "name": "_tradingPool",
          "type": "address"
        }
      ],
      "name": "disableTradingPool",
      "outputs": [],
      "stateMutability": "nonpayable",
      "type": "function"
    },
    {
      "inputs": [
        {
          "internalType": "address",
          "name": "_collateral",
          "type": "address"
        },
        {
          "internalType": "uint256",
          "name": "_volatilityRatio",
          "type": "uint256"
        }
      ],
      "name": "enableCollateral",
      "outputs": [],
      "stateMutability": "nonpayable",
      "type": "function"
    },
    {
      "inputs": [
        {
          "internalType": "address",
          "name": "_tradingPool",
          "type": "address"
        },
        {
          "internalType": "uint256",
          "name": "_volatilityRatio",
          "type": "uint256"
        }
      ],
      "name": "enableTradingPool",
      "outputs": [],
      "stateMutability": "nonpayable",
      "type": "function"
    },
    {
      "inputs": [
        {
          "internalType": "address",
          "name": "_collateral",
          "type": "address"
        },
        {
          "internalType": "uint256",
          "name": "_amount",
          "type": "uint256"
        }
      ],
      "name": "enterAndDeposit",
      "outputs": [],
      "stateMutability": "nonpayable",
      "type": "function"
    },
    {
      "inputs": [
        {
          "internalType": "address",
          "name": "_tradingPool",
          "type": "address"
        },
        {
          "internalType": "address",
          "name": "_synth",
          "type": "address"
        },
        {
          "internalType": "uint256",
          "name": "_amount",
          "type": "uint256"
        }
      ],
      "name": "enterAndIssue",
      "outputs": [],
      "stateMutability": "nonpayable",
      "type": "function"
    },
    {
      "inputs": [
        {
          "internalType": "address",
          "name": "_collateral",
          "type": "address"
        }
      ],
      "name": "enterCollateral",
      "outputs": [],
      "stateMutability": "nonpayable",
      "type": "function"
    },
    {
      "inputs": [
        {
          "internalType": "address",
          "name": "_tradingPool",
          "type": "address"
        }
      ],
      "name": "enterPool",
      "outputs": [],
      "stateMutability": "nonpayable",
      "type": "function"
    },
    {
      "inputs": [
        {
          "internalType": "address",
          "name": "_tradingPool",
          "type": "address"
        },
        {
          "internalType": "address",
          "name": "_synthFrom",
          "type": "address"
        },
        {
          "internalType": "address",
          "name": "_synthTo",
          "type": "address"
        },
        {
          "internalType": "uint256",
          "name": "_amount",
          "type": "uint256"
        }
      ],
      "name": "exchange",
      "outputs": [],
      "stateMutability": "nonpayable",
      "type": "function"
    },
    {
      "inputs": [
        {
          "internalType": "address",
          "name": "_collateral",
          "type": "address"
        }
      ],
      "name": "exitCollateral",
      "outputs": [],
      "stateMutability": "nonpayable",
      "type": "function"
    },
    {
      "inputs": [
        {
          "internalType": "address",
          "name": "_tradingPool",
          "type": "address"
        }
      ],
      "name": "exitPool",
      "outputs": [],
      "stateMutability": "nonpayable",
      "type": "function"
    },
    {
      "inputs": [
        {
          "internalType": "address",
          "name": "_account",
          "type": "address"
        }
      ],
      "name": "getAdjustedUserTotalCollateralUSD",
      "outputs": [
        {
          "internalType": "uint256",
          "name": "",
          "type": "uint256"
        }
      ],
      "stateMutability": "view",
      "type": "function"
    },
    {
      "inputs": [
        {
          "internalType": "address",
          "name": "_account",
          "type": "address"
        }
      ],
      "name": "getAdjustedUserTotalDebtUSD",
      "outputs": [
        {
          "internalType": "uint256",
          "name": "",
          "type": "uint256"
        }
      ],
      "stateMutability": "view",
      "type": "function"
    },
    {
      "inputs": [
        {
          "internalType": "address",
          "name": "_account",
          "type": "address"
        }
      ],
      "name": "getLTV",
      "outputs": [
        {
          "internalType": "uint256",
          "name": "",
          "type": "uint256"
        }
      ],
      "stateMutability": "view",
      "type": "function"
    },
    {
      "inputs": [
        {
          "internalType": "address",
          "name": "_tradingPool",
          "type": "address"
        }
      ],
      "name": "getPoolTotalDebtUSD",
      "outputs": [
        {
          "internalType": "uint256",
          "name": "",
          "type": "uint256"
        }
      ],
      "stateMutability": "view",
      "type": "function"
    },
    {
      "inputs": [
        {
          "internalType": "address",
          "name": "_account",
          "type": "address"
        },
        {
          "internalType": "address",
          "name": "_tradingPool",
          "type": "address"
        }
      ],
      "name": "getUserPoolDebtUSD",
      "outputs": [
        {
          "internalType": "uint256",
          "name": "",
          "type": "uint256"
        }
      ],
      "stateMutability": "view",
      "type": "function"
    },
    {
      "inputs": [
        {
          "internalType": "address",
          "name": "_account",
          "type": "address"
        }
      ],
      "name": "getUserTotalCollateralUSD",
      "outputs": [
        {
          "internalType": "uint256",
          "name": "",
          "type": "uint256"
        }
      ],
      "stateMutability": "view",
      "type": "function"
    },
    {
      "inputs": [
        {
          "internalType": "address",
          "name": "_account",
          "type": "address"
        }
      ],
      "name": "getUserTotalDebtUSD",
      "outputs": [
        {
          "internalType": "uint256",
          "name": "",
          "type": "uint256"
        }
      ],
      "stateMutability": "view",
      "type": "function"
    },
    {
      "inputs": [
        {
          "internalType": "address",
          "name": "_account",
          "type": "address"
        }
      ],
      "name": "healthFactor",
      "outputs": [
        {
          "internalType": "uint256",
          "name": "",
          "type": "uint256"
        }
      ],
      "stateMutability": "view",
      "type": "function"
    },
    {
      "inputs": [
        {
          "internalType": "address",
          "name": "_tradingPool",
          "type": "address"
        },
        {
          "internalType": "address",
          "name": "_synth",
          "type": "address"
        },
        {
          "internalType": "uint256",
          "name": "_amount",
          "type": "uint256"
        }
      ],
      "name": "issue",
      "outputs": [],
      "stateMutability": "nonpayable",
      "type": "function"
    },
    {
      "inputs": [
        {
          "internalType": "address",
          "name": "_account",
          "type": "address"
        },
        {
          "internalType": "address",
          "name": "_tradingPool",
          "type": "address"
        },
        {
          "internalType": "address",
          "name": "_inAsset",
          "type": "address"
        },
        {
          "internalType": "uint256",
          "name": "_inAmount",
          "type": "uint256"
        },
        {
          "internalType": "address",
          "name": "_outAsset",
          "type": "address"
        }
      ],
      "name": "liquidate",
      "outputs": [],
      "stateMutability": "nonpayable",
      "type": "function"
    },
    {
      "inputs": [],
      "name": "oracle",
      "outputs": [
        {
          "internalType": "contract PriceOracle",
          "name": "",
          "type": "address"
        }
      ],
      "stateMutability": "view",
      "type": "function"
    },
    {
      "inputs": [],
      "name": "owner",
      "outputs": [
        {
          "internalType": "address",
          "name": "",
          "type": "address"
        }
      ],
      "stateMutability": "view",
      "type": "function"
    },
    {
      "inputs": [
        {
          "internalType": "address",
          "name": "_collateral",
          "type": "address"
        }
      ],
      "name": "removeCollateral",
      "outputs": [],
      "stateMutability": "nonpayable",
      "type": "function"
    },
    {
      "inputs": [
        {
          "internalType": "address",
          "name": "_tradingPool",
          "type": "address"
        }
      ],
      "name": "removeTradingPool",
      "outputs": [],
      "stateMutability": "nonpayable",
      "type": "function"
    },
    {
      "inputs": [],
      "name": "renounceOwnership",
      "outputs": [],
      "stateMutability": "nonpayable",
      "type": "function"
    },
    {
      "inputs": [
        {
          "internalType": "address",
          "name": "_oracle",
          "type": "address"
        }
      ],
      "name": "setOracle",
      "outputs": [],
      "stateMutability": "nonpayable",
      "type": "function"
    },
    {
      "inputs": [
        {
          "internalType": "address",
          "name": "_tradingPool",
          "type": "address"
        },
        {
          "internalType": "uint256",
          "name": "_speed",
          "type": "uint256"
        }
      ],
      "name": "setPoolSpeed",
      "outputs": [],
      "stateMutability": "nonpayable",
      "type": "function"
    },
    {
      "inputs": [],
      "name": "syn",
      "outputs": [
        {
          "internalType": "contract SYN",
          "name": "",
          "type": "address"
        }
      ],
      "stateMutability": "view",
      "type": "function"
    },
    {
      "inputs": [
        {
          "internalType": "address",
          "name": "",
          "type": "address"
        }
      ],
      "name": "synAccrued",
      "outputs": [
        {
          "internalType": "uint256",
          "name": "",
          "type": "uint256"
        }
      ],
      "stateMutability": "view",
      "type": "function"
    },
    {
      "inputs": [
        {
          "internalType": "address",
          "name": "",
          "type": "address"
        },
        {
          "internalType": "address",
          "name": "",
          "type": "address"
        }
      ],
      "name": "synBorrowerIndex",
      "outputs": [
        {
          "internalType": "uint256",
          "name": "",
          "type": "uint256"
        }
      ],
      "stateMutability": "view",
      "type": "function"
    },
    {
      "inputs": [
        {
          "internalType": "address",
          "name": "",
          "type": "address"
        }
      ],
      "name": "synRewardSpeeds",
      "outputs": [
        {
          "internalType": "uint256",
          "name": "",
          "type": "uint256"
        }
      ],
      "stateMutability": "view",
      "type": "function"
    },
    {
      "inputs": [
        {
          "internalType": "address",
          "name": "",
          "type": "address"
        }
      ],
      "name": "synRewardState",
      "outputs": [
        {
          "internalType": "uint224",
          "name": "index",
          "type": "uint224"
        },
        {
          "internalType": "uint32",
          "name": "timestamp",
          "type": "uint32"
        }
      ],
      "stateMutability": "view",
      "type": "function"
    },
    {
      "inputs": [
        {
          "internalType": "address",
          "name": "market",
          "type": "address"
        },
        {
          "internalType": "address",
          "name": "account",
          "type": "address"
        }
      ],
      "name": "tradingPoolMembership",
      "outputs": [
        {
          "internalType": "bool",
          "name": "",
          "type": "bool"
        }
      ],
      "stateMutability": "view",
      "type": "function"
    },
    {
      "inputs": [
        {
          "internalType": "address",
          "name": "",
          "type": "address"
        }
      ],
      "name": "tradingPools",
      "outputs": [
        {
          "internalType": "bool",
          "name": "isEnabled",
          "type": "bool"
        },
        {
          "internalType": "uint256",
          "name": "volatilityRatio",
          "type": "uint256"
        }
      ],
      "stateMutability": "view",
      "type": "function"
    },
    {
      "inputs": [
        {
          "internalType": "uint256",
          "name": "",
          "type": "uint256"
        }
      ],
      "name": "tradingPoolsList",
      "outputs": [
        {
          "internalType": "address",
          "name": "",
          "type": "address"
        }
      ],
      "stateMutability": "view",
      "type": "function"
    },
    {
      "inputs": [
        {
          "internalType": "address",
          "name": "newOwner",
          "type": "address"
        }
      ],
      "name": "transferOwnership",
      "outputs": [],
      "stateMutability": "nonpayable",
      "type": "function"
    },
    {
      "inputs": [
        {
          "internalType": "address",
          "name": "_collateral",
          "type": "address"
        },
        {
          "internalType": "uint256",
          "name": "_amount",
          "type": "uint256"
        }
      ],
      "name": "withdraw",
      "outputs": [],
      "stateMutability": "nonpayable",
      "type": "function"
    }
  ],
  "bytecode": "0x60806040526ec097ce7bc90715b34b9f1000000000600e5567120a871cc0020000600f553480156200003057600080fd5b50604051620060cf380380620060cf8339818101604052810190620000569190620001f4565b620000766200006a620000be60201b60201c565b620000c660201b60201c565b80600d60006101000a81548173ffffffffffffffffffffffffffffffffffffffff021916908373ffffffffffffffffffffffffffffffffffffffff1602179055505062000226565b600033905090565b60008060009054906101000a900473ffffffffffffffffffffffffffffffffffffffff169050816000806101000a81548173ffffffffffffffffffffffffffffffffffffffff021916908373ffffffffffffffffffffffffffffffffffffffff1602179055508173ffffffffffffffffffffffffffffffffffffffff168173ffffffffffffffffffffffffffffffffffffffff167f8be0079c531659141344cd1fd0a4f28419497f9722a3daafe3b4186f6b6457e060405160405180910390a35050565b600080fd5b600073ffffffffffffffffffffffffffffffffffffffff82169050919050565b6000620001bc826200018f565b9050919050565b620001ce81620001af565b8114620001da57600080fd5b50565b600081519050620001ee81620001c3565b92915050565b6000602082840312156200020d576200020c6200018a565b5b60006200021d84828501620001dd565b91505092915050565b615e9980620002366000396000f3fe608060405234801561001057600080fd5b50600436106102bb5760003560e01c8063b613999211610182578063ec3b8f1a116100e9578063f3fef3a3116100a2578063fca3508b1161007c578063fca3508b1461091f578063fd1e8c851461094f578063fe35ea951461096b578063ffd10e071461099b576102bb565b8063f3fef3a3146108cb578063f43100cf146108e7578063f6b911bc14610903576102bb565b8063ec3b8f1a146107d2578063edc280c114610802578063eeb97d3b14610832578063ef9fb99114610863578063f0a4d9e21461087f578063f2fde38b146108af576102bb565b8063c99d3a061161013b578063c99d3a06146106ed578063caca550f14610709578063cd82b76e14610739578063d74fbae91461076a578063db46f70214610786578063ead225ac146107b6576102bb565b8063b61399921461061d578063b7f85d0f14610639578063ba5a2d3314610655578063be281f6714610671578063bf8e42ca146106a1578063c29611f7146106bd576102bb565b80636ad9f9df116102265780638da5cb5b116101df5780638da5cb5b14610522578063a982493114610540578063aa3b3a1e1461055c578063aca25f9a1461058c578063aed0bf88146105bc578063b3581898146105ec576102bb565b80636ad9f9df14610462578063715018a61461049257806375c038b71461049c57806378c5266b146104b85780637adbf973146104e85780637dc0d1d014610504576102bb565b80632cf41e25116102785780632cf41e25146103a45780633bf0a549146103c057806344f7a1b0146103de57806347e7ef24146103fa5780634b2bc5df146104165780636aa3f86c14610432576102bb565b80630b0d3379146102c05780630df7ad31146102dc57806315deef4b146102f85780631b57d1ac146103285780632558626d1461035857806329553e9914610388575b600080fd5b6102da60048036038101906102d59190614f0b565b6109b7565b005b6102f660048036038101906102f191906150cb565b610c02565b005b610312600480360381019061030d9190615127565b610cae565b60405161031f9190615163565b60405180910390f35b610342600480360381019061033d919061517e565b610dd8565b60405161034f91906151cd565b60405180910390f35b610372600480360381019061036d91906151e8565b610e26565b60405161037f9190615163565b60405180910390f35b6103a2600480360381019061039d9190615127565b610f9c565b005b6103be60048036038101906103b9919061517e565b61109b565b005b6103c86110b2565b6040516103d59190615287565b60405180910390f35b6103f860048036038101906103f39190615127565b6110d8565b005b610414600480360381019061040f919061517e565b61130e565b005b610430600480360381019061042b91906152a2565b6115e6565b005b61044c60048036038101906104479190615127565b611aab565b6040516104599190615163565b60405180910390f35b61047c60048036038101906104779190615127565b611ac3565b6040516104899190615163565b60405180910390f35b61049a611b39565b005b6104b660048036038101906104b19190615127565b611b4d565b005b6104d260048036038101906104cd919061517e565b611c4c565b6040516104df91906151cd565b60405180910390f35b61050260048036038101906104fd9190615127565b611c9a565b005b61050c611d29565b604051610519919061533e565b60405180910390f35b61052a611d4f565b60405161053791906151cd565b60405180910390f35b61055a60048036038101906105559190615127565b611d78565b005b610576600480360381019061057191906151e8565b611eb3565b6040516105839190615374565b60405180910390f35b6105a660048036038101906105a19190615127565b611f4a565b6040516105b39190615163565b60405180910390f35b6105d660048036038101906105d191906151e8565b611fc0565b6040516105e39190615374565b60405180910390f35b61060660048036038101906106019190615127565b612057565b60405161061492919061538f565b60405180910390f35b610637600480360381019061063291906153b8565b612088565b005b610653600480360381019061064e9190615127565b612493565b005b61066f600480360381019061066a9190615127565b612829565b005b61068b600480360381019061068691906151e8565b612bbf565b6040516106989190615163565b60405180910390f35b6106bb60048036038101906106b69190615127565b612be4565b005b6106d760048036038101906106d291906151e8565b612c77565b6040516106e49190615163565b60405180910390f35b61070760048036038101906107029190615127565b612c9c565b005b610723600480360381019061071e919061540b565b612ed2565b60405161073091906151cd565b60405180910390f35b610753600480360381019061074e9190615127565b612f11565b60405161076192919061548e565b60405180910390f35b610784600480360381019061077f919061517e565b612f6d565b005b6107a0600480360381019061079b919061540b565b61305b565b6040516107ad91906151cd565b60405180910390f35b6107d060048036038101906107cb91906154b7565b61309a565b005b6107ec60048036038101906107e79190615127565b6132b4565b6040516107f99190615163565b60405180910390f35b61081c60048036038101906108179190615127565b61353d565b6040516108299190615163565b60405180910390f35b61084c60048036038101906108479190615127565b6136e7565b60405161085a92919061538f565b60405180910390f35b61087d600480360381019061087891906153b8565b613718565b005b61089960048036038101906108949190615127565b613731565b6040516108a69190615163565b60405180910390f35b6108c960048036038101906108c49190615127565b613749565b005b6108e560048036038101906108e0919061517e565b6137cc565b005b61090160048036038101906108fc919061517e565b613a52565b005b61091d600480360381019061091891906153b8565b613b90565b005b61093960048036038101906109349190615127565b613ee2565b6040516109469190615163565b60405180910390f35b6109696004803603810190610964919061517e565b6140db565b005b61098560048036038101906109809190615127565b614219565b6040516109929190615163565b60405180910390f35b6109b560048036038101906109b09190615127565b6144a2565b005b6000600160009054906101000a900473ffffffffffffffffffffffffffffffffffffffff1673ffffffffffffffffffffffffffffffffffffffff166341976e09846040518263ffffffff1660e01b8152600401610a1491906151cd565b602060405180830381865afa158015610a31573d6000803e3d6000fd5b505050506040513d601f19601f82011682018060405250810190610a559190615544565b600160009054906101000a900473ffffffffffffffffffffffffffffffffffffffff1673ffffffffffffffffffffffffffffffffffffffff166341976e09866040518263ffffffff1660e01b8152600401610ab091906151cd565b602060405180830381865afa158015610acd573d6000803e3d6000fd5b505050506040513d601f19601f82011682018060405250810190610af19190615544565b83610afc91906155a0565b610b069190615611565b90508473ffffffffffffffffffffffffffffffffffffffff16634798ce5b85853386866040518663ffffffff1660e01b8152600401610b49959493929190615642565b600060405180830381600087803b158015610b6357600080fd5b505af1158015610b77573d6000803e3d6000fd5b505050508373ffffffffffffffffffffffffffffffffffffffff168573ffffffffffffffffffffffffffffffffffffffff163373ffffffffffffffffffffffffffffffffffffffff167f22bfc3d7b9d92e3f2b35d94c61a1a9f1c86d0793bb7645294eaf8beb03c03479868686604051610bf393929190615695565b60405180910390a45050505050565b6000600167ffffffffffffffff811115610c1f57610c1e614f88565b5b604051908082528060200260200182016040528015610c4d5781602001602082028036833780820191505090505b5090508281600081518110610c6557610c646156cc565b5b602002602001019073ffffffffffffffffffffffffffffffffffffffff16908173ffffffffffffffffffffffffffffffffffffffff1681525050610ca9818361309a565b505050565b600080600090506000600260008573ffffffffffffffffffffffffffffffffffffffff1673ffffffffffffffffffffffffffffffffffffffff168152602001908152602001600020805480602002602001604051908101604052809291908181526020018280548015610d7657602002820191906000526020600020905b8160009054906101000a900473ffffffffffffffffffffffffffffffffffffffff1673ffffffffffffffffffffffffffffffffffffffff1681526020019060010190808311610d2c575b5050505050905060005b8151811015610dcd57610dad85838381518110610da057610d9f6156cc565b5b6020026020010151610e26565b83610db891906156fb565b92508080610dc59061572f565b915050610d80565b508192505050919050565b60036020528160005260406000208181548110610df457600080fd5b906000526020600020016000915091509054906101000a900473ffffffffffffffffffffffffffffffffffffffff1681565b6000808273ffffffffffffffffffffffffffffffffffffffff166318160ddd6040518163ffffffff1660e01b8152600401602060405180830381865afa158015610e74573d6000803e3d6000fd5b505050506040513d601f19601f82011682018060405250810190610e989190615544565b905060008103610eac576000915050610f96565b6000610f5482610f46670de0b6b3a76400008773ffffffffffffffffffffffffffffffffffffffff166370a082318a6040518263ffffffff1660e01b8152600401610ef791906151cd565b602060405180830381865afa158015610f14573d6000803e3d6000fd5b505050506040513d601f19601f82011682018060405250810190610f389190615544565b6145dd90919063ffffffff16565b6145f390919063ffffffff16565b90506000610f6185613ee2565b9050610f90670de0b6b3a7640000610f8283856145dd90919063ffffffff16565b6145f390919063ffffffff16565b93505050505b92915050565b610fa4614609565b600560008273ffffffffffffffffffffffffffffffffffffffff1673ffffffffffffffffffffffffffffffffffffffff16815260200190815260200160002060000160009054906101000a900460ff1615611098576000600560008373ffffffffffffffffffffffffffffffffffffffff1673ffffffffffffffffffffffffffffffffffffffff16815260200190815260200160002060000160006101000a81548160ff0219169083151502179055508073ffffffffffffffffffffffffffffffffffffffff167f40df287591e0c328c46e4a6e6a392c11257b2068c75575828d622838c83efd3a60405160405180910390a25b50565b6110a482611d78565b6110ae828261130e565b5050565b600d60009054906101000a900473ffffffffffffffffffffffffffffffffffffffff1681565b6110e0614609565b6000600560008373ffffffffffffffffffffffffffffffffffffffff1673ffffffffffffffffffffffffffffffffffffffff16815260200190815260200160002060000160006101000a81548160ff02191690831515021790555060005b60078054905081101561130a578173ffffffffffffffffffffffffffffffffffffffff1660078281548110611176576111756156cc565b5b9060005260206000200160009054906101000a900473ffffffffffffffffffffffffffffffffffffffff1673ffffffffffffffffffffffffffffffffffffffff16036112f757600760016007805490506111d09190615777565b815481106111e1576111e06156cc565b5b9060005260206000200160009054906101000a900473ffffffffffffffffffffffffffffffffffffffff16600782815481106112205761121f6156cc565b5b9060005260206000200160006101000a81548173ffffffffffffffffffffffffffffffffffffffff021916908373ffffffffffffffffffffffffffffffffffffffff160217905550600780548061127a576112796157ab565b5b6001900381819060005260206000200160006101000a81549073ffffffffffffffffffffffffffffffffffffffff021916905590558173ffffffffffffffffffffffffffffffffffffffff167fd7bc7aa3441295e542e42197effcd361e36921102724a91445e9dd47f19ddcbc60405160405180910390a261130a565b80806113029061572f565b91505061113e565b5050565b600660008373ffffffffffffffffffffffffffffffffffffffff1673ffffffffffffffffffffffffffffffffffffffff16815260200190815260200160002060000160009054906101000a900460ff1661139d576040517f08c379a000000000000000000000000000000000000000000000000000000000815260040161139490615837565b60405180910390fd5b600660008373ffffffffffffffffffffffffffffffffffffffff1673ffffffffffffffffffffffffffffffffffffffff16815260200190815260200160002060020160003373ffffffffffffffffffffffffffffffffffffffff1673ffffffffffffffffffffffffffffffffffffffff16815260200190815260200160002060009054906101000a900460ff16611469576040517f08c379a0000000000000000000000000000000000000000000000000000000008152600401611460906158a3565b60405180910390fd5b8173ffffffffffffffffffffffffffffffffffffffff166323b872dd3330846040518463ffffffff1660e01b81526004016114a6939291906158c3565b6020604051808303816000875af11580156114c5573d6000803e3d6000fd5b505050506040513d601f19601f820116820180604052508101906114e99190615926565b5080600460003373ffffffffffffffffffffffffffffffffffffffff1673ffffffffffffffffffffffffffffffffffffffff16815260200190815260200160002060008473ffffffffffffffffffffffffffffffffffffffff1673ffffffffffffffffffffffffffffffffffffffff168152602001908152602001600020600082825461157691906156fb565b925050819055508173ffffffffffffffffffffffffffffffffffffffff163373ffffffffffffffffffffffffffffffffffffffff167f5548c837ab068cf56a2c2479df0882a4922fd203edb7517321831d95078c5f62836040516115da9190615163565b60405180910390a35050565b670de0b6b3a76400006115f886611ac3565b10611638576040517f08c379a000000000000000000000000000000000000000000000000000000000815260040161162f9061599f565b60405180910390fd5b600061164386611f4a565b90506000600160009054906101000a900473ffffffffffffffffffffffffffffffffffffffff1673ffffffffffffffffffffffffffffffffffffffff166341976e09866040518263ffffffff1660e01b81526004016116a291906151cd565b602060405180830381865afa1580156116bf573d6000803e3d6000fd5b505050506040513d601f19601f820116820180604052508101906116e39190615544565b90506000600160009054906101000a900473ffffffffffffffffffffffffffffffffffffffff1673ffffffffffffffffffffffffffffffffffffffff166341976e09856040518263ffffffff1660e01b815260040161174291906151cd565b602060405180830381865afa15801561175f573d6000803e3d6000fd5b505050506040513d601f19601f820116820180604052508101906117839190615544565b9050600061182c82848861179791906155a0565b6117a19190615611565b600460008c73ffffffffffffffffffffffffffffffffffffffff1673ffffffffffffffffffffffffffffffffffffffff16815260200190815260200160002060008873ffffffffffffffffffffffffffffffffffffffff1673ffffffffffffffffffffffffffffffffffffffff1681526020019081526020016000205461468790919063ffffffff16565b9050670de0b6b3a7640000848261184391906155a0565b61184d9190615611565b600460008b73ffffffffffffffffffffffffffffffffffffffff1673ffffffffffffffffffffffffffffffffffffffff16815260200190815260200160002060008773ffffffffffffffffffffffffffffffffffffffff1673ffffffffffffffffffffffffffffffffffffffff16815260200190815260200160002060008282546118d89190615777565b925050819055508773ffffffffffffffffffffffffffffffffffffffff16639dc29fac8a670de0b6b3a7640000858561191191906155a0565b61191b9190615611565b6040518363ffffffff1660e01b81526004016119389291906159bf565b600060405180830381600087803b15801561195257600080fd5b505af1158015611966573d6000803e3d6000fd5b505050508773ffffffffffffffffffffffffffffffffffffffff1663fb3c9612883386868661199591906155a0565b61199f9190615611565b6040518463ffffffff1660e01b81526004016119bd939291906158c3565b600060405180830381600087803b1580156119d757600080fd5b505af11580156119eb573d6000803e3d6000fd5b50505050670de0b6b3a76400008482611a0491906155a0565b611a0e9190615611565b600460003373ffffffffffffffffffffffffffffffffffffffff1673ffffffffffffffffffffffffffffffffffffffff16815260200190815260200160002060008773ffffffffffffffffffffffffffffffffffffffff1673ffffffffffffffffffffffffffffffffffffffff1681526020019081526020016000206000828254611a9991906156fb565b92505081905550505050505050505050565b60096020528060005260406000206000915090505481565b600080611acf836132b4565b90506000611adc8461353d565b905060008103611b10577fffffffffffffffffffffffffffffffffffffffffffffffffffffffffffffffff92505050611b34565b80670de0b6b3a764000083611b2591906155a0565b611b2f9190615611565b925050505b919050565b611b41614609565b611b4b60006146a0565b565b611b55614609565b600660008273ffffffffffffffffffffffffffffffffffffffff1673ffffffffffffffffffffffffffffffffffffffff16815260200190815260200160002060000160009054906101000a900460ff1615611c49576000600660008373ffffffffffffffffffffffffffffffffffffffff1673ffffffffffffffffffffffffffffffffffffffff16815260200190815260200160002060000160006101000a81548160ff0219169083151502179055508073ffffffffffffffffffffffffffffffffffffffff167f192895f9a14975ce177e9612fd4f4459e31169d79cb650596bcce0622bd70a9260405160405180910390a25b50565b60026020528160005260406000208181548110611c6857600080fd5b906000526020600020016000915091509054906101000a900473ffffffffffffffffffffffffffffffffffffffff1681565b611ca2614609565b80600160006101000a81548173ffffffffffffffffffffffffffffffffffffffff021916908373ffffffffffffffffffffffffffffffffffffffff1602179055508073ffffffffffffffffffffffffffffffffffffffff167ff261845a790fe29bbd6631e2ca4a5bdc83e6eed7c3271d9590d97287e00e912360405160405180910390a250565b600160009054906101000a900473ffffffffffffffffffffffffffffffffffffffff1681565b60008060009054906101000a900473ffffffffffffffffffffffffffffffffffffffff16905090565b6001600660008373ffffffffffffffffffffffffffffffffffffffff1673ffffffffffffffffffffffffffffffffffffffff16815260200190815260200160002060020160003373ffffffffffffffffffffffffffffffffffffffff1673ffffffffffffffffffffffffffffffffffffffff16815260200190815260200160002060006101000a81548160ff021916908315150217905550600360003373ffffffffffffffffffffffffffffffffffffffff1673ffffffffffffffffffffffffffffffffffffffff168152602001908152602001600020819080600181540180825580915050600190039060005260206000200160009091909190916101000a81548173ffffffffffffffffffffffffffffffffffffffff021916908373ffffffffffffffffffffffffffffffffffffffff16021790555050565b6000600660008473ffffffffffffffffffffffffffffffffffffffff1673ffffffffffffffffffffffffffffffffffffffff16815260200190815260200160002060020160008373ffffffffffffffffffffffffffffffffffffffff1673ffffffffffffffffffffffffffffffffffffffff16815260200190815260200160002060009054906101000a900460ff16905092915050565b600080611f5683614219565b90506000611f6384610cae565b905060008103611f97577fffffffffffffffffffffffffffffffffffffffffffffffffffffffffffffffff92505050611fbb565b80670de0b6b3a764000083611fac91906155a0565b611fb69190615611565b925050505b919050565b6000600560008473ffffffffffffffffffffffffffffffffffffffff1673ffffffffffffffffffffffffffffffffffffffff16815260200190815260200160002060020160008373ffffffffffffffffffffffffffffffffffffffff1673ffffffffffffffffffffffffffffffffffffffff16815260200190815260200160002060009054906101000a900460ff16905092915050565b60056020528060005260406000206000915090508060000160009054906101000a900460ff16908060010154905082565b6000600560008573ffffffffffffffffffffffffffffffffffffffff1673ffffffffffffffffffffffffffffffffffffffff16815260200190815260200160002090508060000160009054906101000a900460ff1661211c576040517f08c379a000000000000000000000000000000000000000000000000000000000815260040161211390615a34565b60405180910390fd5b8060020160003373ffffffffffffffffffffffffffffffffffffffff1673ffffffffffffffffffffffffffffffffffffffff16815260200190815260200160002060009054906101000a900460ff166121aa576040517f08c379a00000000000000000000000000000000000000000000000000000000081526004016121a190615aa0565b60405180910390fd5b8373ffffffffffffffffffffffffffffffffffffffff1663502f500b846040518263ffffffff1660e01b81526004016121e391906151cd565b602060405180830381865afa158015612200573d6000803e3d6000fd5b505050506040513d601f19601f820116820180604052508101906122249190615926565b612263576040517f08c379a000000000000000000000000000000000000000000000000000000000815260040161225a90615b0c565b60405180910390fd5b61226c84614764565b61227684336149e8565b6000670de0b6b3a7640000600160009054906101000a900473ffffffffffffffffffffffffffffffffffffffff1673ffffffffffffffffffffffffffffffffffffffff166341976e09866040518263ffffffff1660e01b81526004016122dc91906151cd565b602060405180830381865afa1580156122f9573d6000803e3d6000fd5b505050506040513d601f19601f8201168201806040525081019061231d9190615544565b8461232891906155a0565b6123329190615611565b90508473ffffffffffffffffffffffffffffffffffffffff166340c10f1933836040518363ffffffff1660e01b815260040161236f9291906159bf565b600060405180830381600087803b15801561238957600080fd5b505af115801561239d573d6000803e3d6000fd5b505050508473ffffffffffffffffffffffffffffffffffffffff16635bf0abbc8533866040518463ffffffff1660e01b81526004016123de939291906158c3565b600060405180830381600087803b1580156123f857600080fd5b505af115801561240c573d6000803e3d6000fd5b505050508373ffffffffffffffffffffffffffffffffffffffff168573ffffffffffffffffffffffffffffffffffffffff163373ffffffffffffffffffffffffffffffffffffffff167f65adeb76912378393e600cb6f64f3310842a42e1eae86273dc775d0c47a0f2dc866040516124849190615163565b60405180910390a45050505050565b6000600660008373ffffffffffffffffffffffffffffffffffffffff1673ffffffffffffffffffffffffffffffffffffffff16815260200190815260200160002060020160003373ffffffffffffffffffffffffffffffffffffffff1673ffffffffffffffffffffffffffffffffffffffff16815260200190815260200160002060006101000a81548160ff02191690831515021790555060005b600360003373ffffffffffffffffffffffffffffffffffffffff1673ffffffffffffffffffffffffffffffffffffffff16815260200190815260200160002080549050811015612825578173ffffffffffffffffffffffffffffffffffffffff16600360003373ffffffffffffffffffffffffffffffffffffffff1673ffffffffffffffffffffffffffffffffffffffff16815260200190815260200160002082815481106125e0576125df6156cc565b5b9060005260206000200160009054906101000a900473ffffffffffffffffffffffffffffffffffffffff1673ffffffffffffffffffffffffffffffffffffffff160361281257600360003373ffffffffffffffffffffffffffffffffffffffff1673ffffffffffffffffffffffffffffffffffffffff1681526020019081526020016000206001600360003373ffffffffffffffffffffffffffffffffffffffff1673ffffffffffffffffffffffffffffffffffffffff168152602001908152602001600020805490506126b49190615777565b815481106126c5576126c46156cc565b5b9060005260206000200160009054906101000a900473ffffffffffffffffffffffffffffffffffffffff16600360003373ffffffffffffffffffffffffffffffffffffffff1673ffffffffffffffffffffffffffffffffffffffff1681526020019081526020016000208281548110612741576127406156cc565b5b9060005260206000200160006101000a81548173ffffffffffffffffffffffffffffffffffffffff021916908373ffffffffffffffffffffffffffffffffffffffff160217905550600360003373ffffffffffffffffffffffffffffffffffffffff1673ffffffffffffffffffffffffffffffffffffffff1681526020019081526020016000208054806127d8576127d76157ab565b5b6001900381819060005260206000200160006101000a81549073ffffffffffffffffffffffffffffffffffffffff02191690559055612825565b808061281d9061572f565b91505061252e565b5050565b6000600560008373ffffffffffffffffffffffffffffffffffffffff1673ffffffffffffffffffffffffffffffffffffffff16815260200190815260200160002060020160003373ffffffffffffffffffffffffffffffffffffffff1673ffffffffffffffffffffffffffffffffffffffff16815260200190815260200160002060006101000a81548160ff02191690831515021790555060005b600260003373ffffffffffffffffffffffffffffffffffffffff1673ffffffffffffffffffffffffffffffffffffffff16815260200190815260200160002080549050811015612bbb578173ffffffffffffffffffffffffffffffffffffffff16600260003373ffffffffffffffffffffffffffffffffffffffff1673ffffffffffffffffffffffffffffffffffffffff1681526020019081526020016000208281548110612976576129756156cc565b5b9060005260206000200160009054906101000a900473ffffffffffffffffffffffffffffffffffffffff1673ffffffffffffffffffffffffffffffffffffffff1603612ba857600260003373ffffffffffffffffffffffffffffffffffffffff1673ffffffffffffffffffffffffffffffffffffffff1681526020019081526020016000206001600260003373ffffffffffffffffffffffffffffffffffffffff1673ffffffffffffffffffffffffffffffffffffffff16815260200190815260200160002080549050612a4a9190615777565b81548110612a5b57612a5a6156cc565b5b9060005260206000200160009054906101000a900473ffffffffffffffffffffffffffffffffffffffff16600260003373ffffffffffffffffffffffffffffffffffffffff1673ffffffffffffffffffffffffffffffffffffffff1681526020019081526020016000208281548110612ad757612ad66156cc565b5b9060005260206000200160006101000a81548173ffffffffffffffffffffffffffffffffffffffff021916908373ffffffffffffffffffffffffffffffffffffffff160217905550600260003373ffffffffffffffffffffffffffffffffffffffff1673ffffffffffffffffffffffffffffffffffffffff168152602001908152602001600020805480612b6e57612b6d6157ab565b5b6001900381819060005260206000200160006101000a81549073ffffffffffffffffffffffffffffffffffffffff02191690559055612bbb565b8080612bb39061572f565b9150506128c4565b5050565b6004602052816000526040600020602052806000526040600020600091509150505481565b612c74816007805480602002602001604051908101604052809291908181526020018280548015612c6a57602002820191906000526020600020905b8160009054906101000a900473ffffffffffffffffffffffffffffffffffffffff1673ffffffffffffffffffffffffffffffffffffffff1681526020019060010190808311612c20575b5050505050610c02565b50565b600b602052816000526040600020602052806000526040600020600091509150505481565b612ca4614609565b6000600660008373ffffffffffffffffffffffffffffffffffffffff1673ffffffffffffffffffffffffffffffffffffffff16815260200190815260200160002060000160006101000a81548160ff02191690831515021790555060005b600880549050811015612ece578173ffffffffffffffffffffffffffffffffffffffff1660088281548110612d3a57612d396156cc565b5b9060005260206000200160009054906101000a900473ffffffffffffffffffffffffffffffffffffffff1673ffffffffffffffffffffffffffffffffffffffff1603612ebb5760086001600880549050612d949190615777565b81548110612da557612da46156cc565b5b9060005260206000200160009054906101000a900473ffffffffffffffffffffffffffffffffffffffff1660088281548110612de457612de36156cc565b5b9060005260206000200160006101000a81548173ffffffffffffffffffffffffffffffffffffffff021916908373ffffffffffffffffffffffffffffffffffffffff1602179055506008805480612e3e57612e3d6157ab565b5b6001900381819060005260206000200160006101000a81549073ffffffffffffffffffffffffffffffffffffffff021916905590558173ffffffffffffffffffffffffffffffffffffffff167fd89d2ee68ab04dca0193f48a4aff55e20fa5ec0429a8a8c1c51b8dad6178a59360405160405180910390a2612ece565b8080612ec69061572f565b915050612d02565b5050565b60078181548110612ee257600080fd5b906000526020600020016000915054906101000a900473ffffffffffffffffffffffffffffffffffffffff1681565b600a6020528060005260406000206000915090508060000160009054906101000a90047bffffffffffffffffffffffffffffffffffffffffffffffffffffffff169080600001601c9054906101000a900463ffffffff16905082565b612f75614609565b6000600560008473ffffffffffffffffffffffffffffffffffffffff1673ffffffffffffffffffffffffffffffffffffffff16815260200190815260200160002090508060000160009054906101000a900460ff16613009576040517f08c379a000000000000000000000000000000000000000000000000000000000815260040161300090615a34565b60405180910390fd5b61301283614764565b81600960008573ffffffffffffffffffffffffffffffffffffffff1673ffffffffffffffffffffffffffffffffffffffff16815260200190815260200160002081905550505050565b6008818154811061306b57600080fd5b906000526020600020016000915054906101000a900473ffffffffffffffffffffffffffffffffffffffff1681565b60005b81518110156131b55760008282815181106130bb576130ba6156cc565b5b60200260200101519050600560008273ffffffffffffffffffffffffffffffffffffffff1673ffffffffffffffffffffffffffffffffffffffff16815260200190815260200160002060000160009054906101000a900460ff16613154576040517f08c379a000000000000000000000000000000000000000000000000000000000815260040161314b90615b78565b60405180910390fd5b61315d81614764565b60005b84518110156131a05761318d828683815181106131805761317f6156cc565b5b60200260200101516149e8565b80806131989061572f565b915050613160565b505080806131ad9061572f565b91505061309d565b5060005b82518110156132af5761323f8382815181106131d8576131d76156cc565b5b6020026020010151600c60008685815181106131f7576131f66156cc565b5b602002602001015173ffffffffffffffffffffffffffffffffffffffff1673ffffffffffffffffffffffffffffffffffffffff16815260200190815260200160002054614cef565b600c6000858481518110613256576132556156cc565b5b602002602001015173ffffffffffffffffffffffffffffffffffffffff1673ffffffffffffffffffffffffffffffffffffffff1681526020019081526020016000208190555080806132a79061572f565b9150506131b9565b505050565b6000806000905060005b600360008573ffffffffffffffffffffffffffffffffffffffff1673ffffffffffffffffffffffffffffffffffffffff16815260200190815260200160002080549050811015613533576000600360008673ffffffffffffffffffffffffffffffffffffffff1673ffffffffffffffffffffffffffffffffffffffff168152602001908152602001600020828154811061335b5761335a6156cc565b5b9060005260206000200160009054906101000a900473ffffffffffffffffffffffffffffffffffffffff1690506ec097ce7bc90715b34b9f1000000000600660008373ffffffffffffffffffffffffffffffffffffffff1673ffffffffffffffffffffffffffffffffffffffff16815260200190815260200160002060010154600160009054906101000a900473ffffffffffffffffffffffffffffffffffffffff1673ffffffffffffffffffffffffffffffffffffffff166341976e09846040518263ffffffff1660e01b815260040161343691906151cd565b602060405180830381865afa158015613453573d6000803e3d6000fd5b505050506040513d601f19601f820116820180604052508101906134779190615544565b600460008973ffffffffffffffffffffffffffffffffffffffff1673ffffffffffffffffffffffffffffffffffffffff16815260200190815260200160002060008573ffffffffffffffffffffffffffffffffffffffff1673ffffffffffffffffffffffffffffffffffffffff168152602001908152602001600020546134fe91906155a0565b61350891906155a0565b6135129190615611565b8361351d91906156fb565b925050808061352b9061572f565b9150506132be565b5080915050919050565b600080600090506000600260008573ffffffffffffffffffffffffffffffffffffffff1673ffffffffffffffffffffffffffffffffffffffff16815260200190815260200160002080548060200260200160405190810160405280929190818152602001828054801561360557602002820191906000526020600020905b8160009054906101000a900473ffffffffffffffffffffffffffffffffffffffff1673ffffffffffffffffffffffffffffffffffffffff16815260200190600101908083116135bb575b5050505050905060005b81518110156136dc57600060056000848481518110613631576136306156cc565b5b602002602001015173ffffffffffffffffffffffffffffffffffffffff1673ffffffffffffffffffffffffffffffffffffffff16815260200190815260200160002090508060010154670de0b6b3a76400006136a78886868151811061369a576136996156cc565b5b6020026020010151610e26565b6136b191906155a0565b6136bb9190615611565b846136c691906156fb565b93505080806136d49061572f565b91505061360f565b508192505050919050565b60066020528060005260406000206000915090508060000160009054906101000a900460ff16908060010154905082565b613721836144a2565b61372c838383612088565b505050565b600c6020528060005260406000206000915090505481565b613751614609565b600073ffffffffffffffffffffffffffffffffffffffff168173ffffffffffffffffffffffffffffffffffffffff16036137c0576040517f08c379a00000000000000000000000000000000000000000000000000000000081526004016137b790615c0a565b60405180910390fd5b6137c9816146a0565b50565b80600460003373ffffffffffffffffffffffffffffffffffffffff1673ffffffffffffffffffffffffffffffffffffffff16815260200190815260200160002060008473ffffffffffffffffffffffffffffffffffffffff1673ffffffffffffffffffffffffffffffffffffffff16815260200190815260200160002054101561388b576040517f08c379a000000000000000000000000000000000000000000000000000000000815260040161388290615c76565b60405180910390fd5b8173ffffffffffffffffffffffffffffffffffffffff1663a9059cbb33836040518363ffffffff1660e01b81526004016138c69291906159bf565b6020604051808303816000875af11580156138e5573d6000803e3d6000fd5b505050506040513d601f19601f820116820180604052508101906139099190615926565b5080600460003373ffffffffffffffffffffffffffffffffffffffff1673ffffffffffffffffffffffffffffffffffffffff16815260200190815260200160002060008473ffffffffffffffffffffffffffffffffffffffff1673ffffffffffffffffffffffffffffffffffffffff16815260200190815260200160002060008282546139969190615777565b92505081905550600f546139a933611ac3565b116139e9576040517f08c379a00000000000000000000000000000000000000000000000000000000081526004016139e090615ce2565b60405180910390fd5b8173ffffffffffffffffffffffffffffffffffffffff163373ffffffffffffffffffffffffffffffffffffffff167f9b1bfa7fa9ee420a16e124f794c35ac9f90472acc99140eb2f6447c714cad8eb83604051613a469190615163565b60405180910390a35050565b613a5a614609565b6000600560008473ffffffffffffffffffffffffffffffffffffffff1673ffffffffffffffffffffffffffffffffffffffff16815260200190815260200160002090508060000160009054906101000a900460ff16613b8b5760018160000160006101000a81548160ff0219169083151502179055508181600101819055506007839080600181540180825580915050600190039060005260206000200160009091909190916101000a81548173ffffffffffffffffffffffffffffffffffffffff021916908373ffffffffffffffffffffffffffffffffffffffff1602179055508273ffffffffffffffffffffffffffffffffffffffff167ffe83615d888076df1cf968a4c6694405f082fa2b2b353afde0af6438a9af7c0b83604051613b829190615163565b60405180910390a25b505050565b6000600560008573ffffffffffffffffffffffffffffffffffffffff1673ffffffffffffffffffffffffffffffffffffffff16815260200190815260200160002090508060000160009054906101000a900460ff16613c24576040517f08c379a0000000000000000000000000000000000000000000000000000000008152600401613c1b90615a34565b60405180910390fd5b8060020160003373ffffffffffffffffffffffffffffffffffffffff1673ffffffffffffffffffffffffffffffffffffffff16815260200190815260200160002060009054906101000a900460ff16613cb2576040517f08c379a0000000000000000000000000000000000000000000000000000000008152600401613ca990615aa0565b60405180910390fd5b613cbb84614764565b613cc584336149e8565b6000670de0b6b3a7640000600160009054906101000a900473ffffffffffffffffffffffffffffffffffffffff1673ffffffffffffffffffffffffffffffffffffffff166341976e09866040518263ffffffff1660e01b8152600401613d2b91906151cd565b602060405180830381865afa158015613d48573d6000803e3d6000fd5b505050506040513d601f19601f82011682018060405250810190613d6c9190615544565b84613d7791906155a0565b613d819190615611565b90508473ffffffffffffffffffffffffffffffffffffffff16639dc29fac33836040518363ffffffff1660e01b8152600401613dbe9291906159bf565b600060405180830381600087803b158015613dd857600080fd5b505af1158015613dec573d6000803e3d6000fd5b505050508473ffffffffffffffffffffffffffffffffffffffff1663fb3c96128533866040518463ffffffff1660e01b8152600401613e2d939291906158c3565b600060405180830381600087803b158015613e4757600080fd5b505af1158015613e5b573d6000803e3d6000fd5b505050508373ffffffffffffffffffffffffffffffffffffffff168573ffffffffffffffffffffffffffffffffffffffff163373ffffffffffffffffffffffffffffffffffffffff167ff8a861f822ed8ac8743e429937c8bb8952ca8617a40319ef7fde892039aac12886604051613ed39190615163565b60405180910390a45050505050565b6000808273ffffffffffffffffffffffffffffffffffffffff1663af8083da6040518163ffffffff1660e01b8152600401600060405180830381865afa158015613f30573d6000803e3d6000fd5b505050506040513d6000823e3d601f19601f82011682018060405250810190613f599190615dae565b90506000805b82518110156140d0576000838281518110613f7d57613f7c6156cc565b5b60200260200101519050670de0b6b3a7640000600160009054906101000a900473ffffffffffffffffffffffffffffffffffffffff1673ffffffffffffffffffffffffffffffffffffffff166341976e09836040518263ffffffff1660e01b8152600401613feb91906151cd565b602060405180830381865afa158015614008573d6000803e3d6000fd5b505050506040513d601f19601f8201168201806040525081019061402c9190615544565b8273ffffffffffffffffffffffffffffffffffffffff166318160ddd6040518163ffffffff1660e01b8152600401602060405180830381865afa158015614077573d6000803e3d6000fd5b505050506040513d601f19601f8201168201806040525081019061409b9190615544565b6140a591906155a0565b6140af9190615611565b836140ba91906156fb565b92505080806140c89061572f565b915050613f5f565b508092505050919050565b6140e3614609565b6000600660008473ffffffffffffffffffffffffffffffffffffffff1673ffffffffffffffffffffffffffffffffffffffff16815260200190815260200160002090508060000160009054906101000a900460ff166142145760018160000160006101000a81548160ff0219169083151502179055508181600101819055506008839080600181540180825580915050600190039060005260206000200160009091909190916101000a81548173ffffffffffffffffffffffffffffffffffffffff021916908373ffffffffffffffffffffffffffffffffffffffff1602179055508273ffffffffffffffffffffffffffffffffffffffff167f0dabbae73ad87de9f00d48ce6bc2fdee3a04023481e61ba06071d8d35b56951d8360405161420b9190615163565b60405180910390a25b505050565b6000806000905060005b600360008573ffffffffffffffffffffffffffffffffffffffff1673ffffffffffffffffffffffffffffffffffffffff16815260200190815260200160002080549050811015614498576000600360008673ffffffffffffffffffffffffffffffffffffffff1673ffffffffffffffffffffffffffffffffffffffff16815260200190815260200160002082815481106142c0576142bf6156cc565b5b9060005260206000200160009054906101000a900473ffffffffffffffffffffffffffffffffffffffff1690506ec097ce7bc90715b34b9f1000000000600660008373ffffffffffffffffffffffffffffffffffffffff1673ffffffffffffffffffffffffffffffffffffffff16815260200190815260200160002060010154600160009054906101000a900473ffffffffffffffffffffffffffffffffffffffff1673ffffffffffffffffffffffffffffffffffffffff166341976e09846040518263ffffffff1660e01b815260040161439b91906151cd565b602060405180830381865afa1580156143b8573d6000803e3d6000fd5b505050506040513d601f19601f820116820180604052508101906143dc9190615544565b600460008973ffffffffffffffffffffffffffffffffffffffff1673ffffffffffffffffffffffffffffffffffffffff16815260200190815260200160002060008573ffffffffffffffffffffffffffffffffffffffff1673ffffffffffffffffffffffffffffffffffffffff1681526020019081526020016000205461446391906155a0565b61446d91906155a0565b6144779190615611565b8361448291906156fb565b92505080806144909061572f565b915050614223565b5080915050919050565b6001600560008373ffffffffffffffffffffffffffffffffffffffff1673ffffffffffffffffffffffffffffffffffffffff16815260200190815260200160002060020160003373ffffffffffffffffffffffffffffffffffffffff1673ffffffffffffffffffffffffffffffffffffffff16815260200190815260200160002060006101000a81548160ff021916908315150217905550600260003373ffffffffffffffffffffffffffffffffffffffff1673ffffffffffffffffffffffffffffffffffffffff168152602001908152602001600020819080600181540180825580915050600190039060005260206000200160009091909190916101000a81548173ffffffffffffffffffffffffffffffffffffffff021916908373ffffffffffffffffffffffffffffffffffffffff16021790555050565b600081836145eb91906155a0565b905092915050565b600081836146019190615611565b905092915050565b614611614e5b565b73ffffffffffffffffffffffffffffffffffffffff1661462f611d4f565b73ffffffffffffffffffffffffffffffffffffffff1614614685576040517f08c379a000000000000000000000000000000000000000000000000000000000815260040161467c90615e43565b60405180910390fd5b565b60008183106146965781614698565b825b905092915050565b60008060009054906101000a900473ffffffffffffffffffffffffffffffffffffffff169050816000806101000a81548173ffffffffffffffffffffffffffffffffffffffff021916908373ffffffffffffffffffffffffffffffffffffffff1602179055508173ffffffffffffffffffffffffffffffffffffffff168173ffffffffffffffffffffffffffffffffffffffff167f8be0079c531659141344cd1fd0a4f28419497f9722a3daafe3b4186f6b6457e060405160405180910390a35050565b6000600a60008373ffffffffffffffffffffffffffffffffffffffff1673ffffffffffffffffffffffffffffffffffffffff16815260200190815260200160002090506000600960008473ffffffffffffffffffffffffffffffffffffffff1673ffffffffffffffffffffffffffffffffffffffff168152602001908152602001600020549050600082600001601c9054906101000a900463ffffffff1663ffffffff16426148139190615777565b905060008103614825575050506149e5565b60008211156149bd5760008473ffffffffffffffffffffffffffffffffffffffff166318160ddd6040518163ffffffff1660e01b8152600401602060405180830381865afa15801561487b573d6000803e3d6000fd5b505050506040513d601f19601f8201168201806040525081019061489f9190615544565b9050600083836148af91906155a0565b905060008083116148c15760006148e8565b826ec097ce7bc90715b34b9f1000000000836148dd91906155a0565b6148e79190615611565b5b9050808660000160009054906101000a90047bffffffffffffffffffffffffffffffffffffffffffffffffffffffff167bffffffffffffffffffffffffffffffffffffffffffffffffffffffff1661494091906156fb565b8660000160006101000a8154817bffffffffffffffffffffffffffffffffffffffffffffffffffffffff02191690837bffffffffffffffffffffffffffffffffffffffffffffffffffffffff1602179055504286600001601c6101000a81548163ffffffff021916908363ffffffff1602179055505050506149e1565b4283600001601c6101000a81548163ffffffff021916908363ffffffff1602179055505b5050505b50565b6000600a60008473ffffffffffffffffffffffffffffffffffffffff1673ffffffffffffffffffffffffffffffffffffffff168152602001908152602001600020905060008160000160009054906101000a90047bffffffffffffffffffffffffffffffffffffffffffffffffffffffff167bffffffffffffffffffffffffffffffffffffffffffffffffffffffff1690506000600b60008673ffffffffffffffffffffffffffffffffffffffff1673ffffffffffffffffffffffffffffffffffffffff16815260200190815260200160002060008573ffffffffffffffffffffffffffffffffffffffff1673ffffffffffffffffffffffffffffffffffffffff16815260200190815260200160002054905081600b60008773ffffffffffffffffffffffffffffffffffffffff1673ffffffffffffffffffffffffffffffffffffffff16815260200190815260200160002060008673ffffffffffffffffffffffffffffffffffffffff1673ffffffffffffffffffffffffffffffffffffffff16815260200190815260200160002081905550600081148015614b8e5750600e548210155b15614b9957600e5490505b60008183614ba79190615777565b905060008673ffffffffffffffffffffffffffffffffffffffff166370a08231876040518263ffffffff1660e01b8152600401614be491906151cd565b602060405180830381865afa158015614c01573d6000803e3d6000fd5b505050506040513d601f19601f82011682018060405250810190614c259190615544565b905060006ec097ce7bc90715b34b9f10000000008383614c4591906155a0565b614c4f9190615611565b9050600081600c60008a73ffffffffffffffffffffffffffffffffffffffff1673ffffffffffffffffffffffffffffffffffffffff16815260200190815260200160002054614c9e91906156fb565b905080600c60008a73ffffffffffffffffffffffffffffffffffffffff1673ffffffffffffffffffffffffffffffffffffffff16815260200190815260200160002081905550505050505050505050565b600080600d60009054906101000a900473ffffffffffffffffffffffffffffffffffffffff1673ffffffffffffffffffffffffffffffffffffffff166370a08231306040518263ffffffff1660e01b8152600401614d4d91906151cd565b602060405180830381865afa158015614d6a573d6000803e3d6000fd5b505050506040513d601f19601f82011682018060405250810190614d8e9190615544565b9050600083118015614da05750808311155b15614e5057600d60009054906101000a900473ffffffffffffffffffffffffffffffffffffffff1673ffffffffffffffffffffffffffffffffffffffff1663a9059cbb85856040518363ffffffff1660e01b8152600401614e029291906159bf565b6020604051808303816000875af1158015614e21573d6000803e3d6000fd5b505050506040513d601f19601f82011682018060405250810190614e459190615926565b506000915050614e55565b829150505b92915050565b600033905090565b6000604051905090565b600080fd5b600080fd5b600073ffffffffffffffffffffffffffffffffffffffff82169050919050565b6000614ea282614e77565b9050919050565b614eb281614e97565b8114614ebd57600080fd5b50565b600081359050614ecf81614ea9565b92915050565b6000819050919050565b614ee881614ed5565b8114614ef357600080fd5b50565b600081359050614f0581614edf565b92915050565b60008060008060808587031215614f2557614f24614e6d565b5b6000614f3387828801614ec0565b9450506020614f4487828801614ec0565b9350506040614f5587828801614ec0565b9250506060614f6687828801614ef6565b91505092959194509250565b600080fd5b6000601f19601f8301169050919050565b7f4e487b7100000000000000000000000000000000000000000000000000000000600052604160045260246000fd5b614fc082614f77565b810181811067ffffffffffffffff82111715614fdf57614fde614f88565b5b80604052505050565b6000614ff2614e63565b9050614ffe8282614fb7565b919050565b600067ffffffffffffffff82111561501e5761501d614f88565b5b602082029050602081019050919050565b600080fd5b600061504761504284615003565b614fe8565b9050808382526020820190506020840283018581111561506a5761506961502f565b5b835b81811015615093578061507f8882614ec0565b84526020840193505060208101905061506c565b5050509392505050565b600082601f8301126150b2576150b1614f72565b5b81356150c2848260208601615034565b91505092915050565b600080604083850312156150e2576150e1614e6d565b5b60006150f085828601614ec0565b925050602083013567ffffffffffffffff81111561511157615110614e72565b5b61511d8582860161509d565b9150509250929050565b60006020828403121561513d5761513c614e6d565b5b600061514b84828501614ec0565b91505092915050565b61515d81614ed5565b82525050565b60006020820190506151786000830184615154565b92915050565b6000806040838503121561519557615194614e6d565b5b60006151a385828601614ec0565b92505060206151b485828601614ef6565b9150509250929050565b6151c781614e97565b82525050565b60006020820190506151e260008301846151be565b92915050565b600080604083850312156151ff576151fe614e6d565b5b600061520d85828601614ec0565b925050602061521e85828601614ec0565b9150509250929050565b6000819050919050565b600061524d61524861524384614e77565b615228565b614e77565b9050919050565b600061525f82615232565b9050919050565b600061527182615254565b9050919050565b61528181615266565b82525050565b600060208201905061529c6000830184615278565b92915050565b600080600080600060a086880312156152be576152bd614e6d565b5b60006152cc88828901614ec0565b95505060206152dd88828901614ec0565b94505060406152ee88828901614ec0565b93505060606152ff88828901614ef6565b925050608061531088828901614ec0565b9150509295509295909350565b600061532882615254565b9050919050565b6153388161531d565b82525050565b6000602082019050615353600083018461532f565b92915050565b60008115159050919050565b61536e81615359565b82525050565b60006020820190506153896000830184615365565b92915050565b60006040820190506153a46000830185615365565b6153b16020830184615154565b9392505050565b6000806000606084860312156153d1576153d0614e6d565b5b60006153df86828701614ec0565b93505060206153f086828701614ec0565b925050604061540186828701614ef6565b9150509250925092565b60006020828403121561542157615420614e6d565b5b600061542f84828501614ef6565b91505092915050565b60007bffffffffffffffffffffffffffffffffffffffffffffffffffffffff82169050919050565b61546981615438565b82525050565b600063ffffffff82169050919050565b6154888161546f565b82525050565b60006040820190506154a36000830185615460565b6154b0602083018461547f565b9392505050565b600080604083850312156154ce576154cd614e6d565b5b600083013567ffffffffffffffff8111156154ec576154eb614e72565b5b6154f88582860161509d565b925050602083013567ffffffffffffffff81111561551957615518614e72565b5b6155258582860161509d565b9150509250929050565b60008151905061553e81614edf565b92915050565b60006020828403121561555a57615559614e6d565b5b60006155688482850161552f565b91505092915050565b7f4e487b7100000000000000000000000000000000000000000000000000000000600052601160045260246000fd5b60006155ab82614ed5565b91506155b683614ed5565b92508282026155c481614ed5565b915082820484148315176155db576155da615571565b5b5092915050565b7f4e487b7100000000000000000000000000000000000000000000000000000000600052601260045260246000fd5b600061561c82614ed5565b915061562783614ed5565b925082615637576156366155e2565b5b828204905092915050565b600060a08201905061565760008301886151be565b61566460208301876151be565b61567160408301866151be565b61567e6060830185615154565b61568b6080830184615154565b9695505050505050565b60006060820190506156aa60008301866151be565b6156b76020830185615154565b6156c46040830184615154565b949350505050565b7f4e487b7100000000000000000000000000000000000000000000000000000000600052603260045260246000fd5b600061570682614ed5565b915061571183614ed5565b925082820190508082111561572957615728615571565b5b92915050565b600061573a82614ed5565b91507fffffffffffffffffffffffffffffffffffffffffffffffffffffffffffffffff820361576c5761576b615571565b5b600182019050919050565b600061578282614ed5565b915061578d83614ed5565b92508282039050818111156157a5576157a4615571565b5b92915050565b7f4e487b7100000000000000000000000000000000000000000000000000000000600052603160045260246000fd5b600082825260208201905092915050565b7f436f6c6c61746572616c206e6f7420656e61626c656400000000000000000000600082015250565b60006158216016836157da565b915061582c826157eb565b602082019050919050565b6000602082019050818103600083015261585081615814565b9050919050565b7f4163636f756e74206e6f7420696e20636f6c6c61746572616c00000000000000600082015250565b600061588d6019836157da565b915061589882615857565b602082019050919050565b600060208201905081810360008301526158bc81615880565b9050919050565b60006060820190506158d860008301866151be565b6158e560208301856151be565b6158f26040830184615154565b949350505050565b61590381615359565b811461590e57600080fd5b50565b600081519050615920816158fa565b92915050565b60006020828403121561593c5761593b614e6d565b5b600061594a84828501615911565b91505092915050565b7f4865616c746820666163746f722061626f766520310000000000000000000000600082015250565b60006159896015836157da565b915061599482615953565b602082019050919050565b600060208201905081810360008301526159b88161597c565b9050919050565b60006040820190506159d460008301856151be565b6159e16020830184615154565b9392505050565b7f54726164696e6720706f6f6c206e6f7420656e61626c65640000000000000000600082015250565b6000615a1e6018836157da565b9150615a29826159e8565b602082019050919050565b60006020820190508181036000830152615a4d81615a11565b9050919050565b7f4163636f756e74206e6f7420696e2074726164696e6720706f6f6c0000000000600082015250565b6000615a8a601b836157da565b9150615a9582615a54565b602082019050919050565b60006020820190508181036000830152615ab981615a7d565b9050919050565b7f53796e7468206e6f7420656e61626c6564000000000000000000000000000000600082015250565b6000615af66011836157da565b9150615b0182615ac0565b602082019050919050565b60006020820190508181036000830152615b2581615ae9565b9050919050565b7f6d61726b6574206d757374206265206c69737465640000000000000000000000600082015250565b6000615b626015836157da565b9150615b6d82615b2c565b602082019050919050565b60006020820190508181036000830152615b9181615b55565b9050919050565b7f4f776e61626c653a206e6577206f776e657220697320746865207a65726f206160008201527f6464726573730000000000000000000000000000000000000000000000000000602082015250565b6000615bf46026836157da565b9150615bff82615b98565b604082019050919050565b60006020820190508181036000830152615c2381615be7565b9050919050565b7f496e73756666696369656e742062616c616e6365000000000000000000000000600082015250565b6000615c606014836157da565b9150615c6b82615c2a565b602082019050919050565b60006020820190508181036000830152615c8f81615c53565b9050919050565b7f4865616c746820666163746f722062656c6f77207361666543526174696f0000600082015250565b6000615ccc601e836157da565b9150615cd782615c96565b602082019050919050565b60006020820190508181036000830152615cfb81615cbf565b9050919050565b600081519050615d1181614ea9565b92915050565b6000615d2a615d2584615003565b614fe8565b90508083825260208201905060208402830185811115615d4d57615d4c61502f565b5b835b81811015615d765780615d628882615d02565b845260208401935050602081019050615d4f565b5050509392505050565b600082601f830112615d9557615d94614f72565b5b8151615da5848260208601615d17565b91505092915050565b600060208284031215615dc457615dc3614e6d565b5b600082015167ffffffffffffffff811115615de257615de1614e72565b5b615dee84828501615d80565b91505092915050565b7f4f776e61626c653a2063616c6c6572206973206e6f7420746865206f776e6572600082015250565b6000615e2d6020836157da565b9150615e3882615df7565b602082019050919050565b60006020820190508181036000830152615e5c81615e20565b905091905056fea2646970667358221220c2a56289651f43fcca24599db13e3c48a815d8c48088d3f0b8fddff6a4ae3ff464736f6c63430008110033",
  "linkReferences": {},
  "deployedLinkReferences": {}
}