{
  "contractName": "System",
  "abi": [
    {
      "inputs": [
        {
          "internalType": "address",
          "name": "addrResolver",
          "type": "address"
        },
        {
          "internalType": "uint256",
          "name": "minCRatio_",
          "type": "uint256"
        },
        {
          "internalType": "uint256",
          "name": "safeCRatio_",
          "type": "uint256"
        }
      ],
      "stateMutability": "nonpayable",
      "type": "constructor"
    },
    {
      "anonymous": false,
      "inputs": [
        {
          "indexed": false,
          "internalType": "address",
          "name": "account",
          "type": "address"
        },
        {
          "indexed": false,
          "internalType": "address",
          "name": "asset",
          "type": "address"
        },
        {
          "indexed": false,
          "internalType": "uint256",
          "name": "amount",
          "type": "uint256"
        }
      ],
      "name": "Borrow",
      "type": "event"
    },
    {
      "anonymous": false,
      "inputs": [
        {
          "indexed": false,
          "internalType": "address",
          "name": "asset",
          "type": "address"
        }
      ],
      "name": "CollateralPaused",
      "type": "event"
    },
    {
      "anonymous": false,
      "inputs": [
        {
          "indexed": false,
          "internalType": "address",
          "name": "asset",
          "type": "address"
        }
      ],
      "name": "CollateralResumed",
      "type": "event"
    },
    {
      "anonymous": false,
      "inputs": [
        {
          "indexed": false,
          "internalType": "address",
          "name": "account",
          "type": "address"
        },
        {
          "indexed": false,
          "internalType": "address",
          "name": "asset",
          "type": "address"
        },
        {
          "indexed": false,
          "internalType": "uint256",
          "name": "amount",
          "type": "uint256"
        }
      ],
      "name": "Deposit",
      "type": "event"
    },
    {
      "anonymous": false,
      "inputs": [
        {
          "indexed": false,
          "internalType": "uint256",
          "name": "pool",
          "type": "uint256"
        },
        {
          "indexed": false,
          "internalType": "address",
          "name": "account",
          "type": "address"
        },
        {
          "indexed": false,
          "internalType": "address",
          "name": "src",
          "type": "address"
        },
        {
          "indexed": false,
          "internalType": "uint256",
          "name": "srcAmount",
          "type": "uint256"
        },
        {
          "indexed": false,
          "internalType": "address",
          "name": "dst",
          "type": "address"
        }
      ],
      "name": "Exchange",
      "type": "event"
    },
    {
      "anonymous": false,
      "inputs": [],
      "name": "IssuancePaused",
      "type": "event"
    },
    {
      "anonymous": false,
      "inputs": [],
      "name": "IssuanceResumed",
      "type": "event"
    },
    {
      "anonymous": false,
      "inputs": [
        {
          "indexed": false,
          "internalType": "address",
          "name": "pool",
          "type": "address"
        },
        {
          "indexed": false,
          "internalType": "address",
          "name": "liquidator",
          "type": "address"
        },
        {
          "indexed": false,
          "internalType": "address",
          "name": "account",
          "type": "address"
        },
        {
          "indexed": false,
          "internalType": "address",
          "name": "asset",
          "type": "address"
        },
        {
          "indexed": false,
          "internalType": "uint256",
          "name": "amount",
          "type": "uint256"
        }
      ],
      "name": "Liquidate",
      "type": "event"
    },
    {
      "anonymous": false,
      "inputs": [
        {
          "indexed": false,
          "internalType": "address",
          "name": "asset",
          "type": "address"
        },
        {
          "indexed": false,
          "internalType": "address",
          "name": "priceOracle",
          "type": "address"
        },
        {
          "indexed": false,
          "internalType": "uint256",
          "name": "minCollateral",
          "type": "uint256"
        }
      ],
      "name": "NewCollateralAsset",
      "type": "event"
    },
    {
      "anonymous": false,
      "inputs": [
        {
          "indexed": false,
          "internalType": "uint256",
          "name": "minCRatio",
          "type": "uint256"
        }
      ],
      "name": "NewMinCRatio",
      "type": "event"
    },
    {
      "anonymous": false,
      "inputs": [
        {
          "indexed": false,
          "internalType": "uint256",
          "name": "safeCRatio",
          "type": "uint256"
        }
      ],
      "name": "NewSafeCRatio",
      "type": "event"
    },
    {
      "anonymous": false,
      "inputs": [
        {
          "indexed": false,
          "internalType": "address",
          "name": "asset",
          "type": "address"
        },
        {
          "indexed": false,
          "internalType": "address",
          "name": "priceOracle",
          "type": "address"
        },
        {
          "indexed": false,
          "internalType": "address",
          "name": "interestRateModel",
          "type": "address"
        }
      ],
      "name": "NewSynthAsset",
      "type": "event"
    },
    {
      "anonymous": false,
      "inputs": [
        {
          "indexed": false,
          "internalType": "address",
          "name": "pool",
          "type": "address"
        },
        {
          "indexed": false,
          "internalType": "uint256",
          "name": "poolId",
          "type": "uint256"
        }
      ],
      "name": "NewTradingPool",
      "type": "event"
    },
    {
      "anonymous": false,
      "inputs": [
        {
          "indexed": false,
          "internalType": "address",
          "name": "pool",
          "type": "address"
        },
        {
          "indexed": false,
          "internalType": "address",
          "name": "account",
          "type": "address"
        },
        {
          "indexed": false,
          "internalType": "address",
          "name": "asset",
          "type": "address"
        },
        {
          "indexed": false,
          "internalType": "uint256",
          "name": "amount",
          "type": "uint256"
        }
      ],
      "name": "PoolEntered",
      "type": "event"
    },
    {
      "anonymous": false,
      "inputs": [
        {
          "indexed": false,
          "internalType": "address",
          "name": "pool",
          "type": "address"
        },
        {
          "indexed": false,
          "internalType": "address",
          "name": "account",
          "type": "address"
        },
        {
          "indexed": false,
          "internalType": "address",
          "name": "asset",
          "type": "address"
        },
        {
          "indexed": false,
          "internalType": "uint256",
          "name": "amount",
          "type": "uint256"
        }
      ],
      "name": "PoolExited",
      "type": "event"
    },
    {
      "anonymous": false,
      "inputs": [
        {
          "indexed": false,
          "internalType": "address",
          "name": "account",
          "type": "address"
        },
        {
          "indexed": false,
          "internalType": "address",
          "name": "asset",
          "type": "address"
        },
        {
          "indexed": false,
          "internalType": "uint256",
          "name": "amount",
          "type": "uint256"
        }
      ],
      "name": "Repay",
      "type": "event"
    },
    {
      "anonymous": false,
      "inputs": [
        {
          "indexed": false,
          "internalType": "address",
          "name": "tradingPool",
          "type": "address"
        },
        {
          "indexed": false,
          "internalType": "address[]",
          "name": "synths",
          "type": "address[]"
        }
      ],
      "name": "SynthDisabledInTradingPool",
      "type": "event"
    },
    {
      "anonymous": false,
      "inputs": [
        {
          "indexed": false,
          "internalType": "address",
          "name": "tradingPool",
          "type": "address"
        },
        {
          "indexed": false,
          "internalType": "address[]",
          "name": "synths",
          "type": "address[]"
        }
      ],
      "name": "SynthEnabledInTradingPool",
      "type": "event"
    },
    {
      "anonymous": false,
      "inputs": [
        {
          "indexed": false,
          "internalType": "address",
          "name": "asset",
          "type": "address"
        }
      ],
      "name": "SynthPaused",
      "type": "event"
    },
    {
      "anonymous": false,
      "inputs": [
        {
          "indexed": false,
          "internalType": "address",
          "name": "asset",
          "type": "address"
        }
      ],
      "name": "SynthResumed",
      "type": "event"
    },
    {
      "anonymous": false,
      "inputs": [],
      "name": "TradingPaused",
      "type": "event"
    },
    {
      "anonymous": false,
      "inputs": [],
      "name": "TradingResumed",
      "type": "event"
    },
    {
      "anonymous": false,
      "inputs": [
        {
          "indexed": false,
          "internalType": "address",
          "name": "account",
          "type": "address"
        },
        {
          "indexed": false,
          "internalType": "address",
          "name": "asset",
          "type": "address"
        },
        {
          "indexed": false,
          "internalType": "uint256",
          "name": "amount",
          "type": "uint256"
        }
      ],
      "name": "Withdraw",
      "type": "event"
    },
    {
      "inputs": [
        {
          "internalType": "address",
          "name": "asset",
          "type": "address"
        },
        {
          "internalType": "uint256",
          "name": "amount",
          "type": "uint256"
        }
      ],
      "name": "borrow",
      "outputs": [],
      "stateMutability": "nonpayable",
      "type": "function"
    },
    {
      "inputs": [],
      "name": "cManager",
      "outputs": [
        {
          "internalType": "address",
          "name": "",
          "type": "address"
        }
      ],
      "stateMutability": "view",
      "type": "function"
    },
    {
      "inputs": [
        {
          "internalType": "address",
          "name": "account",
          "type": "address"
        }
      ],
      "name": "collateralRatio",
      "outputs": [
        {
          "internalType": "uint256",
          "name": "",
          "type": "uint256"
        }
      ],
      "stateMutability": "view",
      "type": "function"
    },
    {
      "inputs": [],
      "name": "dManager",
      "outputs": [
        {
          "internalType": "address",
          "name": "",
          "type": "address"
        }
      ],
      "stateMutability": "view",
      "type": "function"
    },
    {
      "inputs": [
        {
          "internalType": "address",
          "name": "asset",
          "type": "address"
        },
        {
          "internalType": "uint256",
          "name": "amount",
          "type": "uint256"
        }
      ],
      "name": "deposit",
      "outputs": [],
      "stateMutability": "nonpayable",
      "type": "function"
    },
    {
      "inputs": [
        {
          "internalType": "uint256",
          "name": "poolIndex",
          "type": "uint256"
        },
        {
          "internalType": "address[]",
          "name": "synths",
          "type": "address[]"
        }
      ],
      "name": "disableSynthInTradingPool",
      "outputs": [],
      "stateMutability": "nonpayable",
      "type": "function"
    },
    {
      "inputs": [
        {
          "internalType": "uint256",
          "name": "poolIndex",
          "type": "uint256"
        },
        {
          "internalType": "address[]",
          "name": "synths",
          "type": "address[]"
        }
      ],
      "name": "enableSynthInTradingPool",
      "outputs": [],
      "stateMutability": "nonpayable",
      "type": "function"
    },
    {
      "inputs": [
        {
          "internalType": "uint256",
          "name": "poolIndex",
          "type": "uint256"
        },
        {
          "internalType": "address",
          "name": "asset",
          "type": "address"
        },
        {
          "internalType": "uint256",
          "name": "amount",
          "type": "uint256"
        }
      ],
      "name": "enterPool",
      "outputs": [],
      "stateMutability": "nonpayable",
      "type": "function"
    },
    {
      "inputs": [
        {
          "internalType": "uint256",
          "name": "poolIndex",
          "type": "uint256"
        },
        {
          "internalType": "address",
          "name": "src",
          "type": "address"
        },
        {
          "internalType": "uint256",
          "name": "srcAmount",
          "type": "uint256"
        },
        {
          "internalType": "address",
          "name": "dst",
          "type": "address"
        }
      ],
      "name": "exchange",
      "outputs": [],
      "stateMutability": "nonpayable",
      "type": "function"
    },
    {
      "inputs": [
        {
          "internalType": "address",
          "name": "maker",
          "type": "address"
        },
        {
          "internalType": "address",
          "name": "taker",
          "type": "address"
        },
        {
          "internalType": "address",
          "name": "src",
          "type": "address"
        },
        {
          "internalType": "address",
          "name": "dst",
          "type": "address"
        },
        {
          "internalType": "uint256",
          "name": "srcAmount",
          "type": "uint256"
        }
      ],
      "name": "executeLimitOrderInternal",
      "outputs": [],
      "stateMutability": "nonpayable",
      "type": "function"
    },
    {
      "inputs": [
        {
          "internalType": "address",
          "name": "maker",
          "type": "address"
        },
        {
          "internalType": "address",
          "name": "src",
          "type": "address"
        },
        {
          "internalType": "address",
          "name": "dst",
          "type": "address"
        },
        {
          "internalType": "uint256",
          "name": "srcAmount",
          "type": "uint256"
        },
        {
          "internalType": "bytes",
          "name": "signature",
          "type": "bytes"
        }
      ],
      "name": "executeOrder",
      "outputs": [],
      "stateMutability": "nonpayable",
      "type": "function"
    },
    {
      "inputs": [
        {
          "internalType": "uint256",
          "name": "poolIndex",
          "type": "uint256"
        },
        {
          "internalType": "address",
          "name": "asset",
          "type": "address"
        },
        {
          "internalType": "uint256",
          "name": "amount",
          "type": "uint256"
        }
      ],
      "name": "exitPool",
      "outputs": [],
      "stateMutability": "nonpayable",
      "type": "function"
    },
    {
      "inputs": [
        {
          "internalType": "address",
          "name": "asset",
          "type": "address"
        }
      ],
      "name": "getDebtTracker",
      "outputs": [
        {
          "internalType": "address",
          "name": "",
          "type": "address"
        }
      ],
      "stateMutability": "view",
      "type": "function"
    },
    {
      "inputs": [],
      "name": "isExchangePaused",
      "outputs": [
        {
          "internalType": "bool",
          "name": "",
          "type": "bool"
        }
      ],
      "stateMutability": "view",
      "type": "function"
    },
    {
      "inputs": [],
      "name": "isIssuancePaused",
      "outputs": [
        {
          "internalType": "bool",
          "name": "",
          "type": "bool"
        }
      ],
      "stateMutability": "view",
      "type": "function"
    },
    {
      "inputs": [
        {
          "internalType": "address",
          "name": "",
          "type": "address"
        }
      ],
      "name": "isTradingPool",
      "outputs": [
        {
          "internalType": "bool",
          "name": "",
          "type": "bool"
        }
      ],
      "stateMutability": "view",
      "type": "function"
    },
    {
      "inputs": [],
      "name": "limitOrder",
      "outputs": [
        {
          "internalType": "address",
          "name": "",
          "type": "address"
        }
      ],
      "stateMutability": "view",
      "type": "function"
    },
    {
      "inputs": [
        {
          "internalType": "address",
          "name": "user",
          "type": "address"
        }
      ],
      "name": "liquidate",
      "outputs": [],
      "stateMutability": "nonpayable",
      "type": "function"
    },
    {
      "inputs": [],
      "name": "liquidator",
      "outputs": [
        {
          "internalType": "address",
          "name": "",
          "type": "address"
        }
      ],
      "stateMutability": "view",
      "type": "function"
    },
    {
      "inputs": [],
      "name": "minCRatio",
      "outputs": [
        {
          "internalType": "uint256",
          "name": "",
          "type": "uint256"
        }
      ],
      "stateMutability": "view",
      "type": "function"
    },
    {
      "inputs": [
        {
          "internalType": "string",
          "name": "name",
          "type": "string"
        },
        {
          "internalType": "string",
          "name": "symbol",
          "type": "string"
        },
        {
          "internalType": "uint256",
          "name": "decimals",
          "type": "uint256"
        },
        {
          "internalType": "address",
          "name": "asset",
          "type": "address"
        },
        {
          "internalType": "address",
          "name": "oracle",
          "type": "address"
        },
        {
          "internalType": "uint256",
          "name": "minCollateral",
          "type": "uint256"
        }
      ],
      "name": "newCollateralAsset",
      "outputs": [],
      "stateMutability": "nonpayable",
      "type": "function"
    },
    {
      "inputs": [
        {
          "internalType": "string",
          "name": "name",
          "type": "string"
        },
        {
          "internalType": "string",
          "name": "symbol",
          "type": "string"
        },
        {
          "internalType": "address",
          "name": "_oracle",
          "type": "address"
        },
        {
          "internalType": "address",
          "name": "_interestRateModel",
          "type": "address"
        }
      ],
      "name": "newSynthAsset",
      "outputs": [],
      "stateMutability": "nonpayable",
      "type": "function"
    },
    {
      "inputs": [
        {
          "internalType": "string",
          "name": "name",
          "type": "string"
        },
        {
          "internalType": "string",
          "name": "symbol",
          "type": "string"
        }
      ],
      "name": "newTradingPool",
      "outputs": [],
      "stateMutability": "nonpayable",
      "type": "function"
    },
    {
      "inputs": [],
      "name": "owner",
      "outputs": [
        {
          "internalType": "address",
          "name": "",
          "type": "address"
        }
      ],
      "stateMutability": "view",
      "type": "function"
    },
    {
      "inputs": [
        {
          "internalType": "address",
          "name": "user",
          "type": "address"
        },
        {
          "internalType": "address",
          "name": "borrowedAsset",
          "type": "address"
        },
        {
          "internalType": "uint256",
          "name": "borrowedAmount",
          "type": "uint256"
        }
      ],
      "name": "partialLiquidate",
      "outputs": [],
      "stateMutability": "nonpayable",
      "type": "function"
    },
    {
      "inputs": [
        {
          "internalType": "address",
          "name": "asset",
          "type": "address"
        }
      ],
      "name": "pauseCollateral",
      "outputs": [],
      "stateMutability": "nonpayable",
      "type": "function"
    },
    {
      "inputs": [],
      "name": "pauseExchange",
      "outputs": [],
      "stateMutability": "nonpayable",
      "type": "function"
    },
    {
      "inputs": [],
      "name": "pauseIssuance",
      "outputs": [],
      "stateMutability": "nonpayable",
      "type": "function"
    },
    {
      "inputs": [
        {
          "internalType": "address",
          "name": "asset",
          "type": "address"
        }
      ],
      "name": "pauseSynth",
      "outputs": [],
      "stateMutability": "nonpayable",
      "type": "function"
    },
    {
      "inputs": [
        {
          "internalType": "address",
          "name": "asset",
          "type": "address"
        },
        {
          "internalType": "uint256",
          "name": "amount",
          "type": "uint256"
        }
      ],
      "name": "repay",
      "outputs": [],
      "stateMutability": "nonpayable",
      "type": "function"
    },
    {
      "inputs": [],
      "name": "reserve",
      "outputs": [
        {
          "internalType": "address",
          "name": "",
          "type": "address"
        }
      ],
      "stateMutability": "view",
      "type": "function"
    },
    {
      "inputs": [
        {
          "internalType": "address",
          "name": "account",
          "type": "address"
        }
      ],
      "name": "reservePoolDebt",
      "outputs": [
        {
          "internalType": "uint256",
          "name": "",
          "type": "uint256"
        }
      ],
      "stateMutability": "view",
      "type": "function"
    },
    {
      "inputs": [],
      "name": "resumeExchange",
      "outputs": [],
      "stateMutability": "nonpayable",
      "type": "function"
    },
    {
      "inputs": [],
      "name": "resumeIssuance",
      "outputs": [],
      "stateMutability": "nonpayable",
      "type": "function"
    },
    {
      "inputs": [],
      "name": "safeCRatio",
      "outputs": [
        {
          "internalType": "uint256",
          "name": "",
          "type": "uint256"
        }
      ],
      "stateMutability": "view",
      "type": "function"
    },
    {
      "inputs": [
        {
          "internalType": "uint256",
          "name": "_minCRatio",
          "type": "uint256"
        }
      ],
      "name": "setMinCRatio",
      "outputs": [],
      "stateMutability": "nonpayable",
      "type": "function"
    },
    {
      "inputs": [
        {
          "internalType": "uint256",
          "name": "_safeCRatio",
          "type": "uint256"
        }
      ],
      "name": "setSafeCRatio",
      "outputs": [],
      "stateMutability": "nonpayable",
      "type": "function"
    },
    {
      "inputs": [
        {
          "internalType": "address",
          "name": "account",
          "type": "address"
        }
      ],
      "name": "totalCollateral",
      "outputs": [
        {
          "internalType": "uint256",
          "name": "",
          "type": "uint256"
        }
      ],
      "stateMutability": "view",
      "type": "function"
    },
    {
      "inputs": [
        {
          "internalType": "address",
          "name": "account",
          "type": "address"
        }
      ],
      "name": "tradingPoolDebt",
      "outputs": [
        {
          "internalType": "uint256",
          "name": "",
          "type": "uint256"
        }
      ],
      "stateMutability": "view",
      "type": "function"
    },
    {
      "inputs": [
        {
          "internalType": "uint256",
          "name": "",
          "type": "uint256"
        }
      ],
      "name": "tradingPools",
      "outputs": [
        {
          "internalType": "contract IPool",
          "name": "",
          "type": "address"
        }
      ],
      "stateMutability": "view",
      "type": "function"
    },
    {
      "inputs": [],
      "name": "tradingPoolsCount",
      "outputs": [
        {
          "internalType": "uint256",
          "name": "",
          "type": "uint256"
        }
      ],
      "stateMutability": "view",
      "type": "function"
    },
    {
      "inputs": [
        {
          "internalType": "address",
          "name": "asset",
          "type": "address"
        }
      ],
      "name": "unpauseCollateral",
      "outputs": [],
      "stateMutability": "nonpayable",
      "type": "function"
    },
    {
      "inputs": [
        {
          "internalType": "address",
          "name": "asset",
          "type": "address"
        }
      ],
      "name": "unpauseSynth",
      "outputs": [],
      "stateMutability": "nonpayable",
      "type": "function"
    },
    {
      "inputs": [
        {
          "internalType": "address",
          "name": "asset",
          "type": "address"
        },
        {
          "internalType": "uint256",
          "name": "amount",
          "type": "uint256"
        }
      ],
      "name": "withdraw",
      "outputs": [],
      "stateMutability": "nonpayable",
      "type": "function"
    }
  ],
  "bytecode": "0x60806040526000805461ffff191681556003553480156200001f57600080fd5b50d380156200002d57600080fd5b50d280156200003b57600080fd5b5060405162005fd238038062005fd28339810160408190526200005e916200009a565b6001600681905591909155600255600080546001600160a01b03909216620100000262010000600160b01b0319909216919091179055620000ea565b600080600060608486031215620000b057600080fd5b83516001600160a81b0381168114620000c857600080fd5b60208501516040909501516001600160a01b0391909116969495509392505050565b615ed880620000fa6000396000f3fe60806040523480156200001157600080fd5b50d380156200001f57600080fd5b50d280156200002d57600080fd5b50600436106200034d5760003560e01c80637f3f212d11620001cd578063ca40742c1162000111578063f1c5bb5611620000bf578063fa9b53741162000096578063fa9b537414620006bb578063fad13e1c14620006c5578063fd8dde7914620006dc57600080fd5b8063f1c5bb561462000674578063f3fef3a3146200069a578063f405f65a14620006b157600080fd5b8063df23cbb111620000f4578063df23cbb1146200063c578063e15531611462000646578063edd21f82146200065d57600080fd5b8063ca40742c146200061b578063cd3293de146200063257600080fd5b8063acd24176116200017b578063b140bf031162000152578063b140bf0314620005e3578063c3e2a16914620005ed578063c8a77656146200060457600080fd5b8063acd2417614620005ab578063adee073214620005b5578063af32880414620005cc57600080fd5b80639903764d11620001b05780639903764d1462000573578063a0c24b95146200058a578063a1a6851214620005a157600080fd5b80637f3f212d14620005525780638da5cb5b146200056957600080fd5b806347e7ef24116200029557806367a280b211620002435780637690fdd0116200021a5780637690fdd0146200051a5780637c4fb53d14620005315780637e059b22146200053b57600080fd5b806367a280b214620004e257806372c7981514620004ec578063744fd3a8146200050357600080fd5b80634ba8728f11620002785780634ba8728f14620004a857806351e0633714620004b2578063607573d314620004c957600080fd5b806347e7ef24146200047a5780634b8a3529146200049157600080fd5b8063240d5adb11620002ff5780633c070a9611620002d65780633c070a9614620004425780633d12bf6814620004595780634046ebae146200047057600080fd5b8063240d5adb14620003cf5780632b2721c614620003e65780632f865568146200042b57600080fd5b806319bd2288116200033457806319bd2288146200039357806322159b5c14620003a157806322867d7814620003b857600080fd5b806305562751146200035257806316d4b6ca146200037a575b600080fd5b6000546200036590610100900460ff1681565b60405190151581526020015b60405180910390f35b620003916200038b366004620036cb565b620006f3565b005b600054620003659060ff1681565b62000391620003b2366004620037e5565b62000892565b62000391620003c93660046200371e565b620009e1565b62000391620003e036600462003597565b62000b63565b62000412620003f736600462003940565b6004602052600090815260409020546001600160a01b031681565b6040516001600160a01b03909116815260200162000371565b620003916200043c36600462003547565b62000d91565b620003916200045336600462003a09565b62000f11565b620003916200046a36600462003547565b62001059565b6200041262001167565b620003916200048b3660046200371e565b62001212565b62000391620004a23660046200371e565b62001447565b62000391620016d6565b62000391620004c336600462003a09565b62001770565b620004d360015481565b60405190815260200162000371565b62000391620018ac565b62000412620004fd36600462003547565b62001944565b620004d36200051436600462003547565b620019ee565b620003916200052b36600462003940565b62001a93565b6200041262001b2d565b620004d36200054c36600462003547565b62001b84565b620003916200056336600462003974565b62001bda565b6200041262001d8f565b620003916200058436600462003547565b62001ddf565b620003916200059b3660046200377a565b62001ee7565b620004126200203f565b620004d360035481565b62000391620005c63660046200361c565b62002096565b62000391620005dd36600462003547565b62002310565b620004d360025481565b620004d3620005fe36600462003547565b62002418565b620003916200061536600462003974565b6200250b565b620004d36200062c36600462003547565b620026b3565b620004126200271b565b6200039162002772565b620003916200065736600462003547565b6200280e565b620003916200066e36600462003889565b62002916565b620003656200068536600462003547565b60056020526000908152604090205460ff1681565b62000391620006ab3660046200371e565b62002a44565b6200039162002b60565b6200041262002bf7565b62000391620006d6366004620039b9565b62002c4e565b62000391620006ed36600462003940565b62002e66565b600260065414156200074c5760405162461bcd60e51b815260206004820152601f60248201527f5265656e7472616e637947756172643a207265656e7472616e742063616c6c0060448201526064015b60405180910390fd5b600260065560006200075e84620026b3565b90506001546200076e85620026b3565b1080156200077c5750600081115b620007f05760405162461bcd60e51b815260206004820152603960248201527f526573657276653a2043616e6e6f74206265206c6971756964617465642c206360448201527f526174696f6e2069732061626f7665204d696e43526174696f00000000000000606482015260840162000743565b620007fa62001167565b6040517f78faf78b0000000000000000000000000000000000000000000000000000000081523360048201526001600160a01b03868116602483015285811660448301526064820185905291909116906378faf78b90608401600060405180830381600087803b1580156200086e57600080fd5b505af115801562000883573d6000803e3d6000fd5b50506001600655505050505050565b336200089d62001d8f565b6001600160a01b031614620008f65760405162461bcd60e51b8152602060048201526029602482015260008051602062005e8383398151915260448201526810333ab731ba34b7b760b91b606482015260840162000743565b6000620009026200203f565b6001600160a01b031663e2fa01bb868686866040518563ffffffff1660e01b815260040162000935949392919062003c34565b602060405180830381600087803b1580156200095057600080fd5b505af115801562000965573d6000803e3d6000fd5b505050506040513d601f19601f820116820180604052508101906200098b919062003577565b604080516001600160a01b038381168252868116602083015285168183015290519192507f29cc73fb1338d03efc29ba5cefa1a64776ef61ec6d9baf5c75dcd8b30780a5b4919081900360600190a15050505050565b6002600654141562000a365760405162461bcd60e51b815260206004820152601f60248201527f5265656e7472616e637947756172643a207265656e7472616e742063616c6c00604482015260640162000743565b6002600655600054610100900460ff161562000a955760405162461bcd60e51b815260206004820152601a60248201527f53595354454d3a2049737375616e636520697320706175736564000000000000604482015260640162000743565b6000811162000af55760405162461bcd60e51b815260206004820152602560248201527f53797374656d3a20616d6f756e74206d75737420626520677265617465722074604482015264068616e20360dc1b606482015260840162000743565b6001600160a01b03821662000b4d5760405162461bcd60e51b815260206004820152601b60248201527f53797374656d3a2061737365742063616e6e6f74206265203078300000000000604482015260640162000743565b62000b5a33838362002f00565b50506001600655565b6000826001600160a01b03166311f37ceb6040518163ffffffff1660e01b815260040160206040518083038186803b15801562000b9f57600080fd5b505afa15801562000bb4573d6000803e3d6000fd5b505050506040513d601f19601f8201168201806040525081019062000bda91906200395a565b846001600160a01b03166311f37ceb6040518163ffffffff1660e01b815260040160206040518083038186803b15801562000c1457600080fd5b505afa15801562000c29573d6000803e3d6000fd5b505050506040513d601f19601f8201168201806040525081019062000c4f91906200395a565b62000c5b908462003d4a565b62000c67919062003d27565b6040516323b872dd60e01b81526001600160a01b038781166004830152888116602483015260448201839052919250908416906323b872dd90606401602060405180830381600087803b15801562000cbe57600080fd5b505af115801562000cd3573d6000803e3d6000fd5b505050506040513d601f19601f8201168201806040525081019062000cf9919062003756565b506040516323b872dd60e01b81526001600160a01b0387811660048301528681166024830152604482018490528516906323b872dd90606401602060405180830381600087803b15801562000d4d57600080fd5b505af115801562000d62573d6000803e3d6000fd5b505050506040513d601f19601f8201168201806040525081019062000d88919062003756565b50505050505050565b6002600654141562000de65760405162461bcd60e51b815260206004820152601f60248201527f5265656e7472616e637947756172643a207265656e7472616e742063616c6c00604482015260640162000743565b6002600655600062000df882620026b3565b90506001548110801562000e0c5750600081115b62000e805760405162461bcd60e51b815260206004820152603960248201527f526573657276653a2043616e6e6f74206265206c6971756964617465642c206360448201527f526174696f6e2069732061626f7665204d696e43526174696f00000000000000606482015260840162000743565b62000e8a62001167565b6040517f86b9d81f0000000000000000000000000000000000000000000000000000000081523360048201526001600160a01b03848116602483015291909116906386b9d81f90604401600060405180830381600087803b15801562000eef57600080fd5b505af115801562000f04573d6000803e3d6000fd5b5050600160065550505050565b3362000f1c62001d8f565b6001600160a01b03161462000f755760405162461bcd60e51b8152602060048201526029602482015260008051602062005e8383398151915260448201526810333ab731ba34b7b760b91b606482015260840162000743565b6000828152600460208190526040918290205491517fc909b4a60000000000000000000000000000000000000000000000000000000081526001600160a01b039092169163c909b4a69162000fcd9185910162003bed565b600060405180830381600087803b15801562000fe857600080fd5b505af115801562000ffd573d6000803e3d6000fd5b505050600083815260046020526040908190205490517f28c6ebef90afac63a80f8ffd10ac5b2fb952e1a02b88a9e5d2047d372b8c676a92506200104d916001600160a01b031690849062003bc1565b60405180910390a15050565b336200106462001d8f565b6001600160a01b031614620010bd5760405162461bcd60e51b8152602060048201526029602482015260008051602062005e8383398151915260448201526810333ab731ba34b7b760b91b606482015260840162000743565b620010c762001b2d565b6040516357b001f960e01b81526001600160a01b03838116600483015291909116906357b001f990602401600060405180830381600087803b1580156200110d57600080fd5b505af115801562001122573d6000803e3d6000fd5b50506040516001600160a01b03841681527f96fd5844e96e23c2aa2bb0d74b9450b818331965c10f89c3a76516d3b4d6a31d925060200190505b60405180910390a150565b600080546040516321f8a72160e01b81527f4c495155494441544f52000000000000000000000000000000000000000000006004820152620100009091046001600160a01b0316906321f8a721906024015b60206040518083038186803b158015620011d257600080fd5b505afa158015620011e7573d6000803e3d6000fd5b505050506040513d601f19601f820116820180604052508101906200120d919062003577565b905090565b60026006541415620012675760405162461bcd60e51b815260206004820152601f60248201527f5265656e7472616e637947756172643a207265656e7472616e742063616c6c00604482015260640162000743565b60026006556001600160a01b038216620012c45760405162461bcd60e51b815260206004820152601b60248201527f53797374656d3a2061737365742063616e6e6f74206265203078300000000000604482015260640162000743565b60008111620013245760405162461bcd60e51b815260206004820152602560248201527f53797374656d3a20616d6f756e74206d75737420626520677265617465722074604482015264068616e20360dc1b606482015260840162000743565b6200132e62001b2d565b6040517f2dc7b4820000000000000000000000000000000000000000000000000000000081526001600160a01b0384811660048301529190911690632dc7b4829060240160206040518083038186803b1580156200138b57600080fd5b505afa158015620013a0573d6000803e3d6000fd5b505050506040513d601f19601f82011682018060405250810190620013c6919062003756565b6200143a5760405162461bcd60e51b815260206004820152602660248201527f53797374656d3a206173736574206973206e6f742061637469766520636f6c6c60448201527f61746572616c0000000000000000000000000000000000000000000000000000606482015260840162000743565b62000b5a33838362002fc2565b600260065414156200149c5760405162461bcd60e51b815260206004820152601f60248201527f5265656e7472616e637947756172643a207265656e7472616e742063616c6c00604482015260640162000743565b6002600655600054610100900460ff1615620014fb5760405162461bcd60e51b815260206004820152601a60248201527f53595354454d3a2049737375616e636520697320706175736564000000000000604482015260640162000743565b600081116200155b5760405162461bcd60e51b815260206004820152602560248201527f53797374656d3a20616d6f756e74206d75737420626520677265617465722074604482015264068616e20360dc1b606482015260840162000743565b6001600160a01b038216620015b35760405162461bcd60e51b815260206004820152601b60248201527f53797374656d3a2061737365742063616e6e6f74206265203078300000000000604482015260640162000743565b620015bd6200203f565b6040517fe062170a0000000000000000000000000000000000000000000000000000000081526001600160a01b038481166004830152919091169063e062170a9060240160206040518083038186803b1580156200161a57600080fd5b505afa1580156200162f573d6000803e3d6000fd5b505050506040513d601f19601f8201168201806040525081019062001655919062003756565b620016c95760405162461bcd60e51b815260206004820152602160248201527f53797374656d3a206173736574206973206e6f74206163746976652073796e7460448201527f6800000000000000000000000000000000000000000000000000000000000000606482015260840162000743565b62000b5a3383836200315b565b33620016e162001d8f565b6001600160a01b0316146200173a5760405162461bcd60e51b8152602060048201526029602482015260008051602062005e8383398151915260448201526810333ab731ba34b7b760b91b606482015260840162000743565b6000805460ff191660011781556040517f02b874a66f7edefaaca8e06ecdb0825247542b983cc7c499a3d7f1bb34e727289190a1565b336200177b62001d8f565b6001600160a01b031614620017d45760405162461bcd60e51b8152602060048201526029602482015260008051602062005e8383398151915260448201526810333ab731ba34b7b760b91b606482015260840162000743565b6000828152600460208190526040918290205491517f443af5280000000000000000000000000000000000000000000000000000000081526001600160a01b039092169163443af528916200182c9185910162003bed565b600060405180830381600087803b1580156200184757600080fd5b505af11580156200185c573d6000803e3d6000fd5b505050600083815260046020526040908190205490517fa3c6b73f27a52cc1505e66406ee8ef62b8b846a69c141ce016fd1dcc1f234fb892506200104d916001600160a01b031690849062003bc1565b33620018b762001d8f565b6001600160a01b031614620019105760405162461bcd60e51b8152602060048201526029602482015260008051602062005e8383398151915260448201526810333ab731ba34b7b760b91b606482015260840162000743565b6000805461ff00191681556040517fc7ca86a23200f37163b35b20279a14dbfd304fd3314aba27b90bd9f537e521a99190a1565b6000620019506200203f565b6040517f22f7b9b10000000000000000000000000000000000000000000000000000000081526001600160a01b03848116600483015291909116906322f7b9b19060240160206040518083038186803b158015620019ad57600080fd5b505afa158015620019c2573d6000803e3d6000fd5b505050506040513d601f19601f82011682018060405250810190620019e8919062003577565b92915050565b6000620019fa6200203f565b6040517f1ff517ff0000000000000000000000000000000000000000000000000000000081526001600160a01b0384811660048301529190911690631ff517ff906024015b60206040518083038186803b15801562001a5857600080fd5b505afa15801562001a6d573d6000803e3d6000fd5b505050506040513d601f19601f82011682018060405250810190620019e891906200395a565b3362001a9e62001d8f565b6001600160a01b03161462001af75760405162461bcd60e51b8152602060048201526029602482015260008051602062005e8383398151915260448201526810333ab731ba34b7b760b91b606482015260840162000743565b60028190556040518181527fc35ae6a1edee94fd166ea436648714082ffa14fa1b97c879a63efec918342bd4906020016200115c565b600080546040516321f8a72160e01b81527f434f4c4c41544552414c5f4d414e4147455200000000000000000000000000006004820152620100009091046001600160a01b0316906321f8a72190602401620011b9565b600062001b9062001b2d565b6040517f7e059b220000000000000000000000000000000000000000000000000000000081526001600160a01b0384811660048301529190911690637e059b229060240162001a3f565b6002600654141562001c2f5760405162461bcd60e51b815260206004820152601f60248201527f5265656e7472616e637947756172643a207265656e7472616e742063616c6c00604482015260640162000743565b60026006558062001c915760405162461bcd60e51b815260206004820152602560248201527f53797374656d3a20616d6f756e74206d75737420626520677265617465722074604482015264068616e20360dc1b606482015260840162000743565b62001c9e33838362002f00565b6000838152600460208190526040918290205491516336f1224960e11b815233918101919091526001600160a01b0384811660248301526044820184905290911690636de2449290606401600060405180830381600087803b15801562001d0457600080fd5b505af115801562001d19573d6000803e3d6000fd5b5050506000848152600460209081526040918290205482516001600160a01b0391821681523392810192909252851691810191909152606081018390527fe5ca6288535c5c6c2462c912b4033eade15b80926717896a2d58a2defdeb912891506080015b60405180910390a15050600160065550565b60008060029054906101000a90046001600160a01b03166001600160a01b0316638da5cb5b6040518163ffffffff1660e01b815260040160206040518083038186803b158015620011d257600080fd5b3362001dea62001d8f565b6001600160a01b03161462001e435760405162461bcd60e51b8152602060048201526029602482015260008051602062005e8383398151915260448201526810333ab731ba34b7b760b91b606482015260840162000743565b62001e4d62001b2d565b6040516376a67a5160e01b81526001600160a01b03838116600483015291909116906376a67a5190602401600060405180830381600087803b15801562001e9357600080fd5b505af115801562001ea8573d6000803e3d6000fd5b50506040516001600160a01b03841681527f0e6a7cd42461676019a66efa63afc3903cdfbafb78689a4c15e0967c28601b4c925060200190506200115c565b3362001ef262001d8f565b6001600160a01b03161462001f4b5760405162461bcd60e51b8152602060048201526029602482015260008051602062005e8383398151915260448201526810333ab731ba34b7b760b91b606482015260840162000743565b6000828260405162001f5d90620034b8565b62001f6a92919062003c02565b604051809103906000f08015801562001f87573d6000803e3d6000fd5b50905060016003600082825462001f9f919062003d0c565b909155505060038054600090815260046020908152604080832080547fffffffffffffffffffffffff0000000000000000000000000000000000000000166001600160a01b0387169081179091558084526005835292819020805460ff1916600117905592548351928352908201527fe64854a98646ec160228627fb369a73d5469e5d784e1a519d723c2b63270296791015b60405180910390a1505050565b600080546040516321f8a72160e01b81527f444542545f4d414e4147455200000000000000000000000000000000000000006004820152620100009091046001600160a01b0316906321f8a72190602401620011b9565b60026006541415620020eb5760405162461bcd60e51b815260206004820152601f60248201527f5265656e7472616e637947756172643a207265656e7472616e742063616c6c00604482015260640162000743565b600260065560005460ff1615620021455760405162461bcd60e51b815260206004820152601a60248201527f53595354454d3a2045786368616e676520697320706175736564000000000000604482015260640162000743565b60008211620021a55760405162461bcd60e51b815260206004820152602560248201527f53797374656d3a20616d6f756e74206d75737420626520677265617465722074604482015264068616e20360dc1b606482015260840162000743565b6001600160a01b03841615801590620021c657506001600160a01b03831615155b620022145760405162461bcd60e51b815260206004820152601b60248201527f53797374656d3a2061737365742063616e6e6f74206265203078300000000000604482015260640162000743565b6200221e62002bf7565b6001600160a01b031663b604ee2486868686866040518663ffffffff1660e01b81526004016200225395949392919062003b7a565b60206040518083038186803b1580156200226c57600080fd5b505afa15801562002281573d6000803e3d6000fd5b505050506040513d601f19601f82011682018060405250810190620022a7919062003756565b620022f55760405162461bcd60e51b815260206004820152601560248201527f53797374656d3a20696e76616c6964206f726465720000000000000000000000604482015260640162000743565b62002304853386868662000b63565b50506001600655505050565b336200231b62001d8f565b6001600160a01b031614620023745760405162461bcd60e51b8152602060048201526029602482015260008051602062005e8383398151915260448201526810333ab731ba34b7b760b91b606482015260840162000743565b6200237e6200203f565b6040516357b001f960e01b81526001600160a01b03838116600483015291909116906357b001f990602401600060405180830381600087803b158015620023c457600080fd5b505af1158015620023d9573d6000803e3d6000fd5b50506040516001600160a01b03841681527fb16e503f61953b71c61ca47819fae5d912f729793ebe75c9e1c89c5dde1d93bf925060200190506200115c565b60008060015b600354811162002504576000818152600460208190526040918290205491517f94c42d39000000000000000000000000000000000000000000000000000000008152620024ed926001600160a01b0316916394c42d399162002491918991016001600160a01b0391909116815260200190565b60206040518083038186803b158015620024aa57600080fd5b505afa158015620024bf573d6000803e3d6000fd5b505050506040513d601f19601f82011682018060405250810190620024e591906200395a565b83906200329f565b915080620024fb8162003d6c565b9150506200241e565b5092915050565b60026006541415620025605760405162461bcd60e51b815260206004820152601f60248201527f5265656e7472616e637947756172643a207265656e7472616e742063616c6c00604482015260640162000743565b600260065580620025c25760405162461bcd60e51b815260206004820152602560248201527f53797374656d3a20616d6f756e74206d75737420626520677265617465722074604482015264068616e20360dc1b606482015260840162000743565b600083815260046020819052604091829020549151631dac1e3160e31b815233918101919091526001600160a01b038481166024830152604482018490529091169063ed60f18890606401600060405180830381600087803b1580156200262857600080fd5b505af11580156200263d573d6000803e3d6000fd5b505050506200264e3383836200315b565b6000838152600460209081526040918290205482516001600160a01b0391821681523392810192909252841691810191909152606081018290527f7659e40cf608296ce5aa9eff9c80adc7a49cb481173fc4e302e3983827b042df9060800162001d7d565b600080620026d7620026c58462002418565b620026d085620019ee565b906200329f565b905080620026e9575060001992915050565b62002714816200270d670de0b6b3a7640000620027068762001b84565b90620032ad565b90620032bb565b9392505050565b600080546040516321f8a72160e01b81527f52455345525645000000000000000000000000000000000000000000000000006004820152620100009091046001600160a01b0316906321f8a72190602401620011b9565b336200277d62001d8f565b6001600160a01b031614620027d65760405162461bcd60e51b8152602060048201526029602482015260008051602062005e8383398151915260448201526810333ab731ba34b7b760b91b606482015260840162000743565b6000805461ff0019166101001781556040517fdf34d30c47bbe9dd303946ced0b7dab460e59a945faabbccf4699510af0e9e849190a1565b336200281962001d8f565b6001600160a01b031614620028725760405162461bcd60e51b8152602060048201526029602482015260008051602062005e8383398151915260448201526810333ab731ba34b7b760b91b606482015260840162000743565b6200287c6200203f565b6040516376a67a5160e01b81526001600160a01b03838116600483015291909116906376a67a5190602401600060405180830381600087803b158015620028c257600080fd5b505af1158015620028d7573d6000803e3d6000fd5b50506040516001600160a01b03841681527f3306735275f29983da2b4e2b60a3ad91d057fd5384bbf01f61a2d87ea9265a98925060200190506200115c565b336200292162001d8f565b6001600160a01b0316146200297a5760405162461bcd60e51b8152602060048201526029602482015260008051602062005e8383398151915260448201526810333ab731ba34b7b760b91b606482015260840162000743565b6200298462001b2d565b6001600160a01b031663ea6ac28d8787878787876040518763ffffffff1660e01b8152600401620029bb9695949392919062003c82565b600060405180830381600087803b158015620029d657600080fd5b505af1158015620029eb573d6000803e3d6000fd5b5050604080516001600160a01b038088168252861660208201529081018490527fa7cfb8f01115ba67c66fd9ba37770ad66c15d934d9f8f71a54a61b492a22908e925060600190505b60405180910390a1505050505050565b6002600654141562002a995760405162461bcd60e51b815260206004820152601f60248201527f5265656e7472616e637947756172643a207265656e7472616e742063616c6c00604482015260640162000743565b60026006558062002afb5760405162461bcd60e51b815260206004820152602560248201527f53797374656d3a20616d6f756e74206d75737420626520677265617465722074604482015264068616e20360dc1b606482015260840162000743565b6001600160a01b03821662002b535760405162461bcd60e51b815260206004820152601b60248201527f53797374656d3a2061737365742063616e6e6f74206265203078300000000000604482015260640162000743565b62000b5a338383620032c9565b3362002b6b62001d8f565b6001600160a01b03161462002bc45760405162461bcd60e51b8152602060048201526029602482015260008051602062005e8383398151915260448201526810333ab731ba34b7b760b91b606482015260840162000743565b6000805460ff191681556040517f0c855aee6ba0b54704edf9fa3d2172dbae0a1d765e86020a8f9918fdac6b25d79190a1565b600080546040516321f8a72160e01b81527f4c494d49545f4f524445520000000000000000000000000000000000000000006004820152620100009091046001600160a01b0316906321f8a72190602401620011b9565b6002600654141562002ca35760405162461bcd60e51b815260206004820152601f60248201527f5265656e7472616e637947756172643a207265656e7472616e742063616c6c00604482015260640162000743565b600260065560005460ff161562002cfd5760405162461bcd60e51b815260206004820152601a60248201527f53595354454d3a2045786368616e676520697320706175736564000000000000604482015260640162000743565b6000821162002d5d5760405162461bcd60e51b815260206004820152602560248201527f53797374656d3a20616d6f756e74206d75737420626520677265617465722074604482015264068616e20360dc1b606482015260840162000743565b6001600160a01b0383161580159062002d7e57506001600160a01b03811615155b62002dcc5760405162461bcd60e51b815260206004820152601b60248201527f53797374656d3a2061737365742063616e6e6f74206265203078300000000000604482015260640162000743565b6000848152600460209081526040808320546001600160a01b03168352600590915290205460ff168062002dfe575083155b62002e4c5760405162461bcd60e51b815260206004820152601b60248201527f53797374656d3a20706f6f6c20646f6573206e6f742065786973740000000000604482015260640162000743565b62002e5b3385858585620033a4565b505060016006555050565b3362002e7162001d8f565b6001600160a01b03161462002eca5760405162461bcd60e51b8152602060048201526029602482015260008051602062005e8383398151915260448201526810333ab731ba34b7b760b91b606482015260840162000743565b60018190556040518181527fe916ab1a663d825302fb51eb8d40fd2c134471f4168611a960bcc5b72b1a0bf7906020016200115c565b62002f0a6200271b565b604051631dac1e3160e31b81526001600160a01b038581166004830152848116602483015260448201849052919091169063ed60f18890606401600060405180830381600087803b15801562002f5f57600080fd5b505af115801562002f74573d6000803e3d6000fd5b5050604080516001600160a01b038088168252861660208201529081018490527f05f2eeda0e08e4b437f487c8d7d29b14537d15e3488170dc3de5dbdf8dac46849250606001905062002032565b816001600160a01b03166323b872dd8462002fdc6200271b565b6040517fffffffff0000000000000000000000000000000000000000000000000000000060e085901b1681526001600160a01b0392831660048201529116602482015260448101849052606401602060405180830381600087803b1580156200304457600080fd5b505af115801562003059573d6000803e3d6000fd5b505050506040513d601f19601f820116820180604052508101906200307f919062003756565b506200308a6200271b565b6040517f3e4b0aaf0000000000000000000000000000000000000000000000000000000081526001600160a01b0385811660048301528481166024830152604482018490529190911690633e4b0aaf90606401600060405180830381600087803b158015620030f857600080fd5b505af11580156200310d573d6000803e3d6000fd5b5050604080516001600160a01b038088168252861660208201529081018490527f5548c837ab068cf56a2c2479df0882a4922fd203edb7517321831d95078c5f629250606001905062002032565b620031656200271b565b6040516336f1224960e11b81526001600160a01b0385811660048301528481166024830152604482018490529190911690636de2449290606401600060405180830381600087803b158015620031ba57600080fd5b505af1158015620031cf573d6000803e3d6000fd5b50505050600254620031e184620026b3565b11620032565760405162461bcd60e51b815260206004820152602860248201527f53595354454d3a2063526174696f2069732062656c6f7720736166657479207460448201527f68726573686f6c64000000000000000000000000000000000000000000000000606482015260840162000743565b604080516001600160a01b038086168252841660208201529081018290527f312a5e5e1079f5dda4e95dbbd0b908b291fd5b992ef22073643ab691572c5b529060600162002032565b600062002714828462003d0c565b600062002714828462003d4a565b600062002714828462003d27565b620032d36200271b565b6040517fc2d7ef6d0000000000000000000000000000000000000000000000000000000081526001600160a01b038581166004830152848116602483015260448201849052919091169063c2d7ef6d90606401600060405180830381600087803b1580156200334157600080fd5b505af115801562003356573d6000803e3d6000fd5b5050604080516001600160a01b038088168252861660208201529081018490527f9b1bfa7fa9ee420a16e124f794c35ac9f90472acc99140eb2f6447c714cad8eb9250606001905062002032565b6000848152600460205260409020546001600160a01b031684620033cf57620033cc6200271b565b90505b6040517f4f9ebaf40000000000000000000000000000000000000000000000000000000081526001600160a01b0387811660048301528581166024830152604482018590528381166064830152821690634f9ebaf490608401600060405180830381600087803b1580156200344357600080fd5b505af115801562003458573d6000803e3d6000fd5b5050604080518881526001600160a01b03808b166020830152808916928201929092526060810187905290851660808201527fc7abb3d8af17d2db489ffd7513969405b9aa490af2ede6b24a9c151042c95edd925060a001905062002a34565b6120a58062003dde83390190565b600067ffffffffffffffff831115620034e357620034e362003da0565b620034f8601f8401601f191660200162003cd8565b90508281528383830111156200350d57600080fd5b828260208301376000602084830101529392505050565b600082601f8301126200353657600080fd5b6200271483833560208501620034c6565b6000602082840312156200355a57600080fd5b8135620035678162003db6565b6001600160a01b03169392505050565b6000602082840312156200358a57600080fd5b8151620035678162003db6565b600080600080600060a08688031215620035b057600080fd5b8535620035bd8162003db6565b6001600160a01b039081169550602087013590620035db8262003db6565b9081169450604087013590620035f18262003db6565b9081169350606087013590620036078262003db6565b95989497509295929094169350506080013590565b600080600080600060a086880312156200363557600080fd5b8535620036428162003db6565b6001600160a01b039081169550602087013590620036608262003db6565b9081169450604087013590620036768262003db6565b16925060608601359150608086013567ffffffffffffffff8111156200369b57600080fd5b8601601f81018813620036ad57600080fd5b620036be88823560208401620034c6565b9150509295509295909350565b600080600060608486031215620036e157600080fd5b8335620036ee8162003db6565b6001600160a01b0390811693506020850135906200370c8262003db6565b93969316945050506040919091013590565b600080604083850312156200373257600080fd5b82356200373f8162003db6565b6001600160a01b0316946020939093013593505050565b6000602082840312156200376957600080fd5b815180151581146200271457600080fd5b600080604083850312156200378e57600080fd5b823567ffffffffffffffff80821115620037a757600080fd5b620037b58683870162003524565b93506020850135915080821115620037cc57600080fd5b50620037db8582860162003524565b9150509250929050565b60008060008060808587031215620037fc57600080fd5b843567ffffffffffffffff808211156200381557600080fd5b620038238883890162003524565b955060208701359150808211156200383a57600080fd5b50620038498782880162003524565b93505060408501356200385c8162003db6565b6001600160a01b0390811692506060860135906200387a8262003db6565b94979396509194505090911690565b60008060008060008060c08789031215620038a357600080fd5b863567ffffffffffffffff80821115620038bc57600080fd5b620038ca8a838b0162003524565b97506020890135915080821115620038e157600080fd5b50620038f089828a0162003524565b9550506040870135935060608701356200390a8162003db6565b6001600160a01b039081169350608088013590620039288262003db6565b8082169350505060a087013590509295509295509295565b6000602082840312156200395357600080fd5b5035919050565b6000602082840312156200396d57600080fd5b5051919050565b6000806000606084860312156200398a57600080fd5b8335925060208401356200399e8162003db6565b6001600160a01b038116925050604084013590509250925092565b60008060008060808587031215620039d057600080fd5b843593506020850135620039e48162003db6565b6001600160a01b039081169350604086013592506060860135906200387a8262003db6565b6000806040838503121562003a1d57600080fd5b8235915060208084013567ffffffffffffffff8082111562003a3e57600080fd5b818601915086601f83011262003a5357600080fd5b81358181111562003a685762003a6862003da0565b8060051b915062003a7b84830162003cd8565b8181528481019084860184860187018b101562003a9757600080fd5b600095505b8386101562003ad3578035945062003ab48562003db6565b6001600160a01b03851683526001959095019491860191860162003a9c565b508096505050505050509250929050565b600081518084526020808501945080840160005b8381101562003b1f5781516001600160a01b03168752958201959082019060010162003af8565b509495945050505050565b6000815180845260005b8181101562003b525760208185018101518683018201520162003b34565b8181111562003b65576000602083870101525b50601f01601f19169290920160200192915050565b60006001600160a01b038088168352808716602084015280861660408401525083606083015260a0608083015262003bb660a083018462003b2a565b979650505050505050565b6001600160a01b038316815260406020820152600062003be5604083018462003ae4565b949350505050565b60208152600062002714602083018462003ae4565b60408152600062003c17604083018562003b2a565b828103602084015262003c2b818562003b2a565b95945050505050565b60808152600062003c49608083018762003b2a565b828103602084015262003c5d818762003b2a565b9150506001600160a01b03808516604084015280841660608401525095945050505050565b60c08152600062003c9760c083018962003b2a565b828103602084015262003cab818962003b2a565b604084019790975250506001600160a01b03938416606082015291909216608082015260a0015292915050565b604051601f8201601f1916810167ffffffffffffffff8111828210171562003d045762003d0462003da0565b604052919050565b6000821982111562003d225762003d2262003d8a565b500190565b60008262003d4557634e487b7160e01b600052601260045260246000fd5b500490565b600081600019048311821515161562003d675762003d6762003d8a565b500290565b600060001982141562003d835762003d8362003d8a565b5060010190565b634e487b7160e01b600052601160045260246000fd5b634e487b7160e01b600052604160045260246000fd5b74ffffffffffffffffffffffffffffffffffffffffff8116811462003dda57600080fd5b5056fe60806040523480156200001157600080fd5b50d380156200001f57600080fd5b50d280156200002d57600080fd5b50604051620020a5380380620020a58339810160408190526200005091620001fa565b815182908290620000699060039060208501906200009d565b5080516200007f9060049060208401906200009d565b5050600780546001600160a01b0319163317905550620002b7915050565b828054620000ab9062000264565b90600052602060002090601f016020900481019282620000cf57600085556200011a565b82601f10620000ea57805160ff19168380011785556200011a565b828001600101855582156200011a579182015b828111156200011a578251825591602001919060010190620000fd565b50620001289291506200012c565b5090565b5b808211156200012857600081556001016200012d565b600082601f8301126200015557600080fd5b81516001600160401b0380821115620001725762000172620002a1565b604051601f8301601f19908116603f011681019082821181831017156200019d576200019d620002a1565b81604052838152602092508683858801011115620001ba57600080fd5b600091505b83821015620001de5785820183015181830184015290820190620001bf565b83821115620001f05760008385830101525b9695505050505050565b600080604083850312156200020e57600080fd5b82516001600160401b03808211156200022657600080fd5b620002348683870162000143565b935060208501519150808211156200024b57600080fd5b506200025a8582860162000143565b9150509250929050565b600181811c908216806200027957607f821691505b602082108114156200029b57634e487b7160e01b600052602260045260246000fd5b50919050565b634e487b7160e01b600052604160045260246000fd5b611dde80620002c76000396000f3fe608060405234801561001057600080fd5b50d3801561001d57600080fd5b50d2801561002a57600080fd5b50600436106101915760003560e01c80636de24492116100f2578063a457c2d7116100a6578063dd62ed3e11610080578063dd62ed3e14610344578063e3cdb9341461037d578063ed60f1881461038557600080fd5b8063a457c2d71461030b578063a9059cbb1461031e578063c909b4a61461033157600080fd5b806378023b04116100d757806378023b04146102dd57806394c42d39146102f057806395d89b411461030357600080fd5b80636de24492146102a157806370a08231146102b457600080fd5b8063313ce567116101495780634ac1c33d1161012e5780634ac1c33d1461023e5780634f9ebaf4146102695780635e0237ea1461027e57600080fd5b8063313ce5671461021c578063395093511461022b57600080fd5b806318160ddd1161017a57806318160ddd146101d75780631ff517ff146101e957806323b872dd1461020957600080fd5b806306fdde0314610196578063095ea7b3146101b4575b600080fd5b61019e610398565b6040516101ab9190611c2b565b60405180910390f35b6101c76101c2366004611b11565b61042a565b60405190151581526020016101ab565b6002545b6040519081526020016101ab565b6101db6101f73660046119cc565b60066020526000908152604090205481565b6101c7610217366004611a5c565b610442565b604051601281526020016101ab565b6101c7610239366004611b11565b610466565b6101db61024c366004611a16565b600560209081526000928352604080842090915290825290205481565b61027c610277366004611aaa565b6104a5565b005b6101c761028c3660046119cc565b60086020526000908152604090205460ff1681565b61027c6102af366004611a5c565b6108e5565b6101db6102c23660046119cc565b6001600160a01b031660009081526020819052604090205490565b61027c6102eb366004611b46565b610b76565b6101db6102fe3660046119cc565b610c28565b61019e610c81565b6101c7610319366004611b11565b610c90565b6101c761032c366004611b11565b610d3a565b61027c61033f366004611b46565b610d48565b6101db610352366004611a16565b6001600160a01b03918216600090815260016020908152604080832093909416825291909152205490565b6101db610df6565b61027c610393366004611a5c565b61113e565b6060600380546103a790611cf0565b80601f01602080910402602001604051908101604052809291908181526020018280546103d390611cf0565b80156104205780601f106103f557610100808354040283529160200191610420565b820191906000526020600020905b81548152906001019060200180831161040357829003601f168201915b5050505050905090565b60003361043881858561131b565b5060019392505050565b600033610450858285611474565b61045b858585611506565b506001949350505050565b3360008181526001602090815260408083206001600160a01b038716845290915281205490919061043890829086906104a0908790611c80565b61131b565b6007546001600160a01b0316331461052a5760405162461bcd60e51b815260206004820152602b60248201527f54726164696e67506f6f6c3a204f6e6c7920726573657276652063616e20636160448201527f6c6c2065786368616e676500000000000000000000000000000000000000000060648201526084015b60405180910390fd5b6001600160a01b03831660009081526008602052604090205460ff166105b85760405162461bcd60e51b815260206004820152602260248201527f54726164696e67506f6f6c3a2066726f6d4173736574206e6f7420612073796e60448201527f74680000000000000000000000000000000000000000000000000000000000006064820152608401610521565b6001600160a01b03811660009081526008602052604090205460ff166106205760405162461bcd60e51b815260206004820181905260248201527f54726164696e67506f6f6c3a20746f4173736574206e6f7420612073796e74686044820152606401610521565b6001600160a01b03808516600090815260056020908152604080832093871683529290522054610650908361171d565b6001600160a01b038086166000908152600560209081526040808320938816835292815282822093909355600690925290205461068d908361171d565b6001600160a01b0384811660008181526006602052604090819020939093559151632770a7eb60e21b8152908616600482015260248101849052639dc29fac90604401600060405180830381600087803b1580156106ea57600080fd5b505af11580156106fe573d6000803e3d6000fd5b5050505060006107f9826001600160a01b03166311f37ceb6040518163ffffffff1660e01b815260040160206040518083038186803b15801561074057600080fd5b505afa158015610754573d6000803e3d6000fd5b505050506040513d601f19601f820116820180604052508101906107789190611c12565b6107f3866001600160a01b03166311f37ceb6040518163ffffffff1660e01b815260040160206040518083038186803b1580156107b457600080fd5b505afa1580156107c8573d6000803e3d6000fd5b505050506040513d601f19601f820116820180604052508101906107ec9190611c12565b8690611730565b9061173c565b6001600160a01b0380871660009081526005602090815260408083209387168352929052205490915061082c9082611748565b6001600160a01b03808716600090815260056020908152604080832093871683529281528282209390935560069092529020546108699082611748565b6001600160a01b038381166000818152600660205260409081902093909355915163219e412d60e21b815290871660048201526024810183905263867904b490604401600060405180830381600087803b1580156108c657600080fd5b505af11580156108da573d6000803e3d6000fd5b505050505050505050565b6007546001600160a01b031633146109655760405162461bcd60e51b815260206004820152602d60248201527f54726164696e67506f6f6c3a204f6e6c7920726573657276652063616e20636160448201527f6c6c20656e74657220706f6f6c000000000000000000000000000000000000006064820152608401610521565b6001600160a01b03821660009081526008602052604090205460ff166109cd5760405162461bcd60e51b815260206004820152601860248201527f54726164696e67506f6f6c3a204e6f7420612073796e746800000000000000006044820152606401610521565b6000610a526305f5e1006107f3856001600160a01b03166311f37ceb6040518163ffffffff1660e01b815260040160206040518083038186803b158015610a1357600080fd5b505afa158015610a27573d6000803e3d6000fd5b505050506040513d601f19601f82011682018060405250810190610a4b9190611c12565b8590611730565b9050610a5d60025490565b15610a8357610a80610a6d610df6565b6107f3610a7960025490565b8490611730565b90505b610a8d8482611754565b6001600160a01b03808516600090815260056020908152604080832093871683529290522054610abd9083611748565b6001600160a01b0380861660009081526005602090815260408083209388168352928152828220939093556006909252902054610afa9083611748565b6001600160a01b038481166000818152600660205260409081902093909355915163219e412d60e21b815290861660048201526024810184905263867904b4906044015b600060405180830381600087803b158015610b5857600080fd5b505af1158015610b6c573d6000803e3d6000fd5b5050505050505050565b6007546001600160a01b03163314610bbc5760405162461bcd60e51b81526020600482015260096024820152682737ba1037bbb732b960b91b6044820152606401610521565b60005b8151811015610c2457600060086000848481518110610be057610be0611d56565b6020908102919091018101516001600160a01b03168252810191909152604001600020805460ff191691151591909117905580610c1c81611d25565b915050610bbf565b5050565b6000610c3360025490565b610c3f57506000919050565b610c7b610c4b60025490565b6107f3610c6d856001600160a01b031660009081526020819052604090205490565b610c75610df6565b90611730565b92915050565b6060600480546103a790611cf0565b3360008181526001602090815260408083206001600160a01b038716845290915281205490919083811015610d2d5760405162461bcd60e51b815260206004820152602560248201527f45524332303a2064656372656173656420616c6c6f77616e63652062656c6f7760448201527f207a65726f0000000000000000000000000000000000000000000000000000006064820152608401610521565b61045b828686840361131b565b600033610438818585611506565b6007546001600160a01b03163314610d8e5760405162461bcd60e51b81526020600482015260096024820152682737ba1037bbb732b960b91b6044820152606401610521565b60005b8151811015610c2457600160086000848481518110610db257610db2611d56565b6020908102919091018101516001600160a01b03168252810191909152604001600020805460ff191691151591909117905580610dee81611d25565b915050610d91565b600080805b600760009054906101000a90046001600160a01b03166001600160a01b031663a1a685126040518163ffffffff1660e01b815260040160206040518083038186803b158015610e4957600080fd5b505afa158015610e5d573d6000803e3d6000fd5b505050506040513d601f19601f82011682018060405250810190610e8191906119f9565b6001600160a01b031663b7618d2f6040518163ffffffff1660e01b815260040160206040518083038186803b158015610eb957600080fd5b505afa158015610ecd573d6000803e3d6000fd5b505050506040513d601f19601f82011682018060405250810190610ef19190611c12565b81101561113857600754604080517fa1a6851200000000000000000000000000000000000000000000000000000000815290516000926001600160a01b03169163a1a68512916004808301926020929190829003018186803b158015610f5657600080fd5b505afa158015610f6a573d6000803e3d6000fd5b505050506040513d601f19601f82011682018060405250810190610f8e91906119f9565b6001600160a01b031663ea650a82836040518263ffffffff1660e01b8152600401610fbb91815260200190565b60206040518083038186803b158015610fd357600080fd5b505afa158015610fe7573d6000803e3d6000fd5b505050506040513d601f19601f8201168201806040525081019061100b91906119f9565b6001600160a01b031663115f4fee6040518163ffffffff1660e01b815260040160206040518083038186803b15801561104357600080fd5b505afa158015611057573d6000803e3d6000fd5b505050506040513d601f19601f8201168201806040525081019061107b91906119f9565b90506111186305f5e1006107f3836001600160a01b03166311f37ceb6040518163ffffffff1660e01b815260040160206040518083038186803b1580156110c157600080fd5b505afa1580156110d5573d6000803e3d6000fd5b505050506040513d601f19601f820116820180604052508101906110f99190611c12565b6001600160a01b03851660009081526006602052604090205490611730565b6111229084611c80565b925050808061113090611d25565b915050610dfb565b50919050565b6007546001600160a01b031633146111be5760405162461bcd60e51b815260206004820152602c60248201527f54726164696e67506f6f6c3a204f6e6c7920726573657276652063616e20636160448201527f6c6c206578697420706f6f6c00000000000000000000000000000000000000006064820152608401610521565b600061125a6111cb610df6565b6107f36111d760025490565b610c756305f5e1006107f3896001600160a01b03166311f37ceb6040518163ffffffff1660e01b815260040160206040518083038186803b15801561121b57600080fd5b505afa15801561122f573d6000803e3d6000fd5b505050506040513d601f19601f820116820180604052508101906112539190611c12565b8990611730565b90506112668482611833565b6001600160a01b03808516600090815260056020908152604080832093871683529290522054611296908361171d565b6001600160a01b03808616600090815260056020908152604080832093881683529281528282209390935560069092529020546112d3908361171d565b6001600160a01b0384811660008181526006602052604090819020939093559151632770a7eb60e21b8152908616600482015260248101849052639dc29fac90604401610b3e565b6001600160a01b0383166113965760405162461bcd60e51b8152602060048201526024808201527f45524332303a20617070726f76652066726f6d20746865207a65726f2061646460448201527f72657373000000000000000000000000000000000000000000000000000000006064820152608401610521565b6001600160a01b0382166114125760405162461bcd60e51b815260206004820152602260248201527f45524332303a20617070726f766520746f20746865207a65726f20616464726560448201527f73730000000000000000000000000000000000000000000000000000000000006064820152608401610521565b6001600160a01b0383811660008181526001602090815260408083209487168084529482529182902085905590518481527f8c5be1e5ebec7d5bd14f71427d1e84f3dd0314c0f7b2291e5b200ac8c7c3b92591015b60405180910390a3505050565b6001600160a01b03838116600090815260016020908152604080832093861683529290522054600019811461150057818110156114f35760405162461bcd60e51b815260206004820152601d60248201527f45524332303a20696e73756666696369656e7420616c6c6f77616e63650000006044820152606401610521565b611500848484840361131b565b50505050565b6001600160a01b0383166115825760405162461bcd60e51b815260206004820152602560248201527f45524332303a207472616e736665722066726f6d20746865207a65726f20616460448201527f64726573730000000000000000000000000000000000000000000000000000006064820152608401610521565b6001600160a01b0382166115fe5760405162461bcd60e51b815260206004820152602360248201527f45524332303a207472616e7366657220746f20746865207a65726f206164647260448201527f65737300000000000000000000000000000000000000000000000000000000006064820152608401610521565b6001600160a01b0383166000908152602081905260409020548181101561168d5760405162461bcd60e51b815260206004820152602660248201527f45524332303a207472616e7366657220616d6f756e742065786365656473206260448201527f616c616e636500000000000000000000000000000000000000000000000000006064820152608401610521565b6001600160a01b038085166000908152602081905260408082208585039055918516815290812080548492906116c4908490611c80565b92505081905550826001600160a01b0316846001600160a01b03167fddf252ad1be2c89b69c2b068fc378daa952ba7f163c4a11628f55a4df523b3ef8460405161171091815260200190565b60405180910390a3611500565b60006117298284611cd9565b9392505050565b60006117298284611cba565b60006117298284611c98565b60006117298284611c80565b6001600160a01b0382166117aa5760405162461bcd60e51b815260206004820152601f60248201527f45524332303a206d696e7420746f20746865207a65726f2061646472657373006044820152606401610521565b80600260008282546117bc9190611c80565b90915550506001600160a01b038216600090815260208190526040812080548392906117e9908490611c80565b90915550506040518181526001600160a01b038316906000907fddf252ad1be2c89b69c2b068fc378daa952ba7f163c4a11628f55a4df523b3ef9060200160405180910390a35050565b6001600160a01b0382166118af5760405162461bcd60e51b815260206004820152602160248201527f45524332303a206275726e2066726f6d20746865207a65726f2061646472657360448201527f73000000000000000000000000000000000000000000000000000000000000006064820152608401610521565b6001600160a01b0382166000908152602081905260409020548181101561193e5760405162461bcd60e51b815260206004820152602260248201527f45524332303a206275726e20616d6f756e7420657863656564732062616c616e60448201527f63650000000000000000000000000000000000000000000000000000000000006064820152608401610521565b6001600160a01b038316600090815260208190526040812083830390556002805484929061196d908490611cd9565b90915550506040518281526000906001600160a01b038516907fddf252ad1be2c89b69c2b068fc378daa952ba7f163c4a11628f55a4df523b3ef90602001611467565b600081356119bd81611d82565b6001600160a01b031692915050565b6000602082840312156119de57600080fd5b81356119e981611d82565b6001600160a01b03169392505050565b600060208284031215611a0b57600080fd5b81516119e981611d82565b60008060408385031215611a2957600080fd5b8235611a3481611d82565b6001600160a01b039081169250602084013590611a5082611d82565b92959216935090915050565b600080600060608486031215611a7157600080fd5b8335611a7c81611d82565b6001600160a01b039081169350602085013590611a9882611d82565b93969316945050506040919091013590565b60008060008060808587031215611ac057600080fd5b8435611acb81611d82565b6001600160a01b039081169450602086013590611ae782611d82565b908116935060408601359250606086013590611b0282611d82565b94979396509194505090911690565b60008060408385031215611b2457600080fd5b8235611b2f81611d82565b6001600160a01b0316946020939093013593505050565b60006020808385031215611b5957600080fd5b823567ffffffffffffffff80821115611b7157600080fd5b818501915085601f830112611b8557600080fd5b813581811115611b9757611b97611d6c565b8060051b604051601f19603f83011681018181108582111715611bbc57611bbc611d6c565b604052828152858101935084860182860187018a1015611bdb57600080fd5b600095505b83861015611c0557611bf1816119b0565b855260019590950194938601938601611be0565b5098975050505050505050565b600060208284031215611c2457600080fd5b5051919050565b600060208083528351808285015260005b81811015611c5857858101830151858201604001528201611c3c565b81811115611c6a576000604083870101525b50601f01601f1916929092016040019392505050565b60008219821115611c9357611c93611d40565b500190565b600082611cb557634e487b7160e01b600052601260045260246000fd5b500490565b6000816000190483118215151615611cd457611cd4611d40565b500290565b600082821015611ceb57611ceb611d40565b500390565b600181811c90821680611d0457607f821691505b6020821081141561113857634e487b7160e01b600052602260045260246000fd5b6000600019821415611d3957611d39611d40565b5060010190565b634e487b7160e01b600052601160045260246000fd5b634e487b7160e01b600052603260045260246000fd5b634e487b7160e01b600052604160045260246000fd5b74ffffffffffffffffffffffffffffffffffffffffff81168114611da557600080fd5b5056fea26474726f6e582212208838937f42aff12dd43c9c3ac4c5e0d123e41d6836d096fcb91d80e304ffaf6464736f6c6343000806003353797374656d3a204f6e6c792041646d696e2063616e2063616c6c2074686973a26474726f6e5822122053cf6fa4c6b1dd7f70bf65bf2e0a3b0fcfa168e444f7bd933713a95611ddeefd64736f6c63430008060033",
  "source": "// SPDX-License-Identifier: SEE LICENSE IN LICENSE\npragma solidity ^0.8.6;\n\nimport \"./interfaces/IRoleManager.sol\";\nimport \"./interfaces/IAddressResolver.sol\";\nimport \"./interfaces/IReserve.sol\";\nimport \"./interfaces/ILiquidator.sol\";\nimport \"./interfaces/ICollateralManager.sol\";\nimport \"./interfaces/IDebtManager.sol\";\nimport \"./interfaces/IInterestRate.sol\";\nimport \"./interfaces/ILimitOrder.sol\";\n\nimport \"@openzeppelin/contracts/access/Ownable.sol\";\nimport \"./pool/TradingPool.sol\";\nimport \"./BaseSystem.sol\";\nimport \"@openzeppelin/contracts/security/ReentrancyGuard.sol\";\n\ncontract System is BaseSystem, ReentrancyGuard {\n    using SafeMath for uint;\n\n    constructor(address addrResolver, uint minCRatio_, uint safeCRatio_) {\n        minCRatio = minCRatio_;\n        safeCRatio = safeCRatio_;\n        _addrResolver = IAddressResolver(addrResolver);\n    }\n\n    /* -------------------------------------------------------------------------- */\n    /*                              Public Functions                              */\n    /* -------------------------------------------------------------------------- */\n\n    function deposit(address asset, uint amount) external nonReentrant {\n        require(asset != address(0), \"System: asset cannot be 0x0\");\n        require(amount > 0, \"System: amount must be greater than 0\");\n        require(ICollateralManager(cManager()).isActiveCollateral(asset), \"System: asset is not active collateral\");\n        depositInternal(msg.sender, asset, amount);\n    }\n\n    function withdraw(address asset, uint amount) external nonReentrant {\n        require(amount > 0, \"System: amount must be greater than 0\");\n        require(asset != address(0), \"System: asset cannot be 0x0\");\n        withdrawInternal(msg.sender, asset, amount);\n    }\n\n    function borrow(address asset, uint amount) external nonReentrant {\n        require(!isIssuancePaused, \"SYSTEM: Issuance is paused\");\n        require(amount > 0, \"System: amount must be greater than 0\");\n        require(asset != address(0), \"System: asset cannot be 0x0\");\n        require(IDebtManager(dManager()).isActiveSynth(asset), \"System: asset is not active synth\");\n        borrowInternal(msg.sender, asset, amount);\n    }\n\n    function repay(address asset, uint amount) external nonReentrant {\n        require(!isIssuancePaused, \"SYSTEM: Issuance is paused\");\n        require(amount > 0, \"System: amount must be greater than 0\");\n        require(asset != address(0), \"System: asset cannot be 0x0\");\n        repayInternal(msg.sender, asset, amount);\n    }\n\n    function exchange(uint poolIndex, address src, uint srcAmount, address dst) external nonReentrant {\n        require(!isExchangePaused, \"SYSTEM: Exchange is paused\");\n        require(srcAmount > 0, \"System: amount must be greater than 0\");\n        require(src != address(0) && dst != address(0), \"System: asset cannot be 0x0\");\n        require(isTradingPool[address(tradingPools[poolIndex])] || poolIndex == 0, \"System: pool does not exist\");\n        exchangeInternal(msg.sender, poolIndex, src, srcAmount, dst);\n    }\n\n    function executeOrder(address maker, address src, address dst, uint srcAmount, bytes memory signature) external nonReentrant {\n        require(!isExchangePaused, \"SYSTEM: Exchange is paused\");\n        require(srcAmount > 0, \"System: amount must be greater than 0\");\n        require(src != address(0) && dst != address(0), \"System: asset cannot be 0x0\");\n        require(ILimitOrder(limitOrder()).verifyOrder(maker, src, dst, srcAmount, signature), \"System: invalid order\");\n        executeLimitOrderInternal(maker, msg.sender, src, dst, srcAmount);\n    }\n\n    function enterPool(uint poolIndex, address asset, uint amount) external nonReentrant {\n        require(amount > 0, \"System: amount must be greater than 0\");\n        repayInternal(msg.sender, asset, amount);\n        tradingPools[poolIndex].increaseDebt(msg.sender, asset, amount);\n        emit PoolEntered(address(tradingPools[poolIndex]), msg.sender, asset, amount);\n    }\n\n    function exitPool(uint poolIndex, address asset, uint amount) external nonReentrant {\n        require(amount > 0, \"System: amount must be greater than 0\");\n        tradingPools[poolIndex].decreaseDebt(msg.sender, asset, amount);\n        borrowInternal(msg.sender, asset, amount);\n        emit PoolExited(address(tradingPools[poolIndex]), msg.sender, asset, amount);\n    }\n\n    function liquidate(address user) external nonReentrant {\n        uint cRatio = collateralRatio(user);\n        require(\n            cRatio < minCRatio && cRatio > 0,\n            \"Reserve: Cannot be liquidated, cRation is above MinCRatio\"\n        );\n        ILiquidator(liquidator()).liquidate(msg.sender, user);\n    }\n\n    function partialLiquidate(address user, address borrowedAsset, uint borrowedAmount) external nonReentrant {\n        uint cRatio = collateralRatio(user);\n        require(\n            collateralRatio(user) < minCRatio && cRatio > 0,\n            \"Reserve: Cannot be liquidated, cRation is above MinCRatio\"\n        );\n        ILiquidator(liquidator()).partialLiquidate(\n            msg.sender,\n            user,\n            borrowedAsset,\n            borrowedAmount\n        );\n    }\n\n    /* -------------------------------------------------------------------------- */\n    /*                               Admin Functions                              */\n    /* -------------------------------------------------------------------------- */\n    function newTradingPool(string memory name, string memory symbol) external onlySysAdmin {\n        TradingPool pool = new TradingPool(name, symbol);\n        tradingPoolsCount += 1;\n        tradingPools[tradingPoolsCount] = IPool(address(pool));\n        isTradingPool[address(pool)] = true;\n        emit NewTradingPool(address(pool), tradingPoolsCount);\n    }\n    \n    function newCollateralAsset(string memory name, string memory symbol, uint decimals, address asset, address oracle, uint minCollateral) external onlySysAdmin {\n        ICollateralManager(cManager()).create(name, symbol, decimals, asset, oracle, minCollateral);\n        emit NewCollateralAsset(asset, address(oracle), minCollateral);\n    }\n\n    function newSynthAsset(string memory name, string memory symbol, address _oracle, address _interestRateModel) external onlySysAdmin {\n        address synth = IDebtManager(dManager()).create(name, symbol, _oracle, _interestRateModel);\n        emit NewSynthAsset(synth, address(_oracle), address(_interestRateModel)); \n    }\n\n    function setMinCRatio(uint _minCRatio) external onlySysAdmin {\n        minCRatio = _minCRatio;\n        emit NewMinCRatio(_minCRatio);\n    }\n\n    function setSafeCRatio(uint _safeCRatio) external onlySysAdmin {\n        safeCRatio = _safeCRatio;\n        emit NewSafeCRatio(_safeCRatio);\n    }\n\n    function enableSynthInTradingPool(uint poolIndex, address[] memory synths) external onlySysAdmin {\n        tradingPools[poolIndex].enableSynth(synths);\n        emit SynthEnabledInTradingPool(address(tradingPools[poolIndex]), synths);\n    }\n\n    function disableSynthInTradingPool(uint poolIndex, address[] memory synths) external onlySysAdmin {\n        tradingPools[poolIndex].disableSynth(synths);\n        emit SynthDisabledInTradingPool(address(tradingPools[poolIndex]), synths);\n    }\n\n    function pauseCollateral(address asset) external onlySysAdmin {\n        ICollateralManager(cManager()).pause(asset);\n        emit CollateralPaused(asset);\n    }\n\n    function unpauseCollateral(address asset) external onlySysAdmin {\n        ICollateralManager(cManager()).unpause(asset);\n        emit CollateralResumed(asset);\n    }\n\n    function pauseSynth(address asset) external onlySysAdmin {\n        IDebtManager(dManager()).pause(asset);\n        emit SynthPaused(asset);\n    }\n\n    function unpauseSynth(address asset) external onlySysAdmin {\n        IDebtManager(dManager()).unpause(asset);\n        emit SynthResumed(asset);\n    }\n\n    /* -------------------------------------------------------------------------- */\n    /*                               View Functions                               */\n    /* -------------------------------------------------------------------------- */\n\n    function getDebtTracker(address asset) public view returns (address) {\n        return IDebtManager(dManager()).assetToDAsset(asset);\n    }\n\n    function collateralRatio(address account) public override view returns (uint) {\n        uint256 _debt = reservePoolDebt(account).add(tradingPoolDebt(account));\n        if (_debt == 0) {\n            return 2**256 - 1;\n        }\n        return totalCollateral(account).mul(1e18).div(_debt);\n    }\n\n    function totalCollateral(address account) public view returns (uint) {\n        return ICollateralManager(cManager()).totalCollateral(account);\n    }\n\n    function reservePoolDebt(address account) public view returns (uint) {\n        return IDebtManager(dManager()).totalDebt(account);\n    }\n\n    function tradingPoolDebt(address account) public view returns (uint) {\n        uint _debt = 0;\n        for (uint i = 1; i <= tradingPoolsCount; i++) {\n            _debt = _debt.add(tradingPools[i].getBorrowBalanceUSD(account));\n        }\n        return _debt;\n    }\n}",
  "sourcePath": "/Users/prasad/projects/synthex/contracts/contracts/System.sol",
  "compiler": {
    "name": "solc",
    "version": "0.8.6+commit.0e36fba0.mod.Emscripten.clang"
  },
  "schemaVersion": "2.0.1",
  "updatedAt": "2022-11-16T08:23:15.844Z"
}