{
  "contractName": "TradingPool",
  "abi": [
    {
      "inputs": [
        {
          "internalType": "string",
          "name": "name",
          "type": "string"
        },
        {
          "internalType": "string",
          "name": "symbol",
          "type": "string"
        }
      ],
      "stateMutability": "nonpayable",
      "type": "constructor"
    },
    {
      "anonymous": false,
      "inputs": [
        {
          "indexed": true,
          "internalType": "address",
          "name": "owner",
          "type": "address"
        },
        {
          "indexed": true,
          "internalType": "address",
          "name": "spender",
          "type": "address"
        },
        {
          "indexed": false,
          "internalType": "uint256",
          "name": "value",
          "type": "uint256"
        }
      ],
      "name": "Approval",
      "type": "event"
    },
    {
      "anonymous": false,
      "inputs": [
        {
          "indexed": true,
          "internalType": "address",
          "name": "from",
          "type": "address"
        },
        {
          "indexed": true,
          "internalType": "address",
          "name": "to",
          "type": "address"
        },
        {
          "indexed": false,
          "internalType": "uint256",
          "name": "value",
          "type": "uint256"
        }
      ],
      "name": "Transfer",
      "type": "event"
    },
    {
      "inputs": [
        {
          "internalType": "address",
          "name": "owner",
          "type": "address"
        },
        {
          "internalType": "address",
          "name": "spender",
          "type": "address"
        }
      ],
      "name": "allowance",
      "outputs": [
        {
          "internalType": "uint256",
          "name": "",
          "type": "uint256"
        }
      ],
      "stateMutability": "view",
      "type": "function"
    },
    {
      "inputs": [
        {
          "internalType": "address",
          "name": "spender",
          "type": "address"
        },
        {
          "internalType": "uint256",
          "name": "amount",
          "type": "uint256"
        }
      ],
      "name": "approve",
      "outputs": [
        {
          "internalType": "bool",
          "name": "",
          "type": "bool"
        }
      ],
      "stateMutability": "nonpayable",
      "type": "function"
    },
    {
      "inputs": [
        {
          "internalType": "address",
          "name": "account",
          "type": "address"
        }
      ],
      "name": "balanceOf",
      "outputs": [
        {
          "internalType": "uint256",
          "name": "",
          "type": "uint256"
        }
      ],
      "stateMutability": "view",
      "type": "function"
    },
    {
      "inputs": [
        {
          "internalType": "address",
          "name": "",
          "type": "address"
        },
        {
          "internalType": "address",
          "name": "",
          "type": "address"
        }
      ],
      "name": "debts",
      "outputs": [
        {
          "internalType": "uint256",
          "name": "",
          "type": "uint256"
        }
      ],
      "stateMutability": "view",
      "type": "function"
    },
    {
      "inputs": [],
      "name": "decimals",
      "outputs": [
        {
          "internalType": "uint8",
          "name": "",
          "type": "uint8"
        }
      ],
      "stateMutability": "view",
      "type": "function"
    },
    {
      "inputs": [
        {
          "internalType": "address",
          "name": "spender",
          "type": "address"
        },
        {
          "internalType": "uint256",
          "name": "subtractedValue",
          "type": "uint256"
        }
      ],
      "name": "decreaseAllowance",
      "outputs": [
        {
          "internalType": "bool",
          "name": "",
          "type": "bool"
        }
      ],
      "stateMutability": "nonpayable",
      "type": "function"
    },
    {
      "inputs": [
        {
          "internalType": "address",
          "name": "user",
          "type": "address"
        },
        {
          "internalType": "address",
          "name": "asset",
          "type": "address"
        },
        {
          "internalType": "uint256",
          "name": "amount",
          "type": "uint256"
        }
      ],
      "name": "decreaseDebt",
      "outputs": [],
      "stateMutability": "nonpayable",
      "type": "function"
    },
    {
      "inputs": [
        {
          "internalType": "address[]",
          "name": "_synths",
          "type": "address[]"
        }
      ],
      "name": "diableSynth",
      "outputs": [],
      "stateMutability": "nonpayable",
      "type": "function"
    },
    {
      "inputs": [
        {
          "internalType": "address[]",
          "name": "_synths",
          "type": "address[]"
        }
      ],
      "name": "enableSynth",
      "outputs": [],
      "stateMutability": "nonpayable",
      "type": "function"
    },
    {
      "inputs": [
        {
          "internalType": "address",
          "name": "user",
          "type": "address"
        },
        {
          "internalType": "address",
          "name": "fromAsset",
          "type": "address"
        },
        {
          "internalType": "uint256",
          "name": "fromAmount",
          "type": "uint256"
        },
        {
          "internalType": "address",
          "name": "toAsset",
          "type": "address"
        }
      ],
      "name": "exchange",
      "outputs": [],
      "stateMutability": "nonpayable",
      "type": "function"
    },
    {
      "inputs": [
        {
          "internalType": "address",
          "name": "account",
          "type": "address"
        }
      ],
      "name": "getBorrowBalanceUSD",
      "outputs": [
        {
          "internalType": "uint256",
          "name": "",
          "type": "uint256"
        }
      ],
      "stateMutability": "view",
      "type": "function"
    },
    {
      "inputs": [],
      "name": "getTotalDebtUSD",
      "outputs": [
        {
          "internalType": "uint256",
          "name": "",
          "type": "uint256"
        }
      ],
      "stateMutability": "view",
      "type": "function"
    },
    {
      "inputs": [
        {
          "internalType": "address",
          "name": "spender",
          "type": "address"
        },
        {
          "internalType": "uint256",
          "name": "addedValue",
          "type": "uint256"
        }
      ],
      "name": "increaseAllowance",
      "outputs": [
        {
          "internalType": "bool",
          "name": "",
          "type": "bool"
        }
      ],
      "stateMutability": "nonpayable",
      "type": "function"
    },
    {
      "inputs": [
        {
          "internalType": "address",
          "name": "user",
          "type": "address"
        },
        {
          "internalType": "address",
          "name": "asset",
          "type": "address"
        },
        {
          "internalType": "uint256",
          "name": "amount",
          "type": "uint256"
        }
      ],
      "name": "increaseDebt",
      "outputs": [],
      "stateMutability": "nonpayable",
      "type": "function"
    },
    {
      "inputs": [
        {
          "internalType": "address",
          "name": "",
          "type": "address"
        }
      ],
      "name": "isSynth",
      "outputs": [
        {
          "internalType": "bool",
          "name": "",
          "type": "bool"
        }
      ],
      "stateMutability": "view",
      "type": "function"
    },
    {
      "inputs": [],
      "name": "name",
      "outputs": [
        {
          "internalType": "string",
          "name": "",
          "type": "string"
        }
      ],
      "stateMutability": "view",
      "type": "function"
    },
    {
      "inputs": [],
      "name": "symbol",
      "outputs": [
        {
          "internalType": "string",
          "name": "",
          "type": "string"
        }
      ],
      "stateMutability": "view",
      "type": "function"
    },
    {
      "inputs": [
        {
          "internalType": "address",
          "name": "",
          "type": "address"
        }
      ],
      "name": "totalDebt",
      "outputs": [
        {
          "internalType": "uint256",
          "name": "",
          "type": "uint256"
        }
      ],
      "stateMutability": "view",
      "type": "function"
    },
    {
      "inputs": [],
      "name": "totalSupply",
      "outputs": [
        {
          "internalType": "uint256",
          "name": "",
          "type": "uint256"
        }
      ],
      "stateMutability": "view",
      "type": "function"
    },
    {
      "inputs": [
        {
          "internalType": "address",
          "name": "to",
          "type": "address"
        },
        {
          "internalType": "uint256",
          "name": "amount",
          "type": "uint256"
        }
      ],
      "name": "transfer",
      "outputs": [
        {
          "internalType": "bool",
          "name": "",
          "type": "bool"
        }
      ],
      "stateMutability": "nonpayable",
      "type": "function"
    },
    {
      "inputs": [
        {
          "internalType": "address",
          "name": "from",
          "type": "address"
        },
        {
          "internalType": "address",
          "name": "to",
          "type": "address"
        },
        {
          "internalType": "uint256",
          "name": "amount",
          "type": "uint256"
        }
      ],
      "name": "transferFrom",
      "outputs": [
        {
          "internalType": "bool",
          "name": "",
          "type": "bool"
        }
      ],
      "stateMutability": "nonpayable",
      "type": "function"
    }
  ],
  "bytecode": "0x60806040523480156200001157600080fd5b50d380156200001f57600080fd5b50d280156200002d57600080fd5b50604051620020a5380380620020a58339810160408190526200005091620001fa565b815182908290620000699060039060208501906200009d565b5080516200007f9060049060208401906200009d565b5050600780546001600160a01b0319163317905550620002b7915050565b828054620000ab9062000264565b90600052602060002090601f016020900481019282620000cf57600085556200011a565b82601f10620000ea57805160ff19168380011785556200011a565b828001600101855582156200011a579182015b828111156200011a578251825591602001919060010190620000fd565b50620001289291506200012c565b5090565b5b808211156200012857600081556001016200012d565b600082601f8301126200015557600080fd5b81516001600160401b0380821115620001725762000172620002a1565b604051601f8301601f19908116603f011681019082821181831017156200019d576200019d620002a1565b81604052838152602092508683858801011115620001ba57600080fd5b600091505b83821015620001de5785820183015181830184015290820190620001bf565b83821115620001f05760008385830101525b9695505050505050565b600080604083850312156200020e57600080fd5b82516001600160401b03808211156200022657600080fd5b620002348683870162000143565b935060208501519150808211156200024b57600080fd5b506200025a8582860162000143565b9150509250929050565b600181811c908216806200027957607f821691505b602082108114156200029b57634e487b7160e01b600052602260045260246000fd5b50919050565b634e487b7160e01b600052604160045260246000fd5b611dde80620002c76000396000f3fe608060405234801561001057600080fd5b50d3801561001d57600080fd5b50d2801561002a57600080fd5b50600436106101915760003560e01c80636de24492116100f2578063a457c2d7116100a6578063dd62ed3e11610080578063dd62ed3e14610344578063e3cdb9341461037d578063ed60f1881461038557600080fd5b8063a457c2d71461030b578063a9059cbb1461031e578063c909b4a61461033157600080fd5b806378023b04116100d757806378023b04146102dd57806394c42d39146102f057806395d89b411461030357600080fd5b80636de24492146102a157806370a08231146102b457600080fd5b8063313ce567116101495780634ac1c33d1161012e5780634ac1c33d1461023e5780634f9ebaf4146102695780635e0237ea1461027e57600080fd5b8063313ce5671461021c578063395093511461022b57600080fd5b806318160ddd1161017a57806318160ddd146101d75780631ff517ff146101e957806323b872dd1461020957600080fd5b806306fdde0314610196578063095ea7b3146101b4575b600080fd5b61019e610398565b6040516101ab9190611c2b565b60405180910390f35b6101c76101c2366004611b11565b61042a565b60405190151581526020016101ab565b6002545b6040519081526020016101ab565b6101db6101f73660046119cc565b60066020526000908152604090205481565b6101c7610217366004611a5c565b610442565b604051601281526020016101ab565b6101c7610239366004611b11565b610466565b6101db61024c366004611a16565b600560209081526000928352604080842090915290825290205481565b61027c610277366004611aaa565b6104a5565b005b6101c761028c3660046119cc565b60086020526000908152604090205460ff1681565b61027c6102af366004611a5c565b6108e5565b6101db6102c23660046119cc565b6001600160a01b031660009081526020819052604090205490565b61027c6102eb366004611b46565b610b76565b6101db6102fe3660046119cc565b610c28565b61019e610c81565b6101c7610319366004611b11565b610c90565b6101c761032c366004611b11565b610d3a565b61027c61033f366004611b46565b610d48565b6101db610352366004611a16565b6001600160a01b03918216600090815260016020908152604080832093909416825291909152205490565b6101db610df6565b61027c610393366004611a5c565b61113e565b6060600380546103a790611cf0565b80601f01602080910402602001604051908101604052809291908181526020018280546103d390611cf0565b80156104205780601f106103f557610100808354040283529160200191610420565b820191906000526020600020905b81548152906001019060200180831161040357829003601f168201915b5050505050905090565b60003361043881858561131b565b5060019392505050565b600033610450858285611474565b61045b858585611506565b506001949350505050565b3360008181526001602090815260408083206001600160a01b038716845290915281205490919061043890829086906104a0908790611c80565b61131b565b6007546001600160a01b0316331461052a5760405162461bcd60e51b815260206004820152602b60248201527f54726164696e67506f6f6c3a204f6e6c7920726573657276652063616e20636160448201527f6c6c2065786368616e676500000000000000000000000000000000000000000060648201526084015b60405180910390fd5b6001600160a01b03831660009081526008602052604090205460ff166105b85760405162461bcd60e51b815260206004820152602260248201527f54726164696e67506f6f6c3a2066726f6d4173736574206e6f7420612073796e60448201527f74680000000000000000000000000000000000000000000000000000000000006064820152608401610521565b6001600160a01b03811660009081526008602052604090205460ff166106205760405162461bcd60e51b815260206004820181905260248201527f54726164696e67506f6f6c3a20746f4173736574206e6f7420612073796e74686044820152606401610521565b6001600160a01b03808516600090815260056020908152604080832093871683529290522054610650908361171d565b6001600160a01b038086166000908152600560209081526040808320938816835292815282822093909355600690925290205461068d908361171d565b6001600160a01b0384811660008181526006602052604090819020939093559151632770a7eb60e21b8152908616600482015260248101849052639dc29fac90604401600060405180830381600087803b1580156106ea57600080fd5b505af11580156106fe573d6000803e3d6000fd5b5050505060006107f9826001600160a01b03166311f37ceb6040518163ffffffff1660e01b815260040160206040518083038186803b15801561074057600080fd5b505afa158015610754573d6000803e3d6000fd5b505050506040513d601f19601f820116820180604052508101906107789190611c12565b6107f3866001600160a01b03166311f37ceb6040518163ffffffff1660e01b815260040160206040518083038186803b1580156107b457600080fd5b505afa1580156107c8573d6000803e3d6000fd5b505050506040513d601f19601f820116820180604052508101906107ec9190611c12565b8690611730565b9061173c565b6001600160a01b0380871660009081526005602090815260408083209387168352929052205490915061082c9082611748565b6001600160a01b03808716600090815260056020908152604080832093871683529281528282209390935560069092529020546108699082611748565b6001600160a01b038381166000818152600660205260409081902093909355915163219e412d60e21b815290871660048201526024810183905263867904b490604401600060405180830381600087803b1580156108c657600080fd5b505af11580156108da573d6000803e3d6000fd5b505050505050505050565b6007546001600160a01b031633146109655760405162461bcd60e51b815260206004820152602d60248201527f54726164696e67506f6f6c3a204f6e6c7920726573657276652063616e20636160448201527f6c6c20656e74657220706f6f6c000000000000000000000000000000000000006064820152608401610521565b6001600160a01b03821660009081526008602052604090205460ff166109cd5760405162461bcd60e51b815260206004820152601860248201527f54726164696e67506f6f6c3a204e6f7420612073796e746800000000000000006044820152606401610521565b6000610a526305f5e1006107f3856001600160a01b03166311f37ceb6040518163ffffffff1660e01b815260040160206040518083038186803b158015610a1357600080fd5b505afa158015610a27573d6000803e3d6000fd5b505050506040513d601f19601f82011682018060405250810190610a4b9190611c12565b8590611730565b9050610a5d60025490565b15610a8357610a80610a6d610df6565b6107f3610a7960025490565b8490611730565b90505b610a8d8482611754565b6001600160a01b03808516600090815260056020908152604080832093871683529290522054610abd9083611748565b6001600160a01b0380861660009081526005602090815260408083209388168352928152828220939093556006909252902054610afa9083611748565b6001600160a01b038481166000818152600660205260409081902093909355915163219e412d60e21b815290861660048201526024810184905263867904b4906044015b600060405180830381600087803b158015610b5857600080fd5b505af1158015610b6c573d6000803e3d6000fd5b5050505050505050565b6007546001600160a01b03163314610bbc5760405162461bcd60e51b81526020600482015260096024820152682737ba1037bbb732b960b91b6044820152606401610521565b60005b8151811015610c2457600060086000848481518110610be057610be0611d56565b6020908102919091018101516001600160a01b03168252810191909152604001600020805460ff191691151591909117905580610c1c81611d25565b915050610bbf565b5050565b6000610c3360025490565b610c3f57506000919050565b610c7b610c4b60025490565b6107f3610c6d856001600160a01b031660009081526020819052604090205490565b610c75610df6565b90611730565b92915050565b6060600480546103a790611cf0565b3360008181526001602090815260408083206001600160a01b038716845290915281205490919083811015610d2d5760405162461bcd60e51b815260206004820152602560248201527f45524332303a2064656372656173656420616c6c6f77616e63652062656c6f7760448201527f207a65726f0000000000000000000000000000000000000000000000000000006064820152608401610521565b61045b828686840361131b565b600033610438818585611506565b6007546001600160a01b03163314610d8e5760405162461bcd60e51b81526020600482015260096024820152682737ba1037bbb732b960b91b6044820152606401610521565b60005b8151811015610c2457600160086000848481518110610db257610db2611d56565b6020908102919091018101516001600160a01b03168252810191909152604001600020805460ff191691151591909117905580610dee81611d25565b915050610d91565b600080805b600760009054906101000a90046001600160a01b03166001600160a01b031663a1a685126040518163ffffffff1660e01b815260040160206040518083038186803b158015610e4957600080fd5b505afa158015610e5d573d6000803e3d6000fd5b505050506040513d601f19601f82011682018060405250810190610e8191906119f9565b6001600160a01b031663b7618d2f6040518163ffffffff1660e01b815260040160206040518083038186803b158015610eb957600080fd5b505afa158015610ecd573d6000803e3d6000fd5b505050506040513d601f19601f82011682018060405250810190610ef19190611c12565b81101561113857600754604080517fa1a6851200000000000000000000000000000000000000000000000000000000815290516000926001600160a01b03169163a1a68512916004808301926020929190829003018186803b158015610f5657600080fd5b505afa158015610f6a573d6000803e3d6000fd5b505050506040513d601f19601f82011682018060405250810190610f8e91906119f9565b6001600160a01b031663ea650a82836040518263ffffffff1660e01b8152600401610fbb91815260200190565b60206040518083038186803b158015610fd357600080fd5b505afa158015610fe7573d6000803e3d6000fd5b505050506040513d601f19601f8201168201806040525081019061100b91906119f9565b6001600160a01b031663115f4fee6040518163ffffffff1660e01b815260040160206040518083038186803b15801561104357600080fd5b505afa158015611057573d6000803e3d6000fd5b505050506040513d601f19601f8201168201806040525081019061107b91906119f9565b90506111186305f5e1006107f3836001600160a01b03166311f37ceb6040518163ffffffff1660e01b815260040160206040518083038186803b1580156110c157600080fd5b505afa1580156110d5573d6000803e3d6000fd5b505050506040513d601f19601f820116820180604052508101906110f99190611c12565b6001600160a01b03851660009081526006602052604090205490611730565b6111229084611c80565b925050808061113090611d25565b915050610dfb565b50919050565b6007546001600160a01b031633146111be5760405162461bcd60e51b815260206004820152602c60248201527f54726164696e67506f6f6c3a204f6e6c7920726573657276652063616e20636160448201527f6c6c206578697420706f6f6c00000000000000000000000000000000000000006064820152608401610521565b600061125a6111cb610df6565b6107f36111d760025490565b610c756305f5e1006107f3896001600160a01b03166311f37ceb6040518163ffffffff1660e01b815260040160206040518083038186803b15801561121b57600080fd5b505afa15801561122f573d6000803e3d6000fd5b505050506040513d601f19601f820116820180604052508101906112539190611c12565b8990611730565b90506112668482611833565b6001600160a01b03808516600090815260056020908152604080832093871683529290522054611296908361171d565b6001600160a01b03808616600090815260056020908152604080832093881683529281528282209390935560069092529020546112d3908361171d565b6001600160a01b0384811660008181526006602052604090819020939093559151632770a7eb60e21b8152908616600482015260248101849052639dc29fac90604401610b3e565b6001600160a01b0383166113965760405162461bcd60e51b8152602060048201526024808201527f45524332303a20617070726f76652066726f6d20746865207a65726f2061646460448201527f72657373000000000000000000000000000000000000000000000000000000006064820152608401610521565b6001600160a01b0382166114125760405162461bcd60e51b815260206004820152602260248201527f45524332303a20617070726f766520746f20746865207a65726f20616464726560448201527f73730000000000000000000000000000000000000000000000000000000000006064820152608401610521565b6001600160a01b0383811660008181526001602090815260408083209487168084529482529182902085905590518481527f8c5be1e5ebec7d5bd14f71427d1e84f3dd0314c0f7b2291e5b200ac8c7c3b92591015b60405180910390a3505050565b6001600160a01b03838116600090815260016020908152604080832093861683529290522054600019811461150057818110156114f35760405162461bcd60e51b815260206004820152601d60248201527f45524332303a20696e73756666696369656e7420616c6c6f77616e63650000006044820152606401610521565b611500848484840361131b565b50505050565b6001600160a01b0383166115825760405162461bcd60e51b815260206004820152602560248201527f45524332303a207472616e736665722066726f6d20746865207a65726f20616460448201527f64726573730000000000000000000000000000000000000000000000000000006064820152608401610521565b6001600160a01b0382166115fe5760405162461bcd60e51b815260206004820152602360248201527f45524332303a207472616e7366657220746f20746865207a65726f206164647260448201527f65737300000000000000000000000000000000000000000000000000000000006064820152608401610521565b6001600160a01b0383166000908152602081905260409020548181101561168d5760405162461bcd60e51b815260206004820152602660248201527f45524332303a207472616e7366657220616d6f756e742065786365656473206260448201527f616c616e636500000000000000000000000000000000000000000000000000006064820152608401610521565b6001600160a01b038085166000908152602081905260408082208585039055918516815290812080548492906116c4908490611c80565b92505081905550826001600160a01b0316846001600160a01b03167fddf252ad1be2c89b69c2b068fc378daa952ba7f163c4a11628f55a4df523b3ef8460405161171091815260200190565b60405180910390a3611500565b60006117298284611cd9565b9392505050565b60006117298284611cba565b60006117298284611c98565b60006117298284611c80565b6001600160a01b0382166117aa5760405162461bcd60e51b815260206004820152601f60248201527f45524332303a206d696e7420746f20746865207a65726f2061646472657373006044820152606401610521565b80600260008282546117bc9190611c80565b90915550506001600160a01b038216600090815260208190526040812080548392906117e9908490611c80565b90915550506040518181526001600160a01b038316906000907fddf252ad1be2c89b69c2b068fc378daa952ba7f163c4a11628f55a4df523b3ef9060200160405180910390a35050565b6001600160a01b0382166118af5760405162461bcd60e51b815260206004820152602160248201527f45524332303a206275726e2066726f6d20746865207a65726f2061646472657360448201527f73000000000000000000000000000000000000000000000000000000000000006064820152608401610521565b6001600160a01b0382166000908152602081905260409020548181101561193e5760405162461bcd60e51b815260206004820152602260248201527f45524332303a206275726e20616d6f756e7420657863656564732062616c616e60448201527f63650000000000000000000000000000000000000000000000000000000000006064820152608401610521565b6001600160a01b038316600090815260208190526040812083830390556002805484929061196d908490611cd9565b90915550506040518281526000906001600160a01b038516907fddf252ad1be2c89b69c2b068fc378daa952ba7f163c4a11628f55a4df523b3ef90602001611467565b600081356119bd81611d82565b6001600160a01b031692915050565b6000602082840312156119de57600080fd5b81356119e981611d82565b6001600160a01b03169392505050565b600060208284031215611a0b57600080fd5b81516119e981611d82565b60008060408385031215611a2957600080fd5b8235611a3481611d82565b6001600160a01b039081169250602084013590611a5082611d82565b92959216935090915050565b600080600060608486031215611a7157600080fd5b8335611a7c81611d82565b6001600160a01b039081169350602085013590611a9882611d82565b93969316945050506040919091013590565b60008060008060808587031215611ac057600080fd5b8435611acb81611d82565b6001600160a01b039081169450602086013590611ae782611d82565b908116935060408601359250606086013590611b0282611d82565b94979396509194505090911690565b60008060408385031215611b2457600080fd5b8235611b2f81611d82565b6001600160a01b0316946020939093013593505050565b60006020808385031215611b5957600080fd5b823567ffffffffffffffff80821115611b7157600080fd5b818501915085601f830112611b8557600080fd5b813581811115611b9757611b97611d6c565b8060051b604051601f19603f83011681018181108582111715611bbc57611bbc611d6c565b604052828152858101935084860182860187018a1015611bdb57600080fd5b600095505b83861015611c0557611bf1816119b0565b855260019590950194938601938601611be0565b5098975050505050505050565b600060208284031215611c2457600080fd5b5051919050565b600060208083528351808285015260005b81811015611c5857858101830151858201604001528201611c3c565b81811115611c6a576000604083870101525b50601f01601f1916929092016040019392505050565b60008219821115611c9357611c93611d40565b500190565b600082611cb557634e487b7160e01b600052601260045260246000fd5b500490565b6000816000190483118215151615611cd457611cd4611d40565b500290565b600082821015611ceb57611ceb611d40565b500390565b600181811c90821680611d0457607f821691505b6020821081141561113857634e487b7160e01b600052602260045260246000fd5b6000600019821415611d3957611d39611d40565b5060010190565b634e487b7160e01b600052601160045260246000fd5b634e487b7160e01b600052603260045260246000fd5b634e487b7160e01b600052604160045260246000fd5b74ffffffffffffffffffffffffffffffffffffffffff81168114611da557600080fd5b5056fea26474726f6e582212208838937f42aff12dd43c9c3ac4c5e0d123e41d6836d096fcb91d80e304ffaf6464736f6c63430008060033",
  "source": "// SPDX-License-Identifier: SEE LICENSE IN LICENSE\npragma solidity ^0.8.6;\n\nimport \"@openzeppelin/contracts/token/ERC20/ERC20.sol\";\nimport \"contracts/interfaces/ISynthERC20.sol\";\nimport \"../interfaces/ISystem.sol\";\nimport \"../interfaces/IPriceOracle.sol\";\nimport \"../interfaces/IReserve.sol\";\nimport \"../interfaces/IDebtManager.sol\";\n\nimport \"@openzeppelin/contracts/utils/math/SafeMath.sol\";\nimport \"hardhat/console.sol\";\n\ncontract TradingPool is ERC20 {\n    using SafeMath for uint;\n\n    // account => dAsset => amount\n    mapping(address => mapping(address => uint)) public debts;\n    mapping(address => uint) public totalDebt;\n\n    ISystem private system;\n    mapping (address => bool) public isSynth;\n\n    constructor(string memory name, string memory symbol) ERC20(name, symbol) {\n        system = ISystem(msg.sender);\n    }\n\n    /* -------------------------------------------------------------------------- */\n    /*                               Admin Functions                              */\n    /* -------------------------------------------------------------------------- */\n    function enableSynth(address[] memory _synths) external {\n        require(msg.sender == address(system), \"Not owner\");\n        for (uint i = 0; i < _synths.length; i++) {\n            isSynth[_synths[i]] = true;\n        }\n    }\n\n    function diableSynth(address[] memory _synths) external {\n        require(msg.sender == address(system), \"Not owner\");\n        for (uint i = 0; i < _synths.length; i++) {\n            isSynth[_synths[i]] = false;\n        }\n    }\n\n    /* -------------------------------------------------------------------------- */\n    /*                              Public Functions                              */\n    /* -------------------------------------------------------------------------- */\n    function increaseDebt(address user, address asset, uint amount) external {\n        require(address(system) == msg.sender, \"TradingPool: Only reserve can call enter pool\");\n        require(isSynth[asset], \"TradingPool: Not a synth\");\n        // mint dept pool shares\n        uint dspAmount = amount.mul(ISynthERC20(asset).get_price()).div(10**8);\n        if(totalSupply() != 0){\n            dspAmount = dspAmount.mul(totalSupply()).div(getTotalDebtUSD());\n        }\n        _mint(user, dspAmount);\n\n        // add debt to user\n        debts[user][asset] = debts[user][asset].add(amount);\n        totalDebt[asset] = totalDebt[asset].add(amount);\n        // issue tokens\n        ISynthERC20(asset).issue(user, amount);\n    }\n\n    function decreaseDebt(address user, address asset, uint amount) external {\n        require(address(system) == msg.sender, \"TradingPool: Only reserve can call exit pool\");\n        // burn dept pool shares\n        uint dspAmount = amount.mul(ISynthERC20(asset).get_price()).div(10**8).mul(totalSupply()).div(getTotalDebtUSD());\n        _burn(user, dspAmount);\n\n        debts[user][asset] = debts[user][asset].sub(amount);\n        totalDebt[asset] = totalDebt[asset].sub(amount);\n        ISynthERC20(asset).burn(user, amount);\n    }\n\n    function exchange(address user, address fromAsset, uint fromAmount, address toAsset) external {\n        require(address(system) == msg.sender, \"TradingPool: Only reserve can call exchange\");\n        require(isSynth[fromAsset], \"TradingPool: fromAsset not a synth\");\n        require(isSynth[toAsset], \"TradingPool: toAsset not a synth\");\n        \n        debts[user][fromAsset] = debts[user][fromAsset].sub(fromAmount);\n        totalDebt[fromAsset] = totalDebt[fromAsset].sub(fromAmount);\n        ISynthERC20(fromAsset).burn(user, fromAmount);\n\n        uint toAmount = fromAmount.mul(ISynthERC20(fromAsset).get_price()).div(ISynthERC20(toAsset).get_price());\n        debts[user][toAsset] = debts[user][toAsset].add(toAmount);\n        totalDebt[toAsset] = totalDebt[toAsset].add(toAmount);\n        ISynthERC20(toAsset).issue(user, toAmount);\n    }\n\n    /* -------------------------------------------------------------------------- */\n    /*                               View Functions                               */\n    /* -------------------------------------------------------------------------- */\n    function getTotalDebtUSD() public view returns(uint){\n        uint total = 0;\n        for(uint i = 0; i < IDebtManager(system.dManager()).dAssetsCount(); i++){\n            ISynthERC20 debtAsset = ISynthERC20(IDebtTracker(IDebtManager(system.dManager()).dAssets(i)).synth());\n            total += totalDebt[address(debtAsset)].mul(debtAsset.get_price()).div(10**8);\n        }\n        return total;\n    }\n\n    function getBorrowBalanceUSD(address account) public view returns (uint) {\n        if(totalSupply() == 0){\n            return 0;\n        }\n        return getTotalDebtUSD().mul(balanceOf(account)).div(totalSupply());\n    }\n}",
  "sourcePath": "/Users/prasad/projects/synthex/contracts/contracts/pool/TradingPool.sol",
  "compiler": {
    "name": "solc",
    "version": "0.8.6+commit.0e36fba0.mod.Emscripten.clang"
  },
  "schemaVersion": "2.0.1",
  "updatedAt": "2022-11-16T08:23:15.829Z"
}