{
  "contractName": "WBTT",
  "abi": [
    {
      "inputs": [],
      "stateMutability": "nonpayable",
      "type": "constructor"
    },
    {
      "anonymous": false,
      "inputs": [
        {
          "indexed": true,
          "internalType": "address",
          "name": "owner",
          "type": "address"
        },
        {
          "indexed": true,
          "internalType": "address",
          "name": "spender",
          "type": "address"
        },
        {
          "indexed": false,
          "internalType": "uint256",
          "name": "value",
          "type": "uint256"
        }
      ],
      "name": "Approval",
      "type": "event"
    },
    {
      "anonymous": false,
      "inputs": [
        {
          "indexed": true,
          "internalType": "address",
          "name": "user",
          "type": "address"
        },
        {
          "indexed": false,
          "internalType": "uint256",
          "name": "amount",
          "type": "uint256"
        }
      ],
      "name": "Claim",
      "type": "event"
    },
    {
      "anonymous": false,
      "inputs": [
        {
          "indexed": true,
          "internalType": "address",
          "name": "from",
          "type": "address"
        },
        {
          "indexed": true,
          "internalType": "address",
          "name": "to",
          "type": "address"
        },
        {
          "indexed": false,
          "internalType": "uint256",
          "name": "value",
          "type": "uint256"
        }
      ],
      "name": "Transfer",
      "type": "event"
    },
    {
      "stateMutability": "nonpayable",
      "type": "fallback"
    },
    {
      "inputs": [
        {
          "internalType": "address",
          "name": "owner",
          "type": "address"
        },
        {
          "internalType": "address",
          "name": "spender",
          "type": "address"
        }
      ],
      "name": "allowance",
      "outputs": [
        {
          "internalType": "uint256",
          "name": "",
          "type": "uint256"
        }
      ],
      "stateMutability": "view",
      "type": "function"
    },
    {
      "inputs": [
        {
          "internalType": "address",
          "name": "spender",
          "type": "address"
        },
        {
          "internalType": "uint256",
          "name": "amount",
          "type": "uint256"
        }
      ],
      "name": "approve",
      "outputs": [
        {
          "internalType": "bool",
          "name": "",
          "type": "bool"
        }
      ],
      "stateMutability": "nonpayable",
      "type": "function"
    },
    {
      "inputs": [
        {
          "internalType": "address",
          "name": "account",
          "type": "address"
        }
      ],
      "name": "balanceOf",
      "outputs": [
        {
          "internalType": "uint256",
          "name": "",
          "type": "uint256"
        }
      ],
      "stateMutability": "view",
      "type": "function"
    },
    {
      "inputs": [],
      "name": "decimals",
      "outputs": [
        {
          "internalType": "uint8",
          "name": "",
          "type": "uint8"
        }
      ],
      "stateMutability": "view",
      "type": "function"
    },
    {
      "inputs": [
        {
          "internalType": "address",
          "name": "spender",
          "type": "address"
        },
        {
          "internalType": "uint256",
          "name": "subtractedValue",
          "type": "uint256"
        }
      ],
      "name": "decreaseAllowance",
      "outputs": [
        {
          "internalType": "bool",
          "name": "",
          "type": "bool"
        }
      ],
      "stateMutability": "nonpayable",
      "type": "function"
    },
    {
      "inputs": [],
      "name": "deposit",
      "outputs": [],
      "stateMutability": "nonpayable",
      "type": "function"
    },
    {
      "inputs": [
        {
          "internalType": "address",
          "name": "spender",
          "type": "address"
        },
        {
          "internalType": "uint256",
          "name": "addedValue",
          "type": "uint256"
        }
      ],
      "name": "increaseAllowance",
      "outputs": [
        {
          "internalType": "bool",
          "name": "",
          "type": "bool"
        }
      ],
      "stateMutability": "nonpayable",
      "type": "function"
    },
    {
      "inputs": [],
      "name": "name",
      "outputs": [
        {
          "internalType": "string",
          "name": "",
          "type": "string"
        }
      ],
      "stateMutability": "view",
      "type": "function"
    },
    {
      "inputs": [],
      "name": "symbol",
      "outputs": [
        {
          "internalType": "string",
          "name": "",
          "type": "string"
        }
      ],
      "stateMutability": "view",
      "type": "function"
    },
    {
      "inputs": [],
      "name": "totalSupply",
      "outputs": [
        {
          "internalType": "uint256",
          "name": "",
          "type": "uint256"
        }
      ],
      "stateMutability": "view",
      "type": "function"
    },
    {
      "inputs": [
        {
          "internalType": "address",
          "name": "to",
          "type": "address"
        },
        {
          "internalType": "uint256",
          "name": "amount",
          "type": "uint256"
        }
      ],
      "name": "transfer",
      "outputs": [
        {
          "internalType": "bool",
          "name": "",
          "type": "bool"
        }
      ],
      "stateMutability": "nonpayable",
      "type": "function"
    },
    {
      "inputs": [
        {
          "internalType": "address",
          "name": "from",
          "type": "address"
        },
        {
          "internalType": "address",
          "name": "to",
          "type": "address"
        },
        {
          "internalType": "uint256",
          "name": "amount",
          "type": "uint256"
        }
      ],
      "name": "transferFrom",
      "outputs": [
        {
          "internalType": "bool",
          "name": "",
          "type": "bool"
        }
      ],
      "stateMutability": "nonpayable",
      "type": "function"
    }
  ],
  "bytecode": "0x60806040523480156200001157600080fd5b50d380156200001f57600080fd5b50d280156200002d57600080fd5b50604080518082018252600b81526a15dc985c1c19590810951560aa1b60208083019182528351808501909452600484526315d0951560e21b9084015281519192916200007d916003916200009c565b508051620000939060049060208401906200009c565b5050506200017f565b828054620000aa9062000142565b90600052602060002090601f016020900481019282620000ce576000855562000119565b82601f10620000e957805160ff191683800117855562000119565b8280016001018555821562000119579182015b8281111562000119578251825591602001919060010190620000fc565b50620001279291506200012b565b5090565b5b808211156200012757600081556001016200012c565b600181811c908216806200015757607f821691505b602082108114156200017957634e487b7160e01b600052602260045260246000fd5b50919050565b610c33806200018f6000396000f3fe608060405234801561001057600080fd5b50d3801561001d57600080fd5b50d2801561002a57600080fd5b50600436106100ee5760003560e01c806370a082311161009b578063a9059cbb11610075578063a9059cbb146101c4578063d0e30db0146100ee578063dd62ed3e146101d7576100ee565b806370a082311461018057806395d89b41146101a9578063a457c2d7146101b1576100ee565b806323b872dd116100cc57806323b872dd1461014b578063313ce5671461015e578063395093511461016d576100ee565b806306fdde03146100f8578063095ea7b31461011657806318160ddd14610139575b6100f6610210565b005b610100610286565b60405161010d9190610a32565b60405180910390f35b610129610124366004610a08565b610318565b604051901515815260200161010d565b6002545b60405190815260200161010d565b6101296101593660046109cc565b610332565b6040516012815260200161010d565b61012961017b366004610a08565b610356565b61013d61018e366004610977565b6001600160a01b031660009081526020819052604090205490565b610100610395565b6101296101bf366004610a08565b6103a4565b6101296101d2366004610a08565b610453565b61013d6101e5366004610999565b6001600160a01b03918216600090815260016020908152604080832093909416825291909152205490565b610235336102206012600a610ae2565b610230906509184e72a000610b8d565b610461565b337f47cee97cb7acd717b3c0aa1435d004cd5b3c8c57d70dbceb4e4458bbd60e39d46102636012600a610ae2565b610273906509184e72a000610b8d565b60405190815260200160405180910390a2565b60606003805461029590610bac565b80601f01602080910402602001604051908101604052809291908181526020018280546102c190610bac565b801561030e5780601f106102e35761010080835404028352916020019161030e565b820191906000526020600020905b8154815290600101906020018083116102f157829003601f168201915b5050505050905090565b600033610326818585610540565b60019150505b92915050565b600033610340858285610698565b61034b85858561072a565b506001949350505050565b3360008181526001602090815260408083206001600160a01b03871684529091528120549091906103269082908690610390908790610a87565b610540565b60606004805461029590610bac565b3360008181526001602090815260408083206001600160a01b0387168452909152812054909190838110156104465760405162461bcd60e51b815260206004820152602560248201527f45524332303a2064656372656173656420616c6c6f77616e63652062656c6f7760448201527f207a65726f00000000000000000000000000000000000000000000000000000060648201526084015b60405180910390fd5b61034b8286868403610540565b60003361032681858561072a565b6001600160a01b0382166104b75760405162461bcd60e51b815260206004820152601f60248201527f45524332303a206d696e7420746f20746865207a65726f206164647265737300604482015260640161043d565b80600260008282546104c99190610a87565b90915550506001600160a01b038216600090815260208190526040812080548392906104f6908490610a87565b90915550506040518181526001600160a01b038316906000907fddf252ad1be2c89b69c2b068fc378daa952ba7f163c4a11628f55a4df523b3ef9060200160405180910390a35050565b6001600160a01b0383166105bb5760405162461bcd60e51b8152602060048201526024808201527f45524332303a20617070726f76652066726f6d20746865207a65726f2061646460448201527f7265737300000000000000000000000000000000000000000000000000000000606482015260840161043d565b6001600160a01b0382166106375760405162461bcd60e51b815260206004820152602260248201527f45524332303a20617070726f766520746f20746865207a65726f20616464726560448201527f7373000000000000000000000000000000000000000000000000000000000000606482015260840161043d565b6001600160a01b0383811660008181526001602090815260408083209487168084529482529182902085905590518481527f8c5be1e5ebec7d5bd14f71427d1e84f3dd0314c0f7b2291e5b200ac8c7c3b925910160405180910390a3505050565b6001600160a01b03838116600090815260016020908152604080832093861683529290522054600019811461072457818110156107175760405162461bcd60e51b815260206004820152601d60248201527f45524332303a20696e73756666696369656e7420616c6c6f77616e6365000000604482015260640161043d565b6107248484848403610540565b50505050565b6001600160a01b0383166107a65760405162461bcd60e51b815260206004820152602560248201527f45524332303a207472616e736665722066726f6d20746865207a65726f20616460448201527f6472657373000000000000000000000000000000000000000000000000000000606482015260840161043d565b6001600160a01b0382166108225760405162461bcd60e51b815260206004820152602360248201527f45524332303a207472616e7366657220746f20746865207a65726f206164647260448201527f6573730000000000000000000000000000000000000000000000000000000000606482015260840161043d565b6001600160a01b038316600090815260208190526040902054818110156108b15760405162461bcd60e51b815260206004820152602660248201527f45524332303a207472616e7366657220616d6f756e742065786365656473206260448201527f616c616e63650000000000000000000000000000000000000000000000000000606482015260840161043d565b6001600160a01b038085166000908152602081905260408082208585039055918516815290812080548492906108e8908490610a87565b92505081905550826001600160a01b0316846001600160a01b03167fddf252ad1be2c89b69c2b068fc378daa952ba7f163c4a11628f55a4df523b3ef8460405161093491815260200190565b60405180910390a3610724565b6000813574ffffffffffffffffffffffffffffffffffffffffff8116811461096857600080fd5b6001600160a01b031692915050565b60006020828403121561098957600080fd5b61099282610941565b9392505050565b600080604083850312156109ac57600080fd5b6109b583610941565b91506109c360208401610941565b90509250929050565b6000806000606084860312156109e157600080fd5b6109ea84610941565b92506109f860208501610941565b9150604084013590509250925092565b60008060408385031215610a1b57600080fd5b610a2483610941565b946020939093013593505050565b600060208083528351808285015260005b81811015610a5f57858101830151858201604001528201610a43565b81811115610a71576000604083870101525b50601f01601f1916929092016040019392505050565b60008219821115610a9a57610a9a610be7565b500190565b600181815b80851115610ada578160001904821115610ac057610ac0610be7565b80851615610acd57918102915b93841c9390800290610aa4565b509250929050565b600061099260ff841683600082610afb5750600161032c565b81610b085750600061032c565b8160018114610b1e5760028114610b2857610b44565b600191505061032c565b60ff841115610b3957610b39610be7565b50506001821b61032c565b5060208310610133831016604e8410600b8410161715610b67575081810a61032c565b610b718383610a9f565b8060001904821115610b8557610b85610be7565b029392505050565b6000816000190483118215151615610ba757610ba7610be7565b500290565b600181811c90821680610bc057607f821691505b60208210811415610be157634e487b7160e01b600052602260045260246000fd5b50919050565b634e487b7160e01b600052601160045260246000fdfea26474726f6e58221220ba5058b5237955041c768fdc468a44e267556f83f31006de01c29f1f9f0f816264736f6c63430008060033",
  "source": "// SPDX-License-Identifier: MIT\npragma solidity ^0.8.6;\n\nimport \"@openzeppelin/contracts/token/ERC20/ERC20.sol\";\n\ncontract WBTT is ERC20 {\n    event Claim(address indexed user, uint amount);\n\n    constructor() ERC20(\"Wrapped BTT\", \"WBTT\") {}\n\n    fallback() external { \n        deposit();\n    }\n    \n    function deposit() public {\n        _mint(msg.sender, 100000*1e8*10**decimals());\n        emit Claim(msg.sender, 100000*1e8*10**decimals());\n    }\n}",
  "sourcePath": "/Users/prasad/projects/synthex/contracts/contracts/mock/WBTT.sol",
  "compiler": {
    "name": "solc",
    "version": "0.8.6+commit.0e36fba0.mod.Emscripten.clang"
  },
  "schemaVersion": "2.0.1",
  "updatedAt": "2022-11-16T08:23:15.787Z"
}