{
  "contractName": "WETH",
  "abi": [
    {
      "inputs": [],
      "stateMutability": "nonpayable",
      "type": "constructor"
    },
    {
      "anonymous": false,
      "inputs": [
        {
          "indexed": true,
          "internalType": "address",
          "name": "owner",
          "type": "address"
        },
        {
          "indexed": true,
          "internalType": "address",
          "name": "spender",
          "type": "address"
        },
        {
          "indexed": false,
          "internalType": "uint256",
          "name": "value",
          "type": "uint256"
        }
      ],
      "name": "Approval",
      "type": "event"
    },
    {
      "anonymous": false,
      "inputs": [
        {
          "indexed": true,
          "internalType": "address",
          "name": "user",
          "type": "address"
        },
        {
          "indexed": false,
          "internalType": "uint256",
          "name": "amount",
          "type": "uint256"
        }
      ],
      "name": "Claim",
      "type": "event"
    },
    {
      "anonymous": false,
      "inputs": [
        {
          "indexed": true,
          "internalType": "address",
          "name": "from",
          "type": "address"
        },
        {
          "indexed": true,
          "internalType": "address",
          "name": "to",
          "type": "address"
        },
        {
          "indexed": false,
          "internalType": "uint256",
          "name": "value",
          "type": "uint256"
        }
      ],
      "name": "Transfer",
      "type": "event"
    },
    {
      "stateMutability": "nonpayable",
      "type": "fallback"
    },
    {
      "inputs": [
        {
          "internalType": "address",
          "name": "owner",
          "type": "address"
        },
        {
          "internalType": "address",
          "name": "spender",
          "type": "address"
        }
      ],
      "name": "allowance",
      "outputs": [
        {
          "internalType": "uint256",
          "name": "",
          "type": "uint256"
        }
      ],
      "stateMutability": "view",
      "type": "function"
    },
    {
      "inputs": [
        {
          "internalType": "address",
          "name": "spender",
          "type": "address"
        },
        {
          "internalType": "uint256",
          "name": "amount",
          "type": "uint256"
        }
      ],
      "name": "approve",
      "outputs": [
        {
          "internalType": "bool",
          "name": "",
          "type": "bool"
        }
      ],
      "stateMutability": "nonpayable",
      "type": "function"
    },
    {
      "inputs": [
        {
          "internalType": "address",
          "name": "account",
          "type": "address"
        }
      ],
      "name": "balanceOf",
      "outputs": [
        {
          "internalType": "uint256",
          "name": "",
          "type": "uint256"
        }
      ],
      "stateMutability": "view",
      "type": "function"
    },
    {
      "inputs": [],
      "name": "decimals",
      "outputs": [
        {
          "internalType": "uint8",
          "name": "",
          "type": "uint8"
        }
      ],
      "stateMutability": "view",
      "type": "function"
    },
    {
      "inputs": [
        {
          "internalType": "address",
          "name": "spender",
          "type": "address"
        },
        {
          "internalType": "uint256",
          "name": "subtractedValue",
          "type": "uint256"
        }
      ],
      "name": "decreaseAllowance",
      "outputs": [
        {
          "internalType": "bool",
          "name": "",
          "type": "bool"
        }
      ],
      "stateMutability": "nonpayable",
      "type": "function"
    },
    {
      "inputs": [],
      "name": "deposit",
      "outputs": [],
      "stateMutability": "nonpayable",
      "type": "function"
    },
    {
      "inputs": [
        {
          "internalType": "address",
          "name": "spender",
          "type": "address"
        },
        {
          "internalType": "uint256",
          "name": "addedValue",
          "type": "uint256"
        }
      ],
      "name": "increaseAllowance",
      "outputs": [
        {
          "internalType": "bool",
          "name": "",
          "type": "bool"
        }
      ],
      "stateMutability": "nonpayable",
      "type": "function"
    },
    {
      "inputs": [],
      "name": "name",
      "outputs": [
        {
          "internalType": "string",
          "name": "",
          "type": "string"
        }
      ],
      "stateMutability": "view",
      "type": "function"
    },
    {
      "inputs": [],
      "name": "symbol",
      "outputs": [
        {
          "internalType": "string",
          "name": "",
          "type": "string"
        }
      ],
      "stateMutability": "view",
      "type": "function"
    },
    {
      "inputs": [],
      "name": "totalSupply",
      "outputs": [
        {
          "internalType": "uint256",
          "name": "",
          "type": "uint256"
        }
      ],
      "stateMutability": "view",
      "type": "function"
    },
    {
      "inputs": [
        {
          "internalType": "address",
          "name": "to",
          "type": "address"
        },
        {
          "internalType": "uint256",
          "name": "amount",
          "type": "uint256"
        }
      ],
      "name": "transfer",
      "outputs": [
        {
          "internalType": "bool",
          "name": "",
          "type": "bool"
        }
      ],
      "stateMutability": "nonpayable",
      "type": "function"
    },
    {
      "inputs": [
        {
          "internalType": "address",
          "name": "from",
          "type": "address"
        },
        {
          "internalType": "address",
          "name": "to",
          "type": "address"
        },
        {
          "internalType": "uint256",
          "name": "amount",
          "type": "uint256"
        }
      ],
      "name": "transferFrom",
      "outputs": [
        {
          "internalType": "bool",
          "name": "",
          "type": "bool"
        }
      ],
      "stateMutability": "nonpayable",
      "type": "function"
    }
  ],
  "bytecode": "0x60806040523480156200001157600080fd5b50d380156200001f57600080fd5b50d280156200002d57600080fd5b506040518060400160405280600b81526020016a0aee4c2e0e0cac8408aa8960ab1b8152506040518060400160405280600381526020016208aa8960eb1b815250816003908051906020019062000086929190620000a5565b5080516200009c906004906020840190620000a5565b50505062000188565b828054620000b3906200014b565b90600052602060002090601f016020900481019282620000d7576000855562000122565b82601f10620000f257805160ff191683800117855562000122565b8280016001018555821562000122579182015b828111156200012257825182559160200191906001019062000105565b506200013092915062000134565b5090565b5b8082111562000130576000815560010162000135565b600181811c908216806200016057607f821691505b602082108114156200018257634e487b7160e01b600052602260045260246000fd5b50919050565b610c2980620001986000396000f3fe608060405234801561001057600080fd5b50d3801561001d57600080fd5b50d2801561002a57600080fd5b50600436106100ee5760003560e01c806370a082311161009b578063a9059cbb11610075578063a9059cbb146101c4578063d0e30db0146100ee578063dd62ed3e146101d7576100ee565b806370a082311461018057806395d89b41146101a9578063a457c2d7146101b1576100ee565b806323b872dd116100cc57806323b872dd1461014b578063313ce5671461015e578063395093511461016d576100ee565b806306fdde03146100f8578063095ea7b31461011657806318160ddd14610139575b6100f6610210565b005b61010061027c565b60405161010d9190610a28565b60405180910390f35b6101296101243660046109fe565b61030e565b604051901515815260200161010d565b6002545b60405190815260200161010d565b6101296101593660046109c2565b610328565b6040516012815260200161010d565b61012961017b3660046109fe565b61034c565b61013d61018e36600461096d565b6001600160a01b031660009081526020819052604090205490565b61010061038b565b6101296101bf3660046109fe565b61039a565b6101296101d23660046109fe565b610449565b61013d6101e536600461098f565b6001600160a01b03918216600090815260016020908152604080832093909416825291909152205490565b610230336102206012600a610ad8565b61022b90600a610b83565b610457565b337f47cee97cb7acd717b3c0aa1435d004cd5b3c8c57d70dbceb4e4458bbd60e39d461025e6012600a610ad8565b61026990600a610b83565b60405190815260200160405180910390a2565b60606003805461028b90610ba2565b80601f01602080910402602001604051908101604052809291908181526020018280546102b790610ba2565b80156103045780601f106102d957610100808354040283529160200191610304565b820191906000526020600020905b8154815290600101906020018083116102e757829003601f168201915b5050505050905090565b60003361031c818585610536565b60019150505b92915050565b60003361033685828561068e565b610341858585610720565b506001949350505050565b3360008181526001602090815260408083206001600160a01b038716845290915281205490919061031c9082908690610386908790610a7d565b610536565b60606004805461028b90610ba2565b3360008181526001602090815260408083206001600160a01b03871684529091528120549091908381101561043c5760405162461bcd60e51b815260206004820152602560248201527f45524332303a2064656372656173656420616c6c6f77616e63652062656c6f7760448201527f207a65726f00000000000000000000000000000000000000000000000000000060648201526084015b60405180910390fd5b6103418286868403610536565b60003361031c818585610720565b6001600160a01b0382166104ad5760405162461bcd60e51b815260206004820152601f60248201527f45524332303a206d696e7420746f20746865207a65726f2061646472657373006044820152606401610433565b80600260008282546104bf9190610a7d565b90915550506001600160a01b038216600090815260208190526040812080548392906104ec908490610a7d565b90915550506040518181526001600160a01b038316906000907fddf252ad1be2c89b69c2b068fc378daa952ba7f163c4a11628f55a4df523b3ef9060200160405180910390a35050565b6001600160a01b0383166105b15760405162461bcd60e51b8152602060048201526024808201527f45524332303a20617070726f76652066726f6d20746865207a65726f2061646460448201527f72657373000000000000000000000000000000000000000000000000000000006064820152608401610433565b6001600160a01b03821661062d5760405162461bcd60e51b815260206004820152602260248201527f45524332303a20617070726f766520746f20746865207a65726f20616464726560448201527f73730000000000000000000000000000000000000000000000000000000000006064820152608401610433565b6001600160a01b0383811660008181526001602090815260408083209487168084529482529182902085905590518481527f8c5be1e5ebec7d5bd14f71427d1e84f3dd0314c0f7b2291e5b200ac8c7c3b925910160405180910390a3505050565b6001600160a01b03838116600090815260016020908152604080832093861683529290522054600019811461071a578181101561070d5760405162461bcd60e51b815260206004820152601d60248201527f45524332303a20696e73756666696369656e7420616c6c6f77616e63650000006044820152606401610433565b61071a8484848403610536565b50505050565b6001600160a01b03831661079c5760405162461bcd60e51b815260206004820152602560248201527f45524332303a207472616e736665722066726f6d20746865207a65726f20616460448201527f64726573730000000000000000000000000000000000000000000000000000006064820152608401610433565b6001600160a01b0382166108185760405162461bcd60e51b815260206004820152602360248201527f45524332303a207472616e7366657220746f20746865207a65726f206164647260448201527f65737300000000000000000000000000000000000000000000000000000000006064820152608401610433565b6001600160a01b038316600090815260208190526040902054818110156108a75760405162461bcd60e51b815260206004820152602660248201527f45524332303a207472616e7366657220616d6f756e742065786365656473206260448201527f616c616e636500000000000000000000000000000000000000000000000000006064820152608401610433565b6001600160a01b038085166000908152602081905260408082208585039055918516815290812080548492906108de908490610a7d565b92505081905550826001600160a01b0316846001600160a01b03167fddf252ad1be2c89b69c2b068fc378daa952ba7f163c4a11628f55a4df523b3ef8460405161092a91815260200190565b60405180910390a361071a565b6000813574ffffffffffffffffffffffffffffffffffffffffff8116811461095e57600080fd5b6001600160a01b031692915050565b60006020828403121561097f57600080fd5b61098882610937565b9392505050565b600080604083850312156109a257600080fd5b6109ab83610937565b91506109b960208401610937565b90509250929050565b6000806000606084860312156109d757600080fd5b6109e084610937565b92506109ee60208501610937565b9150604084013590509250925092565b60008060408385031215610a1157600080fd5b610a1a83610937565b946020939093013593505050565b600060208083528351808285015260005b81811015610a5557858101830151858201604001528201610a39565b81811115610a67576000604083870101525b50601f01601f1916929092016040019392505050565b60008219821115610a9057610a90610bdd565b500190565b600181815b80851115610ad0578160001904821115610ab657610ab6610bdd565b80851615610ac357918102915b93841c9390800290610a9a565b509250929050565b600061098860ff841683600082610af157506001610322565b81610afe57506000610322565b8160018114610b145760028114610b1e57610b3a565b6001915050610322565b60ff841115610b2f57610b2f610bdd565b50506001821b610322565b5060208310610133831016604e8410600b8410161715610b5d575081810a610322565b610b678383610a95565b8060001904821115610b7b57610b7b610bdd565b029392505050565b6000816000190483118215151615610b9d57610b9d610bdd565b500290565b600181811c90821680610bb657607f821691505b60208210811415610bd757634e487b7160e01b600052602260045260246000fd5b50919050565b634e487b7160e01b600052601160045260246000fdfea26474726f6e5822122050f9dc85744d8ccf2fad19c9b6788daf270698ae8b14a4e1e9b6f3678c06faca64736f6c63430008060033",
  "source": "// SPDX-License-Identifier: MIT\npragma solidity ^0.8.6;\n\nimport \"@openzeppelin/contracts/token/ERC20/ERC20.sol\";\n\ncontract WETH is ERC20 {\n    event Claim(address indexed user, uint amount);\n\n    constructor() ERC20(\"Wrapped ETH\", \"ETH\") {}\n\n    fallback() external { \n        deposit();\n    }\n    \n    function deposit() public {\n        _mint(msg.sender, 10*10**decimals());\n        emit Claim(msg.sender, 10*10**decimals());\n    }\n}",
  "sourcePath": "/Users/prasad/projects/synthex/contracts/contracts/mock/WETH.sol",
  "compiler": {
    "name": "solc",
    "version": "0.8.6+commit.0e36fba0.mod.Emscripten.clang"
  },
  "schemaVersion": "2.0.1",
  "updatedAt": "2022-10-13T12:29:11.723Z"
}