{
  "contractName": "WETH",
  "abi": [
    {
      "inputs": [
        {
          "internalType": "string",
          "name": "name",
          "type": "string"
        },
        {
          "internalType": "string",
          "name": "symbol",
          "type": "string"
        }
      ],
      "stateMutability": "nonpayable",
      "type": "constructor"
    },
    {
      "anonymous": false,
      "inputs": [
        {
          "indexed": true,
          "internalType": "address",
          "name": "owner",
          "type": "address"
        },
        {
          "indexed": true,
          "internalType": "address",
          "name": "spender",
          "type": "address"
        },
        {
          "indexed": false,
          "internalType": "uint256",
          "name": "value",
          "type": "uint256"
        }
      ],
      "name": "Approval",
      "type": "event"
    },
    {
      "anonymous": false,
      "inputs": [
        {
          "indexed": true,
          "internalType": "address",
          "name": "user",
          "type": "address"
        },
        {
          "indexed": false,
          "internalType": "uint256",
          "name": "amount",
          "type": "uint256"
        }
      ],
      "name": "Claim",
      "type": "event"
    },
    {
      "anonymous": false,
      "inputs": [
        {
          "indexed": true,
          "internalType": "address",
          "name": "from",
          "type": "address"
        },
        {
          "indexed": true,
          "internalType": "address",
          "name": "to",
          "type": "address"
        },
        {
          "indexed": false,
          "internalType": "uint256",
          "name": "value",
          "type": "uint256"
        }
      ],
      "name": "Transfer",
      "type": "event"
    },
    {
      "stateMutability": "nonpayable",
      "type": "fallback"
    },
    {
      "inputs": [
        {
          "internalType": "address",
          "name": "owner",
          "type": "address"
        },
        {
          "internalType": "address",
          "name": "spender",
          "type": "address"
        }
      ],
      "name": "allowance",
      "outputs": [
        {
          "internalType": "uint256",
          "name": "",
          "type": "uint256"
        }
      ],
      "stateMutability": "view",
      "type": "function"
    },
    {
      "inputs": [
        {
          "internalType": "address",
          "name": "spender",
          "type": "address"
        },
        {
          "internalType": "uint256",
          "name": "amount",
          "type": "uint256"
        }
      ],
      "name": "approve",
      "outputs": [
        {
          "internalType": "bool",
          "name": "",
          "type": "bool"
        }
      ],
      "stateMutability": "nonpayable",
      "type": "function"
    },
    {
      "inputs": [
        {
          "internalType": "address",
          "name": "account",
          "type": "address"
        }
      ],
      "name": "balanceOf",
      "outputs": [
        {
          "internalType": "uint256",
          "name": "",
          "type": "uint256"
        }
      ],
      "stateMutability": "view",
      "type": "function"
    },
    {
      "inputs": [],
      "name": "decimals",
      "outputs": [
        {
          "internalType": "uint8",
          "name": "",
          "type": "uint8"
        }
      ],
      "stateMutability": "view",
      "type": "function"
    },
    {
      "inputs": [
        {
          "internalType": "address",
          "name": "spender",
          "type": "address"
        },
        {
          "internalType": "uint256",
          "name": "subtractedValue",
          "type": "uint256"
        }
      ],
      "name": "decreaseAllowance",
      "outputs": [
        {
          "internalType": "bool",
          "name": "",
          "type": "bool"
        }
      ],
      "stateMutability": "nonpayable",
      "type": "function"
    },
    {
      "inputs": [
        {
          "internalType": "uint256",
          "name": "amount",
          "type": "uint256"
        }
      ],
      "name": "deposit",
      "outputs": [],
      "stateMutability": "nonpayable",
      "type": "function"
    },
    {
      "inputs": [
        {
          "internalType": "address",
          "name": "spender",
          "type": "address"
        },
        {
          "internalType": "uint256",
          "name": "addedValue",
          "type": "uint256"
        }
      ],
      "name": "increaseAllowance",
      "outputs": [
        {
          "internalType": "bool",
          "name": "",
          "type": "bool"
        }
      ],
      "stateMutability": "nonpayable",
      "type": "function"
    },
    {
      "inputs": [],
      "name": "name",
      "outputs": [
        {
          "internalType": "string",
          "name": "",
          "type": "string"
        }
      ],
      "stateMutability": "view",
      "type": "function"
    },
    {
      "inputs": [],
      "name": "symbol",
      "outputs": [
        {
          "internalType": "string",
          "name": "",
          "type": "string"
        }
      ],
      "stateMutability": "view",
      "type": "function"
    },
    {
      "inputs": [],
      "name": "totalSupply",
      "outputs": [
        {
          "internalType": "uint256",
          "name": "",
          "type": "uint256"
        }
      ],
      "stateMutability": "view",
      "type": "function"
    },
    {
      "inputs": [
        {
          "internalType": "address",
          "name": "to",
          "type": "address"
        },
        {
          "internalType": "uint256",
          "name": "amount",
          "type": "uint256"
        }
      ],
      "name": "transfer",
      "outputs": [
        {
          "internalType": "bool",
          "name": "",
          "type": "bool"
        }
      ],
      "stateMutability": "nonpayable",
      "type": "function"
    },
    {
      "inputs": [
        {
          "internalType": "address",
          "name": "from",
          "type": "address"
        },
        {
          "internalType": "address",
          "name": "to",
          "type": "address"
        },
        {
          "internalType": "uint256",
          "name": "amount",
          "type": "uint256"
        }
      ],
      "name": "transferFrom",
      "outputs": [
        {
          "internalType": "bool",
          "name": "",
          "type": "bool"
        }
      ],
      "stateMutability": "nonpayable",
      "type": "function"
    }
  ],
  "bytecode": "0x60806040523480156200001157600080fd5b50d380156200001f57600080fd5b50d280156200002d57600080fd5b5060405162000f0a38038062000f0a8339810160408190526200005091620001e7565b815182908290620000699060039060208501906200008a565b5080516200007f9060049060208401906200008a565b5050505050620002a4565b828054620000989062000251565b90600052602060002090601f016020900481019282620000bc576000855562000107565b82601f10620000d757805160ff191683800117855562000107565b8280016001018555821562000107579182015b8281111562000107578251825591602001919060010190620000ea565b506200011592915062000119565b5090565b5b808211156200011557600081556001016200011a565b600082601f8301126200014257600080fd5b81516001600160401b03808211156200015f576200015f6200028e565b604051601f8301601f19908116603f011681019082821181831017156200018a576200018a6200028e565b81604052838152602092508683858801011115620001a757600080fd5b600091505b83821015620001cb5785820183015181830184015290820190620001ac565b83821115620001dd5760008385830101525b9695505050505050565b60008060408385031215620001fb57600080fd5b82516001600160401b03808211156200021357600080fd5b620002218683870162000130565b935060208501519150808211156200023857600080fd5b50620002478582860162000130565b9150509250929050565b600181811c908216806200026657607f821691505b602082108114156200028857634e487b7160e01b600052602260045260246000fd5b50919050565b634e487b7160e01b600052604160045260246000fd5b610c5680620002b46000396000f3fe608060405234801561001057600080fd5b50d3801561001d57600080fd5b50d2801561002a57600080fd5b50600436106100ee5760003560e01c806370a082311161009b578063a9059cbb11610075578063a9059cbb146101c6578063b6b55f25146101d9578063dd62ed3e146101ec576100ee565b806370a082311461018257806395d89b41146101ab578063a457c2d7146101b3576100ee565b806323b872dd116100cc57806323b872dd1461014d578063313ce56714610160578063395093511461016f576100ee565b806306fdde03146100fa578063095ea7b31461011857806318160ddd1461013b575b6100f8600a610225565b005b610102610290565b60405161010f9190610a55565b60405180910390f35b61012b610126366004610a12565b610322565b604051901515815260200161010f565b6002545b60405190815260200161010f565b61012b61015b3660046109d6565b61033c565b6040516012815260200161010f565b61012b61017d366004610a12565b610360565b61013f610190366004610981565b6001600160a01b031660009081526020819052604090205490565b61010261039f565b61012b6101c1366004610a12565b6103ae565b61012b6101d4366004610a12565b61045d565b6100f86101e7366004610a3c565b610225565b61013f6101fa3660046109a3565b6001600160a01b03918216600090815260016020908152604080832093909416825291909152205490565b610244336102356012600a610b05565b61023f9084610bb0565b61046b565b337f47cee97cb7acd717b3c0aa1435d004cd5b3c8c57d70dbceb4e4458bbd60e39d46102726012600a610b05565b61027c9084610bb0565b60405190815260200160405180910390a250565b60606003805461029f90610bcf565b80601f01602080910402602001604051908101604052809291908181526020018280546102cb90610bcf565b80156103185780601f106102ed57610100808354040283529160200191610318565b820191906000526020600020905b8154815290600101906020018083116102fb57829003601f168201915b5050505050905090565b60003361033081858561054a565b60019150505b92915050565b60003361034a8582856106a2565b610355858585610734565b506001949350505050565b3360008181526001602090815260408083206001600160a01b0387168452909152812054909190610330908290869061039a908790610aaa565b61054a565b60606004805461029f90610bcf565b3360008181526001602090815260408083206001600160a01b0387168452909152812054909190838110156104505760405162461bcd60e51b815260206004820152602560248201527f45524332303a2064656372656173656420616c6c6f77616e63652062656c6f7760448201527f207a65726f00000000000000000000000000000000000000000000000000000060648201526084015b60405180910390fd5b610355828686840361054a565b600033610330818585610734565b6001600160a01b0382166104c15760405162461bcd60e51b815260206004820152601f60248201527f45524332303a206d696e7420746f20746865207a65726f2061646472657373006044820152606401610447565b80600260008282546104d39190610aaa565b90915550506001600160a01b03821660009081526020819052604081208054839290610500908490610aaa565b90915550506040518181526001600160a01b038316906000907fddf252ad1be2c89b69c2b068fc378daa952ba7f163c4a11628f55a4df523b3ef9060200160405180910390a35050565b6001600160a01b0383166105c55760405162461bcd60e51b8152602060048201526024808201527f45524332303a20617070726f76652066726f6d20746865207a65726f2061646460448201527f72657373000000000000000000000000000000000000000000000000000000006064820152608401610447565b6001600160a01b0382166106415760405162461bcd60e51b815260206004820152602260248201527f45524332303a20617070726f766520746f20746865207a65726f20616464726560448201527f73730000000000000000000000000000000000000000000000000000000000006064820152608401610447565b6001600160a01b0383811660008181526001602090815260408083209487168084529482529182902085905590518481527f8c5be1e5ebec7d5bd14f71427d1e84f3dd0314c0f7b2291e5b200ac8c7c3b925910160405180910390a3505050565b6001600160a01b03838116600090815260016020908152604080832093861683529290522054600019811461072e57818110156107215760405162461bcd60e51b815260206004820152601d60248201527f45524332303a20696e73756666696369656e7420616c6c6f77616e63650000006044820152606401610447565b61072e848484840361054a565b50505050565b6001600160a01b0383166107b05760405162461bcd60e51b815260206004820152602560248201527f45524332303a207472616e736665722066726f6d20746865207a65726f20616460448201527f64726573730000000000000000000000000000000000000000000000000000006064820152608401610447565b6001600160a01b03821661082c5760405162461bcd60e51b815260206004820152602360248201527f45524332303a207472616e7366657220746f20746865207a65726f206164647260448201527f65737300000000000000000000000000000000000000000000000000000000006064820152608401610447565b6001600160a01b038316600090815260208190526040902054818110156108bb5760405162461bcd60e51b815260206004820152602660248201527f45524332303a207472616e7366657220616d6f756e742065786365656473206260448201527f616c616e636500000000000000000000000000000000000000000000000000006064820152608401610447565b6001600160a01b038085166000908152602081905260408082208585039055918516815290812080548492906108f2908490610aaa565b92505081905550826001600160a01b0316846001600160a01b03167fddf252ad1be2c89b69c2b068fc378daa952ba7f163c4a11628f55a4df523b3ef8460405161093e91815260200190565b60405180910390a361072e565b6000813574ffffffffffffffffffffffffffffffffffffffffff8116811461097257600080fd5b6001600160a01b031692915050565b60006020828403121561099357600080fd5b61099c8261094b565b9392505050565b600080604083850312156109b657600080fd5b6109bf8361094b565b91506109cd6020840161094b565b90509250929050565b6000806000606084860312156109eb57600080fd5b6109f48461094b565b9250610a026020850161094b565b9150604084013590509250925092565b60008060408385031215610a2557600080fd5b610a2e8361094b565b946020939093013593505050565b600060208284031215610a4e57600080fd5b5035919050565b600060208083528351808285015260005b81811015610a8257858101830151858201604001528201610a66565b81811115610a94576000604083870101525b50601f01601f1916929092016040019392505050565b60008219821115610abd57610abd610c0a565b500190565b600181815b80851115610afd578160001904821115610ae357610ae3610c0a565b80851615610af057918102915b93841c9390800290610ac7565b509250929050565b600061099c60ff841683600082610b1e57506001610336565b81610b2b57506000610336565b8160018114610b415760028114610b4b57610b67565b6001915050610336565b60ff841115610b5c57610b5c610c0a565b50506001821b610336565b5060208310610133831016604e8410600b8410161715610b8a575081810a610336565b610b948383610ac2565b8060001904821115610ba857610ba8610c0a565b029392505050565b6000816000190483118215151615610bca57610bca610c0a565b500290565b600181811c90821680610be357607f821691505b60208210811415610c0457634e487b7160e01b600052602260045260246000fd5b50919050565b634e487b7160e01b600052601160045260246000fdfea26474726f6e5822122016622f36f662aa003018f91bbc12f8d6aedcfb82dd18a7ccf534c9c06e538e5f64736f6c63430008060033",
  "source": "// SPDX-License-Identifier: MIT\npragma solidity ^0.8.6;\n\nimport \"@openzeppelin/contracts/token/ERC20/ERC20.sol\";\n\ncontract WETH is ERC20 {\n    event Claim(address indexed user, uint amount);\n\n    constructor(string memory name, string memory symbol) ERC20(name, symbol) {}\n\n    fallback() external { \n        deposit(10);\n    }\n    \n    function deposit(uint amount) public {\n        _mint(msg.sender, amount*10**decimals());\n        emit Claim(msg.sender, amount*10**decimals());\n    }\n}",
  "sourcePath": "/Users/prasad/projects/synthex/contracts/contracts/mock/WETH.sol",
  "compiler": {
    "name": "solc",
    "version": "0.8.6+commit.0e36fba0.mod.Emscripten.clang"
  },
  "schemaVersion": "2.0.1",
  "updatedAt": "2022-11-18T14:36:22.573Z"
}